{
	"contracts/2_variables_modifiers.sol": {
		"variables_modifiers": {
			"abi": [
				{
					"inputs": [],
					"name": "addres1",
					"outputs": [
						{
							"internalType": "address",
							"name": "",
							"type": "address"
						}
					],
					"stateMutability": "view",
					"type": "function"
				},
				{
					"inputs": [],
					"name": "b",
					"outputs": [
						{
							"internalType": "uint8",
							"name": "",
							"type": "uint8"
						}
					],
					"stateMutability": "view",
					"type": "function"
				},
				{
					"inputs": [],
					"name": "boolean_true",
					"outputs": [
						{
							"internalType": "bool",
							"name": "",
							"type": "bool"
						}
					],
					"stateMutability": "view",
					"type": "function"
				},
				{
					"inputs": [],
					"name": "d",
					"outputs": [
						{
							"internalType": "int8",
							"name": "",
							"type": "int8"
						}
					],
					"stateMutability": "view",
					"type": "function"
				},
				{
					"inputs": [],
					"name": "hashing",
					"outputs": [
						{
							"internalType": "bytes32",
							"name": "",
							"type": "bytes32"
						}
					],
					"stateMutability": "view",
					"type": "function"
				},
				{
					"inputs": [],
					"name": "my_address",
					"outputs": [
						{
							"internalType": "address",
							"name": "",
							"type": "address"
						}
					],
					"stateMutability": "view",
					"type": "function"
				},
				{
					"inputs": [],
					"name": "second_byte",
					"outputs": [
						{
							"internalType": "bytes4",
							"name": "",
							"type": "bytes4"
						}
					],
					"stateMutability": "view",
					"type": "function"
				},
				{
					"inputs": [],
					"name": "str_privado",
					"outputs": [
						{
							"internalType": "string",
							"name": "",
							"type": "string"
						}
					],
					"stateMutability": "view",
					"type": "function"
				},
				{
					"inputs": [],
					"name": "str_public",
					"outputs": [
						{
							"internalType": "string",
							"name": "",
							"type": "string"
						}
					],
					"stateMutability": "view",
					"type": "function"
				}
			],
			"devdoc": {
				"kind": "dev",
				"methods": {},
				"version": 1
			},
			"evm": {
				"assembly": "    /* \"contracts/2_variables_modifiers.sol\":66:847  contract variables_modifiers{\r... */\n  mstore(0x40, 0x80)\n    /* \"contracts/2_variables_modifiers.sol\":175:176  3 */\n  0x03\n    /* \"contracts/2_variables_modifiers.sol\":160:176  uint8 public b=3 */\n  0x01\n  exp(0x0100, 0x00)\n  dup2\n  sload\n  dup2\n  0xff\n  mul\n  not\n  and\n  swap1\n  dup4\n  0xff\n  and\n  mul\n  or\n  swap1\n  sstore\n  pop\n    /* \"contracts/2_variables_modifiers.sol\":241:244  -10 */\n  0xfffffffffffffffffffffffffffffffffffffffffffffffffffffffffffffff6\n    /* \"contracts/2_variables_modifiers.sol\":225:244  int8 public d = -10 */\n  0x03\n  exp(0x0100, 0x00)\n  dup2\n  sload\n  dup2\n  0xff\n  mul\n  not\n  and\n  swap1\n  dup4\n  0x00\n  signextend\n  0xff\n  and\n  mul\n  or\n  swap1\n  sstore\n  pop\n    /* \"contracts/2_variables_modifiers.sol\":259:261  65 */\n  0x41\n    /* \"contracts/2_variables_modifiers.sol\":251:261  int e = 65 */\n  0x04\n  sstore\n    /* \"contracts/2_variables_modifiers.sol\":311:355  string public str_public = \"Esto es publico\" */\n  mload(0x40)\n  dup1\n  0x40\n  add\n  0x40\n  mstore\n  dup1\n  0x0f\n  dup2\n  mstore\n  0x20\n  add\n  0x4573746f206573207075626c69636f0000000000000000000000000000000000\n  dup2\n  mstore\n  pop\n  0x06\n  swap1\n  dup1\n  mload\n  swap1\n  0x20\n  add\n  swap1\n  tag_1\n  swap3\n  swap2\n  swap1\n  tag_2\n  jump\t// in\ntag_1:\n  pop\n    /* \"contracts/2_variables_modifiers.sol\":362:407  string public str_privado = \"Esto es privado\" */\n  mload(0x40)\n  dup1\n  0x40\n  add\n  0x40\n  mstore\n  dup1\n  0x0f\n  dup2\n  mstore\n  0x20\n  add\n  0x4573746f206573207072697661646f0000000000000000000000000000000000\n  dup2\n  mstore\n  pop\n  0x07\n  swap1\n  dup1\n  mload\n  swap1\n  0x20\n  add\n  swap1\n  tag_3\n  swap3\n  swap2\n  swap1\n  tag_2\n  jump\t// in\ntag_3:\n  pop\n    /* \"contracts/2_variables_modifiers.sol\":487:491  true */\n  0x01\n    /* \"contracts/2_variables_modifiers.sol\":460:491  bool public boolean_true = true */\n  0x08\n  exp(0x0100, 0x01)\n  dup2\n  sload\n  dup2\n  0xff\n  mul\n  not\n  and\n  swap1\n  dup4\n  iszero\n  iszero\n  mul\n  or\n  swap1\n  sstore\n  pop\n    /* \"contracts/2_variables_modifiers.sol\":527:532  false */\n  0x00\n    /* \"contracts/2_variables_modifiers.sol\":498:532  bool private boolead_false = false */\n  0x08\n  exp(0x0100, 0x02)\n  dup2\n  sload\n  dup2\n  0xff\n  mul\n  not\n  and\n  swap1\n  dup4\n  iszero\n  iszero\n  mul\n  or\n  swap1\n  sstore\n  pop\n    /* \"contracts/2_variables_modifiers.sol\":590:619  bytes4 public second_byte=\"D\" */\n  0x4400000000000000000000000000000000000000000000000000000000000000\n  0x0a\n  exp(0x0100, 0x00)\n  dup2\n  sload\n  dup2\n  0xffffffff\n  mul\n  not\n  and\n  swap1\n  dup4\n  0xe0\n  shr\n  mul\n  or\n  swap1\n  sstore\n  pop\n    /* \"contracts/2_variables_modifiers.sol\":661:692  abi.encodePacked(\"Hola\",\"Joan\") */\n  add(0x20, mload(0x40))\n  tag_4\n  swap1\n  tag_5\n  jump\t// in\ntag_4:\n  mload(0x40)\n  0x20\n  dup2\n  dup4\n  sub\n  sub\n  dup2\n  mstore\n  swap1\n  0x40\n  mstore\n    /* \"contracts/2_variables_modifiers.sol\":651:693  keccak256(abi.encodePacked(\"Hola\",\"Joan\")) */\n  dup1\n  mload\n  swap1\n  0x20\n  add\n  keccak256\n    /* \"contracts/2_variables_modifiers.sol\":626:693  bytes32 public hashing = keccak256(abi.encodePacked(\"Hola\",\"Joan\")) */\n  0x0b\n  sstore\n    /* \"contracts/2_variables_modifiers.sol\":755:765  msg.sender */\n  caller\n    /* \"contracts/2_variables_modifiers.sol\":727:765  address public my_address = msg.sender */\n  0x0c\n  exp(0x0100, 0x00)\n  dup2\n  sload\n  dup2\n  0xffffffffffffffffffffffffffffffffffffffff\n  mul\n  not\n  and\n  swap1\n  dup4\n  0xffffffffffffffffffffffffffffffffffffffff\n  and\n  mul\n  or\n  swap1\n  sstore\n  pop\n    /* \"contracts/2_variables_modifiers.sol\":797:839  0xcD6a42782d230D7c13A74ddec5dD140e55499Df9 */\n  0xcd6a42782d230d7c13a74ddec5dd140e55499df9\n    /* \"contracts/2_variables_modifiers.sol\":772:839  address public addres1 = 0xcD6a42782d230D7c13A74ddec5dD140e55499Df9 */\n  0x0d\n  exp(0x0100, 0x00)\n  dup2\n  sload\n  dup2\n  0xffffffffffffffffffffffffffffffffffffffff\n  mul\n  not\n  and\n  swap1\n  dup4\n  0xffffffffffffffffffffffffffffffffffffffff\n  and\n  mul\n  or\n  swap1\n  sstore\n  pop\n    /* \"contracts/2_variables_modifiers.sol\":66:847  contract variables_modifiers{\r... */\n  callvalue\n  dup1\n  iszero\n  tag_6\n  jumpi\n  0x00\n  dup1\n  revert\ntag_6:\n  pop\n  jump(tag_7)\ntag_2:\n  dup3\n  dup1\n  sload\n  tag_8\n  swap1\n  tag_9\n  jump\t// in\ntag_8:\n  swap1\n  0x00\n  mstore\n  keccak256(0x00, 0x20)\n  swap1\n  0x1f\n  add\n  0x20\n  swap1\n  div\n  dup2\n  add\n  swap3\n  dup3\n  tag_11\n  jumpi\n  0x00\n  dup6\n  sstore\n  jump(tag_10)\ntag_11:\n  dup3\n  0x1f\n  lt\n  tag_12\n  jumpi\n  dup1\n  mload\n  not(0xff)\n  and\n  dup4\n  dup1\n  add\n  or\n  dup6\n  sstore\n  jump(tag_10)\ntag_12:\n  dup3\n  dup1\n  add\n  0x01\n  add\n  dup6\n  sstore\n  dup3\n  iszero\n  tag_10\n  jumpi\n  swap2\n  dup3\n  add\ntag_13:\n  dup3\n  dup2\n  gt\n  iszero\n  tag_14\n  jumpi\n  dup3\n  mload\n  dup3\n  sstore\n  swap2\n  0x20\n  add\n  swap2\n  swap1\n  0x01\n  add\n  swap1\n  jump(tag_13)\ntag_14:\ntag_10:\n  pop\n  swap1\n  pop\n  tag_15\n  swap2\n  swap1\n  tag_16\n  jump\t// in\ntag_15:\n  pop\n  swap1\n  jump\t// out\ntag_16:\ntag_17:\n  dup1\n  dup3\n  gt\n  iszero\n  tag_18\n  jumpi\n  0x00\n  dup2\n  0x00\n  swap1\n  sstore\n  pop\n  0x01\n  add\n  jump(tag_17)\ntag_18:\n  pop\n  swap1\n  jump\t// out\n    /* \"#utility.yul\":7:407   */\ntag_20:\n    /* \"#utility.yul\":167:170   */\n  0x00\n    /* \"#utility.yul\":188:272   */\n  tag_22\n    /* \"#utility.yul\":270:271   */\n  0x04\n    /* \"#utility.yul\":265:268   */\n  dup4\n    /* \"#utility.yul\":188:272   */\n  tag_23\n  jump\t// in\ntag_22:\n    /* \"#utility.yul\":181:272   */\n  swap2\n  pop\n    /* \"#utility.yul\":281:374   */\n  tag_24\n    /* \"#utility.yul\":370:373   */\n  dup3\n    /* \"#utility.yul\":281:374   */\n  tag_25\n  jump\t// in\ntag_24:\n    /* \"#utility.yul\":399:400   */\n  0x04\n    /* \"#utility.yul\":394:397   */\n  dup3\n    /* \"#utility.yul\":390:401   */\n  add\n    /* \"#utility.yul\":383:401   */\n  swap1\n  pop\n    /* \"#utility.yul\":171:407   */\n  swap2\n  swap1\n  pop\n  jump\t// out\n    /* \"#utility.yul\":413:813   */\ntag_26:\n    /* \"#utility.yul\":573:576   */\n  0x00\n    /* \"#utility.yul\":594:678   */\n  tag_28\n    /* \"#utility.yul\":676:677   */\n  0x04\n    /* \"#utility.yul\":671:674   */\n  dup4\n    /* \"#utility.yul\":594:678   */\n  tag_23\n  jump\t// in\ntag_28:\n    /* \"#utility.yul\":587:678   */\n  swap2\n  pop\n    /* \"#utility.yul\":687:780   */\n  tag_29\n    /* \"#utility.yul\":776:779   */\n  dup3\n    /* \"#utility.yul\":687:780   */\n  tag_30\n  jump\t// in\ntag_29:\n    /* \"#utility.yul\":805:806   */\n  0x04\n    /* \"#utility.yul\":800:803   */\n  dup3\n    /* \"#utility.yul\":796:807   */\n  add\n    /* \"#utility.yul\":789:807   */\n  swap1\n  pop\n    /* \"#utility.yul\":577:813   */\n  swap2\n  swap1\n  pop\n  jump\t// out\n    /* \"#utility.yul\":819:1466   */\ntag_5:\n    /* \"#utility.yul\":1105:1108   */\n  0x00\n    /* \"#utility.yul\":1127:1275   */\n  tag_32\n    /* \"#utility.yul\":1271:1274   */\n  dup3\n    /* \"#utility.yul\":1127:1275   */\n  tag_20\n  jump\t// in\ntag_32:\n    /* \"#utility.yul\":1120:1275   */\n  swap2\n  pop\n    /* \"#utility.yul\":1292:1440   */\n  tag_33\n    /* \"#utility.yul\":1436:1439   */\n  dup3\n    /* \"#utility.yul\":1292:1440   */\n  tag_26\n  jump\t// in\ntag_33:\n    /* \"#utility.yul\":1285:1440   */\n  swap2\n  pop\n    /* \"#utility.yul\":1457:1460   */\n  dup2\n    /* \"#utility.yul\":1450:1460   */\n  swap1\n  pop\n    /* \"#utility.yul\":1109:1466   */\n  swap2\n  swap1\n  pop\n  jump\t// out\n    /* \"#utility.yul\":1472:1620   */\ntag_23:\n    /* \"#utility.yul\":1574:1585   */\n  0x00\n    /* \"#utility.yul\":1611:1614   */\n  dup2\n    /* \"#utility.yul\":1596:1614   */\n  swap1\n  pop\n    /* \"#utility.yul\":1586:1620   */\n  swap3\n  swap2\n  pop\n  pop\n  jump\t// out\n    /* \"#utility.yul\":1626:1946   */\ntag_9:\n    /* \"#utility.yul\":1670:1676   */\n  0x00\n    /* \"#utility.yul\":1707:1708   */\n  0x02\n    /* \"#utility.yul\":1701:1705   */\n  dup3\n    /* \"#utility.yul\":1697:1709   */\n  div\n    /* \"#utility.yul\":1687:1709   */\n  swap1\n  pop\n    /* \"#utility.yul\":1754:1755   */\n  0x01\n    /* \"#utility.yul\":1748:1752   */\n  dup3\n    /* \"#utility.yul\":1744:1756   */\n  and\n    /* \"#utility.yul\":1775:1793   */\n  dup1\n    /* \"#utility.yul\":1765:1767   */\n  tag_36\n  jumpi\n    /* \"#utility.yul\":1831:1835   */\n  0x7f\n    /* \"#utility.yul\":1823:1829   */\n  dup3\n    /* \"#utility.yul\":1819:1836   */\n  and\n    /* \"#utility.yul\":1809:1836   */\n  swap2\n  pop\n    /* \"#utility.yul\":1765:1767   */\ntag_36:\n    /* \"#utility.yul\":1893:1895   */\n  0x20\n    /* \"#utility.yul\":1885:1891   */\n  dup3\n    /* \"#utility.yul\":1882:1896   */\n  lt\n    /* \"#utility.yul\":1862:1880   */\n  dup2\n    /* \"#utility.yul\":1859:1897   */\n  eq\n    /* \"#utility.yul\":1856:1858   */\n  iszero\n  tag_37\n  jumpi\n    /* \"#utility.yul\":1912:1930   */\n  tag_38\n  tag_39\n  jump\t// in\ntag_38:\n    /* \"#utility.yul\":1856:1858   */\ntag_37:\n    /* \"#utility.yul\":1677:1946   */\n  pop\n  swap2\n  swap1\n  pop\n  jump\t// out\n    /* \"#utility.yul\":1952:2132   */\ntag_39:\n    /* \"#utility.yul\":2000:2077   */\n  0x4e487b7100000000000000000000000000000000000000000000000000000000\n    /* \"#utility.yul\":1997:1998   */\n  0x00\n    /* \"#utility.yul\":1990:2078   */\n  mstore\n    /* \"#utility.yul\":2097:2101   */\n  0x22\n    /* \"#utility.yul\":2094:2095   */\n  0x04\n    /* \"#utility.yul\":2087:2102   */\n  mstore\n    /* \"#utility.yul\":2121:2125   */\n  0x24\n    /* \"#utility.yul\":2118:2119   */\n  0x00\n    /* \"#utility.yul\":2111:2126   */\n  revert\n    /* \"#utility.yul\":2138:2292   */\ntag_25:\n    /* \"#utility.yul\":2278:2284   */\n  0x486f6c6100000000000000000000000000000000000000000000000000000000\n    /* \"#utility.yul\":2274:2275   */\n  0x00\n    /* \"#utility.yul\":2266:2272   */\n  dup3\n    /* \"#utility.yul\":2262:2276   */\n  add\n    /* \"#utility.yul\":2255:2285   */\n  mstore\n    /* \"#utility.yul\":2244:2292   */\n  pop\n  jump\t// out\n    /* \"#utility.yul\":2298:2452   */\ntag_30:\n    /* \"#utility.yul\":2438:2444   */\n  0x4a6f616e00000000000000000000000000000000000000000000000000000000\n    /* \"#utility.yul\":2434:2435   */\n  0x00\n    /* \"#utility.yul\":2426:2432   */\n  dup3\n    /* \"#utility.yul\":2422:2436   */\n  add\n    /* \"#utility.yul\":2415:2445   */\n  mstore\n    /* \"#utility.yul\":2404:2452   */\n  pop\n  jump\t// out\n    /* \"contracts/2_variables_modifiers.sol\":66:847  contract variables_modifiers{\r... */\ntag_7:\n  dataSize(sub_0)\n  dup1\n  dataOffset(sub_0)\n  0x00\n  codecopy\n  0x00\n  return\nstop\n\nsub_0: assembly {\n        /* \"contracts/2_variables_modifiers.sol\":66:847  contract variables_modifiers{\r... */\n      mstore(0x40, 0x80)\n      callvalue\n      dup1\n      iszero\n      tag_1\n      jumpi\n      0x00\n      dup1\n      revert\n    tag_1:\n      pop\n      jumpi(tag_2, lt(calldatasize, 0x04))\n      shr(0xe0, calldataload(0x00))\n      dup1\n      0xb71d2cec\n      gt\n      tag_12\n      jumpi\n      dup1\n      0xb71d2cec\n      eq\n      tag_7\n      jumpi\n      dup1\n      0xb83d07b7\n      eq\n      tag_8\n      jumpi\n      dup1\n      0xcd97d84e\n      eq\n      tag_9\n      jumpi\n      dup1\n      0xea362b44\n      eq\n      tag_10\n      jumpi\n      dup1\n      0xebbb4bec\n      eq\n      tag_11\n      jumpi\n      jump(tag_2)\n    tag_12:\n      dup1\n      0x312eef29\n      eq\n      tag_3\n      jumpi\n      dup1\n      0x4dab6cbe\n      eq\n      tag_4\n      jumpi\n      dup1\n      0x4df7e3d0\n      eq\n      tag_5\n      jumpi\n      dup1\n      0x8a054ac2\n      eq\n      tag_6\n      jumpi\n    tag_2:\n      0x00\n      dup1\n      revert\n        /* \"contracts/2_variables_modifiers.sol\":460:491  bool public boolean_true = true */\n    tag_3:\n      tag_13\n      tag_14\n      jump\t// in\n    tag_13:\n      mload(0x40)\n      tag_15\n      swap2\n      swap1\n      tag_16\n      jump\t// in\n    tag_15:\n      mload(0x40)\n      dup1\n      swap2\n      sub\n      swap1\n      return\n        /* \"contracts/2_variables_modifiers.sol\":772:839  address public addres1 = 0xcD6a42782d230D7c13A74ddec5dD140e55499Df9 */\n    tag_4:\n      tag_17\n      tag_18\n      jump\t// in\n    tag_17:\n      mload(0x40)\n      tag_19\n      swap2\n      swap1\n      tag_20\n      jump\t// in\n    tag_19:\n      mload(0x40)\n      dup1\n      swap2\n      sub\n      swap1\n      return\n        /* \"contracts/2_variables_modifiers.sol\":160:176  uint8 public b=3 */\n    tag_5:\n      tag_21\n      tag_22\n      jump\t// in\n    tag_21:\n      mload(0x40)\n      tag_23\n      swap2\n      swap1\n      tag_24\n      jump\t// in\n    tag_23:\n      mload(0x40)\n      dup1\n      swap2\n      sub\n      swap1\n      return\n        /* \"contracts/2_variables_modifiers.sol\":225:244  int8 public d = -10 */\n    tag_6:\n      tag_25\n      tag_26\n      jump\t// in\n    tag_25:\n      mload(0x40)\n      tag_27\n      swap2\n      swap1\n      tag_28\n      jump\t// in\n    tag_27:\n      mload(0x40)\n      dup1\n      swap2\n      sub\n      swap1\n      return\n        /* \"contracts/2_variables_modifiers.sol\":727:765  address public my_address = msg.sender */\n    tag_7:\n      tag_29\n      tag_30\n      jump\t// in\n    tag_29:\n      mload(0x40)\n      tag_31\n      swap2\n      swap1\n      tag_20\n      jump\t// in\n    tag_31:\n      mload(0x40)\n      dup1\n      swap2\n      sub\n      swap1\n      return\n        /* \"contracts/2_variables_modifiers.sol\":311:355  string public str_public = \"Esto es publico\" */\n    tag_8:\n      tag_32\n      tag_33\n      jump\t// in\n    tag_32:\n      mload(0x40)\n      tag_34\n      swap2\n      swap1\n      tag_35\n      jump\t// in\n    tag_34:\n      mload(0x40)\n      dup1\n      swap2\n      sub\n      swap1\n      return\n        /* \"contracts/2_variables_modifiers.sol\":626:693  bytes32 public hashing = keccak256(abi.encodePacked(\"Hola\",\"Joan\")) */\n    tag_9:\n      tag_36\n      tag_37\n      jump\t// in\n    tag_36:\n      mload(0x40)\n      tag_38\n      swap2\n      swap1\n      tag_39\n      jump\t// in\n    tag_38:\n      mload(0x40)\n      dup1\n      swap2\n      sub\n      swap1\n      return\n        /* \"contracts/2_variables_modifiers.sol\":590:619  bytes4 public second_byte=\"D\" */\n    tag_10:\n      tag_40\n      tag_41\n      jump\t// in\n    tag_40:\n      mload(0x40)\n      tag_42\n      swap2\n      swap1\n      tag_43\n      jump\t// in\n    tag_42:\n      mload(0x40)\n      dup1\n      swap2\n      sub\n      swap1\n      return\n        /* \"contracts/2_variables_modifiers.sol\":362:407  string public str_privado = \"Esto es privado\" */\n    tag_11:\n      tag_44\n      tag_45\n      jump\t// in\n    tag_44:\n      mload(0x40)\n      tag_46\n      swap2\n      swap1\n      tag_35\n      jump\t// in\n    tag_46:\n      mload(0x40)\n      dup1\n      swap2\n      sub\n      swap1\n      return\n        /* \"contracts/2_variables_modifiers.sol\":460:491  bool public boolean_true = true */\n    tag_14:\n      0x08\n      0x01\n      swap1\n      sload\n      swap1\n      0x0100\n      exp\n      swap1\n      div\n      0xff\n      and\n      dup2\n      jump\t// out\n        /* \"contracts/2_variables_modifiers.sol\":772:839  address public addres1 = 0xcD6a42782d230D7c13A74ddec5dD140e55499Df9 */\n    tag_18:\n      0x0d\n      0x00\n      swap1\n      sload\n      swap1\n      0x0100\n      exp\n      swap1\n      div\n      0xffffffffffffffffffffffffffffffffffffffff\n      and\n      dup2\n      jump\t// out\n        /* \"contracts/2_variables_modifiers.sol\":160:176  uint8 public b=3 */\n    tag_22:\n      0x01\n      0x00\n      swap1\n      sload\n      swap1\n      0x0100\n      exp\n      swap1\n      div\n      0xff\n      and\n      dup2\n      jump\t// out\n        /* \"contracts/2_variables_modifiers.sol\":225:244  int8 public d = -10 */\n    tag_26:\n      0x03\n      0x00\n      swap1\n      sload\n      swap1\n      0x0100\n      exp\n      swap1\n      div\n      0x00\n      signextend\n      dup2\n      jump\t// out\n        /* \"contracts/2_variables_modifiers.sol\":727:765  address public my_address = msg.sender */\n    tag_30:\n      0x0c\n      0x00\n      swap1\n      sload\n      swap1\n      0x0100\n      exp\n      swap1\n      div\n      0xffffffffffffffffffffffffffffffffffffffff\n      and\n      dup2\n      jump\t// out\n        /* \"contracts/2_variables_modifiers.sol\":311:355  string public str_public = \"Esto es publico\" */\n    tag_33:\n      0x06\n      dup1\n      sload\n      tag_47\n      swap1\n      tag_48\n      jump\t// in\n    tag_47:\n      dup1\n      0x1f\n      add\n      0x20\n      dup1\n      swap2\n      div\n      mul\n      0x20\n      add\n      mload(0x40)\n      swap1\n      dup2\n      add\n      0x40\n      mstore\n      dup1\n      swap3\n      swap2\n      swap1\n      dup2\n      dup2\n      mstore\n      0x20\n      add\n      dup3\n      dup1\n      sload\n      tag_49\n      swap1\n      tag_48\n      jump\t// in\n    tag_49:\n      dup1\n      iszero\n      tag_50\n      jumpi\n      dup1\n      0x1f\n      lt\n      tag_51\n      jumpi\n      0x0100\n      dup1\n      dup4\n      sload\n      div\n      mul\n      dup4\n      mstore\n      swap2\n      0x20\n      add\n      swap2\n      jump(tag_50)\n    tag_51:\n      dup3\n      add\n      swap2\n      swap1\n      0x00\n      mstore\n      keccak256(0x00, 0x20)\n      swap1\n    tag_52:\n      dup2\n      sload\n      dup2\n      mstore\n      swap1\n      0x01\n      add\n      swap1\n      0x20\n      add\n      dup1\n      dup4\n      gt\n      tag_52\n      jumpi\n      dup3\n      swap1\n      sub\n      0x1f\n      and\n      dup3\n      add\n      swap2\n    tag_50:\n      pop\n      pop\n      pop\n      pop\n      pop\n      dup2\n      jump\t// out\n        /* \"contracts/2_variables_modifiers.sol\":626:693  bytes32 public hashing = keccak256(abi.encodePacked(\"Hola\",\"Joan\")) */\n    tag_37:\n      sload(0x0b)\n      dup2\n      jump\t// out\n        /* \"contracts/2_variables_modifiers.sol\":590:619  bytes4 public second_byte=\"D\" */\n    tag_41:\n      0x0a\n      0x00\n      swap1\n      sload\n      swap1\n      0x0100\n      exp\n      swap1\n      div\n      0xe0\n      shl\n      dup2\n      jump\t// out\n        /* \"contracts/2_variables_modifiers.sol\":362:407  string public str_privado = \"Esto es privado\" */\n    tag_45:\n      0x07\n      dup1\n      sload\n      tag_53\n      swap1\n      tag_48\n      jump\t// in\n    tag_53:\n      dup1\n      0x1f\n      add\n      0x20\n      dup1\n      swap2\n      div\n      mul\n      0x20\n      add\n      mload(0x40)\n      swap1\n      dup2\n      add\n      0x40\n      mstore\n      dup1\n      swap3\n      swap2\n      swap1\n      dup2\n      dup2\n      mstore\n      0x20\n      add\n      dup3\n      dup1\n      sload\n      tag_54\n      swap1\n      tag_48\n      jump\t// in\n    tag_54:\n      dup1\n      iszero\n      tag_55\n      jumpi\n      dup1\n      0x1f\n      lt\n      tag_56\n      jumpi\n      0x0100\n      dup1\n      dup4\n      sload\n      div\n      mul\n      dup4\n      mstore\n      swap2\n      0x20\n      add\n      swap2\n      jump(tag_55)\n    tag_56:\n      dup3\n      add\n      swap2\n      swap1\n      0x00\n      mstore\n      keccak256(0x00, 0x20)\n      swap1\n    tag_57:\n      dup2\n      sload\n      dup2\n      mstore\n      swap1\n      0x01\n      add\n      swap1\n      0x20\n      add\n      dup1\n      dup4\n      gt\n      tag_57\n      jumpi\n      dup3\n      swap1\n      sub\n      0x1f\n      and\n      dup3\n      add\n      swap2\n    tag_55:\n      pop\n      pop\n      pop\n      pop\n      pop\n      dup2\n      jump\t// out\n        /* \"#utility.yul\":7:125   */\n    tag_59:\n        /* \"#utility.yul\":94:118   */\n      tag_61\n        /* \"#utility.yul\":112:117   */\n      dup2\n        /* \"#utility.yul\":94:118   */\n      tag_62\n      jump\t// in\n    tag_61:\n        /* \"#utility.yul\":89:92   */\n      dup3\n        /* \"#utility.yul\":82:119   */\n      mstore\n        /* \"#utility.yul\":72:125   */\n      pop\n      pop\n      jump\t// out\n        /* \"#utility.yul\":131:240   */\n    tag_63:\n        /* \"#utility.yul\":212:233   */\n      tag_65\n        /* \"#utility.yul\":227:232   */\n      dup2\n        /* \"#utility.yul\":212:233   */\n      tag_66\n      jump\t// in\n    tag_65:\n        /* \"#utility.yul\":207:210   */\n      dup3\n        /* \"#utility.yul\":200:234   */\n      mstore\n        /* \"#utility.yul\":190:240   */\n      pop\n      pop\n      jump\t// out\n        /* \"#utility.yul\":246:364   */\n    tag_67:\n        /* \"#utility.yul\":333:357   */\n      tag_69\n        /* \"#utility.yul\":351:356   */\n      dup2\n        /* \"#utility.yul\":333:357   */\n      tag_70\n      jump\t// in\n    tag_69:\n        /* \"#utility.yul\":328:331   */\n      dup3\n        /* \"#utility.yul\":321:358   */\n      mstore\n        /* \"#utility.yul\":311:364   */\n      pop\n      pop\n      jump\t// out\n        /* \"#utility.yul\":370:485   */\n    tag_71:\n        /* \"#utility.yul\":455:478   */\n      tag_73\n        /* \"#utility.yul\":472:477   */\n      dup2\n        /* \"#utility.yul\":455:478   */\n      tag_74\n      jump\t// in\n    tag_73:\n        /* \"#utility.yul\":450:453   */\n      dup3\n        /* \"#utility.yul\":443:479   */\n      mstore\n        /* \"#utility.yul\":433:485   */\n      pop\n      pop\n      jump\t// out\n        /* \"#utility.yul\":491:600   */\n    tag_75:\n        /* \"#utility.yul\":572:593   */\n      tag_77\n        /* \"#utility.yul\":587:592   */\n      dup2\n        /* \"#utility.yul\":572:593   */\n      tag_78\n      jump\t// in\n    tag_77:\n        /* \"#utility.yul\":567:570   */\n      dup3\n        /* \"#utility.yul\":560:594   */\n      mstore\n        /* \"#utility.yul\":550:600   */\n      pop\n      pop\n      jump\t// out\n        /* \"#utility.yul\":606:970   */\n    tag_79:\n        /* \"#utility.yul\":694:697   */\n      0x00\n        /* \"#utility.yul\":722:761   */\n      tag_81\n        /* \"#utility.yul\":755:760   */\n      dup3\n        /* \"#utility.yul\":722:761   */\n      tag_82\n      jump\t// in\n    tag_81:\n        /* \"#utility.yul\":777:848   */\n      tag_83\n        /* \"#utility.yul\":841:847   */\n      dup2\n        /* \"#utility.yul\":836:839   */\n      dup6\n        /* \"#utility.yul\":777:848   */\n      tag_84\n      jump\t// in\n    tag_83:\n        /* \"#utility.yul\":770:848   */\n      swap4\n      pop\n        /* \"#utility.yul\":857:909   */\n      tag_85\n        /* \"#utility.yul\":902:908   */\n      dup2\n        /* \"#utility.yul\":897:900   */\n      dup6\n        /* \"#utility.yul\":890:894   */\n      0x20\n        /* \"#utility.yul\":883:888   */\n      dup7\n        /* \"#utility.yul\":879:895   */\n      add\n        /* \"#utility.yul\":857:909   */\n      tag_86\n      jump\t// in\n    tag_85:\n        /* \"#utility.yul\":934:963   */\n      tag_87\n        /* \"#utility.yul\":956:962   */\n      dup2\n        /* \"#utility.yul\":934:963   */\n      tag_88\n      jump\t// in\n    tag_87:\n        /* \"#utility.yul\":929:932   */\n      dup5\n        /* \"#utility.yul\":925:964   */\n      add\n        /* \"#utility.yul\":918:964   */\n      swap2\n      pop\n        /* \"#utility.yul\":698:970   */\n      pop\n      swap3\n      swap2\n      pop\n      pop\n      jump\t// out\n        /* \"#utility.yul\":976:1088   */\n    tag_89:\n        /* \"#utility.yul\":1059:1081   */\n      tag_91\n        /* \"#utility.yul\":1075:1080   */\n      dup2\n        /* \"#utility.yul\":1059:1081   */\n      tag_92\n      jump\t// in\n    tag_91:\n        /* \"#utility.yul\":1054:1057   */\n      dup3\n        /* \"#utility.yul\":1047:1082   */\n      mstore\n        /* \"#utility.yul\":1037:1088   */\n      pop\n      pop\n      jump\t// out\n        /* \"#utility.yul\":1094:1316   */\n    tag_20:\n        /* \"#utility.yul\":1187:1191   */\n      0x00\n        /* \"#utility.yul\":1225:1227   */\n      0x20\n        /* \"#utility.yul\":1214:1223   */\n      dup3\n        /* \"#utility.yul\":1210:1228   */\n      add\n        /* \"#utility.yul\":1202:1228   */\n      swap1\n      pop\n        /* \"#utility.yul\":1238:1309   */\n      tag_94\n        /* \"#utility.yul\":1306:1307   */\n      0x00\n        /* \"#utility.yul\":1295:1304   */\n      dup4\n        /* \"#utility.yul\":1291:1308   */\n      add\n        /* \"#utility.yul\":1282:1288   */\n      dup5\n        /* \"#utility.yul\":1238:1309   */\n      tag_59\n      jump\t// in\n    tag_94:\n        /* \"#utility.yul\":1192:1316   */\n      swap3\n      swap2\n      pop\n      pop\n      jump\t// out\n        /* \"#utility.yul\":1322:1532   */\n    tag_16:\n        /* \"#utility.yul\":1409:1413   */\n      0x00\n        /* \"#utility.yul\":1447:1449   */\n      0x20\n        /* \"#utility.yul\":1436:1445   */\n      dup3\n        /* \"#utility.yul\":1432:1450   */\n      add\n        /* \"#utility.yul\":1424:1450   */\n      swap1\n      pop\n        /* \"#utility.yul\":1460:1525   */\n      tag_96\n        /* \"#utility.yul\":1522:1523   */\n      0x00\n        /* \"#utility.yul\":1511:1520   */\n      dup4\n        /* \"#utility.yul\":1507:1524   */\n      add\n        /* \"#utility.yul\":1498:1504   */\n      dup5\n        /* \"#utility.yul\":1460:1525   */\n      tag_63\n      jump\t// in\n    tag_96:\n        /* \"#utility.yul\":1414:1532   */\n      swap3\n      swap2\n      pop\n      pop\n      jump\t// out\n        /* \"#utility.yul\":1538:1760   */\n    tag_39:\n        /* \"#utility.yul\":1631:1635   */\n      0x00\n        /* \"#utility.yul\":1669:1671   */\n      0x20\n        /* \"#utility.yul\":1658:1667   */\n      dup3\n        /* \"#utility.yul\":1654:1672   */\n      add\n        /* \"#utility.yul\":1646:1672   */\n      swap1\n      pop\n        /* \"#utility.yul\":1682:1753   */\n      tag_98\n        /* \"#utility.yul\":1750:1751   */\n      0x00\n        /* \"#utility.yul\":1739:1748   */\n      dup4\n        /* \"#utility.yul\":1735:1752   */\n      add\n        /* \"#utility.yul\":1726:1732   */\n      dup5\n        /* \"#utility.yul\":1682:1753   */\n      tag_67\n      jump\t// in\n    tag_98:\n        /* \"#utility.yul\":1636:1760   */\n      swap3\n      swap2\n      pop\n      pop\n      jump\t// out\n        /* \"#utility.yul\":1766:1984   */\n    tag_43:\n        /* \"#utility.yul\":1857:1861   */\n      0x00\n        /* \"#utility.yul\":1895:1897   */\n      0x20\n        /* \"#utility.yul\":1884:1893   */\n      dup3\n        /* \"#utility.yul\":1880:1898   */\n      add\n        /* \"#utility.yul\":1872:1898   */\n      swap1\n      pop\n        /* \"#utility.yul\":1908:1977   */\n      tag_100\n        /* \"#utility.yul\":1974:1975   */\n      0x00\n        /* \"#utility.yul\":1963:1972   */\n      dup4\n        /* \"#utility.yul\":1959:1976   */\n      add\n        /* \"#utility.yul\":1950:1956   */\n      dup5\n        /* \"#utility.yul\":1908:1977   */\n      tag_71\n      jump\t// in\n    tag_100:\n        /* \"#utility.yul\":1862:1984   */\n      swap3\n      swap2\n      pop\n      pop\n      jump\t// out\n        /* \"#utility.yul\":1990:2200   */\n    tag_28:\n        /* \"#utility.yul\":2077:2081   */\n      0x00\n        /* \"#utility.yul\":2115:2117   */\n      0x20\n        /* \"#utility.yul\":2104:2113   */\n      dup3\n        /* \"#utility.yul\":2100:2118   */\n      add\n        /* \"#utility.yul\":2092:2118   */\n      swap1\n      pop\n        /* \"#utility.yul\":2128:2193   */\n      tag_102\n        /* \"#utility.yul\":2190:2191   */\n      0x00\n        /* \"#utility.yul\":2179:2188   */\n      dup4\n        /* \"#utility.yul\":2175:2192   */\n      add\n        /* \"#utility.yul\":2166:2172   */\n      dup5\n        /* \"#utility.yul\":2128:2193   */\n      tag_75\n      jump\t// in\n    tag_102:\n        /* \"#utility.yul\":2082:2200   */\n      swap3\n      swap2\n      pop\n      pop\n      jump\t// out\n        /* \"#utility.yul\":2206:2519   */\n    tag_35:\n        /* \"#utility.yul\":2319:2323   */\n      0x00\n        /* \"#utility.yul\":2357:2359   */\n      0x20\n        /* \"#utility.yul\":2346:2355   */\n      dup3\n        /* \"#utility.yul\":2342:2360   */\n      add\n        /* \"#utility.yul\":2334:2360   */\n      swap1\n      pop\n        /* \"#utility.yul\":2406:2415   */\n      dup2\n        /* \"#utility.yul\":2400:2404   */\n      dup2\n        /* \"#utility.yul\":2396:2416   */\n      sub\n        /* \"#utility.yul\":2392:2393   */\n      0x00\n        /* \"#utility.yul\":2381:2390   */\n      dup4\n        /* \"#utility.yul\":2377:2394   */\n      add\n        /* \"#utility.yul\":2370:2417   */\n      mstore\n        /* \"#utility.yul\":2434:2512   */\n      tag_104\n        /* \"#utility.yul\":2507:2511   */\n      dup2\n        /* \"#utility.yul\":2498:2504   */\n      dup5\n        /* \"#utility.yul\":2434:2512   */\n      tag_79\n      jump\t// in\n    tag_104:\n        /* \"#utility.yul\":2426:2512   */\n      swap1\n      pop\n        /* \"#utility.yul\":2324:2519   */\n      swap3\n      swap2\n      pop\n      pop\n      jump\t// out\n        /* \"#utility.yul\":2525:2739   */\n    tag_24:\n        /* \"#utility.yul\":2614:2618   */\n      0x00\n        /* \"#utility.yul\":2652:2654   */\n      0x20\n        /* \"#utility.yul\":2641:2650   */\n      dup3\n        /* \"#utility.yul\":2637:2655   */\n      add\n        /* \"#utility.yul\":2629:2655   */\n      swap1\n      pop\n        /* \"#utility.yul\":2665:2732   */\n      tag_106\n        /* \"#utility.yul\":2729:2730   */\n      0x00\n        /* \"#utility.yul\":2718:2727   */\n      dup4\n        /* \"#utility.yul\":2714:2731   */\n      add\n        /* \"#utility.yul\":2705:2711   */\n      dup5\n        /* \"#utility.yul\":2665:2732   */\n      tag_89\n      jump\t// in\n    tag_106:\n        /* \"#utility.yul\":2619:2739   */\n      swap3\n      swap2\n      pop\n      pop\n      jump\t// out\n        /* \"#utility.yul\":2745:2844   */\n    tag_82:\n        /* \"#utility.yul\":2797:2803   */\n      0x00\n        /* \"#utility.yul\":2831:2836   */\n      dup2\n        /* \"#utility.yul\":2825:2837   */\n      mload\n        /* \"#utility.yul\":2815:2837   */\n      swap1\n      pop\n        /* \"#utility.yul\":2804:2844   */\n      swap2\n      swap1\n      pop\n      jump\t// out\n        /* \"#utility.yul\":2850:3019   */\n    tag_84:\n        /* \"#utility.yul\":2934:2945   */\n      0x00\n        /* \"#utility.yul\":2968:2974   */\n      dup3\n        /* \"#utility.yul\":2963:2966   */\n      dup3\n        /* \"#utility.yul\":2956:2975   */\n      mstore\n        /* \"#utility.yul\":3008:3012   */\n      0x20\n        /* \"#utility.yul\":3003:3006   */\n      dup3\n        /* \"#utility.yul\":2999:3013   */\n      add\n        /* \"#utility.yul\":2984:3013   */\n      swap1\n      pop\n        /* \"#utility.yul\":2946:3019   */\n      swap3\n      swap2\n      pop\n      pop\n      jump\t// out\n        /* \"#utility.yul\":3025:3121   */\n    tag_62:\n        /* \"#utility.yul\":3062:3069   */\n      0x00\n        /* \"#utility.yul\":3091:3115   */\n      tag_110\n        /* \"#utility.yul\":3109:3114   */\n      dup3\n        /* \"#utility.yul\":3091:3115   */\n      tag_111\n      jump\t// in\n    tag_110:\n        /* \"#utility.yul\":3080:3115   */\n      swap1\n      pop\n        /* \"#utility.yul\":3070:3121   */\n      swap2\n      swap1\n      pop\n      jump\t// out\n        /* \"#utility.yul\":3127:3217   */\n    tag_66:\n        /* \"#utility.yul\":3161:3168   */\n      0x00\n        /* \"#utility.yul\":3204:3209   */\n      dup2\n        /* \"#utility.yul\":3197:3210   */\n      iszero\n        /* \"#utility.yul\":3190:3211   */\n      iszero\n        /* \"#utility.yul\":3179:3211   */\n      swap1\n      pop\n        /* \"#utility.yul\":3169:3217   */\n      swap2\n      swap1\n      pop\n      jump\t// out\n        /* \"#utility.yul\":3223:3300   */\n    tag_70:\n        /* \"#utility.yul\":3260:3267   */\n      0x00\n        /* \"#utility.yul\":3289:3294   */\n      dup2\n        /* \"#utility.yul\":3278:3294   */\n      swap1\n      pop\n        /* \"#utility.yul\":3268:3300   */\n      swap2\n      swap1\n      pop\n      jump\t// out\n        /* \"#utility.yul\":3306:3455   */\n    tag_74:\n        /* \"#utility.yul\":3342:3349   */\n      0x00\n        /* \"#utility.yul\":3382:3448   */\n      0xffffffff00000000000000000000000000000000000000000000000000000000\n        /* \"#utility.yul\":3375:3380   */\n      dup3\n        /* \"#utility.yul\":3371:3449   */\n      and\n        /* \"#utility.yul\":3360:3449   */\n      swap1\n      pop\n        /* \"#utility.yul\":3350:3455   */\n      swap2\n      swap1\n      pop\n      jump\t// out\n        /* \"#utility.yul\":3461:3550   */\n    tag_78:\n        /* \"#utility.yul\":3495:3502   */\n      0x00\n        /* \"#utility.yul\":3538:3543   */\n      dup2\n        /* \"#utility.yul\":3535:3536   */\n      0x00\n        /* \"#utility.yul\":3524:3544   */\n      signextend\n        /* \"#utility.yul\":3513:3544   */\n      swap1\n      pop\n        /* \"#utility.yul\":3503:3550   */\n      swap2\n      swap1\n      pop\n      jump\t// out\n        /* \"#utility.yul\":3556:3682   */\n    tag_111:\n        /* \"#utility.yul\":3593:3600   */\n      0x00\n        /* \"#utility.yul\":3633:3675   */\n      0xffffffffffffffffffffffffffffffffffffffff\n        /* \"#utility.yul\":3626:3631   */\n      dup3\n        /* \"#utility.yul\":3622:3676   */\n      and\n        /* \"#utility.yul\":3611:3676   */\n      swap1\n      pop\n        /* \"#utility.yul\":3601:3682   */\n      swap2\n      swap1\n      pop\n      jump\t// out\n        /* \"#utility.yul\":3688:3774   */\n    tag_92:\n        /* \"#utility.yul\":3723:3730   */\n      0x00\n        /* \"#utility.yul\":3763:3767   */\n      0xff\n        /* \"#utility.yul\":3756:3761   */\n      dup3\n        /* \"#utility.yul\":3752:3768   */\n      and\n        /* \"#utility.yul\":3741:3768   */\n      swap1\n      pop\n        /* \"#utility.yul\":3731:3774   */\n      swap2\n      swap1\n      pop\n      jump\t// out\n        /* \"#utility.yul\":3780:4087   */\n    tag_86:\n        /* \"#utility.yul\":3848:3849   */\n      0x00\n        /* \"#utility.yul\":3858:3971   */\n    tag_119:\n        /* \"#utility.yul\":3872:3878   */\n      dup4\n        /* \"#utility.yul\":3869:3870   */\n      dup2\n        /* \"#utility.yul\":3866:3879   */\n      lt\n        /* \"#utility.yul\":3858:3971   */\n      iszero\n      tag_121\n      jumpi\n        /* \"#utility.yul\":3957:3958   */\n      dup1\n        /* \"#utility.yul\":3952:3955   */\n      dup3\n        /* \"#utility.yul\":3948:3959   */\n      add\n        /* \"#utility.yul\":3942:3960   */\n      mload\n        /* \"#utility.yul\":3938:3939   */\n      dup2\n        /* \"#utility.yul\":3933:3936   */\n      dup5\n        /* \"#utility.yul\":3929:3940   */\n      add\n        /* \"#utility.yul\":3922:3961   */\n      mstore\n        /* \"#utility.yul\":3894:3896   */\n      0x20\n        /* \"#utility.yul\":3891:3892   */\n      dup2\n        /* \"#utility.yul\":3887:3897   */\n      add\n        /* \"#utility.yul\":3882:3897   */\n      swap1\n      pop\n        /* \"#utility.yul\":3858:3971   */\n      jump(tag_119)\n    tag_121:\n        /* \"#utility.yul\":3989:3995   */\n      dup4\n        /* \"#utility.yul\":3986:3987   */\n      dup2\n        /* \"#utility.yul\":3983:3996   */\n      gt\n        /* \"#utility.yul\":3980:3982   */\n      iszero\n      tag_122\n      jumpi\n        /* \"#utility.yul\":4069:4070   */\n      0x00\n        /* \"#utility.yul\":4060:4066   */\n      dup5\n        /* \"#utility.yul\":4055:4058   */\n      dup5\n        /* \"#utility.yul\":4051:4067   */\n      add\n        /* \"#utility.yul\":4044:4071   */\n      mstore\n        /* \"#utility.yul\":3980:3982   */\n    tag_122:\n        /* \"#utility.yul\":3829:4087   */\n      pop\n      pop\n      pop\n      pop\n      jump\t// out\n        /* \"#utility.yul\":4093:4413   */\n    tag_48:\n        /* \"#utility.yul\":4137:4143   */\n      0x00\n        /* \"#utility.yul\":4174:4175   */\n      0x02\n        /* \"#utility.yul\":4168:4172   */\n      dup3\n        /* \"#utility.yul\":4164:4176   */\n      div\n        /* \"#utility.yul\":4154:4176   */\n      swap1\n      pop\n        /* \"#utility.yul\":4221:4222   */\n      0x01\n        /* \"#utility.yul\":4215:4219   */\n      dup3\n        /* \"#utility.yul\":4211:4223   */\n      and\n        /* \"#utility.yul\":4242:4260   */\n      dup1\n        /* \"#utility.yul\":4232:4234   */\n      tag_124\n      jumpi\n        /* \"#utility.yul\":4298:4302   */\n      0x7f\n        /* \"#utility.yul\":4290:4296   */\n      dup3\n        /* \"#utility.yul\":4286:4303   */\n      and\n        /* \"#utility.yul\":4276:4303   */\n      swap2\n      pop\n        /* \"#utility.yul\":4232:4234   */\n    tag_124:\n        /* \"#utility.yul\":4360:4362   */\n      0x20\n        /* \"#utility.yul\":4352:4358   */\n      dup3\n        /* \"#utility.yul\":4349:4363   */\n      lt\n        /* \"#utility.yul\":4329:4347   */\n      dup2\n        /* \"#utility.yul\":4326:4364   */\n      eq\n        /* \"#utility.yul\":4323:4325   */\n      iszero\n      tag_125\n      jumpi\n        /* \"#utility.yul\":4379:4397   */\n      tag_126\n      tag_127\n      jump\t// in\n    tag_126:\n        /* \"#utility.yul\":4323:4325   */\n    tag_125:\n        /* \"#utility.yul\":4144:4413   */\n      pop\n      swap2\n      swap1\n      pop\n      jump\t// out\n        /* \"#utility.yul\":4419:4599   */\n    tag_127:\n        /* \"#utility.yul\":4467:4544   */\n      0x4e487b7100000000000000000000000000000000000000000000000000000000\n        /* \"#utility.yul\":4464:4465   */\n      0x00\n        /* \"#utility.yul\":4457:4545   */\n      mstore\n        /* \"#utility.yul\":4564:4568   */\n      0x22\n        /* \"#utility.yul\":4561:4562   */\n      0x04\n        /* \"#utility.yul\":4554:4569   */\n      mstore\n        /* \"#utility.yul\":4588:4592   */\n      0x24\n        /* \"#utility.yul\":4585:4586   */\n      0x00\n        /* \"#utility.yul\":4578:4593   */\n      revert\n        /* \"#utility.yul\":4605:4707   */\n    tag_88:\n        /* \"#utility.yul\":4646:4652   */\n      0x00\n        /* \"#utility.yul\":4697:4699   */\n      0x1f\n        /* \"#utility.yul\":4693:4700   */\n      not\n        /* \"#utility.yul\":4688:4690   */\n      0x1f\n        /* \"#utility.yul\":4681:4686   */\n      dup4\n        /* \"#utility.yul\":4677:4691   */\n      add\n        /* \"#utility.yul\":4673:4701   */\n      and\n        /* \"#utility.yul\":4663:4701   */\n      swap1\n      pop\n        /* \"#utility.yul\":4653:4707   */\n      swap2\n      swap1\n      pop\n      jump\t// out\n\n    auxdata: 0xa264697066735822122047fd542d82bebbb669a31793f2fb465623cde060686956421edb36d561c4cb7a64736f6c63430008040033\n}\n",
				"bytecode": {
					"linkReferences": {},
					"object": "60806040526003600160006101000a81548160ff021916908360ff1602179055507ffffffffffffffffffffffffffffffffffffffffffffffffffffffffffffffff6600360006101000a81548160ff021916908360000b60ff16021790555060416004556040518060400160405280600f81526020017f4573746f206573207075626c69636f0000000000000000000000000000000000815250600690805190602001906100ae92919061023f565b506040518060400160405280600f81526020017f4573746f206573207072697661646f0000000000000000000000000000000000815250600790805190602001906100fa92919061023f565b506001600860016101000a81548160ff0219169083151502179055506000600860026101000a81548160ff0219169083151502179055507f4400000000000000000000000000000000000000000000000000000000000000600a60006101000a81548163ffffffff021916908360e01c021790555060405160200161017e90610328565b60405160208183030381529060405280519060200120600b5533600c60006101000a81548173ffffffffffffffffffffffffffffffffffffffff021916908373ffffffffffffffffffffffffffffffffffffffff16021790555073cd6a42782d230d7c13a74ddec5dd140e55499df9600d60006101000a81548173ffffffffffffffffffffffffffffffffffffffff021916908373ffffffffffffffffffffffffffffffffffffffff16021790555034801561023957600080fd5b50610406565b82805461024b90610353565b90600052602060002090601f01602090048101928261026d57600085556102b4565b82601f1061028657805160ff19168380011785556102b4565b828001600101855582156102b4579182015b828111156102b3578251825591602001919060010190610298565b5b5090506102c191906102c5565b5090565b5b808211156102de5760008160009055506001016102c6565b5090565b60006102ef600483610348565b91506102fa826103b4565b600482019050919050565b6000610312600483610348565b915061031d826103dd565b600482019050919050565b6000610333826102e2565b915061033e82610305565b9150819050919050565b600081905092915050565b6000600282049050600182168061036b57607f821691505b6020821081141561037f5761037e610385565b5b50919050565b7f4e487b7100000000000000000000000000000000000000000000000000000000600052602260045260246000fd5b7f486f6c6100000000000000000000000000000000000000000000000000000000600082015250565b7f4a6f616e00000000000000000000000000000000000000000000000000000000600082015250565b61063c806104156000396000f3fe608060405234801561001057600080fd5b50600436106100935760003560e01c8063b71d2cec11610066578063b71d2cec14610110578063b83d07b71461012e578063cd97d84e1461014c578063ea362b441461016a578063ebbb4bec1461018857610093565b8063312eef29146100985780634dab6cbe146100b65780634df7e3d0146100d45780638a054ac2146100f2575b600080fd5b6100a06101a6565b6040516100ad919061040e565b60405180910390f35b6100be6101b9565b6040516100cb91906103f3565b60405180910390f35b6100dc6101df565b6040516100e9919061049c565b60405180910390f35b6100fa6101f2565b604051610107919061045f565b60405180910390f35b610118610205565b60405161012591906103f3565b60405180910390f35b61013661022b565b604051610143919061047a565b60405180910390f35b6101546102b9565b6040516101619190610429565b60405180910390f35b6101726102bf565b60405161017f9190610444565b60405180910390f35b6101906102d2565b60405161019d919061047a565b60405180910390f35b600860019054906101000a900460ff1681565b600d60009054906101000a900473ffffffffffffffffffffffffffffffffffffffff1681565b600160009054906101000a900460ff1681565b600360009054906101000a900460000b81565b600c60009054906101000a900473ffffffffffffffffffffffffffffffffffffffff1681565b6006805461023890610594565b80601f016020809104026020016040519081016040528092919081815260200182805461026490610594565b80156102b15780601f10610286576101008083540402835291602001916102b1565b820191906000526020600020905b81548152906001019060200180831161029457829003601f168201915b505050505081565b600b5481565b600a60009054906101000a900460e01b81565b600780546102df90610594565b80601f016020809104026020016040519081016040528092919081815260200182805461030b90610594565b80156103585780601f1061032d57610100808354040283529160200191610358565b820191906000526020600020905b81548152906001019060200180831161033b57829003601f168201915b505050505081565b610369816104d3565b82525050565b610378816104e5565b82525050565b610387816104f1565b82525050565b610396816104fb565b82525050565b6103a581610527565b82525050565b60006103b6826104b7565b6103c081856104c2565b93506103d0818560208601610561565b6103d9816105f5565b840191505092915050565b6103ed81610554565b82525050565b60006020820190506104086000830184610360565b92915050565b6000602082019050610423600083018461036f565b92915050565b600060208201905061043e600083018461037e565b92915050565b6000602082019050610459600083018461038d565b92915050565b6000602082019050610474600083018461039c565b92915050565b6000602082019050818103600083015261049481846103ab565b905092915050565b60006020820190506104b160008301846103e4565b92915050565b600081519050919050565b600082825260208201905092915050565b60006104de82610534565b9050919050565b60008115159050919050565b6000819050919050565b60007fffffffff0000000000000000000000000000000000000000000000000000000082169050919050565b60008160000b9050919050565b600073ffffffffffffffffffffffffffffffffffffffff82169050919050565b600060ff82169050919050565b60005b8381101561057f578082015181840152602081019050610564565b8381111561058e576000848401525b50505050565b600060028204905060018216806105ac57607f821691505b602082108114156105c0576105bf6105c6565b5b50919050565b7f4e487b7100000000000000000000000000000000000000000000000000000000600052602260045260246000fd5b6000601f19601f830116905091905056fea264697066735822122047fd542d82bebbb669a31793f2fb465623cde060686956421edb36d561c4cb7a64736f6c63430008040033",
					"opcodes": "PUSH1 0x80 PUSH1 0x40 MSTORE PUSH1 0x3 PUSH1 0x1 PUSH1 0x0 PUSH2 0x100 EXP DUP2 SLOAD DUP2 PUSH1 0xFF MUL NOT AND SWAP1 DUP4 PUSH1 0xFF AND MUL OR SWAP1 SSTORE POP PUSH32 0xFFFFFFFFFFFFFFFFFFFFFFFFFFFFFFFFFFFFFFFFFFFFFFFFFFFFFFFFFFFFFFF6 PUSH1 0x3 PUSH1 0x0 PUSH2 0x100 EXP DUP2 SLOAD DUP2 PUSH1 0xFF MUL NOT AND SWAP1 DUP4 PUSH1 0x0 SIGNEXTEND PUSH1 0xFF AND MUL OR SWAP1 SSTORE POP PUSH1 0x41 PUSH1 0x4 SSTORE PUSH1 0x40 MLOAD DUP1 PUSH1 0x40 ADD PUSH1 0x40 MSTORE DUP1 PUSH1 0xF DUP2 MSTORE PUSH1 0x20 ADD PUSH32 0x4573746F206573207075626C69636F0000000000000000000000000000000000 DUP2 MSTORE POP PUSH1 0x6 SWAP1 DUP1 MLOAD SWAP1 PUSH1 0x20 ADD SWAP1 PUSH2 0xAE SWAP3 SWAP2 SWAP1 PUSH2 0x23F JUMP JUMPDEST POP PUSH1 0x40 MLOAD DUP1 PUSH1 0x40 ADD PUSH1 0x40 MSTORE DUP1 PUSH1 0xF DUP2 MSTORE PUSH1 0x20 ADD PUSH32 0x4573746F206573207072697661646F0000000000000000000000000000000000 DUP2 MSTORE POP PUSH1 0x7 SWAP1 DUP1 MLOAD SWAP1 PUSH1 0x20 ADD SWAP1 PUSH2 0xFA SWAP3 SWAP2 SWAP1 PUSH2 0x23F JUMP JUMPDEST POP PUSH1 0x1 PUSH1 0x8 PUSH1 0x1 PUSH2 0x100 EXP DUP2 SLOAD DUP2 PUSH1 0xFF MUL NOT AND SWAP1 DUP4 ISZERO ISZERO MUL OR SWAP1 SSTORE POP PUSH1 0x0 PUSH1 0x8 PUSH1 0x2 PUSH2 0x100 EXP DUP2 SLOAD DUP2 PUSH1 0xFF MUL NOT AND SWAP1 DUP4 ISZERO ISZERO MUL OR SWAP1 SSTORE POP PUSH32 0x4400000000000000000000000000000000000000000000000000000000000000 PUSH1 0xA PUSH1 0x0 PUSH2 0x100 EXP DUP2 SLOAD DUP2 PUSH4 0xFFFFFFFF MUL NOT AND SWAP1 DUP4 PUSH1 0xE0 SHR MUL OR SWAP1 SSTORE POP PUSH1 0x40 MLOAD PUSH1 0x20 ADD PUSH2 0x17E SWAP1 PUSH2 0x328 JUMP JUMPDEST PUSH1 0x40 MLOAD PUSH1 0x20 DUP2 DUP4 SUB SUB DUP2 MSTORE SWAP1 PUSH1 0x40 MSTORE DUP1 MLOAD SWAP1 PUSH1 0x20 ADD KECCAK256 PUSH1 0xB SSTORE CALLER PUSH1 0xC PUSH1 0x0 PUSH2 0x100 EXP DUP2 SLOAD DUP2 PUSH20 0xFFFFFFFFFFFFFFFFFFFFFFFFFFFFFFFFFFFFFFFF MUL NOT AND SWAP1 DUP4 PUSH20 0xFFFFFFFFFFFFFFFFFFFFFFFFFFFFFFFFFFFFFFFF AND MUL OR SWAP1 SSTORE POP PUSH20 0xCD6A42782D230D7C13A74DDEC5DD140E55499DF9 PUSH1 0xD PUSH1 0x0 PUSH2 0x100 EXP DUP2 SLOAD DUP2 PUSH20 0xFFFFFFFFFFFFFFFFFFFFFFFFFFFFFFFFFFFFFFFF MUL NOT AND SWAP1 DUP4 PUSH20 0xFFFFFFFFFFFFFFFFFFFFFFFFFFFFFFFFFFFFFFFF AND MUL OR SWAP1 SSTORE POP CALLVALUE DUP1 ISZERO PUSH2 0x239 JUMPI PUSH1 0x0 DUP1 REVERT JUMPDEST POP PUSH2 0x406 JUMP JUMPDEST DUP3 DUP1 SLOAD PUSH2 0x24B SWAP1 PUSH2 0x353 JUMP JUMPDEST SWAP1 PUSH1 0x0 MSTORE PUSH1 0x20 PUSH1 0x0 KECCAK256 SWAP1 PUSH1 0x1F ADD PUSH1 0x20 SWAP1 DIV DUP2 ADD SWAP3 DUP3 PUSH2 0x26D JUMPI PUSH1 0x0 DUP6 SSTORE PUSH2 0x2B4 JUMP JUMPDEST DUP3 PUSH1 0x1F LT PUSH2 0x286 JUMPI DUP1 MLOAD PUSH1 0xFF NOT AND DUP4 DUP1 ADD OR DUP6 SSTORE PUSH2 0x2B4 JUMP JUMPDEST DUP3 DUP1 ADD PUSH1 0x1 ADD DUP6 SSTORE DUP3 ISZERO PUSH2 0x2B4 JUMPI SWAP2 DUP3 ADD JUMPDEST DUP3 DUP2 GT ISZERO PUSH2 0x2B3 JUMPI DUP3 MLOAD DUP3 SSTORE SWAP2 PUSH1 0x20 ADD SWAP2 SWAP1 PUSH1 0x1 ADD SWAP1 PUSH2 0x298 JUMP JUMPDEST JUMPDEST POP SWAP1 POP PUSH2 0x2C1 SWAP2 SWAP1 PUSH2 0x2C5 JUMP JUMPDEST POP SWAP1 JUMP JUMPDEST JUMPDEST DUP1 DUP3 GT ISZERO PUSH2 0x2DE JUMPI PUSH1 0x0 DUP2 PUSH1 0x0 SWAP1 SSTORE POP PUSH1 0x1 ADD PUSH2 0x2C6 JUMP JUMPDEST POP SWAP1 JUMP JUMPDEST PUSH1 0x0 PUSH2 0x2EF PUSH1 0x4 DUP4 PUSH2 0x348 JUMP JUMPDEST SWAP2 POP PUSH2 0x2FA DUP3 PUSH2 0x3B4 JUMP JUMPDEST PUSH1 0x4 DUP3 ADD SWAP1 POP SWAP2 SWAP1 POP JUMP JUMPDEST PUSH1 0x0 PUSH2 0x312 PUSH1 0x4 DUP4 PUSH2 0x348 JUMP JUMPDEST SWAP2 POP PUSH2 0x31D DUP3 PUSH2 0x3DD JUMP JUMPDEST PUSH1 0x4 DUP3 ADD SWAP1 POP SWAP2 SWAP1 POP JUMP JUMPDEST PUSH1 0x0 PUSH2 0x333 DUP3 PUSH2 0x2E2 JUMP JUMPDEST SWAP2 POP PUSH2 0x33E DUP3 PUSH2 0x305 JUMP JUMPDEST SWAP2 POP DUP2 SWAP1 POP SWAP2 SWAP1 POP JUMP JUMPDEST PUSH1 0x0 DUP2 SWAP1 POP SWAP3 SWAP2 POP POP JUMP JUMPDEST PUSH1 0x0 PUSH1 0x2 DUP3 DIV SWAP1 POP PUSH1 0x1 DUP3 AND DUP1 PUSH2 0x36B JUMPI PUSH1 0x7F DUP3 AND SWAP2 POP JUMPDEST PUSH1 0x20 DUP3 LT DUP2 EQ ISZERO PUSH2 0x37F JUMPI PUSH2 0x37E PUSH2 0x385 JUMP JUMPDEST JUMPDEST POP SWAP2 SWAP1 POP JUMP JUMPDEST PUSH32 0x4E487B7100000000000000000000000000000000000000000000000000000000 PUSH1 0x0 MSTORE PUSH1 0x22 PUSH1 0x4 MSTORE PUSH1 0x24 PUSH1 0x0 REVERT JUMPDEST PUSH32 0x486F6C6100000000000000000000000000000000000000000000000000000000 PUSH1 0x0 DUP3 ADD MSTORE POP JUMP JUMPDEST PUSH32 0x4A6F616E00000000000000000000000000000000000000000000000000000000 PUSH1 0x0 DUP3 ADD MSTORE POP JUMP JUMPDEST PUSH2 0x63C DUP1 PUSH2 0x415 PUSH1 0x0 CODECOPY PUSH1 0x0 RETURN INVALID PUSH1 0x80 PUSH1 0x40 MSTORE CALLVALUE DUP1 ISZERO PUSH2 0x10 JUMPI PUSH1 0x0 DUP1 REVERT JUMPDEST POP PUSH1 0x4 CALLDATASIZE LT PUSH2 0x93 JUMPI PUSH1 0x0 CALLDATALOAD PUSH1 0xE0 SHR DUP1 PUSH4 0xB71D2CEC GT PUSH2 0x66 JUMPI DUP1 PUSH4 0xB71D2CEC EQ PUSH2 0x110 JUMPI DUP1 PUSH4 0xB83D07B7 EQ PUSH2 0x12E JUMPI DUP1 PUSH4 0xCD97D84E EQ PUSH2 0x14C JUMPI DUP1 PUSH4 0xEA362B44 EQ PUSH2 0x16A JUMPI DUP1 PUSH4 0xEBBB4BEC EQ PUSH2 0x188 JUMPI PUSH2 0x93 JUMP JUMPDEST DUP1 PUSH4 0x312EEF29 EQ PUSH2 0x98 JUMPI DUP1 PUSH4 0x4DAB6CBE EQ PUSH2 0xB6 JUMPI DUP1 PUSH4 0x4DF7E3D0 EQ PUSH2 0xD4 JUMPI DUP1 PUSH4 0x8A054AC2 EQ PUSH2 0xF2 JUMPI JUMPDEST PUSH1 0x0 DUP1 REVERT JUMPDEST PUSH2 0xA0 PUSH2 0x1A6 JUMP JUMPDEST PUSH1 0x40 MLOAD PUSH2 0xAD SWAP2 SWAP1 PUSH2 0x40E JUMP JUMPDEST PUSH1 0x40 MLOAD DUP1 SWAP2 SUB SWAP1 RETURN JUMPDEST PUSH2 0xBE PUSH2 0x1B9 JUMP JUMPDEST PUSH1 0x40 MLOAD PUSH2 0xCB SWAP2 SWAP1 PUSH2 0x3F3 JUMP JUMPDEST PUSH1 0x40 MLOAD DUP1 SWAP2 SUB SWAP1 RETURN JUMPDEST PUSH2 0xDC PUSH2 0x1DF JUMP JUMPDEST PUSH1 0x40 MLOAD PUSH2 0xE9 SWAP2 SWAP1 PUSH2 0x49C JUMP JUMPDEST PUSH1 0x40 MLOAD DUP1 SWAP2 SUB SWAP1 RETURN JUMPDEST PUSH2 0xFA PUSH2 0x1F2 JUMP JUMPDEST PUSH1 0x40 MLOAD PUSH2 0x107 SWAP2 SWAP1 PUSH2 0x45F JUMP JUMPDEST PUSH1 0x40 MLOAD DUP1 SWAP2 SUB SWAP1 RETURN JUMPDEST PUSH2 0x118 PUSH2 0x205 JUMP JUMPDEST PUSH1 0x40 MLOAD PUSH2 0x125 SWAP2 SWAP1 PUSH2 0x3F3 JUMP JUMPDEST PUSH1 0x40 MLOAD DUP1 SWAP2 SUB SWAP1 RETURN JUMPDEST PUSH2 0x136 PUSH2 0x22B JUMP JUMPDEST PUSH1 0x40 MLOAD PUSH2 0x143 SWAP2 SWAP1 PUSH2 0x47A JUMP JUMPDEST PUSH1 0x40 MLOAD DUP1 SWAP2 SUB SWAP1 RETURN JUMPDEST PUSH2 0x154 PUSH2 0x2B9 JUMP JUMPDEST PUSH1 0x40 MLOAD PUSH2 0x161 SWAP2 SWAP1 PUSH2 0x429 JUMP JUMPDEST PUSH1 0x40 MLOAD DUP1 SWAP2 SUB SWAP1 RETURN JUMPDEST PUSH2 0x172 PUSH2 0x2BF JUMP JUMPDEST PUSH1 0x40 MLOAD PUSH2 0x17F SWAP2 SWAP1 PUSH2 0x444 JUMP JUMPDEST PUSH1 0x40 MLOAD DUP1 SWAP2 SUB SWAP1 RETURN JUMPDEST PUSH2 0x190 PUSH2 0x2D2 JUMP JUMPDEST PUSH1 0x40 MLOAD PUSH2 0x19D SWAP2 SWAP1 PUSH2 0x47A JUMP JUMPDEST PUSH1 0x40 MLOAD DUP1 SWAP2 SUB SWAP1 RETURN JUMPDEST PUSH1 0x8 PUSH1 0x1 SWAP1 SLOAD SWAP1 PUSH2 0x100 EXP SWAP1 DIV PUSH1 0xFF AND DUP2 JUMP JUMPDEST PUSH1 0xD PUSH1 0x0 SWAP1 SLOAD SWAP1 PUSH2 0x100 EXP SWAP1 DIV PUSH20 0xFFFFFFFFFFFFFFFFFFFFFFFFFFFFFFFFFFFFFFFF AND DUP2 JUMP JUMPDEST PUSH1 0x1 PUSH1 0x0 SWAP1 SLOAD SWAP1 PUSH2 0x100 EXP SWAP1 DIV PUSH1 0xFF AND DUP2 JUMP JUMPDEST PUSH1 0x3 PUSH1 0x0 SWAP1 SLOAD SWAP1 PUSH2 0x100 EXP SWAP1 DIV PUSH1 0x0 SIGNEXTEND DUP2 JUMP JUMPDEST PUSH1 0xC PUSH1 0x0 SWAP1 SLOAD SWAP1 PUSH2 0x100 EXP SWAP1 DIV PUSH20 0xFFFFFFFFFFFFFFFFFFFFFFFFFFFFFFFFFFFFFFFF AND DUP2 JUMP JUMPDEST PUSH1 0x6 DUP1 SLOAD PUSH2 0x238 SWAP1 PUSH2 0x594 JUMP JUMPDEST DUP1 PUSH1 0x1F ADD PUSH1 0x20 DUP1 SWAP2 DIV MUL PUSH1 0x20 ADD PUSH1 0x40 MLOAD SWAP1 DUP2 ADD PUSH1 0x40 MSTORE DUP1 SWAP3 SWAP2 SWAP1 DUP2 DUP2 MSTORE PUSH1 0x20 ADD DUP3 DUP1 SLOAD PUSH2 0x264 SWAP1 PUSH2 0x594 JUMP JUMPDEST DUP1 ISZERO PUSH2 0x2B1 JUMPI DUP1 PUSH1 0x1F LT PUSH2 0x286 JUMPI PUSH2 0x100 DUP1 DUP4 SLOAD DIV MUL DUP4 MSTORE SWAP2 PUSH1 0x20 ADD SWAP2 PUSH2 0x2B1 JUMP JUMPDEST DUP3 ADD SWAP2 SWAP1 PUSH1 0x0 MSTORE PUSH1 0x20 PUSH1 0x0 KECCAK256 SWAP1 JUMPDEST DUP2 SLOAD DUP2 MSTORE SWAP1 PUSH1 0x1 ADD SWAP1 PUSH1 0x20 ADD DUP1 DUP4 GT PUSH2 0x294 JUMPI DUP3 SWAP1 SUB PUSH1 0x1F AND DUP3 ADD SWAP2 JUMPDEST POP POP POP POP POP DUP2 JUMP JUMPDEST PUSH1 0xB SLOAD DUP2 JUMP JUMPDEST PUSH1 0xA PUSH1 0x0 SWAP1 SLOAD SWAP1 PUSH2 0x100 EXP SWAP1 DIV PUSH1 0xE0 SHL DUP2 JUMP JUMPDEST PUSH1 0x7 DUP1 SLOAD PUSH2 0x2DF SWAP1 PUSH2 0x594 JUMP JUMPDEST DUP1 PUSH1 0x1F ADD PUSH1 0x20 DUP1 SWAP2 DIV MUL PUSH1 0x20 ADD PUSH1 0x40 MLOAD SWAP1 DUP2 ADD PUSH1 0x40 MSTORE DUP1 SWAP3 SWAP2 SWAP1 DUP2 DUP2 MSTORE PUSH1 0x20 ADD DUP3 DUP1 SLOAD PUSH2 0x30B SWAP1 PUSH2 0x594 JUMP JUMPDEST DUP1 ISZERO PUSH2 0x358 JUMPI DUP1 PUSH1 0x1F LT PUSH2 0x32D JUMPI PUSH2 0x100 DUP1 DUP4 SLOAD DIV MUL DUP4 MSTORE SWAP2 PUSH1 0x20 ADD SWAP2 PUSH2 0x358 JUMP JUMPDEST DUP3 ADD SWAP2 SWAP1 PUSH1 0x0 MSTORE PUSH1 0x20 PUSH1 0x0 KECCAK256 SWAP1 JUMPDEST DUP2 SLOAD DUP2 MSTORE SWAP1 PUSH1 0x1 ADD SWAP1 PUSH1 0x20 ADD DUP1 DUP4 GT PUSH2 0x33B JUMPI DUP3 SWAP1 SUB PUSH1 0x1F AND DUP3 ADD SWAP2 JUMPDEST POP POP POP POP POP DUP2 JUMP JUMPDEST PUSH2 0x369 DUP2 PUSH2 0x4D3 JUMP JUMPDEST DUP3 MSTORE POP POP JUMP JUMPDEST PUSH2 0x378 DUP2 PUSH2 0x4E5 JUMP JUMPDEST DUP3 MSTORE POP POP JUMP JUMPDEST PUSH2 0x387 DUP2 PUSH2 0x4F1 JUMP JUMPDEST DUP3 MSTORE POP POP JUMP JUMPDEST PUSH2 0x396 DUP2 PUSH2 0x4FB JUMP JUMPDEST DUP3 MSTORE POP POP JUMP JUMPDEST PUSH2 0x3A5 DUP2 PUSH2 0x527 JUMP JUMPDEST DUP3 MSTORE POP POP JUMP JUMPDEST PUSH1 0x0 PUSH2 0x3B6 DUP3 PUSH2 0x4B7 JUMP JUMPDEST PUSH2 0x3C0 DUP2 DUP6 PUSH2 0x4C2 JUMP JUMPDEST SWAP4 POP PUSH2 0x3D0 DUP2 DUP6 PUSH1 0x20 DUP7 ADD PUSH2 0x561 JUMP JUMPDEST PUSH2 0x3D9 DUP2 PUSH2 0x5F5 JUMP JUMPDEST DUP5 ADD SWAP2 POP POP SWAP3 SWAP2 POP POP JUMP JUMPDEST PUSH2 0x3ED DUP2 PUSH2 0x554 JUMP JUMPDEST DUP3 MSTORE POP POP JUMP JUMPDEST PUSH1 0x0 PUSH1 0x20 DUP3 ADD SWAP1 POP PUSH2 0x408 PUSH1 0x0 DUP4 ADD DUP5 PUSH2 0x360 JUMP JUMPDEST SWAP3 SWAP2 POP POP JUMP JUMPDEST PUSH1 0x0 PUSH1 0x20 DUP3 ADD SWAP1 POP PUSH2 0x423 PUSH1 0x0 DUP4 ADD DUP5 PUSH2 0x36F JUMP JUMPDEST SWAP3 SWAP2 POP POP JUMP JUMPDEST PUSH1 0x0 PUSH1 0x20 DUP3 ADD SWAP1 POP PUSH2 0x43E PUSH1 0x0 DUP4 ADD DUP5 PUSH2 0x37E JUMP JUMPDEST SWAP3 SWAP2 POP POP JUMP JUMPDEST PUSH1 0x0 PUSH1 0x20 DUP3 ADD SWAP1 POP PUSH2 0x459 PUSH1 0x0 DUP4 ADD DUP5 PUSH2 0x38D JUMP JUMPDEST SWAP3 SWAP2 POP POP JUMP JUMPDEST PUSH1 0x0 PUSH1 0x20 DUP3 ADD SWAP1 POP PUSH2 0x474 PUSH1 0x0 DUP4 ADD DUP5 PUSH2 0x39C JUMP JUMPDEST SWAP3 SWAP2 POP POP JUMP JUMPDEST PUSH1 0x0 PUSH1 0x20 DUP3 ADD SWAP1 POP DUP2 DUP2 SUB PUSH1 0x0 DUP4 ADD MSTORE PUSH2 0x494 DUP2 DUP5 PUSH2 0x3AB JUMP JUMPDEST SWAP1 POP SWAP3 SWAP2 POP POP JUMP JUMPDEST PUSH1 0x0 PUSH1 0x20 DUP3 ADD SWAP1 POP PUSH2 0x4B1 PUSH1 0x0 DUP4 ADD DUP5 PUSH2 0x3E4 JUMP JUMPDEST SWAP3 SWAP2 POP POP JUMP JUMPDEST PUSH1 0x0 DUP2 MLOAD SWAP1 POP SWAP2 SWAP1 POP JUMP JUMPDEST PUSH1 0x0 DUP3 DUP3 MSTORE PUSH1 0x20 DUP3 ADD SWAP1 POP SWAP3 SWAP2 POP POP JUMP JUMPDEST PUSH1 0x0 PUSH2 0x4DE DUP3 PUSH2 0x534 JUMP JUMPDEST SWAP1 POP SWAP2 SWAP1 POP JUMP JUMPDEST PUSH1 0x0 DUP2 ISZERO ISZERO SWAP1 POP SWAP2 SWAP1 POP JUMP JUMPDEST PUSH1 0x0 DUP2 SWAP1 POP SWAP2 SWAP1 POP JUMP JUMPDEST PUSH1 0x0 PUSH32 0xFFFFFFFF00000000000000000000000000000000000000000000000000000000 DUP3 AND SWAP1 POP SWAP2 SWAP1 POP JUMP JUMPDEST PUSH1 0x0 DUP2 PUSH1 0x0 SIGNEXTEND SWAP1 POP SWAP2 SWAP1 POP JUMP JUMPDEST PUSH1 0x0 PUSH20 0xFFFFFFFFFFFFFFFFFFFFFFFFFFFFFFFFFFFFFFFF DUP3 AND SWAP1 POP SWAP2 SWAP1 POP JUMP JUMPDEST PUSH1 0x0 PUSH1 0xFF DUP3 AND SWAP1 POP SWAP2 SWAP1 POP JUMP JUMPDEST PUSH1 0x0 JUMPDEST DUP4 DUP2 LT ISZERO PUSH2 0x57F JUMPI DUP1 DUP3 ADD MLOAD DUP2 DUP5 ADD MSTORE PUSH1 0x20 DUP2 ADD SWAP1 POP PUSH2 0x564 JUMP JUMPDEST DUP4 DUP2 GT ISZERO PUSH2 0x58E JUMPI PUSH1 0x0 DUP5 DUP5 ADD MSTORE JUMPDEST POP POP POP POP JUMP JUMPDEST PUSH1 0x0 PUSH1 0x2 DUP3 DIV SWAP1 POP PUSH1 0x1 DUP3 AND DUP1 PUSH2 0x5AC JUMPI PUSH1 0x7F DUP3 AND SWAP2 POP JUMPDEST PUSH1 0x20 DUP3 LT DUP2 EQ ISZERO PUSH2 0x5C0 JUMPI PUSH2 0x5BF PUSH2 0x5C6 JUMP JUMPDEST JUMPDEST POP SWAP2 SWAP1 POP JUMP JUMPDEST PUSH32 0x4E487B7100000000000000000000000000000000000000000000000000000000 PUSH1 0x0 MSTORE PUSH1 0x22 PUSH1 0x4 MSTORE PUSH1 0x24 PUSH1 0x0 REVERT JUMPDEST PUSH1 0x0 PUSH1 0x1F NOT PUSH1 0x1F DUP4 ADD AND SWAP1 POP SWAP2 SWAP1 POP JUMP INVALID LOG2 PUSH5 0x6970667358 0x22 SLT KECCAK256 SELFBALANCE REVERT SLOAD 0x2D DUP3 0xBE 0xBB 0xB6 PUSH10 0xA31793F2FB465623CDE0 PUSH1 0x68 PUSH10 0x56421EDB36D561C4CB7A PUSH5 0x736F6C6343 STOP ADDMOD DIV STOP CALLER "
				},
				"gasEstimates": {
					"creation": {
						"codeDepositCost": "319200",
						"executionCost": "infinite",
						"totalCost": "infinite"
					},
					"external": {
						"addres1()": "1237",
						"b()": "1216",
						"boolean_true()": "1222",
						"d()": "1242",
						"hashing()": "1173",
						"my_address()": "1214",
						"second_byte()": "1237",
						"str_privado()": "infinite",
						"str_public()": "infinite"
					}
				},
				"methodIdentifiers": {
					"addres1()": "4dab6cbe",
					"b()": "4df7e3d0",
					"boolean_true()": "312eef29",
					"d()": "8a054ac2",
					"hashing()": "cd97d84e",
					"my_address()": "b71d2cec",
					"second_byte()": "ea362b44",
					"str_privado()": "ebbb4bec",
					"str_public()": "b83d07b7"
				}
			},
			"storageLayout": {
				"storage": [
					{
						"astId": 3,
						"contract": "contracts/2_variables_modifiers.sol:variables_modifiers",
						"label": "a",
						"offset": 0,
						"slot": "0",
						"type": "t_uint256"
					},
					{
						"astId": 6,
						"contract": "contracts/2_variables_modifiers.sol:variables_modifiers",
						"label": "b",
						"offset": 0,
						"slot": "1",
						"type": "t_uint8"
					},
					{
						"astId": 8,
						"contract": "contracts/2_variables_modifiers.sol:variables_modifiers",
						"label": "c",
						"offset": 0,
						"slot": "2",
						"type": "t_int256"
					},
					{
						"astId": 12,
						"contract": "contracts/2_variables_modifiers.sol:variables_modifiers",
						"label": "d",
						"offset": 0,
						"slot": "3",
						"type": "t_int8"
					},
					{
						"astId": 15,
						"contract": "contracts/2_variables_modifiers.sol:variables_modifiers",
						"label": "e",
						"offset": 0,
						"slot": "4",
						"type": "t_int256"
					},
					{
						"astId": 17,
						"contract": "contracts/2_variables_modifiers.sol:variables_modifiers",
						"label": "str",
						"offset": 0,
						"slot": "5",
						"type": "t_string_storage"
					},
					{
						"astId": 20,
						"contract": "contracts/2_variables_modifiers.sol:variables_modifiers",
						"label": "str_public",
						"offset": 0,
						"slot": "6",
						"type": "t_string_storage"
					},
					{
						"astId": 23,
						"contract": "contracts/2_variables_modifiers.sol:variables_modifiers",
						"label": "str_privado",
						"offset": 0,
						"slot": "7",
						"type": "t_string_storage"
					},
					{
						"astId": 25,
						"contract": "contracts/2_variables_modifiers.sol:variables_modifiers",
						"label": "boolean",
						"offset": 0,
						"slot": "8",
						"type": "t_bool"
					},
					{
						"astId": 28,
						"contract": "contracts/2_variables_modifiers.sol:variables_modifiers",
						"label": "boolean_true",
						"offset": 1,
						"slot": "8",
						"type": "t_bool"
					},
					{
						"astId": 31,
						"contract": "contracts/2_variables_modifiers.sol:variables_modifiers",
						"label": "boolead_false",
						"offset": 2,
						"slot": "8",
						"type": "t_bool"
					},
					{
						"astId": 33,
						"contract": "contracts/2_variables_modifiers.sol:variables_modifiers",
						"label": "first_bytes",
						"offset": 0,
						"slot": "9",
						"type": "t_bytes32"
					},
					{
						"astId": 36,
						"contract": "contracts/2_variables_modifiers.sol:variables_modifiers",
						"label": "second_byte",
						"offset": 0,
						"slot": "10",
						"type": "t_bytes4"
					},
					{
						"astId": 45,
						"contract": "contracts/2_variables_modifiers.sol:variables_modifiers",
						"label": "hashing",
						"offset": 0,
						"slot": "11",
						"type": "t_bytes32"
					},
					{
						"astId": 49,
						"contract": "contracts/2_variables_modifiers.sol:variables_modifiers",
						"label": "my_address",
						"offset": 0,
						"slot": "12",
						"type": "t_address"
					},
					{
						"astId": 52,
						"contract": "contracts/2_variables_modifiers.sol:variables_modifiers",
						"label": "addres1",
						"offset": 0,
						"slot": "13",
						"type": "t_address"
					}
				],
				"types": {
					"t_address": {
						"encoding": "inplace",
						"label": "address",
						"numberOfBytes": "20"
					},
					"t_bool": {
						"encoding": "inplace",
						"label": "bool",
						"numberOfBytes": "1"
					},
					"t_bytes32": {
						"encoding": "inplace",
						"label": "bytes32",
						"numberOfBytes": "32"
					},
					"t_bytes4": {
						"encoding": "inplace",
						"label": "bytes4",
						"numberOfBytes": "4"
					},
					"t_int256": {
						"encoding": "inplace",
						"label": "int256",
						"numberOfBytes": "32"
					},
					"t_int8": {
						"encoding": "inplace",
						"label": "int8",
						"numberOfBytes": "1"
					},
					"t_string_storage": {
						"encoding": "bytes",
						"label": "string",
						"numberOfBytes": "32"
					},
					"t_uint256": {
						"encoding": "inplace",
						"label": "uint256",
						"numberOfBytes": "32"
					},
					"t_uint8": {
						"encoding": "inplace",
						"label": "uint8",
						"numberOfBytes": "1"
					}
				}
			},
			"userdoc": {
				"kind": "user",
				"methods": {},
				"version": 1
			}
		}
	}
}