{
	"contracts/2_variables_modifiers.sol": {
		"variables_modifiers": {
			"abi": [
				{
					"inputs": [],
					"name": "addres1",
					"outputs": [
						{
							"internalType": "address",
							"name": "",
							"type": "address"
						}
					],
					"stateMutability": "view",
					"type": "function"
				},
				{
					"inputs": [],
					"name": "b",
					"outputs": [
						{
							"internalType": "uint8",
							"name": "",
							"type": "uint8"
						}
					],
					"stateMutability": "view",
					"type": "function"
				},
				{
					"inputs": [],
					"name": "boolean_true",
					"outputs": [
						{
							"internalType": "bool",
							"name": "",
							"type": "bool"
						}
					],
					"stateMutability": "view",
					"type": "function"
				},
				{
					"inputs": [],
					"name": "d",
					"outputs": [
						{
							"internalType": "int8",
							"name": "",
							"type": "int8"
						}
					],
					"stateMutability": "view",
					"type": "function"
				},
				{
					"inputs": [],
					"name": "displayState",
					"outputs": [
						{
							"internalType": "enum variables_modifiers.options",
							"name": "",
							"type": "uint8"
						}
					],
					"stateMutability": "view",
					"type": "function"
				},
				{
					"inputs": [],
					"name": "hashing_keccak256",
					"outputs": [
						{
							"internalType": "bytes32",
							"name": "",
							"type": "bytes32"
						}
					],
					"stateMutability": "view",
					"type": "function"
				},
				{
					"inputs": [],
					"name": "hashing_ripemd160",
					"outputs": [
						{
							"internalType": "bytes20",
							"name": "",
							"type": "bytes20"
						}
					],
					"stateMutability": "view",
					"type": "function"
				},
				{
					"inputs": [],
					"name": "hashing_sha256",
					"outputs": [
						{
							"internalType": "bytes32",
							"name": "",
							"type": "bytes32"
						}
					],
					"stateMutability": "view",
					"type": "function"
				},
				{
					"inputs": [],
					"name": "my_address",
					"outputs": [
						{
							"internalType": "address",
							"name": "",
							"type": "address"
						}
					],
					"stateMutability": "view",
					"type": "function"
				},
				{
					"inputs": [],
					"name": "second_byte",
					"outputs": [
						{
							"internalType": "bytes4",
							"name": "",
							"type": "bytes4"
						}
					],
					"stateMutability": "view",
					"type": "function"
				},
				{
					"inputs": [],
					"name": "state",
					"outputs": [
						{
							"internalType": "enum variables_modifiers.options",
							"name": "",
							"type": "uint8"
						}
					],
					"stateMutability": "view",
					"type": "function"
				},
				{
					"inputs": [],
					"name": "str_privado",
					"outputs": [
						{
							"internalType": "string",
							"name": "",
							"type": "string"
						}
					],
					"stateMutability": "view",
					"type": "function"
				},
				{
					"inputs": [],
					"name": "str_public",
					"outputs": [
						{
							"internalType": "string",
							"name": "",
							"type": "string"
						}
					],
					"stateMutability": "view",
					"type": "function"
				},
				{
					"inputs": [],
					"name": "turnOff",
					"outputs": [],
					"stateMutability": "nonpayable",
					"type": "function"
				},
				{
					"inputs": [],
					"name": "turnOn",
					"outputs": [],
					"stateMutability": "nonpayable",
					"type": "function"
				}
			],
			"devdoc": {
				"kind": "dev",
				"methods": {},
				"version": 1
			},
			"evm": {
				"assembly": "    /* \"contracts/2_variables_modifiers.sol\":66:1351  contract variables_modifiers{\r... */\n  mstore(0x40, 0x80)\n    /* \"contracts/2_variables_modifiers.sol\":175:176  3 */\n  0x03\n    /* \"contracts/2_variables_modifiers.sol\":160:176  uint8 public b=3 */\n  0x01\n  exp(0x0100, 0x00)\n  dup2\n  sload\n  dup2\n  0xff\n  mul\n  not\n  and\n  swap1\n  dup4\n  0xff\n  and\n  mul\n  or\n  swap1\n  sstore\n  pop\n    /* \"contracts/2_variables_modifiers.sol\":241:244  -10 */\n  0xfffffffffffffffffffffffffffffffffffffffffffffffffffffffffffffff6\n    /* \"contracts/2_variables_modifiers.sol\":225:244  int8 public d = -10 */\n  0x03\n  exp(0x0100, 0x00)\n  dup2\n  sload\n  dup2\n  0xff\n  mul\n  not\n  and\n  swap1\n  dup4\n  0x00\n  signextend\n  0xff\n  and\n  mul\n  or\n  swap1\n  sstore\n  pop\n    /* \"contracts/2_variables_modifiers.sol\":259:261  65 */\n  0x41\n    /* \"contracts/2_variables_modifiers.sol\":251:261  int e = 65 */\n  0x04\n  sstore\n    /* \"contracts/2_variables_modifiers.sol\":311:355  string public str_public = \"Esto es publico\" */\n  mload(0x40)\n  dup1\n  0x40\n  add\n  0x40\n  mstore\n  dup1\n  0x0f\n  dup2\n  mstore\n  0x20\n  add\n  0x4573746f206573207075626c69636f0000000000000000000000000000000000\n  dup2\n  mstore\n  pop\n  0x06\n  swap1\n  dup1\n  mload\n  swap1\n  0x20\n  add\n  swap1\n  tag_1\n  swap3\n  swap2\n  swap1\n  tag_2\n  jump\t// in\ntag_1:\n  pop\n    /* \"contracts/2_variables_modifiers.sol\":362:407  string public str_privado = \"Esto es privado\" */\n  mload(0x40)\n  dup1\n  0x40\n  add\n  0x40\n  mstore\n  dup1\n  0x0f\n  dup2\n  mstore\n  0x20\n  add\n  0x4573746f206573207072697661646f0000000000000000000000000000000000\n  dup2\n  mstore\n  pop\n  0x07\n  swap1\n  dup1\n  mload\n  swap1\n  0x20\n  add\n  swap1\n  tag_3\n  swap3\n  swap2\n  swap1\n  tag_2\n  jump\t// in\ntag_3:\n  pop\n    /* \"contracts/2_variables_modifiers.sol\":487:491  true */\n  0x01\n    /* \"contracts/2_variables_modifiers.sol\":460:491  bool public boolean_true = true */\n  0x08\n  exp(0x0100, 0x01)\n  dup2\n  sload\n  dup2\n  0xff\n  mul\n  not\n  and\n  swap1\n  dup4\n  iszero\n  iszero\n  mul\n  or\n  swap1\n  sstore\n  pop\n    /* \"contracts/2_variables_modifiers.sol\":527:532  false */\n  0x00\n    /* \"contracts/2_variables_modifiers.sol\":498:532  bool private boolead_false = false */\n  0x08\n  exp(0x0100, 0x02)\n  dup2\n  sload\n  dup2\n  0xff\n  mul\n  not\n  and\n  swap1\n  dup4\n  iszero\n  iszero\n  mul\n  or\n  swap1\n  sstore\n  pop\n    /* \"contracts/2_variables_modifiers.sol\":590:619  bytes4 public second_byte=\"D\" */\n  0x4400000000000000000000000000000000000000000000000000000000000000\n  0x0a\n  exp(0x0100, 0x00)\n  dup2\n  sload\n  dup2\n  0xffffffff\n  mul\n  not\n  and\n  swap1\n  dup4\n  0xe0\n  shr\n  mul\n  or\n  swap1\n  sstore\n  pop\n    /* \"contracts/2_variables_modifiers.sol\":671:702  abi.encodePacked(\"Hello World\") */\n  add(0x20, mload(0x40))\n  tag_4\n  swap1\n  tag_5\n  jump\t// in\ntag_4:\n  mload(0x40)\n  0x20\n  dup2\n  dup4\n  sub\n  sub\n  dup2\n  mstore\n  swap1\n  0x40\n  mstore\n    /* \"contracts/2_variables_modifiers.sol\":661:703  keccak256(abi.encodePacked(\"Hello World\")) */\n  dup1\n  mload\n  swap1\n  0x20\n  add\n  keccak256\n    /* \"contracts/2_variables_modifiers.sol\":626:703  bytes32 public hashing_keccak256 = keccak256(abi.encodePacked(\"Hello World\")) */\n  0x0b\n  sstore\n    /* \"contracts/2_variables_modifiers.sol\":742:781  sha256(abi.encodePacked(\"Hello World\")) */\n  0x02\n    /* \"contracts/2_variables_modifiers.sol\":749:780  abi.encodePacked(\"Hello World\") */\n  add(0x20, mload(0x40))\n  tag_6\n  swap1\n  tag_5\n  jump\t// in\ntag_6:\n  mload(0x40)\n  0x20\n  dup2\n  dup4\n  sub\n  sub\n  dup2\n  mstore\n  swap1\n  0x40\n  mstore\n    /* \"contracts/2_variables_modifiers.sol\":742:781  sha256(abi.encodePacked(\"Hello World\")) */\n  mload(0x40)\n  tag_7\n  swap2\n  swap1\n  tag_8\n  jump\t// in\ntag_7:\n  0x20\n  mload(0x40)\n  dup1\n  dup4\n  sub\n  dup2\n  dup6\n  gas\n  staticcall\n  iszero\n  dup1\n  iszero\n  tag_10\n  jumpi\n  returndatasize\n  0x00\n  dup1\n  returndatacopy\n  revert(0x00, returndatasize)\ntag_10:\n  pop\n  pop\n  pop\n  mload(0x40)\n  returndatasize\n  not(0x1f)\n  0x1f\n  dup3\n  add\n  and\n  dup3\n  add\n  dup1\n  0x40\n  mstore\n  pop\n  dup2\n  add\n  swap1\n  tag_11\n  swap2\n  swap1\n  tag_12\n  jump\t// in\ntag_11:\n    /* \"contracts/2_variables_modifiers.sol\":710:781  bytes32 public hashing_sha256 = sha256(abi.encodePacked(\"Hello World\")) */\n  0x0c\n  sstore\n    /* \"contracts/2_variables_modifiers.sol\":823:865  ripemd160(abi.encodePacked(\"Hello World\")) */\n  0x03\n    /* \"contracts/2_variables_modifiers.sol\":833:864  abi.encodePacked(\"Hello World\") */\n  add(0x20, mload(0x40))\n  tag_13\n  swap1\n  tag_5\n  jump\t// in\ntag_13:\n  mload(0x40)\n  0x20\n  dup2\n  dup4\n  sub\n  sub\n  dup2\n  mstore\n  swap1\n  0x40\n  mstore\n    /* \"contracts/2_variables_modifiers.sol\":823:865  ripemd160(abi.encodePacked(\"Hello World\")) */\n  mload(0x40)\n  tag_14\n  swap2\n  swap1\n  tag_8\n  jump\t// in\ntag_14:\n  0x20\n  mload(0x40)\n  dup1\n  dup4\n  sub\n  dup2\n  dup6\n  gas\n  staticcall\n  iszero\n  dup1\n  iszero\n  tag_16\n  jumpi\n  returndatasize\n  0x00\n  dup1\n  returndatacopy\n  revert(0x00, returndatasize)\ntag_16:\n  pop\n  pop\n  pop\n  shl(0x60, mload(mload(0x40)))\n    /* \"contracts/2_variables_modifiers.sol\":788:865  bytes20 public hashing_ripemd160 = ripemd160(abi.encodePacked(\"Hello World\")) */\n  0x0d\n  exp(0x0100, 0x00)\n  dup2\n  sload\n  dup2\n  0xffffffffffffffffffffffffffffffffffffffff\n  mul\n  not\n  and\n  swap1\n  dup4\n  0x60\n  shr\n  mul\n  or\n  swap1\n  sstore\n  pop\n    /* \"contracts/2_variables_modifiers.sol\":927:937  msg.sender */\n  caller\n    /* \"contracts/2_variables_modifiers.sol\":899:937  address public my_address = msg.sender */\n  0x0e\n  exp(0x0100, 0x00)\n  dup2\n  sload\n  dup2\n  0xffffffffffffffffffffffffffffffffffffffff\n  mul\n  not\n  and\n  swap1\n  dup4\n  0xffffffffffffffffffffffffffffffffffffffff\n  and\n  mul\n  or\n  swap1\n  sstore\n  pop\n    /* \"contracts/2_variables_modifiers.sol\":969:1011  0xcD6a42782d230D7c13A74ddec5dD140e55499Df9 */\n  0xcd6a42782d230d7c13a74ddec5dd140e55499df9\n    /* \"contracts/2_variables_modifiers.sol\":944:1011  address public addres1 = 0xcD6a42782d230D7c13A74ddec5dD140e55499Df9 */\n  0x0f\n  exp(0x0100, 0x00)\n  dup2\n  sload\n  dup2\n  0xffffffffffffffffffffffffffffffffffffffff\n  mul\n  not\n  and\n  swap1\n  dup4\n  0xffffffffffffffffffffffffffffffffffffffff\n  and\n  mul\n  or\n  swap1\n  sstore\n  pop\n    /* \"contracts/2_variables_modifiers.sol\":1101:1114  options.ERROR */\n  0x02\n    /* \"contracts/2_variables_modifiers.sol\":1078:1114  options public state = options.ERROR */\n  0x0f\n  exp(0x0100, 0x14)\n  dup2\n  sload\n  dup2\n  0xff\n  mul\n  not\n  and\n  swap1\n  dup4\n  0x02\n  dup2\n  gt\n  iszero\n  tag_17\n  jumpi\n  tag_18\n  tag_19\n  jump\t// in\ntag_18:\ntag_17:\n  mul\n  or\n  swap1\n  sstore\n  pop\n    /* \"contracts/2_variables_modifiers.sol\":66:1351  contract variables_modifiers{\r... */\n  callvalue\n  dup1\n  iszero\n  tag_20\n  jumpi\n  0x00\n  dup1\n  revert\ntag_20:\n  pop\n  jump(tag_21)\ntag_2:\n  dup3\n  dup1\n  sload\n  tag_22\n  swap1\n  tag_23\n  jump\t// in\ntag_22:\n  swap1\n  0x00\n  mstore\n  keccak256(0x00, 0x20)\n  swap1\n  0x1f\n  add\n  0x20\n  swap1\n  div\n  dup2\n  add\n  swap3\n  dup3\n  tag_25\n  jumpi\n  0x00\n  dup6\n  sstore\n  jump(tag_24)\ntag_25:\n  dup3\n  0x1f\n  lt\n  tag_26\n  jumpi\n  dup1\n  mload\n  not(0xff)\n  and\n  dup4\n  dup1\n  add\n  or\n  dup6\n  sstore\n  jump(tag_24)\ntag_26:\n  dup3\n  dup1\n  add\n  0x01\n  add\n  dup6\n  sstore\n  dup3\n  iszero\n  tag_24\n  jumpi\n  swap2\n  dup3\n  add\ntag_27:\n  dup3\n  dup2\n  gt\n  iszero\n  tag_28\n  jumpi\n  dup3\n  mload\n  dup3\n  sstore\n  swap2\n  0x20\n  add\n  swap2\n  swap1\n  0x01\n  add\n  swap1\n  jump(tag_27)\ntag_28:\ntag_24:\n  pop\n  swap1\n  pop\n  tag_29\n  swap2\n  swap1\n  tag_30\n  jump\t// in\ntag_29:\n  pop\n  swap1\n  jump\t// out\ntag_30:\ntag_31:\n  dup1\n  dup3\n  gt\n  iszero\n  tag_32\n  jumpi\n  0x00\n  dup2\n  0x00\n  swap1\n  sstore\n  pop\n  0x01\n  add\n  jump(tag_31)\ntag_32:\n  pop\n  swap1\n  jump\t// out\n    /* \"#utility.yul\":7:150   */\ntag_34:\n    /* \"#utility.yul\":64:69   */\n  0x00\n    /* \"#utility.yul\":95:101   */\n  dup2\n    /* \"#utility.yul\":89:102   */\n  mload\n    /* \"#utility.yul\":80:102   */\n  swap1\n  pop\n    /* \"#utility.yul\":111:144   */\n  tag_36\n    /* \"#utility.yul\":138:143   */\n  dup2\n    /* \"#utility.yul\":111:144   */\n  tag_37\n  jump\t// in\ntag_36:\n    /* \"#utility.yul\":7:150   */\n  swap3\n  swap2\n  pop\n  pop\n  jump\t// out\n    /* \"#utility.yul\":156:507   */\ntag_12:\n    /* \"#utility.yul\":226:232   */\n  0x00\n    /* \"#utility.yul\":275:277   */\n  0x20\n    /* \"#utility.yul\":263:272   */\n  dup3\n    /* \"#utility.yul\":254:261   */\n  dup5\n    /* \"#utility.yul\":250:273   */\n  sub\n    /* \"#utility.yul\":246:278   */\n  slt\n    /* \"#utility.yul\":243:362   */\n  iszero\n  tag_39\n  jumpi\n    /* \"#utility.yul\":281:360   */\n  tag_40\n  tag_41\n  jump\t// in\ntag_40:\n    /* \"#utility.yul\":243:362   */\ntag_39:\n    /* \"#utility.yul\":401:402   */\n  0x00\n    /* \"#utility.yul\":426:490   */\n  tag_42\n    /* \"#utility.yul\":482:489   */\n  dup5\n    /* \"#utility.yul\":473:479   */\n  dup3\n    /* \"#utility.yul\":462:471   */\n  dup6\n    /* \"#utility.yul\":458:480   */\n  add\n    /* \"#utility.yul\":426:490   */\n  tag_34\n  jump\t// in\ntag_42:\n    /* \"#utility.yul\":416:490   */\n  swap2\n  pop\n    /* \"#utility.yul\":372:500   */\n  pop\n    /* \"#utility.yul\":156:507   */\n  swap3\n  swap2\n  pop\n  pop\n  jump\t// out\n    /* \"#utility.yul\":513:886   */\ntag_43:\n    /* \"#utility.yul\":617:620   */\n  0x00\n    /* \"#utility.yul\":645:683   */\n  tag_45\n    /* \"#utility.yul\":677:682   */\n  dup3\n    /* \"#utility.yul\":645:683   */\n  tag_46\n  jump\t// in\ntag_45:\n    /* \"#utility.yul\":699:787   */\n  tag_47\n    /* \"#utility.yul\":780:786   */\n  dup2\n    /* \"#utility.yul\":775:778   */\n  dup6\n    /* \"#utility.yul\":699:787   */\n  tag_48\n  jump\t// in\ntag_47:\n    /* \"#utility.yul\":692:787   */\n  swap4\n  pop\n    /* \"#utility.yul\":796:848   */\n  tag_49\n    /* \"#utility.yul\":841:847   */\n  dup2\n    /* \"#utility.yul\":836:839   */\n  dup6\n    /* \"#utility.yul\":829:833   */\n  0x20\n    /* \"#utility.yul\":822:827   */\n  dup7\n    /* \"#utility.yul\":818:834   */\n  add\n    /* \"#utility.yul\":796:848   */\n  tag_50\n  jump\t// in\ntag_49:\n    /* \"#utility.yul\":873:879   */\n  dup1\n    /* \"#utility.yul\":868:871   */\n  dup5\n    /* \"#utility.yul\":864:880   */\n  add\n    /* \"#utility.yul\":857:880   */\n  swap2\n  pop\n    /* \"#utility.yul\":621:886   */\n  pop\n    /* \"#utility.yul\":513:886   */\n  swap3\n  swap2\n  pop\n  pop\n  jump\t// out\n    /* \"#utility.yul\":892:1294   */\ntag_51:\n    /* \"#utility.yul\":1052:1055   */\n  0x00\n    /* \"#utility.yul\":1073:1158   */\n  tag_53\n    /* \"#utility.yul\":1155:1157   */\n  0x0b\n    /* \"#utility.yul\":1150:1153   */\n  dup4\n    /* \"#utility.yul\":1073:1158   */\n  tag_54\n  jump\t// in\ntag_53:\n    /* \"#utility.yul\":1066:1158   */\n  swap2\n  pop\n    /* \"#utility.yul\":1167:1260   */\n  tag_55\n    /* \"#utility.yul\":1256:1259   */\n  dup3\n    /* \"#utility.yul\":1167:1260   */\n  tag_56\n  jump\t// in\ntag_55:\n    /* \"#utility.yul\":1285:1287   */\n  0x0b\n    /* \"#utility.yul\":1280:1283   */\n  dup3\n    /* \"#utility.yul\":1276:1288   */\n  add\n    /* \"#utility.yul\":1269:1288   */\n  swap1\n  pop\n    /* \"#utility.yul\":892:1294   */\n  swap2\n  swap1\n  pop\n  jump\t// out\n    /* \"#utility.yul\":1300:1571   */\ntag_8:\n    /* \"#utility.yul\":1430:1433   */\n  0x00\n    /* \"#utility.yul\":1452:1545   */\n  tag_58\n    /* \"#utility.yul\":1541:1544   */\n  dup3\n    /* \"#utility.yul\":1532:1538   */\n  dup5\n    /* \"#utility.yul\":1452:1545   */\n  tag_43\n  jump\t// in\ntag_58:\n    /* \"#utility.yul\":1445:1545   */\n  swap2\n  pop\n    /* \"#utility.yul\":1562:1565   */\n  dup2\n    /* \"#utility.yul\":1555:1565   */\n  swap1\n  pop\n    /* \"#utility.yul\":1300:1571   */\n  swap3\n  swap2\n  pop\n  pop\n  jump\t// out\n    /* \"#utility.yul\":1577:1958   */\ntag_5:\n    /* \"#utility.yul\":1762:1765   */\n  0x00\n    /* \"#utility.yul\":1784:1932   */\n  tag_60\n    /* \"#utility.yul\":1928:1931   */\n  dup3\n    /* \"#utility.yul\":1784:1932   */\n  tag_51\n  jump\t// in\ntag_60:\n    /* \"#utility.yul\":1777:1932   */\n  swap2\n  pop\n    /* \"#utility.yul\":1949:1952   */\n  dup2\n    /* \"#utility.yul\":1942:1952   */\n  swap1\n  pop\n    /* \"#utility.yul\":1577:1958   */\n  swap2\n  swap1\n  pop\n  jump\t// out\n    /* \"#utility.yul\":2045:2143   */\ntag_46:\n    /* \"#utility.yul\":2096:2102   */\n  0x00\n    /* \"#utility.yul\":2130:2135   */\n  dup2\n    /* \"#utility.yul\":2124:2136   */\n  mload\n    /* \"#utility.yul\":2114:2136   */\n  swap1\n  pop\n    /* \"#utility.yul\":2045:2143   */\n  swap2\n  swap1\n  pop\n  jump\t// out\n    /* \"#utility.yul\":2149:2296   */\ntag_48:\n    /* \"#utility.yul\":2250:2261   */\n  0x00\n    /* \"#utility.yul\":2287:2290   */\n  dup2\n    /* \"#utility.yul\":2272:2290   */\n  swap1\n  pop\n    /* \"#utility.yul\":2149:2296   */\n  swap3\n  swap2\n  pop\n  pop\n  jump\t// out\n    /* \"#utility.yul\":2302:2450   */\ntag_54:\n    /* \"#utility.yul\":2404:2415   */\n  0x00\n    /* \"#utility.yul\":2441:2444   */\n  dup2\n    /* \"#utility.yul\":2426:2444   */\n  swap1\n  pop\n    /* \"#utility.yul\":2302:2450   */\n  swap3\n  swap2\n  pop\n  pop\n  jump\t// out\n    /* \"#utility.yul\":2456:2533   */\ntag_66:\n    /* \"#utility.yul\":2493:2500   */\n  0x00\n    /* \"#utility.yul\":2522:2527   */\n  dup2\n    /* \"#utility.yul\":2511:2527   */\n  swap1\n  pop\n    /* \"#utility.yul\":2456:2533   */\n  swap2\n  swap1\n  pop\n  jump\t// out\n    /* \"#utility.yul\":2539:2846   */\ntag_50:\n    /* \"#utility.yul\":2607:2608   */\n  0x00\n    /* \"#utility.yul\":2617:2730   */\ntag_69:\n    /* \"#utility.yul\":2631:2637   */\n  dup4\n    /* \"#utility.yul\":2628:2629   */\n  dup2\n    /* \"#utility.yul\":2625:2638   */\n  lt\n    /* \"#utility.yul\":2617:2730   */\n  iszero\n  tag_71\n  jumpi\n    /* \"#utility.yul\":2716:2717   */\n  dup1\n    /* \"#utility.yul\":2711:2714   */\n  dup3\n    /* \"#utility.yul\":2707:2718   */\n  add\n    /* \"#utility.yul\":2701:2719   */\n  mload\n    /* \"#utility.yul\":2697:2698   */\n  dup2\n    /* \"#utility.yul\":2692:2695   */\n  dup5\n    /* \"#utility.yul\":2688:2699   */\n  add\n    /* \"#utility.yul\":2681:2720   */\n  mstore\n    /* \"#utility.yul\":2653:2655   */\n  0x20\n    /* \"#utility.yul\":2650:2651   */\n  dup2\n    /* \"#utility.yul\":2646:2656   */\n  add\n    /* \"#utility.yul\":2641:2656   */\n  swap1\n  pop\n    /* \"#utility.yul\":2617:2730   */\n  jump(tag_69)\ntag_71:\n    /* \"#utility.yul\":2748:2754   */\n  dup4\n    /* \"#utility.yul\":2745:2746   */\n  dup2\n    /* \"#utility.yul\":2742:2755   */\n  gt\n    /* \"#utility.yul\":2739:2840   */\n  iszero\n  tag_72\n  jumpi\n    /* \"#utility.yul\":2828:2829   */\n  0x00\n    /* \"#utility.yul\":2819:2825   */\n  dup5\n    /* \"#utility.yul\":2814:2817   */\n  dup5\n    /* \"#utility.yul\":2810:2826   */\n  add\n    /* \"#utility.yul\":2803:2830   */\n  mstore\n    /* \"#utility.yul\":2739:2840   */\ntag_72:\n    /* \"#utility.yul\":2588:2846   */\n  pop\n    /* \"#utility.yul\":2539:2846   */\n  pop\n  pop\n  pop\n  jump\t// out\n    /* \"#utility.yul\":2852:3172   */\ntag_23:\n    /* \"#utility.yul\":2896:2902   */\n  0x00\n    /* \"#utility.yul\":2933:2934   */\n  0x02\n    /* \"#utility.yul\":2927:2931   */\n  dup3\n    /* \"#utility.yul\":2923:2935   */\n  div\n    /* \"#utility.yul\":2913:2935   */\n  swap1\n  pop\n    /* \"#utility.yul\":2980:2981   */\n  0x01\n    /* \"#utility.yul\":2974:2978   */\n  dup3\n    /* \"#utility.yul\":2970:2982   */\n  and\n    /* \"#utility.yul\":3001:3019   */\n  dup1\n    /* \"#utility.yul\":2991:3072   */\n  tag_74\n  jumpi\n    /* \"#utility.yul\":3057:3061   */\n  0x7f\n    /* \"#utility.yul\":3049:3055   */\n  dup3\n    /* \"#utility.yul\":3045:3062   */\n  and\n    /* \"#utility.yul\":3035:3062   */\n  swap2\n  pop\n    /* \"#utility.yul\":2991:3072   */\ntag_74:\n    /* \"#utility.yul\":3119:3121   */\n  0x20\n    /* \"#utility.yul\":3111:3117   */\n  dup3\n    /* \"#utility.yul\":3108:3122   */\n  lt\n    /* \"#utility.yul\":3088:3106   */\n  dup2\n    /* \"#utility.yul\":3085:3123   */\n  eq\n    /* \"#utility.yul\":3082:3166   */\n  iszero\n  tag_75\n  jumpi\n    /* \"#utility.yul\":3138:3156   */\n  tag_76\n  tag_77\n  jump\t// in\ntag_76:\n    /* \"#utility.yul\":3082:3166   */\ntag_75:\n    /* \"#utility.yul\":2903:3172   */\n  pop\n    /* \"#utility.yul\":2852:3172   */\n  swap2\n  swap1\n  pop\n  jump\t// out\n    /* \"#utility.yul\":3178:3358   */\ntag_19:\n    /* \"#utility.yul\":3226:3303   */\n  0x4e487b7100000000000000000000000000000000000000000000000000000000\n    /* \"#utility.yul\":3223:3224   */\n  0x00\n    /* \"#utility.yul\":3216:3304   */\n  mstore\n    /* \"#utility.yul\":3323:3327   */\n  0x21\n    /* \"#utility.yul\":3320:3321   */\n  0x04\n    /* \"#utility.yul\":3313:3328   */\n  mstore\n    /* \"#utility.yul\":3347:3351   */\n  0x24\n    /* \"#utility.yul\":3344:3345   */\n  0x00\n    /* \"#utility.yul\":3337:3352   */\n  revert\n    /* \"#utility.yul\":3364:3544   */\ntag_77:\n    /* \"#utility.yul\":3412:3489   */\n  0x4e487b7100000000000000000000000000000000000000000000000000000000\n    /* \"#utility.yul\":3409:3410   */\n  0x00\n    /* \"#utility.yul\":3402:3490   */\n  mstore\n    /* \"#utility.yul\":3509:3513   */\n  0x22\n    /* \"#utility.yul\":3506:3507   */\n  0x04\n    /* \"#utility.yul\":3499:3514   */\n  mstore\n    /* \"#utility.yul\":3533:3537   */\n  0x24\n    /* \"#utility.yul\":3530:3531   */\n  0x00\n    /* \"#utility.yul\":3523:3538   */\n  revert\n    /* \"#utility.yul\":3673:3790   */\ntag_41:\n    /* \"#utility.yul\":3782:3783   */\n  0x00\n    /* \"#utility.yul\":3779:3780   */\n  dup1\n    /* \"#utility.yul\":3772:3784   */\n  revert\n    /* \"#utility.yul\":3796:3957   */\ntag_56:\n    /* \"#utility.yul\":3936:3949   */\n  0x48656c6c6f20576f726c64000000000000000000000000000000000000000000\n    /* \"#utility.yul\":3932:3933   */\n  0x00\n    /* \"#utility.yul\":3924:3930   */\n  dup3\n    /* \"#utility.yul\":3920:3934   */\n  add\n    /* \"#utility.yul\":3913:3950   */\n  mstore\n    /* \"#utility.yul\":3796:3957   */\n  pop\n  jump\t// out\n    /* \"#utility.yul\":3963:4085   */\ntag_37:\n    /* \"#utility.yul\":4036:4060   */\n  tag_85\n    /* \"#utility.yul\":4054:4059   */\n  dup2\n    /* \"#utility.yul\":4036:4060   */\n  tag_66\n  jump\t// in\ntag_85:\n    /* \"#utility.yul\":4029:4034   */\n  dup2\n    /* \"#utility.yul\":4026:4061   */\n  eq\n    /* \"#utility.yul\":4016:4079   */\n  tag_86\n  jumpi\n    /* \"#utility.yul\":4075:4076   */\n  0x00\n    /* \"#utility.yul\":4072:4073   */\n  dup1\n    /* \"#utility.yul\":4065:4077   */\n  revert\n    /* \"#utility.yul\":4016:4079   */\ntag_86:\n    /* \"#utility.yul\":3963:4085   */\n  pop\n  jump\t// out\n    /* \"contracts/2_variables_modifiers.sol\":66:1351  contract variables_modifiers{\r... */\ntag_21:\n  dataSize(sub_0)\n  dup1\n  dataOffset(sub_0)\n  0x00\n  codecopy\n  0x00\n  return\nstop\n\nsub_0: assembly {\n        /* \"contracts/2_variables_modifiers.sol\":66:1351  contract variables_modifiers{\r... */\n      mstore(0x40, 0x80)\n      callvalue\n      dup1\n      iszero\n      tag_1\n      jumpi\n      0x00\n      dup1\n      revert\n    tag_1:\n      pop\n      jumpi(tag_2, lt(calldatasize, 0x04))\n      shr(0xe0, calldataload(0x00))\n      dup1\n      0xaf10c810\n      gt\n      tag_18\n      jumpi\n      dup1\n      0xc19d93fb\n      gt\n      tag_19\n      jumpi\n      dup1\n      0xc19d93fb\n      eq\n      tag_14\n      jumpi\n      dup1\n      0xc7109d04\n      eq\n      tag_15\n      jumpi\n      dup1\n      0xea362b44\n      eq\n      tag_16\n      jumpi\n      dup1\n      0xebbb4bec\n      eq\n      tag_17\n      jumpi\n      jump(tag_2)\n    tag_19:\n      dup1\n      0xaf10c810\n      eq\n      tag_10\n      jumpi\n      dup1\n      0xb71d2cec\n      eq\n      tag_11\n      jumpi\n      dup1\n      0xb83d07b7\n      eq\n      tag_12\n      jumpi\n      dup1\n      0xba33ed7d\n      eq\n      tag_13\n      jumpi\n      jump(tag_2)\n    tag_18:\n      dup1\n      0x4df7e3d0\n      gt\n      tag_20\n      jumpi\n      dup1\n      0x4df7e3d0\n      eq\n      tag_6\n      jumpi\n      dup1\n      0x7272eea1\n      eq\n      tag_7\n      jumpi\n      dup1\n      0x7a68ef7f\n      eq\n      tag_8\n      jumpi\n      dup1\n      0x8a054ac2\n      eq\n      tag_9\n      jumpi\n      jump(tag_2)\n    tag_20:\n      dup1\n      0x2b73648d\n      eq\n      tag_3\n      jumpi\n      dup1\n      0x312eef29\n      eq\n      tag_4\n      jumpi\n      dup1\n      0x4dab6cbe\n      eq\n      tag_5\n      jumpi\n    tag_2:\n      0x00\n      dup1\n      revert\n        /* \"contracts/2_variables_modifiers.sol\":626:703  bytes32 public hashing_keccak256 = keccak256(abi.encodePacked(\"Hello World\")) */\n    tag_3:\n      tag_21\n      tag_22\n      jump\t// in\n    tag_21:\n      mload(0x40)\n      tag_23\n      swap2\n      swap1\n      tag_24\n      jump\t// in\n    tag_23:\n      mload(0x40)\n      dup1\n      swap2\n      sub\n      swap1\n      return\n        /* \"contracts/2_variables_modifiers.sol\":460:491  bool public boolean_true = true */\n    tag_4:\n      tag_25\n      tag_26\n      jump\t// in\n    tag_25:\n      mload(0x40)\n      tag_27\n      swap2\n      swap1\n      tag_28\n      jump\t// in\n    tag_27:\n      mload(0x40)\n      dup1\n      swap2\n      sub\n      swap1\n      return\n        /* \"contracts/2_variables_modifiers.sol\":944:1011  address public addres1 = 0xcD6a42782d230D7c13A74ddec5dD140e55499Df9 */\n    tag_5:\n      tag_29\n      tag_30\n      jump\t// in\n    tag_29:\n      mload(0x40)\n      tag_31\n      swap2\n      swap1\n      tag_32\n      jump\t// in\n    tag_31:\n      mload(0x40)\n      dup1\n      swap2\n      sub\n      swap1\n      return\n        /* \"contracts/2_variables_modifiers.sol\":160:176  uint8 public b=3 */\n    tag_6:\n      tag_33\n      tag_34\n      jump\t// in\n    tag_33:\n      mload(0x40)\n      tag_35\n      swap2\n      swap1\n      tag_36\n      jump\t// in\n    tag_35:\n      mload(0x40)\n      dup1\n      swap2\n      sub\n      swap1\n      return\n        /* \"contracts/2_variables_modifiers.sol\":1264:1348  function displayState() public view returns (options){\r... */\n    tag_7:\n      tag_37\n      tag_38\n      jump\t// in\n    tag_37:\n      mload(0x40)\n      tag_39\n      swap2\n      swap1\n      tag_40\n      jump\t// in\n    tag_39:\n      mload(0x40)\n      dup1\n      swap2\n      sub\n      swap1\n      return\n        /* \"contracts/2_variables_modifiers.sol\":788:865  bytes20 public hashing_ripemd160 = ripemd160(abi.encodePacked(\"Hello World\")) */\n    tag_8:\n      tag_41\n      tag_42\n      jump\t// in\n    tag_41:\n      mload(0x40)\n      tag_43\n      swap2\n      swap1\n      tag_44\n      jump\t// in\n    tag_43:\n      mload(0x40)\n      dup1\n      swap2\n      sub\n      swap1\n      return\n        /* \"contracts/2_variables_modifiers.sol\":225:244  int8 public d = -10 */\n    tag_9:\n      tag_45\n      tag_46\n      jump\t// in\n    tag_45:\n      mload(0x40)\n      tag_47\n      swap2\n      swap1\n      tag_48\n      jump\t// in\n    tag_47:\n      mload(0x40)\n      dup1\n      swap2\n      sub\n      swap1\n      return\n        /* \"contracts/2_variables_modifiers.sol\":1192:1256  function turnOff() public {\r... */\n    tag_10:\n      tag_49\n      tag_50\n      jump\t// in\n    tag_49:\n      stop\n        /* \"contracts/2_variables_modifiers.sol\":899:937  address public my_address = msg.sender */\n    tag_11:\n      tag_51\n      tag_52\n      jump\t// in\n    tag_51:\n      mload(0x40)\n      tag_53\n      swap2\n      swap1\n      tag_32\n      jump\t// in\n    tag_53:\n      mload(0x40)\n      dup1\n      swap2\n      sub\n      swap1\n      return\n        /* \"contracts/2_variables_modifiers.sol\":311:355  string public str_public = \"Esto es publico\" */\n    tag_12:\n      tag_54\n      tag_55\n      jump\t// in\n    tag_54:\n      mload(0x40)\n      tag_56\n      swap2\n      swap1\n      tag_57\n      jump\t// in\n    tag_56:\n      mload(0x40)\n      dup1\n      swap2\n      sub\n      swap1\n      return\n        /* \"contracts/2_variables_modifiers.sol\":1123:1185  function turnOn() public {\r... */\n    tag_13:\n      tag_58\n      tag_59\n      jump\t// in\n    tag_58:\n      stop\n        /* \"contracts/2_variables_modifiers.sol\":1078:1114  options public state = options.ERROR */\n    tag_14:\n      tag_60\n      tag_61\n      jump\t// in\n    tag_60:\n      mload(0x40)\n      tag_62\n      swap2\n      swap1\n      tag_40\n      jump\t// in\n    tag_62:\n      mload(0x40)\n      dup1\n      swap2\n      sub\n      swap1\n      return\n        /* \"contracts/2_variables_modifiers.sol\":710:781  bytes32 public hashing_sha256 = sha256(abi.encodePacked(\"Hello World\")) */\n    tag_15:\n      tag_63\n      tag_64\n      jump\t// in\n    tag_63:\n      mload(0x40)\n      tag_65\n      swap2\n      swap1\n      tag_24\n      jump\t// in\n    tag_65:\n      mload(0x40)\n      dup1\n      swap2\n      sub\n      swap1\n      return\n        /* \"contracts/2_variables_modifiers.sol\":590:619  bytes4 public second_byte=\"D\" */\n    tag_16:\n      tag_66\n      tag_67\n      jump\t// in\n    tag_66:\n      mload(0x40)\n      tag_68\n      swap2\n      swap1\n      tag_69\n      jump\t// in\n    tag_68:\n      mload(0x40)\n      dup1\n      swap2\n      sub\n      swap1\n      return\n        /* \"contracts/2_variables_modifiers.sol\":362:407  string public str_privado = \"Esto es privado\" */\n    tag_17:\n      tag_70\n      tag_71\n      jump\t// in\n    tag_70:\n      mload(0x40)\n      tag_72\n      swap2\n      swap1\n      tag_57\n      jump\t// in\n    tag_72:\n      mload(0x40)\n      dup1\n      swap2\n      sub\n      swap1\n      return\n        /* \"contracts/2_variables_modifiers.sol\":626:703  bytes32 public hashing_keccak256 = keccak256(abi.encodePacked(\"Hello World\")) */\n    tag_22:\n      sload(0x0b)\n      dup2\n      jump\t// out\n        /* \"contracts/2_variables_modifiers.sol\":460:491  bool public boolean_true = true */\n    tag_26:\n      0x08\n      0x01\n      swap1\n      sload\n      swap1\n      0x0100\n      exp\n      swap1\n      div\n      0xff\n      and\n      dup2\n      jump\t// out\n        /* \"contracts/2_variables_modifiers.sol\":944:1011  address public addres1 = 0xcD6a42782d230D7c13A74ddec5dD140e55499Df9 */\n    tag_30:\n      0x0f\n      0x00\n      swap1\n      sload\n      swap1\n      0x0100\n      exp\n      swap1\n      div\n      0xffffffffffffffffffffffffffffffffffffffff\n      and\n      dup2\n      jump\t// out\n        /* \"contracts/2_variables_modifiers.sol\":160:176  uint8 public b=3 */\n    tag_34:\n      0x01\n      0x00\n      swap1\n      sload\n      swap1\n      0x0100\n      exp\n      swap1\n      div\n      0xff\n      and\n      dup2\n      jump\t// out\n        /* \"contracts/2_variables_modifiers.sol\":1264:1348  function displayState() public view returns (options){\r... */\n    tag_38:\n        /* \"contracts/2_variables_modifiers.sol\":1309:1316  options */\n      0x00\n        /* \"contracts/2_variables_modifiers.sol\":1335:1340  state */\n      0x0f\n      0x14\n      swap1\n      sload\n      swap1\n      0x0100\n      exp\n      swap1\n      div\n      0xff\n      and\n        /* \"contracts/2_variables_modifiers.sol\":1328:1340  return state */\n      swap1\n      pop\n        /* \"contracts/2_variables_modifiers.sol\":1264:1348  function displayState() public view returns (options){\r... */\n      swap1\n      jump\t// out\n        /* \"contracts/2_variables_modifiers.sol\":788:865  bytes20 public hashing_ripemd160 = ripemd160(abi.encodePacked(\"Hello World\")) */\n    tag_42:\n      0x0d\n      0x00\n      swap1\n      sload\n      swap1\n      0x0100\n      exp\n      swap1\n      div\n      0x60\n      shl\n      dup2\n      jump\t// out\n        /* \"contracts/2_variables_modifiers.sol\":225:244  int8 public d = -10 */\n    tag_46:\n      0x03\n      0x00\n      swap1\n      sload\n      swap1\n      0x0100\n      exp\n      swap1\n      div\n      0x00\n      signextend\n      dup2\n      jump\t// out\n        /* \"contracts/2_variables_modifiers.sol\":1192:1256  function turnOff() public {\r... */\n    tag_50:\n        /* \"contracts/2_variables_modifiers.sol\":1237:1248  options.OFF */\n      0x01\n        /* \"contracts/2_variables_modifiers.sol\":1229:1234  state */\n      0x0f\n      0x14\n        /* \"contracts/2_variables_modifiers.sol\":1229:1248  state = options.OFF */\n      0x0100\n      exp\n      dup2\n      sload\n      dup2\n      0xff\n      mul\n      not\n      and\n      swap1\n      dup4\n      0x02\n      dup2\n      gt\n      iszero\n      tag_75\n      jumpi\n      tag_76\n      tag_77\n      jump\t// in\n    tag_76:\n    tag_75:\n      mul\n      or\n      swap1\n      sstore\n      pop\n        /* \"contracts/2_variables_modifiers.sol\":1192:1256  function turnOff() public {\r... */\n      jump\t// out\n        /* \"contracts/2_variables_modifiers.sol\":899:937  address public my_address = msg.sender */\n    tag_52:\n      0x0e\n      0x00\n      swap1\n      sload\n      swap1\n      0x0100\n      exp\n      swap1\n      div\n      0xffffffffffffffffffffffffffffffffffffffff\n      and\n      dup2\n      jump\t// out\n        /* \"contracts/2_variables_modifiers.sol\":311:355  string public str_public = \"Esto es publico\" */\n    tag_55:\n      0x06\n      dup1\n      sload\n      tag_78\n      swap1\n      tag_79\n      jump\t// in\n    tag_78:\n      dup1\n      0x1f\n      add\n      0x20\n      dup1\n      swap2\n      div\n      mul\n      0x20\n      add\n      mload(0x40)\n      swap1\n      dup2\n      add\n      0x40\n      mstore\n      dup1\n      swap3\n      swap2\n      swap1\n      dup2\n      dup2\n      mstore\n      0x20\n      add\n      dup3\n      dup1\n      sload\n      tag_80\n      swap1\n      tag_79\n      jump\t// in\n    tag_80:\n      dup1\n      iszero\n      tag_81\n      jumpi\n      dup1\n      0x1f\n      lt\n      tag_82\n      jumpi\n      0x0100\n      dup1\n      dup4\n      sload\n      div\n      mul\n      dup4\n      mstore\n      swap2\n      0x20\n      add\n      swap2\n      jump(tag_81)\n    tag_82:\n      dup3\n      add\n      swap2\n      swap1\n      0x00\n      mstore\n      keccak256(0x00, 0x20)\n      swap1\n    tag_83:\n      dup2\n      sload\n      dup2\n      mstore\n      swap1\n      0x01\n      add\n      swap1\n      0x20\n      add\n      dup1\n      dup4\n      gt\n      tag_83\n      jumpi\n      dup3\n      swap1\n      sub\n      0x1f\n      and\n      dup3\n      add\n      swap2\n    tag_81:\n      pop\n      pop\n      pop\n      pop\n      pop\n      dup2\n      jump\t// out\n        /* \"contracts/2_variables_modifiers.sol\":1123:1185  function turnOn() public {\r... */\n    tag_59:\n        /* \"contracts/2_variables_modifiers.sol\":1167:1177  options.ON */\n      0x00\n        /* \"contracts/2_variables_modifiers.sol\":1159:1164  state */\n      0x0f\n      0x14\n        /* \"contracts/2_variables_modifiers.sol\":1159:1177  state = options.ON */\n      0x0100\n      exp\n      dup2\n      sload\n      dup2\n      0xff\n      mul\n      not\n      and\n      swap1\n      dup4\n      0x02\n      dup2\n      gt\n      iszero\n      tag_85\n      jumpi\n      tag_86\n      tag_77\n      jump\t// in\n    tag_86:\n    tag_85:\n      mul\n      or\n      swap1\n      sstore\n      pop\n        /* \"contracts/2_variables_modifiers.sol\":1123:1185  function turnOn() public {\r... */\n      jump\t// out\n        /* \"contracts/2_variables_modifiers.sol\":1078:1114  options public state = options.ERROR */\n    tag_61:\n      0x0f\n      0x14\n      swap1\n      sload\n      swap1\n      0x0100\n      exp\n      swap1\n      div\n      0xff\n      and\n      dup2\n      jump\t// out\n        /* \"contracts/2_variables_modifiers.sol\":710:781  bytes32 public hashing_sha256 = sha256(abi.encodePacked(\"Hello World\")) */\n    tag_64:\n      sload(0x0c)\n      dup2\n      jump\t// out\n        /* \"contracts/2_variables_modifiers.sol\":590:619  bytes4 public second_byte=\"D\" */\n    tag_67:\n      0x0a\n      0x00\n      swap1\n      sload\n      swap1\n      0x0100\n      exp\n      swap1\n      div\n      0xe0\n      shl\n      dup2\n      jump\t// out\n        /* \"contracts/2_variables_modifiers.sol\":362:407  string public str_privado = \"Esto es privado\" */\n    tag_71:\n      0x07\n      dup1\n      sload\n      tag_87\n      swap1\n      tag_79\n      jump\t// in\n    tag_87:\n      dup1\n      0x1f\n      add\n      0x20\n      dup1\n      swap2\n      div\n      mul\n      0x20\n      add\n      mload(0x40)\n      swap1\n      dup2\n      add\n      0x40\n      mstore\n      dup1\n      swap3\n      swap2\n      swap1\n      dup2\n      dup2\n      mstore\n      0x20\n      add\n      dup3\n      dup1\n      sload\n      tag_88\n      swap1\n      tag_79\n      jump\t// in\n    tag_88:\n      dup1\n      iszero\n      tag_89\n      jumpi\n      dup1\n      0x1f\n      lt\n      tag_90\n      jumpi\n      0x0100\n      dup1\n      dup4\n      sload\n      div\n      mul\n      dup4\n      mstore\n      swap2\n      0x20\n      add\n      swap2\n      jump(tag_89)\n    tag_90:\n      dup3\n      add\n      swap2\n      swap1\n      0x00\n      mstore\n      keccak256(0x00, 0x20)\n      swap1\n    tag_91:\n      dup2\n      sload\n      dup2\n      mstore\n      swap1\n      0x01\n      add\n      swap1\n      0x20\n      add\n      dup1\n      dup4\n      gt\n      tag_91\n      jumpi\n      dup3\n      swap1\n      sub\n      0x1f\n      and\n      dup3\n      add\n      swap2\n    tag_89:\n      pop\n      pop\n      pop\n      pop\n      pop\n      dup2\n      jump\t// out\n        /* \"#utility.yul\":7:125   */\n    tag_93:\n        /* \"#utility.yul\":94:118   */\n      tag_95\n        /* \"#utility.yul\":112:117   */\n      dup2\n        /* \"#utility.yul\":94:118   */\n      tag_96\n      jump\t// in\n    tag_95:\n        /* \"#utility.yul\":89:92   */\n      dup3\n        /* \"#utility.yul\":82:119   */\n      mstore\n        /* \"#utility.yul\":7:125   */\n      pop\n      pop\n      jump\t// out\n        /* \"#utility.yul\":131:240   */\n    tag_97:\n        /* \"#utility.yul\":212:233   */\n      tag_99\n        /* \"#utility.yul\":227:232   */\n      dup2\n        /* \"#utility.yul\":212:233   */\n      tag_100\n      jump\t// in\n    tag_99:\n        /* \"#utility.yul\":207:210   */\n      dup3\n        /* \"#utility.yul\":200:234   */\n      mstore\n        /* \"#utility.yul\":131:240   */\n      pop\n      pop\n      jump\t// out\n        /* \"#utility.yul\":246:364   */\n    tag_101:\n        /* \"#utility.yul\":333:357   */\n      tag_103\n        /* \"#utility.yul\":351:356   */\n      dup2\n        /* \"#utility.yul\":333:357   */\n      tag_104\n      jump\t// in\n    tag_103:\n        /* \"#utility.yul\":328:331   */\n      dup3\n        /* \"#utility.yul\":321:358   */\n      mstore\n        /* \"#utility.yul\":246:364   */\n      pop\n      pop\n      jump\t// out\n        /* \"#utility.yul\":370:488   */\n    tag_105:\n        /* \"#utility.yul\":457:481   */\n      tag_107\n        /* \"#utility.yul\":475:480   */\n      dup2\n        /* \"#utility.yul\":457:481   */\n      tag_108\n      jump\t// in\n    tag_107:\n        /* \"#utility.yul\":452:455   */\n      dup3\n        /* \"#utility.yul\":445:482   */\n      mstore\n        /* \"#utility.yul\":370:488   */\n      pop\n      pop\n      jump\t// out\n        /* \"#utility.yul\":494:609   */\n    tag_109:\n        /* \"#utility.yul\":579:602   */\n      tag_111\n        /* \"#utility.yul\":596:601   */\n      dup2\n        /* \"#utility.yul\":579:602   */\n      tag_112\n      jump\t// in\n    tag_111:\n        /* \"#utility.yul\":574:577   */\n      dup3\n        /* \"#utility.yul\":567:603   */\n      mstore\n        /* \"#utility.yul\":494:609   */\n      pop\n      pop\n      jump\t// out\n        /* \"#utility.yul\":615:762   */\n    tag_113:\n        /* \"#utility.yul\":710:755   */\n      tag_115\n        /* \"#utility.yul\":749:754   */\n      dup2\n        /* \"#utility.yul\":710:755   */\n      tag_116\n      jump\t// in\n    tag_115:\n        /* \"#utility.yul\":705:708   */\n      dup3\n        /* \"#utility.yul\":698:756   */\n      mstore\n        /* \"#utility.yul\":615:762   */\n      pop\n      pop\n      jump\t// out\n        /* \"#utility.yul\":768:877   */\n    tag_117:\n        /* \"#utility.yul\":849:870   */\n      tag_119\n        /* \"#utility.yul\":864:869   */\n      dup2\n        /* \"#utility.yul\":849:870   */\n      tag_120\n      jump\t// in\n    tag_119:\n        /* \"#utility.yul\":844:847   */\n      dup3\n        /* \"#utility.yul\":837:871   */\n      mstore\n        /* \"#utility.yul\":768:877   */\n      pop\n      pop\n      jump\t// out\n        /* \"#utility.yul\":883:1247   */\n    tag_121:\n        /* \"#utility.yul\":971:974   */\n      0x00\n        /* \"#utility.yul\":999:1038   */\n      tag_123\n        /* \"#utility.yul\":1032:1037   */\n      dup3\n        /* \"#utility.yul\":999:1038   */\n      tag_124\n      jump\t// in\n    tag_123:\n        /* \"#utility.yul\":1054:1125   */\n      tag_125\n        /* \"#utility.yul\":1118:1124   */\n      dup2\n        /* \"#utility.yul\":1113:1116   */\n      dup6\n        /* \"#utility.yul\":1054:1125   */\n      tag_126\n      jump\t// in\n    tag_125:\n        /* \"#utility.yul\":1047:1125   */\n      swap4\n      pop\n        /* \"#utility.yul\":1134:1186   */\n      tag_127\n        /* \"#utility.yul\":1179:1185   */\n      dup2\n        /* \"#utility.yul\":1174:1177   */\n      dup6\n        /* \"#utility.yul\":1167:1171   */\n      0x20\n        /* \"#utility.yul\":1160:1165   */\n      dup7\n        /* \"#utility.yul\":1156:1172   */\n      add\n        /* \"#utility.yul\":1134:1186   */\n      tag_128\n      jump\t// in\n    tag_127:\n        /* \"#utility.yul\":1211:1240   */\n      tag_129\n        /* \"#utility.yul\":1233:1239   */\n      dup2\n        /* \"#utility.yul\":1211:1240   */\n      tag_130\n      jump\t// in\n    tag_129:\n        /* \"#utility.yul\":1206:1209   */\n      dup5\n        /* \"#utility.yul\":1202:1241   */\n      add\n        /* \"#utility.yul\":1195:1241   */\n      swap2\n      pop\n        /* \"#utility.yul\":975:1247   */\n      pop\n        /* \"#utility.yul\":883:1247   */\n      swap3\n      swap2\n      pop\n      pop\n      jump\t// out\n        /* \"#utility.yul\":1253:1365   */\n    tag_131:\n        /* \"#utility.yul\":1336:1358   */\n      tag_133\n        /* \"#utility.yul\":1352:1357   */\n      dup2\n        /* \"#utility.yul\":1336:1358   */\n      tag_134\n      jump\t// in\n    tag_133:\n        /* \"#utility.yul\":1331:1334   */\n      dup3\n        /* \"#utility.yul\":1324:1359   */\n      mstore\n        /* \"#utility.yul\":1253:1365   */\n      pop\n      pop\n      jump\t// out\n        /* \"#utility.yul\":1371:1593   */\n    tag_32:\n        /* \"#utility.yul\":1464:1468   */\n      0x00\n        /* \"#utility.yul\":1502:1504   */\n      0x20\n        /* \"#utility.yul\":1491:1500   */\n      dup3\n        /* \"#utility.yul\":1487:1505   */\n      add\n        /* \"#utility.yul\":1479:1505   */\n      swap1\n      pop\n        /* \"#utility.yul\":1515:1586   */\n      tag_136\n        /* \"#utility.yul\":1583:1584   */\n      0x00\n        /* \"#utility.yul\":1572:1581   */\n      dup4\n        /* \"#utility.yul\":1568:1585   */\n      add\n        /* \"#utility.yul\":1559:1565   */\n      dup5\n        /* \"#utility.yul\":1515:1586   */\n      tag_93\n      jump\t// in\n    tag_136:\n        /* \"#utility.yul\":1371:1593   */\n      swap3\n      swap2\n      pop\n      pop\n      jump\t// out\n        /* \"#utility.yul\":1599:1809   */\n    tag_28:\n        /* \"#utility.yul\":1686:1690   */\n      0x00\n        /* \"#utility.yul\":1724:1726   */\n      0x20\n        /* \"#utility.yul\":1713:1722   */\n      dup3\n        /* \"#utility.yul\":1709:1727   */\n      add\n        /* \"#utility.yul\":1701:1727   */\n      swap1\n      pop\n        /* \"#utility.yul\":1737:1802   */\n      tag_138\n        /* \"#utility.yul\":1799:1800   */\n      0x00\n        /* \"#utility.yul\":1788:1797   */\n      dup4\n        /* \"#utility.yul\":1784:1801   */\n      add\n        /* \"#utility.yul\":1775:1781   */\n      dup5\n        /* \"#utility.yul\":1737:1802   */\n      tag_97\n      jump\t// in\n    tag_138:\n        /* \"#utility.yul\":1599:1809   */\n      swap3\n      swap2\n      pop\n      pop\n      jump\t// out\n        /* \"#utility.yul\":1815:2037   */\n    tag_44:\n        /* \"#utility.yul\":1908:1912   */\n      0x00\n        /* \"#utility.yul\":1946:1948   */\n      0x20\n        /* \"#utility.yul\":1935:1944   */\n      dup3\n        /* \"#utility.yul\":1931:1949   */\n      add\n        /* \"#utility.yul\":1923:1949   */\n      swap1\n      pop\n        /* \"#utility.yul\":1959:2030   */\n      tag_140\n        /* \"#utility.yul\":2027:2028   */\n      0x00\n        /* \"#utility.yul\":2016:2025   */\n      dup4\n        /* \"#utility.yul\":2012:2029   */\n      add\n        /* \"#utility.yul\":2003:2009   */\n      dup5\n        /* \"#utility.yul\":1959:2030   */\n      tag_101\n      jump\t// in\n    tag_140:\n        /* \"#utility.yul\":1815:2037   */\n      swap3\n      swap2\n      pop\n      pop\n      jump\t// out\n        /* \"#utility.yul\":2043:2265   */\n    tag_24:\n        /* \"#utility.yul\":2136:2140   */\n      0x00\n        /* \"#utility.yul\":2174:2176   */\n      0x20\n        /* \"#utility.yul\":2163:2172   */\n      dup3\n        /* \"#utility.yul\":2159:2177   */\n      add\n        /* \"#utility.yul\":2151:2177   */\n      swap1\n      pop\n        /* \"#utility.yul\":2187:2258   */\n      tag_142\n        /* \"#utility.yul\":2255:2256   */\n      0x00\n        /* \"#utility.yul\":2244:2253   */\n      dup4\n        /* \"#utility.yul\":2240:2257   */\n      add\n        /* \"#utility.yul\":2231:2237   */\n      dup5\n        /* \"#utility.yul\":2187:2258   */\n      tag_105\n      jump\t// in\n    tag_142:\n        /* \"#utility.yul\":2043:2265   */\n      swap3\n      swap2\n      pop\n      pop\n      jump\t// out\n        /* \"#utility.yul\":2271:2489   */\n    tag_69:\n        /* \"#utility.yul\":2362:2366   */\n      0x00\n        /* \"#utility.yul\":2400:2402   */\n      0x20\n        /* \"#utility.yul\":2389:2398   */\n      dup3\n        /* \"#utility.yul\":2385:2403   */\n      add\n        /* \"#utility.yul\":2377:2403   */\n      swap1\n      pop\n        /* \"#utility.yul\":2413:2482   */\n      tag_144\n        /* \"#utility.yul\":2479:2480   */\n      0x00\n        /* \"#utility.yul\":2468:2477   */\n      dup4\n        /* \"#utility.yul\":2464:2481   */\n      add\n        /* \"#utility.yul\":2455:2461   */\n      dup5\n        /* \"#utility.yul\":2413:2482   */\n      tag_109\n      jump\t// in\n    tag_144:\n        /* \"#utility.yul\":2271:2489   */\n      swap3\n      swap2\n      pop\n      pop\n      jump\t// out\n        /* \"#utility.yul\":2495:2733   */\n    tag_40:\n        /* \"#utility.yul\":2596:2600   */\n      0x00\n        /* \"#utility.yul\":2634:2636   */\n      0x20\n        /* \"#utility.yul\":2623:2632   */\n      dup3\n        /* \"#utility.yul\":2619:2637   */\n      add\n        /* \"#utility.yul\":2611:2637   */\n      swap1\n      pop\n        /* \"#utility.yul\":2647:2726   */\n      tag_146\n        /* \"#utility.yul\":2723:2724   */\n      0x00\n        /* \"#utility.yul\":2712:2721   */\n      dup4\n        /* \"#utility.yul\":2708:2725   */\n      add\n        /* \"#utility.yul\":2699:2705   */\n      dup5\n        /* \"#utility.yul\":2647:2726   */\n      tag_113\n      jump\t// in\n    tag_146:\n        /* \"#utility.yul\":2495:2733   */\n      swap3\n      swap2\n      pop\n      pop\n      jump\t// out\n        /* \"#utility.yul\":2739:2949   */\n    tag_48:\n        /* \"#utility.yul\":2826:2830   */\n      0x00\n        /* \"#utility.yul\":2864:2866   */\n      0x20\n        /* \"#utility.yul\":2853:2862   */\n      dup3\n        /* \"#utility.yul\":2849:2867   */\n      add\n        /* \"#utility.yul\":2841:2867   */\n      swap1\n      pop\n        /* \"#utility.yul\":2877:2942   */\n      tag_148\n        /* \"#utility.yul\":2939:2940   */\n      0x00\n        /* \"#utility.yul\":2928:2937   */\n      dup4\n        /* \"#utility.yul\":2924:2941   */\n      add\n        /* \"#utility.yul\":2915:2921   */\n      dup5\n        /* \"#utility.yul\":2877:2942   */\n      tag_117\n      jump\t// in\n    tag_148:\n        /* \"#utility.yul\":2739:2949   */\n      swap3\n      swap2\n      pop\n      pop\n      jump\t// out\n        /* \"#utility.yul\":2955:3268   */\n    tag_57:\n        /* \"#utility.yul\":3068:3072   */\n      0x00\n        /* \"#utility.yul\":3106:3108   */\n      0x20\n        /* \"#utility.yul\":3095:3104   */\n      dup3\n        /* \"#utility.yul\":3091:3109   */\n      add\n        /* \"#utility.yul\":3083:3109   */\n      swap1\n      pop\n        /* \"#utility.yul\":3155:3164   */\n      dup2\n        /* \"#utility.yul\":3149:3153   */\n      dup2\n        /* \"#utility.yul\":3145:3165   */\n      sub\n        /* \"#utility.yul\":3141:3142   */\n      0x00\n        /* \"#utility.yul\":3130:3139   */\n      dup4\n        /* \"#utility.yul\":3126:3143   */\n      add\n        /* \"#utility.yul\":3119:3166   */\n      mstore\n        /* \"#utility.yul\":3183:3261   */\n      tag_150\n        /* \"#utility.yul\":3256:3260   */\n      dup2\n        /* \"#utility.yul\":3247:3253   */\n      dup5\n        /* \"#utility.yul\":3183:3261   */\n      tag_121\n      jump\t// in\n    tag_150:\n        /* \"#utility.yul\":3175:3261   */\n      swap1\n      pop\n        /* \"#utility.yul\":2955:3268   */\n      swap3\n      swap2\n      pop\n      pop\n      jump\t// out\n        /* \"#utility.yul\":3274:3488   */\n    tag_36:\n        /* \"#utility.yul\":3363:3367   */\n      0x00\n        /* \"#utility.yul\":3401:3403   */\n      0x20\n        /* \"#utility.yul\":3390:3399   */\n      dup3\n        /* \"#utility.yul\":3386:3404   */\n      add\n        /* \"#utility.yul\":3378:3404   */\n      swap1\n      pop\n        /* \"#utility.yul\":3414:3481   */\n      tag_152\n        /* \"#utility.yul\":3478:3479   */\n      0x00\n        /* \"#utility.yul\":3467:3476   */\n      dup4\n        /* \"#utility.yul\":3463:3480   */\n      add\n        /* \"#utility.yul\":3454:3460   */\n      dup5\n        /* \"#utility.yul\":3414:3481   */\n      tag_131\n      jump\t// in\n    tag_152:\n        /* \"#utility.yul\":3274:3488   */\n      swap3\n      swap2\n      pop\n      pop\n      jump\t// out\n        /* \"#utility.yul\":3494:3593   */\n    tag_124:\n        /* \"#utility.yul\":3546:3552   */\n      0x00\n        /* \"#utility.yul\":3580:3585   */\n      dup2\n        /* \"#utility.yul\":3574:3586   */\n      mload\n        /* \"#utility.yul\":3564:3586   */\n      swap1\n      pop\n        /* \"#utility.yul\":3494:3593   */\n      swap2\n      swap1\n      pop\n      jump\t// out\n        /* \"#utility.yul\":3599:3768   */\n    tag_126:\n        /* \"#utility.yul\":3683:3694   */\n      0x00\n        /* \"#utility.yul\":3717:3723   */\n      dup3\n        /* \"#utility.yul\":3712:3715   */\n      dup3\n        /* \"#utility.yul\":3705:3724   */\n      mstore\n        /* \"#utility.yul\":3757:3761   */\n      0x20\n        /* \"#utility.yul\":3752:3755   */\n      dup3\n        /* \"#utility.yul\":3748:3762   */\n      add\n        /* \"#utility.yul\":3733:3762   */\n      swap1\n      pop\n        /* \"#utility.yul\":3599:3768   */\n      swap3\n      swap2\n      pop\n      pop\n      jump\t// out\n        /* \"#utility.yul\":3774:3870   */\n    tag_96:\n        /* \"#utility.yul\":3811:3818   */\n      0x00\n        /* \"#utility.yul\":3840:3864   */\n      tag_156\n        /* \"#utility.yul\":3858:3863   */\n      dup3\n        /* \"#utility.yul\":3840:3864   */\n      tag_157\n      jump\t// in\n    tag_156:\n        /* \"#utility.yul\":3829:3864   */\n      swap1\n      pop\n        /* \"#utility.yul\":3774:3870   */\n      swap2\n      swap1\n      pop\n      jump\t// out\n        /* \"#utility.yul\":3876:3966   */\n    tag_100:\n        /* \"#utility.yul\":3910:3917   */\n      0x00\n        /* \"#utility.yul\":3953:3958   */\n      dup2\n        /* \"#utility.yul\":3946:3959   */\n      iszero\n        /* \"#utility.yul\":3939:3960   */\n      iszero\n        /* \"#utility.yul\":3928:3960   */\n      swap1\n      pop\n        /* \"#utility.yul\":3876:3966   */\n      swap2\n      swap1\n      pop\n      jump\t// out\n        /* \"#utility.yul\":3972:4122   */\n    tag_104:\n        /* \"#utility.yul\":4009:4016   */\n      0x00\n        /* \"#utility.yul\":4049:4115   */\n      0xffffffffffffffffffffffffffffffffffffffff000000000000000000000000\n        /* \"#utility.yul\":4042:4047   */\n      dup3\n        /* \"#utility.yul\":4038:4116   */\n      and\n        /* \"#utility.yul\":4027:4116   */\n      swap1\n      pop\n        /* \"#utility.yul\":3972:4122   */\n      swap2\n      swap1\n      pop\n      jump\t// out\n        /* \"#utility.yul\":4128:4205   */\n    tag_108:\n        /* \"#utility.yul\":4165:4172   */\n      0x00\n        /* \"#utility.yul\":4194:4199   */\n      dup2\n        /* \"#utility.yul\":4183:4199   */\n      swap1\n      pop\n        /* \"#utility.yul\":4128:4205   */\n      swap2\n      swap1\n      pop\n      jump\t// out\n        /* \"#utility.yul\":4211:4360   */\n    tag_112:\n        /* \"#utility.yul\":4247:4254   */\n      0x00\n        /* \"#utility.yul\":4287:4353   */\n      0xffffffff00000000000000000000000000000000000000000000000000000000\n        /* \"#utility.yul\":4280:4285   */\n      dup3\n        /* \"#utility.yul\":4276:4354   */\n      and\n        /* \"#utility.yul\":4265:4354   */\n      swap1\n      pop\n        /* \"#utility.yul\":4211:4360   */\n      swap2\n      swap1\n      pop\n      jump\t// out\n        /* \"#utility.yul\":4366:4497   */\n    tag_162:\n        /* \"#utility.yul\":4413:4420   */\n      0x00\n        /* \"#utility.yul\":4442:4447   */\n      dup2\n        /* \"#utility.yul\":4431:4447   */\n      swap1\n      pop\n        /* \"#utility.yul\":4448:4491   */\n      tag_164\n        /* \"#utility.yul\":4485:4490   */\n      dup3\n        /* \"#utility.yul\":4448:4491   */\n      tag_165\n      jump\t// in\n    tag_164:\n        /* \"#utility.yul\":4366:4497   */\n      swap2\n      swap1\n      pop\n      jump\t// out\n        /* \"#utility.yul\":4503:4592   */\n    tag_120:\n        /* \"#utility.yul\":4537:4544   */\n      0x00\n        /* \"#utility.yul\":4580:4585   */\n      dup2\n        /* \"#utility.yul\":4577:4578   */\n      0x00\n        /* \"#utility.yul\":4566:4586   */\n      signextend\n        /* \"#utility.yul\":4555:4586   */\n      swap1\n      pop\n        /* \"#utility.yul\":4503:4592   */\n      swap2\n      swap1\n      pop\n      jump\t// out\n        /* \"#utility.yul\":4598:4724   */\n    tag_157:\n        /* \"#utility.yul\":4635:4642   */\n      0x00\n        /* \"#utility.yul\":4675:4717   */\n      0xffffffffffffffffffffffffffffffffffffffff\n        /* \"#utility.yul\":4668:4673   */\n      dup3\n        /* \"#utility.yul\":4664:4718   */\n      and\n        /* \"#utility.yul\":4653:4718   */\n      swap1\n      pop\n        /* \"#utility.yul\":4598:4724   */\n      swap2\n      swap1\n      pop\n      jump\t// out\n        /* \"#utility.yul\":4730:4816   */\n    tag_134:\n        /* \"#utility.yul\":4765:4772   */\n      0x00\n        /* \"#utility.yul\":4805:4809   */\n      0xff\n        /* \"#utility.yul\":4798:4803   */\n      dup3\n        /* \"#utility.yul\":4794:4810   */\n      and\n        /* \"#utility.yul\":4783:4810   */\n      swap1\n      pop\n        /* \"#utility.yul\":4730:4816   */\n      swap2\n      swap1\n      pop\n      jump\t// out\n        /* \"#utility.yul\":4822:4953   */\n    tag_116:\n        /* \"#utility.yul\":4880:4889   */\n      0x00\n        /* \"#utility.yul\":4913:4947   */\n      tag_170\n        /* \"#utility.yul\":4941:4946   */\n      dup3\n        /* \"#utility.yul\":4913:4947   */\n      tag_162\n      jump\t// in\n    tag_170:\n        /* \"#utility.yul\":4900:4947   */\n      swap1\n      pop\n        /* \"#utility.yul\":4822:4953   */\n      swap2\n      swap1\n      pop\n      jump\t// out\n        /* \"#utility.yul\":4959:5266   */\n    tag_128:\n        /* \"#utility.yul\":5027:5028   */\n      0x00\n        /* \"#utility.yul\":5037:5150   */\n    tag_172:\n        /* \"#utility.yul\":5051:5057   */\n      dup4\n        /* \"#utility.yul\":5048:5049   */\n      dup2\n        /* \"#utility.yul\":5045:5058   */\n      lt\n        /* \"#utility.yul\":5037:5150   */\n      iszero\n      tag_174\n      jumpi\n        /* \"#utility.yul\":5136:5137   */\n      dup1\n        /* \"#utility.yul\":5131:5134   */\n      dup3\n        /* \"#utility.yul\":5127:5138   */\n      add\n        /* \"#utility.yul\":5121:5139   */\n      mload\n        /* \"#utility.yul\":5117:5118   */\n      dup2\n        /* \"#utility.yul\":5112:5115   */\n      dup5\n        /* \"#utility.yul\":5108:5119   */\n      add\n        /* \"#utility.yul\":5101:5140   */\n      mstore\n        /* \"#utility.yul\":5073:5075   */\n      0x20\n        /* \"#utility.yul\":5070:5071   */\n      dup2\n        /* \"#utility.yul\":5066:5076   */\n      add\n        /* \"#utility.yul\":5061:5076   */\n      swap1\n      pop\n        /* \"#utility.yul\":5037:5150   */\n      jump(tag_172)\n    tag_174:\n        /* \"#utility.yul\":5168:5174   */\n      dup4\n        /* \"#utility.yul\":5165:5166   */\n      dup2\n        /* \"#utility.yul\":5162:5175   */\n      gt\n        /* \"#utility.yul\":5159:5260   */\n      iszero\n      tag_175\n      jumpi\n        /* \"#utility.yul\":5248:5249   */\n      0x00\n        /* \"#utility.yul\":5239:5245   */\n      dup5\n        /* \"#utility.yul\":5234:5237   */\n      dup5\n        /* \"#utility.yul\":5230:5246   */\n      add\n        /* \"#utility.yul\":5223:5250   */\n      mstore\n        /* \"#utility.yul\":5159:5260   */\n    tag_175:\n        /* \"#utility.yul\":5008:5266   */\n      pop\n        /* \"#utility.yul\":4959:5266   */\n      pop\n      pop\n      pop\n      jump\t// out\n        /* \"#utility.yul\":5272:5592   */\n    tag_79:\n        /* \"#utility.yul\":5316:5322   */\n      0x00\n        /* \"#utility.yul\":5353:5354   */\n      0x02\n        /* \"#utility.yul\":5347:5351   */\n      dup3\n        /* \"#utility.yul\":5343:5355   */\n      div\n        /* \"#utility.yul\":5333:5355   */\n      swap1\n      pop\n        /* \"#utility.yul\":5400:5401   */\n      0x01\n        /* \"#utility.yul\":5394:5398   */\n      dup3\n        /* \"#utility.yul\":5390:5402   */\n      and\n        /* \"#utility.yul\":5421:5439   */\n      dup1\n        /* \"#utility.yul\":5411:5492   */\n      tag_177\n      jumpi\n        /* \"#utility.yul\":5477:5481   */\n      0x7f\n        /* \"#utility.yul\":5469:5475   */\n      dup3\n        /* \"#utility.yul\":5465:5482   */\n      and\n        /* \"#utility.yul\":5455:5482   */\n      swap2\n      pop\n        /* \"#utility.yul\":5411:5492   */\n    tag_177:\n        /* \"#utility.yul\":5539:5541   */\n      0x20\n        /* \"#utility.yul\":5531:5537   */\n      dup3\n        /* \"#utility.yul\":5528:5542   */\n      lt\n        /* \"#utility.yul\":5508:5526   */\n      dup2\n        /* \"#utility.yul\":5505:5543   */\n      eq\n        /* \"#utility.yul\":5502:5586   */\n      iszero\n      tag_178\n      jumpi\n        /* \"#utility.yul\":5558:5576   */\n      tag_179\n      tag_180\n      jump\t// in\n    tag_179:\n        /* \"#utility.yul\":5502:5586   */\n    tag_178:\n        /* \"#utility.yul\":5323:5592   */\n      pop\n        /* \"#utility.yul\":5272:5592   */\n      swap2\n      swap1\n      pop\n      jump\t// out\n        /* \"#utility.yul\":5598:5778   */\n    tag_77:\n        /* \"#utility.yul\":5646:5723   */\n      0x4e487b7100000000000000000000000000000000000000000000000000000000\n        /* \"#utility.yul\":5643:5644   */\n      0x00\n        /* \"#utility.yul\":5636:5724   */\n      mstore\n        /* \"#utility.yul\":5743:5747   */\n      0x21\n        /* \"#utility.yul\":5740:5741   */\n      0x04\n        /* \"#utility.yul\":5733:5748   */\n      mstore\n        /* \"#utility.yul\":5767:5771   */\n      0x24\n        /* \"#utility.yul\":5764:5765   */\n      0x00\n        /* \"#utility.yul\":5757:5772   */\n      revert\n        /* \"#utility.yul\":5784:5964   */\n    tag_180:\n        /* \"#utility.yul\":5832:5909   */\n      0x4e487b7100000000000000000000000000000000000000000000000000000000\n        /* \"#utility.yul\":5829:5830   */\n      0x00\n        /* \"#utility.yul\":5822:5910   */\n      mstore\n        /* \"#utility.yul\":5929:5933   */\n      0x22\n        /* \"#utility.yul\":5926:5927   */\n      0x04\n        /* \"#utility.yul\":5919:5934   */\n      mstore\n        /* \"#utility.yul\":5953:5957   */\n      0x24\n        /* \"#utility.yul\":5950:5951   */\n      0x00\n        /* \"#utility.yul\":5943:5958   */\n      revert\n        /* \"#utility.yul\":5970:6072   */\n    tag_130:\n        /* \"#utility.yul\":6011:6017   */\n      0x00\n        /* \"#utility.yul\":6062:6064   */\n      0x1f\n        /* \"#utility.yul\":6058:6065   */\n      not\n        /* \"#utility.yul\":6053:6055   */\n      0x1f\n        /* \"#utility.yul\":6046:6051   */\n      dup4\n        /* \"#utility.yul\":6042:6056   */\n      add\n        /* \"#utility.yul\":6038:6066   */\n      and\n        /* \"#utility.yul\":6028:6066   */\n      swap1\n      pop\n        /* \"#utility.yul\":5970:6072   */\n      swap2\n      swap1\n      pop\n      jump\t// out\n        /* \"#utility.yul\":6078:6193   */\n    tag_165:\n        /* \"#utility.yul\":6161:6162   */\n      0x03\n        /* \"#utility.yul\":6154:6159   */\n      dup2\n        /* \"#utility.yul\":6151:6163   */\n      lt\n        /* \"#utility.yul\":6141:6187   */\n      tag_185\n      jumpi\n        /* \"#utility.yul\":6167:6185   */\n      tag_186\n      tag_77\n      jump\t// in\n    tag_186:\n        /* \"#utility.yul\":6141:6187   */\n    tag_185:\n        /* \"#utility.yul\":6078:6193   */\n      pop\n      jump\t// out\n\n    auxdata: 0xa26469706673582212209907b3d81808d29cb6887d17d2513baba0461357e955464d76a391287a25669864736f6c63430008070033\n}\n",
				"bytecode": {
					"linkReferences": {},
					"object": "60806040526003600160006101000a81548160ff021916908360ff1602179055507ffffffffffffffffffffffffffffffffffffffffffffffffffffffffffffffff6600360006101000a81548160ff021916908360000b60ff16021790555060416004556040518060400160405280600f81526020017f4573746f206573207075626c69636f000000000000000000000000000000000081525060069080519060200190620000b092919062000372565b506040518060400160405280600f81526020017f4573746f206573207072697661646f000000000000000000000000000000000081525060079080519060200190620000fe92919062000372565b506001600860016101000a81548160ff0219169083151502179055506000600860026101000a81548160ff0219169083151502179055507f4400000000000000000000000000000000000000000000000000000000000000600a60006101000a81548163ffffffff021916908360e01c02179055506040516020016200018490620004e2565b60405160208183030381529060405280519060200120600b556002604051602001620001b090620004e2565b604051602081830303815290604052604051620001ce9190620004c9565b602060405180830381855afa158015620001ec573d6000803e3d6000fd5b5050506040513d601f19601f8201168201806040525081019062000211919062000439565b600c5560036040516020016200022790620004e2565b604051602081830303815290604052604051620002459190620004c9565b602060405180830381855afa15801562000263573d6000803e3d6000fd5b5050506040515160601b600d60006101000a81548173ffffffffffffffffffffffffffffffffffffffff021916908360601c021790555033600e60006101000a81548173ffffffffffffffffffffffffffffffffffffffff021916908373ffffffffffffffffffffffffffffffffffffffff16021790555073cd6a42782d230d7c13a74ddec5dd140e55499df9600f60006101000a81548173ffffffffffffffffffffffffffffffffffffffff021916908373ffffffffffffffffffffffffffffffffffffffff1602179055506002600f60146101000a81548160ff0219169083600281111562000359576200035862000590565b5b02179055503480156200036b57600080fd5b5062000636565b82805462000380906200055a565b90600052602060002090601f016020900481019282620003a45760008555620003f0565b82601f10620003bf57805160ff1916838001178555620003f0565b82800160010185558215620003f0579182015b82811115620003ef578251825591602001919060010190620003d2565b5b509050620003ff919062000403565b5090565b5b808211156200041e57600081600090555060010162000404565b5090565b60008151905062000433816200061c565b92915050565b600060208284031215620004525762000451620005ee565b5b6000620004628482850162000422565b91505092915050565b60006200047882620004f9565b62000484818562000504565b93506200049681856020860162000524565b80840191505092915050565b6000620004b1600b836200050f565b9150620004be82620005f3565b600b82019050919050565b6000620004d782846200046b565b915081905092915050565b6000620004ef82620004a2565b9150819050919050565b600081519050919050565b600081905092915050565b600081905092915050565b6000819050919050565b60005b838110156200054457808201518184015260208101905062000527565b8381111562000554576000848401525b50505050565b600060028204905060018216806200057357607f821691505b602082108114156200058a5762000589620005bf565b5b50919050565b7f4e487b7100000000000000000000000000000000000000000000000000000000600052602160045260246000fd5b7f4e487b7100000000000000000000000000000000000000000000000000000000600052602260045260246000fd5b600080fd5b7f48656c6c6f20576f726c64000000000000000000000000000000000000000000600082015250565b62000627816200051a565b81146200063357600080fd5b50565b6108af80620006466000396000f3fe608060405234801561001057600080fd5b50600436106100f55760003560e01c8063af10c81011610097578063c19d93fb11610066578063c19d93fb1461021c578063c7109d041461023a578063ea362b4414610258578063ebbb4bec14610276576100f5565b8063af10c810146101cc578063b71d2cec146101d6578063b83d07b7146101f4578063ba33ed7d14610212576100f5565b80634df7e3d0116100d35780634df7e3d0146101545780637272eea1146101725780637a68ef7f146101905780638a054ac2146101ae576100f5565b80632b73648d146100fa578063312eef29146101185780634dab6cbe14610136575b600080fd5b610102610294565b60405161010f91906105ed565b60405180910390f35b61012061029a565b60405161012d91906105b7565b60405180910390f35b61013e6102ad565b60405161014b919061059c565b60405180910390f35b61015c6102d3565b604051610169919061067b565b60405180910390f35b61017a6102e6565b6040516101879190610623565b60405180910390f35b6101986102fd565b6040516101a591906105d2565b60405180910390f35b6101b6610310565b6040516101c3919061063e565b60405180910390f35b6101d4610323565b005b6101de610350565b6040516101eb919061059c565b60405180910390f35b6101fc610376565b6040516102099190610659565b60405180910390f35b61021a610404565b005b610224610431565b6040516102319190610623565b60405180910390f35b610242610444565b60405161024f91906105ed565b60405180910390f35b61026061044a565b60405161026d9190610608565b60405180910390f35b61027e61045d565b60405161028b9190610659565b60405180910390f35b600b5481565b600860019054906101000a900460ff1681565b600f60009054906101000a900473ffffffffffffffffffffffffffffffffffffffff1681565b600160009054906101000a900460ff1681565b6000600f60149054906101000a900460ff16905090565b600d60009054906101000a900460601b81565b600360009054906101000a900460000b81565b6001600f60146101000a81548160ff02191690836002811115610349576103486107f6565b5b0217905550565b600e60009054906101000a900473ffffffffffffffffffffffffffffffffffffffff1681565b60068054610383906107c4565b80601f01602080910402602001604051908101604052809291908181526020018280546103af906107c4565b80156103fc5780601f106103d1576101008083540402835291602001916103fc565b820191906000526020600020905b8154815290600101906020018083116103df57829003601f168201915b505050505081565b6000600f60146101000a81548160ff0219169083600281111561042a576104296107f6565b5b0217905550565b600f60149054906101000a900460ff1681565b600c5481565b600a60009054906101000a900460e01b81565b6007805461046a906107c4565b80601f0160208091040260200160405190810160405280929190818152602001828054610496906107c4565b80156104e35780601f106104b8576101008083540402835291602001916104e3565b820191906000526020600020905b8154815290600101906020018083116104c657829003601f168201915b505050505081565b6104f4816106b2565b82525050565b610503816106c4565b82525050565b610512816106d0565b82525050565b610521816106fc565b82525050565b61053081610706565b82525050565b61053f8161077f565b82525050565b61054e81610745565b82525050565b600061055f82610696565b61056981856106a1565b9350610579818560208601610791565b61058281610854565b840191505092915050565b61059681610772565b82525050565b60006020820190506105b160008301846104eb565b92915050565b60006020820190506105cc60008301846104fa565b92915050565b60006020820190506105e76000830184610509565b92915050565b60006020820190506106026000830184610518565b92915050565b600060208201905061061d6000830184610527565b92915050565b60006020820190506106386000830184610536565b92915050565b60006020820190506106536000830184610545565b92915050565b600060208201905081810360008301526106738184610554565b905092915050565b6000602082019050610690600083018461058d565b92915050565b600081519050919050565b600082825260208201905092915050565b60006106bd82610752565b9050919050565b60008115159050919050565b60007fffffffffffffffffffffffffffffffffffffffff00000000000000000000000082169050919050565b6000819050919050565b60007fffffffff0000000000000000000000000000000000000000000000000000000082169050919050565b600081905061074082610865565b919050565b60008160000b9050919050565b600073ffffffffffffffffffffffffffffffffffffffff82169050919050565b600060ff82169050919050565b600061078a82610732565b9050919050565b60005b838110156107af578082015181840152602081019050610794565b838111156107be576000848401525b50505050565b600060028204905060018216806107dc57607f821691505b602082108114156107f0576107ef610825565b5b50919050565b7f4e487b7100000000000000000000000000000000000000000000000000000000600052602160045260246000fd5b7f4e487b7100000000000000000000000000000000000000000000000000000000600052602260045260246000fd5b6000601f19601f8301169050919050565b60038110610876576108756107f6565b5b5056fea26469706673582212209907b3d81808d29cb6887d17d2513baba0461357e955464d76a391287a25669864736f6c63430008070033",
					"opcodes": "PUSH1 0x80 PUSH1 0x40 MSTORE PUSH1 0x3 PUSH1 0x1 PUSH1 0x0 PUSH2 0x100 EXP DUP2 SLOAD DUP2 PUSH1 0xFF MUL NOT AND SWAP1 DUP4 PUSH1 0xFF AND MUL OR SWAP1 SSTORE POP PUSH32 0xFFFFFFFFFFFFFFFFFFFFFFFFFFFFFFFFFFFFFFFFFFFFFFFFFFFFFFFFFFFFFFF6 PUSH1 0x3 PUSH1 0x0 PUSH2 0x100 EXP DUP2 SLOAD DUP2 PUSH1 0xFF MUL NOT AND SWAP1 DUP4 PUSH1 0x0 SIGNEXTEND PUSH1 0xFF AND MUL OR SWAP1 SSTORE POP PUSH1 0x41 PUSH1 0x4 SSTORE PUSH1 0x40 MLOAD DUP1 PUSH1 0x40 ADD PUSH1 0x40 MSTORE DUP1 PUSH1 0xF DUP2 MSTORE PUSH1 0x20 ADD PUSH32 0x4573746F206573207075626C69636F0000000000000000000000000000000000 DUP2 MSTORE POP PUSH1 0x6 SWAP1 DUP1 MLOAD SWAP1 PUSH1 0x20 ADD SWAP1 PUSH3 0xB0 SWAP3 SWAP2 SWAP1 PUSH3 0x372 JUMP JUMPDEST POP PUSH1 0x40 MLOAD DUP1 PUSH1 0x40 ADD PUSH1 0x40 MSTORE DUP1 PUSH1 0xF DUP2 MSTORE PUSH1 0x20 ADD PUSH32 0x4573746F206573207072697661646F0000000000000000000000000000000000 DUP2 MSTORE POP PUSH1 0x7 SWAP1 DUP1 MLOAD SWAP1 PUSH1 0x20 ADD SWAP1 PUSH3 0xFE SWAP3 SWAP2 SWAP1 PUSH3 0x372 JUMP JUMPDEST POP PUSH1 0x1 PUSH1 0x8 PUSH1 0x1 PUSH2 0x100 EXP DUP2 SLOAD DUP2 PUSH1 0xFF MUL NOT AND SWAP1 DUP4 ISZERO ISZERO MUL OR SWAP1 SSTORE POP PUSH1 0x0 PUSH1 0x8 PUSH1 0x2 PUSH2 0x100 EXP DUP2 SLOAD DUP2 PUSH1 0xFF MUL NOT AND SWAP1 DUP4 ISZERO ISZERO MUL OR SWAP1 SSTORE POP PUSH32 0x4400000000000000000000000000000000000000000000000000000000000000 PUSH1 0xA PUSH1 0x0 PUSH2 0x100 EXP DUP2 SLOAD DUP2 PUSH4 0xFFFFFFFF MUL NOT AND SWAP1 DUP4 PUSH1 0xE0 SHR MUL OR SWAP1 SSTORE POP PUSH1 0x40 MLOAD PUSH1 0x20 ADD PUSH3 0x184 SWAP1 PUSH3 0x4E2 JUMP JUMPDEST PUSH1 0x40 MLOAD PUSH1 0x20 DUP2 DUP4 SUB SUB DUP2 MSTORE SWAP1 PUSH1 0x40 MSTORE DUP1 MLOAD SWAP1 PUSH1 0x20 ADD KECCAK256 PUSH1 0xB SSTORE PUSH1 0x2 PUSH1 0x40 MLOAD PUSH1 0x20 ADD PUSH3 0x1B0 SWAP1 PUSH3 0x4E2 JUMP JUMPDEST PUSH1 0x40 MLOAD PUSH1 0x20 DUP2 DUP4 SUB SUB DUP2 MSTORE SWAP1 PUSH1 0x40 MSTORE PUSH1 0x40 MLOAD PUSH3 0x1CE SWAP2 SWAP1 PUSH3 0x4C9 JUMP JUMPDEST PUSH1 0x20 PUSH1 0x40 MLOAD DUP1 DUP4 SUB DUP2 DUP6 GAS STATICCALL ISZERO DUP1 ISZERO PUSH3 0x1EC JUMPI RETURNDATASIZE PUSH1 0x0 DUP1 RETURNDATACOPY RETURNDATASIZE PUSH1 0x0 REVERT JUMPDEST POP POP POP PUSH1 0x40 MLOAD RETURNDATASIZE PUSH1 0x1F NOT PUSH1 0x1F DUP3 ADD AND DUP3 ADD DUP1 PUSH1 0x40 MSTORE POP DUP2 ADD SWAP1 PUSH3 0x211 SWAP2 SWAP1 PUSH3 0x439 JUMP JUMPDEST PUSH1 0xC SSTORE PUSH1 0x3 PUSH1 0x40 MLOAD PUSH1 0x20 ADD PUSH3 0x227 SWAP1 PUSH3 0x4E2 JUMP JUMPDEST PUSH1 0x40 MLOAD PUSH1 0x20 DUP2 DUP4 SUB SUB DUP2 MSTORE SWAP1 PUSH1 0x40 MSTORE PUSH1 0x40 MLOAD PUSH3 0x245 SWAP2 SWAP1 PUSH3 0x4C9 JUMP JUMPDEST PUSH1 0x20 PUSH1 0x40 MLOAD DUP1 DUP4 SUB DUP2 DUP6 GAS STATICCALL ISZERO DUP1 ISZERO PUSH3 0x263 JUMPI RETURNDATASIZE PUSH1 0x0 DUP1 RETURNDATACOPY RETURNDATASIZE PUSH1 0x0 REVERT JUMPDEST POP POP POP PUSH1 0x40 MLOAD MLOAD PUSH1 0x60 SHL PUSH1 0xD PUSH1 0x0 PUSH2 0x100 EXP DUP2 SLOAD DUP2 PUSH20 0xFFFFFFFFFFFFFFFFFFFFFFFFFFFFFFFFFFFFFFFF MUL NOT AND SWAP1 DUP4 PUSH1 0x60 SHR MUL OR SWAP1 SSTORE POP CALLER PUSH1 0xE PUSH1 0x0 PUSH2 0x100 EXP DUP2 SLOAD DUP2 PUSH20 0xFFFFFFFFFFFFFFFFFFFFFFFFFFFFFFFFFFFFFFFF MUL NOT AND SWAP1 DUP4 PUSH20 0xFFFFFFFFFFFFFFFFFFFFFFFFFFFFFFFFFFFFFFFF AND MUL OR SWAP1 SSTORE POP PUSH20 0xCD6A42782D230D7C13A74DDEC5DD140E55499DF9 PUSH1 0xF PUSH1 0x0 PUSH2 0x100 EXP DUP2 SLOAD DUP2 PUSH20 0xFFFFFFFFFFFFFFFFFFFFFFFFFFFFFFFFFFFFFFFF MUL NOT AND SWAP1 DUP4 PUSH20 0xFFFFFFFFFFFFFFFFFFFFFFFFFFFFFFFFFFFFFFFF AND MUL OR SWAP1 SSTORE POP PUSH1 0x2 PUSH1 0xF PUSH1 0x14 PUSH2 0x100 EXP DUP2 SLOAD DUP2 PUSH1 0xFF MUL NOT AND SWAP1 DUP4 PUSH1 0x2 DUP2 GT ISZERO PUSH3 0x359 JUMPI PUSH3 0x358 PUSH3 0x590 JUMP JUMPDEST JUMPDEST MUL OR SWAP1 SSTORE POP CALLVALUE DUP1 ISZERO PUSH3 0x36B JUMPI PUSH1 0x0 DUP1 REVERT JUMPDEST POP PUSH3 0x636 JUMP JUMPDEST DUP3 DUP1 SLOAD PUSH3 0x380 SWAP1 PUSH3 0x55A JUMP JUMPDEST SWAP1 PUSH1 0x0 MSTORE PUSH1 0x20 PUSH1 0x0 KECCAK256 SWAP1 PUSH1 0x1F ADD PUSH1 0x20 SWAP1 DIV DUP2 ADD SWAP3 DUP3 PUSH3 0x3A4 JUMPI PUSH1 0x0 DUP6 SSTORE PUSH3 0x3F0 JUMP JUMPDEST DUP3 PUSH1 0x1F LT PUSH3 0x3BF JUMPI DUP1 MLOAD PUSH1 0xFF NOT AND DUP4 DUP1 ADD OR DUP6 SSTORE PUSH3 0x3F0 JUMP JUMPDEST DUP3 DUP1 ADD PUSH1 0x1 ADD DUP6 SSTORE DUP3 ISZERO PUSH3 0x3F0 JUMPI SWAP2 DUP3 ADD JUMPDEST DUP3 DUP2 GT ISZERO PUSH3 0x3EF JUMPI DUP3 MLOAD DUP3 SSTORE SWAP2 PUSH1 0x20 ADD SWAP2 SWAP1 PUSH1 0x1 ADD SWAP1 PUSH3 0x3D2 JUMP JUMPDEST JUMPDEST POP SWAP1 POP PUSH3 0x3FF SWAP2 SWAP1 PUSH3 0x403 JUMP JUMPDEST POP SWAP1 JUMP JUMPDEST JUMPDEST DUP1 DUP3 GT ISZERO PUSH3 0x41E JUMPI PUSH1 0x0 DUP2 PUSH1 0x0 SWAP1 SSTORE POP PUSH1 0x1 ADD PUSH3 0x404 JUMP JUMPDEST POP SWAP1 JUMP JUMPDEST PUSH1 0x0 DUP2 MLOAD SWAP1 POP PUSH3 0x433 DUP2 PUSH3 0x61C JUMP JUMPDEST SWAP3 SWAP2 POP POP JUMP JUMPDEST PUSH1 0x0 PUSH1 0x20 DUP3 DUP5 SUB SLT ISZERO PUSH3 0x452 JUMPI PUSH3 0x451 PUSH3 0x5EE JUMP JUMPDEST JUMPDEST PUSH1 0x0 PUSH3 0x462 DUP5 DUP3 DUP6 ADD PUSH3 0x422 JUMP JUMPDEST SWAP2 POP POP SWAP3 SWAP2 POP POP JUMP JUMPDEST PUSH1 0x0 PUSH3 0x478 DUP3 PUSH3 0x4F9 JUMP JUMPDEST PUSH3 0x484 DUP2 DUP6 PUSH3 0x504 JUMP JUMPDEST SWAP4 POP PUSH3 0x496 DUP2 DUP6 PUSH1 0x20 DUP7 ADD PUSH3 0x524 JUMP JUMPDEST DUP1 DUP5 ADD SWAP2 POP POP SWAP3 SWAP2 POP POP JUMP JUMPDEST PUSH1 0x0 PUSH3 0x4B1 PUSH1 0xB DUP4 PUSH3 0x50F JUMP JUMPDEST SWAP2 POP PUSH3 0x4BE DUP3 PUSH3 0x5F3 JUMP JUMPDEST PUSH1 0xB DUP3 ADD SWAP1 POP SWAP2 SWAP1 POP JUMP JUMPDEST PUSH1 0x0 PUSH3 0x4D7 DUP3 DUP5 PUSH3 0x46B JUMP JUMPDEST SWAP2 POP DUP2 SWAP1 POP SWAP3 SWAP2 POP POP JUMP JUMPDEST PUSH1 0x0 PUSH3 0x4EF DUP3 PUSH3 0x4A2 JUMP JUMPDEST SWAP2 POP DUP2 SWAP1 POP SWAP2 SWAP1 POP JUMP JUMPDEST PUSH1 0x0 DUP2 MLOAD SWAP1 POP SWAP2 SWAP1 POP JUMP JUMPDEST PUSH1 0x0 DUP2 SWAP1 POP SWAP3 SWAP2 POP POP JUMP JUMPDEST PUSH1 0x0 DUP2 SWAP1 POP SWAP3 SWAP2 POP POP JUMP JUMPDEST PUSH1 0x0 DUP2 SWAP1 POP SWAP2 SWAP1 POP JUMP JUMPDEST PUSH1 0x0 JUMPDEST DUP4 DUP2 LT ISZERO PUSH3 0x544 JUMPI DUP1 DUP3 ADD MLOAD DUP2 DUP5 ADD MSTORE PUSH1 0x20 DUP2 ADD SWAP1 POP PUSH3 0x527 JUMP JUMPDEST DUP4 DUP2 GT ISZERO PUSH3 0x554 JUMPI PUSH1 0x0 DUP5 DUP5 ADD MSTORE JUMPDEST POP POP POP POP JUMP JUMPDEST PUSH1 0x0 PUSH1 0x2 DUP3 DIV SWAP1 POP PUSH1 0x1 DUP3 AND DUP1 PUSH3 0x573 JUMPI PUSH1 0x7F DUP3 AND SWAP2 POP JUMPDEST PUSH1 0x20 DUP3 LT DUP2 EQ ISZERO PUSH3 0x58A JUMPI PUSH3 0x589 PUSH3 0x5BF JUMP JUMPDEST JUMPDEST POP SWAP2 SWAP1 POP JUMP JUMPDEST PUSH32 0x4E487B7100000000000000000000000000000000000000000000000000000000 PUSH1 0x0 MSTORE PUSH1 0x21 PUSH1 0x4 MSTORE PUSH1 0x24 PUSH1 0x0 REVERT JUMPDEST PUSH32 0x4E487B7100000000000000000000000000000000000000000000000000000000 PUSH1 0x0 MSTORE PUSH1 0x22 PUSH1 0x4 MSTORE PUSH1 0x24 PUSH1 0x0 REVERT JUMPDEST PUSH1 0x0 DUP1 REVERT JUMPDEST PUSH32 0x48656C6C6F20576F726C64000000000000000000000000000000000000000000 PUSH1 0x0 DUP3 ADD MSTORE POP JUMP JUMPDEST PUSH3 0x627 DUP2 PUSH3 0x51A JUMP JUMPDEST DUP2 EQ PUSH3 0x633 JUMPI PUSH1 0x0 DUP1 REVERT JUMPDEST POP JUMP JUMPDEST PUSH2 0x8AF DUP1 PUSH3 0x646 PUSH1 0x0 CODECOPY PUSH1 0x0 RETURN INVALID PUSH1 0x80 PUSH1 0x40 MSTORE CALLVALUE DUP1 ISZERO PUSH2 0x10 JUMPI PUSH1 0x0 DUP1 REVERT JUMPDEST POP PUSH1 0x4 CALLDATASIZE LT PUSH2 0xF5 JUMPI PUSH1 0x0 CALLDATALOAD PUSH1 0xE0 SHR DUP1 PUSH4 0xAF10C810 GT PUSH2 0x97 JUMPI DUP1 PUSH4 0xC19D93FB GT PUSH2 0x66 JUMPI DUP1 PUSH4 0xC19D93FB EQ PUSH2 0x21C JUMPI DUP1 PUSH4 0xC7109D04 EQ PUSH2 0x23A JUMPI DUP1 PUSH4 0xEA362B44 EQ PUSH2 0x258 JUMPI DUP1 PUSH4 0xEBBB4BEC EQ PUSH2 0x276 JUMPI PUSH2 0xF5 JUMP JUMPDEST DUP1 PUSH4 0xAF10C810 EQ PUSH2 0x1CC JUMPI DUP1 PUSH4 0xB71D2CEC EQ PUSH2 0x1D6 JUMPI DUP1 PUSH4 0xB83D07B7 EQ PUSH2 0x1F4 JUMPI DUP1 PUSH4 0xBA33ED7D EQ PUSH2 0x212 JUMPI PUSH2 0xF5 JUMP JUMPDEST DUP1 PUSH4 0x4DF7E3D0 GT PUSH2 0xD3 JUMPI DUP1 PUSH4 0x4DF7E3D0 EQ PUSH2 0x154 JUMPI DUP1 PUSH4 0x7272EEA1 EQ PUSH2 0x172 JUMPI DUP1 PUSH4 0x7A68EF7F EQ PUSH2 0x190 JUMPI DUP1 PUSH4 0x8A054AC2 EQ PUSH2 0x1AE JUMPI PUSH2 0xF5 JUMP JUMPDEST DUP1 PUSH4 0x2B73648D EQ PUSH2 0xFA JUMPI DUP1 PUSH4 0x312EEF29 EQ PUSH2 0x118 JUMPI DUP1 PUSH4 0x4DAB6CBE EQ PUSH2 0x136 JUMPI JUMPDEST PUSH1 0x0 DUP1 REVERT JUMPDEST PUSH2 0x102 PUSH2 0x294 JUMP JUMPDEST PUSH1 0x40 MLOAD PUSH2 0x10F SWAP2 SWAP1 PUSH2 0x5ED JUMP JUMPDEST PUSH1 0x40 MLOAD DUP1 SWAP2 SUB SWAP1 RETURN JUMPDEST PUSH2 0x120 PUSH2 0x29A JUMP JUMPDEST PUSH1 0x40 MLOAD PUSH2 0x12D SWAP2 SWAP1 PUSH2 0x5B7 JUMP JUMPDEST PUSH1 0x40 MLOAD DUP1 SWAP2 SUB SWAP1 RETURN JUMPDEST PUSH2 0x13E PUSH2 0x2AD JUMP JUMPDEST PUSH1 0x40 MLOAD PUSH2 0x14B SWAP2 SWAP1 PUSH2 0x59C JUMP JUMPDEST PUSH1 0x40 MLOAD DUP1 SWAP2 SUB SWAP1 RETURN JUMPDEST PUSH2 0x15C PUSH2 0x2D3 JUMP JUMPDEST PUSH1 0x40 MLOAD PUSH2 0x169 SWAP2 SWAP1 PUSH2 0x67B JUMP JUMPDEST PUSH1 0x40 MLOAD DUP1 SWAP2 SUB SWAP1 RETURN JUMPDEST PUSH2 0x17A PUSH2 0x2E6 JUMP JUMPDEST PUSH1 0x40 MLOAD PUSH2 0x187 SWAP2 SWAP1 PUSH2 0x623 JUMP JUMPDEST PUSH1 0x40 MLOAD DUP1 SWAP2 SUB SWAP1 RETURN JUMPDEST PUSH2 0x198 PUSH2 0x2FD JUMP JUMPDEST PUSH1 0x40 MLOAD PUSH2 0x1A5 SWAP2 SWAP1 PUSH2 0x5D2 JUMP JUMPDEST PUSH1 0x40 MLOAD DUP1 SWAP2 SUB SWAP1 RETURN JUMPDEST PUSH2 0x1B6 PUSH2 0x310 JUMP JUMPDEST PUSH1 0x40 MLOAD PUSH2 0x1C3 SWAP2 SWAP1 PUSH2 0x63E JUMP JUMPDEST PUSH1 0x40 MLOAD DUP1 SWAP2 SUB SWAP1 RETURN JUMPDEST PUSH2 0x1D4 PUSH2 0x323 JUMP JUMPDEST STOP JUMPDEST PUSH2 0x1DE PUSH2 0x350 JUMP JUMPDEST PUSH1 0x40 MLOAD PUSH2 0x1EB SWAP2 SWAP1 PUSH2 0x59C JUMP JUMPDEST PUSH1 0x40 MLOAD DUP1 SWAP2 SUB SWAP1 RETURN JUMPDEST PUSH2 0x1FC PUSH2 0x376 JUMP JUMPDEST PUSH1 0x40 MLOAD PUSH2 0x209 SWAP2 SWAP1 PUSH2 0x659 JUMP JUMPDEST PUSH1 0x40 MLOAD DUP1 SWAP2 SUB SWAP1 RETURN JUMPDEST PUSH2 0x21A PUSH2 0x404 JUMP JUMPDEST STOP JUMPDEST PUSH2 0x224 PUSH2 0x431 JUMP JUMPDEST PUSH1 0x40 MLOAD PUSH2 0x231 SWAP2 SWAP1 PUSH2 0x623 JUMP JUMPDEST PUSH1 0x40 MLOAD DUP1 SWAP2 SUB SWAP1 RETURN JUMPDEST PUSH2 0x242 PUSH2 0x444 JUMP JUMPDEST PUSH1 0x40 MLOAD PUSH2 0x24F SWAP2 SWAP1 PUSH2 0x5ED JUMP JUMPDEST PUSH1 0x40 MLOAD DUP1 SWAP2 SUB SWAP1 RETURN JUMPDEST PUSH2 0x260 PUSH2 0x44A JUMP JUMPDEST PUSH1 0x40 MLOAD PUSH2 0x26D SWAP2 SWAP1 PUSH2 0x608 JUMP JUMPDEST PUSH1 0x40 MLOAD DUP1 SWAP2 SUB SWAP1 RETURN JUMPDEST PUSH2 0x27E PUSH2 0x45D JUMP JUMPDEST PUSH1 0x40 MLOAD PUSH2 0x28B SWAP2 SWAP1 PUSH2 0x659 JUMP JUMPDEST PUSH1 0x40 MLOAD DUP1 SWAP2 SUB SWAP1 RETURN JUMPDEST PUSH1 0xB SLOAD DUP2 JUMP JUMPDEST PUSH1 0x8 PUSH1 0x1 SWAP1 SLOAD SWAP1 PUSH2 0x100 EXP SWAP1 DIV PUSH1 0xFF AND DUP2 JUMP JUMPDEST PUSH1 0xF PUSH1 0x0 SWAP1 SLOAD SWAP1 PUSH2 0x100 EXP SWAP1 DIV PUSH20 0xFFFFFFFFFFFFFFFFFFFFFFFFFFFFFFFFFFFFFFFF AND DUP2 JUMP JUMPDEST PUSH1 0x1 PUSH1 0x0 SWAP1 SLOAD SWAP1 PUSH2 0x100 EXP SWAP1 DIV PUSH1 0xFF AND DUP2 JUMP JUMPDEST PUSH1 0x0 PUSH1 0xF PUSH1 0x14 SWAP1 SLOAD SWAP1 PUSH2 0x100 EXP SWAP1 DIV PUSH1 0xFF AND SWAP1 POP SWAP1 JUMP JUMPDEST PUSH1 0xD PUSH1 0x0 SWAP1 SLOAD SWAP1 PUSH2 0x100 EXP SWAP1 DIV PUSH1 0x60 SHL DUP2 JUMP JUMPDEST PUSH1 0x3 PUSH1 0x0 SWAP1 SLOAD SWAP1 PUSH2 0x100 EXP SWAP1 DIV PUSH1 0x0 SIGNEXTEND DUP2 JUMP JUMPDEST PUSH1 0x1 PUSH1 0xF PUSH1 0x14 PUSH2 0x100 EXP DUP2 SLOAD DUP2 PUSH1 0xFF MUL NOT AND SWAP1 DUP4 PUSH1 0x2 DUP2 GT ISZERO PUSH2 0x349 JUMPI PUSH2 0x348 PUSH2 0x7F6 JUMP JUMPDEST JUMPDEST MUL OR SWAP1 SSTORE POP JUMP JUMPDEST PUSH1 0xE PUSH1 0x0 SWAP1 SLOAD SWAP1 PUSH2 0x100 EXP SWAP1 DIV PUSH20 0xFFFFFFFFFFFFFFFFFFFFFFFFFFFFFFFFFFFFFFFF AND DUP2 JUMP JUMPDEST PUSH1 0x6 DUP1 SLOAD PUSH2 0x383 SWAP1 PUSH2 0x7C4 JUMP JUMPDEST DUP1 PUSH1 0x1F ADD PUSH1 0x20 DUP1 SWAP2 DIV MUL PUSH1 0x20 ADD PUSH1 0x40 MLOAD SWAP1 DUP2 ADD PUSH1 0x40 MSTORE DUP1 SWAP3 SWAP2 SWAP1 DUP2 DUP2 MSTORE PUSH1 0x20 ADD DUP3 DUP1 SLOAD PUSH2 0x3AF SWAP1 PUSH2 0x7C4 JUMP JUMPDEST DUP1 ISZERO PUSH2 0x3FC JUMPI DUP1 PUSH1 0x1F LT PUSH2 0x3D1 JUMPI PUSH2 0x100 DUP1 DUP4 SLOAD DIV MUL DUP4 MSTORE SWAP2 PUSH1 0x20 ADD SWAP2 PUSH2 0x3FC JUMP JUMPDEST DUP3 ADD SWAP2 SWAP1 PUSH1 0x0 MSTORE PUSH1 0x20 PUSH1 0x0 KECCAK256 SWAP1 JUMPDEST DUP2 SLOAD DUP2 MSTORE SWAP1 PUSH1 0x1 ADD SWAP1 PUSH1 0x20 ADD DUP1 DUP4 GT PUSH2 0x3DF JUMPI DUP3 SWAP1 SUB PUSH1 0x1F AND DUP3 ADD SWAP2 JUMPDEST POP POP POP POP POP DUP2 JUMP JUMPDEST PUSH1 0x0 PUSH1 0xF PUSH1 0x14 PUSH2 0x100 EXP DUP2 SLOAD DUP2 PUSH1 0xFF MUL NOT AND SWAP1 DUP4 PUSH1 0x2 DUP2 GT ISZERO PUSH2 0x42A JUMPI PUSH2 0x429 PUSH2 0x7F6 JUMP JUMPDEST JUMPDEST MUL OR SWAP1 SSTORE POP JUMP JUMPDEST PUSH1 0xF PUSH1 0x14 SWAP1 SLOAD SWAP1 PUSH2 0x100 EXP SWAP1 DIV PUSH1 0xFF AND DUP2 JUMP JUMPDEST PUSH1 0xC SLOAD DUP2 JUMP JUMPDEST PUSH1 0xA PUSH1 0x0 SWAP1 SLOAD SWAP1 PUSH2 0x100 EXP SWAP1 DIV PUSH1 0xE0 SHL DUP2 JUMP JUMPDEST PUSH1 0x7 DUP1 SLOAD PUSH2 0x46A SWAP1 PUSH2 0x7C4 JUMP JUMPDEST DUP1 PUSH1 0x1F ADD PUSH1 0x20 DUP1 SWAP2 DIV MUL PUSH1 0x20 ADD PUSH1 0x40 MLOAD SWAP1 DUP2 ADD PUSH1 0x40 MSTORE DUP1 SWAP3 SWAP2 SWAP1 DUP2 DUP2 MSTORE PUSH1 0x20 ADD DUP3 DUP1 SLOAD PUSH2 0x496 SWAP1 PUSH2 0x7C4 JUMP JUMPDEST DUP1 ISZERO PUSH2 0x4E3 JUMPI DUP1 PUSH1 0x1F LT PUSH2 0x4B8 JUMPI PUSH2 0x100 DUP1 DUP4 SLOAD DIV MUL DUP4 MSTORE SWAP2 PUSH1 0x20 ADD SWAP2 PUSH2 0x4E3 JUMP JUMPDEST DUP3 ADD SWAP2 SWAP1 PUSH1 0x0 MSTORE PUSH1 0x20 PUSH1 0x0 KECCAK256 SWAP1 JUMPDEST DUP2 SLOAD DUP2 MSTORE SWAP1 PUSH1 0x1 ADD SWAP1 PUSH1 0x20 ADD DUP1 DUP4 GT PUSH2 0x4C6 JUMPI DUP3 SWAP1 SUB PUSH1 0x1F AND DUP3 ADD SWAP2 JUMPDEST POP POP POP POP POP DUP2 JUMP JUMPDEST PUSH2 0x4F4 DUP2 PUSH2 0x6B2 JUMP JUMPDEST DUP3 MSTORE POP POP JUMP JUMPDEST PUSH2 0x503 DUP2 PUSH2 0x6C4 JUMP JUMPDEST DUP3 MSTORE POP POP JUMP JUMPDEST PUSH2 0x512 DUP2 PUSH2 0x6D0 JUMP JUMPDEST DUP3 MSTORE POP POP JUMP JUMPDEST PUSH2 0x521 DUP2 PUSH2 0x6FC JUMP JUMPDEST DUP3 MSTORE POP POP JUMP JUMPDEST PUSH2 0x530 DUP2 PUSH2 0x706 JUMP JUMPDEST DUP3 MSTORE POP POP JUMP JUMPDEST PUSH2 0x53F DUP2 PUSH2 0x77F JUMP JUMPDEST DUP3 MSTORE POP POP JUMP JUMPDEST PUSH2 0x54E DUP2 PUSH2 0x745 JUMP JUMPDEST DUP3 MSTORE POP POP JUMP JUMPDEST PUSH1 0x0 PUSH2 0x55F DUP3 PUSH2 0x696 JUMP JUMPDEST PUSH2 0x569 DUP2 DUP6 PUSH2 0x6A1 JUMP JUMPDEST SWAP4 POP PUSH2 0x579 DUP2 DUP6 PUSH1 0x20 DUP7 ADD PUSH2 0x791 JUMP JUMPDEST PUSH2 0x582 DUP2 PUSH2 0x854 JUMP JUMPDEST DUP5 ADD SWAP2 POP POP SWAP3 SWAP2 POP POP JUMP JUMPDEST PUSH2 0x596 DUP2 PUSH2 0x772 JUMP JUMPDEST DUP3 MSTORE POP POP JUMP JUMPDEST PUSH1 0x0 PUSH1 0x20 DUP3 ADD SWAP1 POP PUSH2 0x5B1 PUSH1 0x0 DUP4 ADD DUP5 PUSH2 0x4EB JUMP JUMPDEST SWAP3 SWAP2 POP POP JUMP JUMPDEST PUSH1 0x0 PUSH1 0x20 DUP3 ADD SWAP1 POP PUSH2 0x5CC PUSH1 0x0 DUP4 ADD DUP5 PUSH2 0x4FA JUMP JUMPDEST SWAP3 SWAP2 POP POP JUMP JUMPDEST PUSH1 0x0 PUSH1 0x20 DUP3 ADD SWAP1 POP PUSH2 0x5E7 PUSH1 0x0 DUP4 ADD DUP5 PUSH2 0x509 JUMP JUMPDEST SWAP3 SWAP2 POP POP JUMP JUMPDEST PUSH1 0x0 PUSH1 0x20 DUP3 ADD SWAP1 POP PUSH2 0x602 PUSH1 0x0 DUP4 ADD DUP5 PUSH2 0x518 JUMP JUMPDEST SWAP3 SWAP2 POP POP JUMP JUMPDEST PUSH1 0x0 PUSH1 0x20 DUP3 ADD SWAP1 POP PUSH2 0x61D PUSH1 0x0 DUP4 ADD DUP5 PUSH2 0x527 JUMP JUMPDEST SWAP3 SWAP2 POP POP JUMP JUMPDEST PUSH1 0x0 PUSH1 0x20 DUP3 ADD SWAP1 POP PUSH2 0x638 PUSH1 0x0 DUP4 ADD DUP5 PUSH2 0x536 JUMP JUMPDEST SWAP3 SWAP2 POP POP JUMP JUMPDEST PUSH1 0x0 PUSH1 0x20 DUP3 ADD SWAP1 POP PUSH2 0x653 PUSH1 0x0 DUP4 ADD DUP5 PUSH2 0x545 JUMP JUMPDEST SWAP3 SWAP2 POP POP JUMP JUMPDEST PUSH1 0x0 PUSH1 0x20 DUP3 ADD SWAP1 POP DUP2 DUP2 SUB PUSH1 0x0 DUP4 ADD MSTORE PUSH2 0x673 DUP2 DUP5 PUSH2 0x554 JUMP JUMPDEST SWAP1 POP SWAP3 SWAP2 POP POP JUMP JUMPDEST PUSH1 0x0 PUSH1 0x20 DUP3 ADD SWAP1 POP PUSH2 0x690 PUSH1 0x0 DUP4 ADD DUP5 PUSH2 0x58D JUMP JUMPDEST SWAP3 SWAP2 POP POP JUMP JUMPDEST PUSH1 0x0 DUP2 MLOAD SWAP1 POP SWAP2 SWAP1 POP JUMP JUMPDEST PUSH1 0x0 DUP3 DUP3 MSTORE PUSH1 0x20 DUP3 ADD SWAP1 POP SWAP3 SWAP2 POP POP JUMP JUMPDEST PUSH1 0x0 PUSH2 0x6BD DUP3 PUSH2 0x752 JUMP JUMPDEST SWAP1 POP SWAP2 SWAP1 POP JUMP JUMPDEST PUSH1 0x0 DUP2 ISZERO ISZERO SWAP1 POP SWAP2 SWAP1 POP JUMP JUMPDEST PUSH1 0x0 PUSH32 0xFFFFFFFFFFFFFFFFFFFFFFFFFFFFFFFFFFFFFFFF000000000000000000000000 DUP3 AND SWAP1 POP SWAP2 SWAP1 POP JUMP JUMPDEST PUSH1 0x0 DUP2 SWAP1 POP SWAP2 SWAP1 POP JUMP JUMPDEST PUSH1 0x0 PUSH32 0xFFFFFFFF00000000000000000000000000000000000000000000000000000000 DUP3 AND SWAP1 POP SWAP2 SWAP1 POP JUMP JUMPDEST PUSH1 0x0 DUP2 SWAP1 POP PUSH2 0x740 DUP3 PUSH2 0x865 JUMP JUMPDEST SWAP2 SWAP1 POP JUMP JUMPDEST PUSH1 0x0 DUP2 PUSH1 0x0 SIGNEXTEND SWAP1 POP SWAP2 SWAP1 POP JUMP JUMPDEST PUSH1 0x0 PUSH20 0xFFFFFFFFFFFFFFFFFFFFFFFFFFFFFFFFFFFFFFFF DUP3 AND SWAP1 POP SWAP2 SWAP1 POP JUMP JUMPDEST PUSH1 0x0 PUSH1 0xFF DUP3 AND SWAP1 POP SWAP2 SWAP1 POP JUMP JUMPDEST PUSH1 0x0 PUSH2 0x78A DUP3 PUSH2 0x732 JUMP JUMPDEST SWAP1 POP SWAP2 SWAP1 POP JUMP JUMPDEST PUSH1 0x0 JUMPDEST DUP4 DUP2 LT ISZERO PUSH2 0x7AF JUMPI DUP1 DUP3 ADD MLOAD DUP2 DUP5 ADD MSTORE PUSH1 0x20 DUP2 ADD SWAP1 POP PUSH2 0x794 JUMP JUMPDEST DUP4 DUP2 GT ISZERO PUSH2 0x7BE JUMPI PUSH1 0x0 DUP5 DUP5 ADD MSTORE JUMPDEST POP POP POP POP JUMP JUMPDEST PUSH1 0x0 PUSH1 0x2 DUP3 DIV SWAP1 POP PUSH1 0x1 DUP3 AND DUP1 PUSH2 0x7DC JUMPI PUSH1 0x7F DUP3 AND SWAP2 POP JUMPDEST PUSH1 0x20 DUP3 LT DUP2 EQ ISZERO PUSH2 0x7F0 JUMPI PUSH2 0x7EF PUSH2 0x825 JUMP JUMPDEST JUMPDEST POP SWAP2 SWAP1 POP JUMP JUMPDEST PUSH32 0x4E487B7100000000000000000000000000000000000000000000000000000000 PUSH1 0x0 MSTORE PUSH1 0x21 PUSH1 0x4 MSTORE PUSH1 0x24 PUSH1 0x0 REVERT JUMPDEST PUSH32 0x4E487B7100000000000000000000000000000000000000000000000000000000 PUSH1 0x0 MSTORE PUSH1 0x22 PUSH1 0x4 MSTORE PUSH1 0x24 PUSH1 0x0 REVERT JUMPDEST PUSH1 0x0 PUSH1 0x1F NOT PUSH1 0x1F DUP4 ADD AND SWAP1 POP SWAP2 SWAP1 POP JUMP JUMPDEST PUSH1 0x3 DUP2 LT PUSH2 0x876 JUMPI PUSH2 0x875 PUSH2 0x7F6 JUMP JUMPDEST JUMPDEST POP JUMP INVALID LOG2 PUSH5 0x6970667358 0x22 SLT KECCAK256 SWAP10 SMOD 0xB3 0xD8 XOR ADDMOD 0xD2 SWAP13 0xB6 DUP9 PUSH30 0x17D2513BABA0461357E955464D76A391287A25669864736F6C6343000807 STOP CALLER "
				},
				"gasEstimates": {
					"creation": {
						"codeDepositCost": "444600",
						"executionCost": "infinite",
						"totalCost": "infinite"
					},
					"external": {
						"addres1()": "2582",
						"b()": "2494",
						"boolean_true()": "2567",
						"d()": "2564",
						"displayState()": "2663",
						"hashing_keccak256()": "2453",
						"hashing_ripemd160()": "2538",
						"hashing_sha256()": "2473",
						"my_address()": "2559",
						"second_byte()": "2537",
						"state()": "2632",
						"str_privado()": "infinite",
						"str_public()": "infinite",
						"turnOff()": "24504",
						"turnOn()": "24570"
					}
				},
				"methodIdentifiers": {
					"addres1()": "4dab6cbe",
					"b()": "4df7e3d0",
					"boolean_true()": "312eef29",
					"d()": "8a054ac2",
					"displayState()": "7272eea1",
					"hashing_keccak256()": "2b73648d",
					"hashing_ripemd160()": "7a68ef7f",
					"hashing_sha256()": "c7109d04",
					"my_address()": "b71d2cec",
					"second_byte()": "ea362b44",
					"state()": "c19d93fb",
					"str_privado()": "ebbb4bec",
					"str_public()": "b83d07b7",
					"turnOff()": "af10c810",
					"turnOn()": "ba33ed7d"
				}
			},
			"storageLayout": {
				"storage": [
					{
						"astId": 3,
						"contract": "contracts/2_variables_modifiers.sol:variables_modifiers",
						"label": "a",
						"offset": 0,
						"slot": "0",
						"type": "t_uint256"
					},
					{
						"astId": 6,
						"contract": "contracts/2_variables_modifiers.sol:variables_modifiers",
						"label": "b",
						"offset": 0,
						"slot": "1",
						"type": "t_uint8"
					},
					{
						"astId": 8,
						"contract": "contracts/2_variables_modifiers.sol:variables_modifiers",
						"label": "c",
						"offset": 0,
						"slot": "2",
						"type": "t_int256"
					},
					{
						"astId": 12,
						"contract": "contracts/2_variables_modifiers.sol:variables_modifiers",
						"label": "d",
						"offset": 0,
						"slot": "3",
						"type": "t_int8"
					},
					{
						"astId": 15,
						"contract": "contracts/2_variables_modifiers.sol:variables_modifiers",
						"label": "e",
						"offset": 0,
						"slot": "4",
						"type": "t_int256"
					},
					{
						"astId": 17,
						"contract": "contracts/2_variables_modifiers.sol:variables_modifiers",
						"label": "str",
						"offset": 0,
						"slot": "5",
						"type": "t_string_storage"
					},
					{
						"astId": 20,
						"contract": "contracts/2_variables_modifiers.sol:variables_modifiers",
						"label": "str_public",
						"offset": 0,
						"slot": "6",
						"type": "t_string_storage"
					},
					{
						"astId": 23,
						"contract": "contracts/2_variables_modifiers.sol:variables_modifiers",
						"label": "str_privado",
						"offset": 0,
						"slot": "7",
						"type": "t_string_storage"
					},
					{
						"astId": 25,
						"contract": "contracts/2_variables_modifiers.sol:variables_modifiers",
						"label": "boolean",
						"offset": 0,
						"slot": "8",
						"type": "t_bool"
					},
					{
						"astId": 28,
						"contract": "contracts/2_variables_modifiers.sol:variables_modifiers",
						"label": "boolean_true",
						"offset": 1,
						"slot": "8",
						"type": "t_bool"
					},
					{
						"astId": 31,
						"contract": "contracts/2_variables_modifiers.sol:variables_modifiers",
						"label": "boolead_false",
						"offset": 2,
						"slot": "8",
						"type": "t_bool"
					},
					{
						"astId": 33,
						"contract": "contracts/2_variables_modifiers.sol:variables_modifiers",
						"label": "first_bytes",
						"offset": 0,
						"slot": "9",
						"type": "t_bytes32"
					},
					{
						"astId": 36,
						"contract": "contracts/2_variables_modifiers.sol:variables_modifiers",
						"label": "second_byte",
						"offset": 0,
						"slot": "10",
						"type": "t_bytes4"
					},
					{
						"astId": 44,
						"contract": "contracts/2_variables_modifiers.sol:variables_modifiers",
						"label": "hashing_keccak256",
						"offset": 0,
						"slot": "11",
						"type": "t_bytes32"
					},
					{
						"astId": 52,
						"contract": "contracts/2_variables_modifiers.sol:variables_modifiers",
						"label": "hashing_sha256",
						"offset": 0,
						"slot": "12",
						"type": "t_bytes32"
					},
					{
						"astId": 60,
						"contract": "contracts/2_variables_modifiers.sol:variables_modifiers",
						"label": "hashing_ripemd160",
						"offset": 0,
						"slot": "13",
						"type": "t_bytes20"
					},
					{
						"astId": 64,
						"contract": "contracts/2_variables_modifiers.sol:variables_modifiers",
						"label": "my_address",
						"offset": 0,
						"slot": "14",
						"type": "t_address"
					},
					{
						"astId": 67,
						"contract": "contracts/2_variables_modifiers.sol:variables_modifiers",
						"label": "addres1",
						"offset": 0,
						"slot": "15",
						"type": "t_address"
					},
					{
						"astId": 76,
						"contract": "contracts/2_variables_modifiers.sol:variables_modifiers",
						"label": "state",
						"offset": 20,
						"slot": "15",
						"type": "t_enum(options)71"
					}
				],
				"types": {
					"t_address": {
						"encoding": "inplace",
						"label": "address",
						"numberOfBytes": "20"
					},
					"t_bool": {
						"encoding": "inplace",
						"label": "bool",
						"numberOfBytes": "1"
					},
					"t_bytes20": {
						"encoding": "inplace",
						"label": "bytes20",
						"numberOfBytes": "20"
					},
					"t_bytes32": {
						"encoding": "inplace",
						"label": "bytes32",
						"numberOfBytes": "32"
					},
					"t_bytes4": {
						"encoding": "inplace",
						"label": "bytes4",
						"numberOfBytes": "4"
					},
					"t_enum(options)71": {
						"encoding": "inplace",
						"label": "enum variables_modifiers.options",
						"numberOfBytes": "1"
					},
					"t_int256": {
						"encoding": "inplace",
						"label": "int256",
						"numberOfBytes": "32"
					},
					"t_int8": {
						"encoding": "inplace",
						"label": "int8",
						"numberOfBytes": "1"
					},
					"t_string_storage": {
						"encoding": "bytes",
						"label": "string",
						"numberOfBytes": "32"
					},
					"t_uint256": {
						"encoding": "inplace",
						"label": "uint256",
						"numberOfBytes": "32"
					},
					"t_uint8": {
						"encoding": "inplace",
						"label": "uint8",
						"numberOfBytes": "1"
					}
				}
			},
			"userdoc": {
				"kind": "user",
				"methods": {},
				"version": 1
			}
		}
	}
}