{
	"contracts/2_variables_modifiers.sol": {
		"variables_modifiers": {
			"abi": [
				{
					"inputs": [],
					"name": "addres1",
					"outputs": [
						{
							"internalType": "address",
							"name": "",
							"type": "address"
						}
					],
					"stateMutability": "view",
					"type": "function"
				},
				{
					"inputs": [],
					"name": "b",
					"outputs": [
						{
							"internalType": "uint8",
							"name": "",
							"type": "uint8"
						}
					],
					"stateMutability": "view",
					"type": "function"
				},
				{
					"inputs": [],
					"name": "boolean_true",
					"outputs": [
						{
							"internalType": "bool",
							"name": "",
							"type": "bool"
						}
					],
					"stateMutability": "view",
					"type": "function"
				},
				{
					"inputs": [],
					"name": "d",
					"outputs": [
						{
							"internalType": "int8",
							"name": "",
							"type": "int8"
						}
					],
					"stateMutability": "view",
					"type": "function"
				},
				{
					"inputs": [],
					"name": "displayState",
					"outputs": [
						{
							"internalType": "enum variables_modifiers.options",
							"name": "",
							"type": "uint8"
						}
					],
					"stateMutability": "view",
					"type": "function"
				},
				{
					"inputs": [],
					"name": "hashing_keccak256",
					"outputs": [
						{
							"internalType": "bytes32",
							"name": "",
							"type": "bytes32"
						}
					],
					"stateMutability": "view",
					"type": "function"
				},
				{
					"inputs": [],
					"name": "hashing_ripemd160",
					"outputs": [
						{
							"internalType": "bytes32",
							"name": "",
							"type": "bytes32"
						}
					],
					"stateMutability": "view",
					"type": "function"
				},
				{
					"inputs": [],
					"name": "hashing_sha256",
					"outputs": [
						{
							"internalType": "bytes32",
							"name": "",
							"type": "bytes32"
						}
					],
					"stateMutability": "view",
					"type": "function"
				},
				{
					"inputs": [],
					"name": "my_address",
					"outputs": [
						{
							"internalType": "address",
							"name": "",
							"type": "address"
						}
					],
					"stateMutability": "view",
					"type": "function"
				},
				{
					"inputs": [],
					"name": "second_byte",
					"outputs": [
						{
							"internalType": "bytes4",
							"name": "",
							"type": "bytes4"
						}
					],
					"stateMutability": "view",
					"type": "function"
				},
				{
					"inputs": [],
					"name": "state",
					"outputs": [
						{
							"internalType": "enum variables_modifiers.options",
							"name": "",
							"type": "uint8"
						}
					],
					"stateMutability": "view",
					"type": "function"
				},
				{
					"inputs": [],
					"name": "str_privado",
					"outputs": [
						{
							"internalType": "string",
							"name": "",
							"type": "string"
						}
					],
					"stateMutability": "view",
					"type": "function"
				},
				{
					"inputs": [],
					"name": "str_public",
					"outputs": [
						{
							"internalType": "string",
							"name": "",
							"type": "string"
						}
					],
					"stateMutability": "view",
					"type": "function"
				},
				{
					"inputs": [],
					"name": "turnOff",
					"outputs": [],
					"stateMutability": "nonpayable",
					"type": "function"
				},
				{
					"inputs": [],
					"name": "turnOn",
					"outputs": [],
					"stateMutability": "nonpayable",
					"type": "function"
				}
			],
			"devdoc": {
				"kind": "dev",
				"methods": {},
				"version": 1
			},
			"evm": {
				"assembly": "    /* \"contracts/2_variables_modifiers.sol\":66:1351  contract variables_modifiers{\r... */\n  mstore(0x40, 0x80)\n    /* \"contracts/2_variables_modifiers.sol\":175:176  3 */\n  0x03\n    /* \"contracts/2_variables_modifiers.sol\":160:176  uint8 public b=3 */\n  0x01\n  exp(0x0100, 0x00)\n  dup2\n  sload\n  dup2\n  0xff\n  mul\n  not\n  and\n  swap1\n  dup4\n  0xff\n  and\n  mul\n  or\n  swap1\n  sstore\n  pop\n    /* \"contracts/2_variables_modifiers.sol\":241:244  -10 */\n  0xfffffffffffffffffffffffffffffffffffffffffffffffffffffffffffffff6\n    /* \"contracts/2_variables_modifiers.sol\":225:244  int8 public d = -10 */\n  0x03\n  exp(0x0100, 0x00)\n  dup2\n  sload\n  dup2\n  0xff\n  mul\n  not\n  and\n  swap1\n  dup4\n  0x00\n  signextend\n  0xff\n  and\n  mul\n  or\n  swap1\n  sstore\n  pop\n    /* \"contracts/2_variables_modifiers.sol\":259:261  65 */\n  0x41\n    /* \"contracts/2_variables_modifiers.sol\":251:261  int e = 65 */\n  0x04\n  sstore\n    /* \"contracts/2_variables_modifiers.sol\":311:355  string public str_public = \"Esto es publico\" */\n  mload(0x40)\n  dup1\n  0x40\n  add\n  0x40\n  mstore\n  dup1\n  0x0f\n  dup2\n  mstore\n  0x20\n  add\n  0x4573746f206573207075626c69636f0000000000000000000000000000000000\n  dup2\n  mstore\n  pop\n  0x06\n  swap1\n  dup1\n  mload\n  swap1\n  0x20\n  add\n  swap1\n  tag_1\n  swap3\n  swap2\n  swap1\n  tag_2\n  jump\t// in\ntag_1:\n  pop\n    /* \"contracts/2_variables_modifiers.sol\":362:407  string public str_privado = \"Esto es privado\" */\n  mload(0x40)\n  dup1\n  0x40\n  add\n  0x40\n  mstore\n  dup1\n  0x0f\n  dup2\n  mstore\n  0x20\n  add\n  0x4573746f206573207072697661646f0000000000000000000000000000000000\n  dup2\n  mstore\n  pop\n  0x07\n  swap1\n  dup1\n  mload\n  swap1\n  0x20\n  add\n  swap1\n  tag_3\n  swap3\n  swap2\n  swap1\n  tag_2\n  jump\t// in\ntag_3:\n  pop\n    /* \"contracts/2_variables_modifiers.sol\":487:491  true */\n  0x01\n    /* \"contracts/2_variables_modifiers.sol\":460:491  bool public boolean_true = true */\n  0x08\n  exp(0x0100, 0x01)\n  dup2\n  sload\n  dup2\n  0xff\n  mul\n  not\n  and\n  swap1\n  dup4\n  iszero\n  iszero\n  mul\n  or\n  swap1\n  sstore\n  pop\n    /* \"contracts/2_variables_modifiers.sol\":527:532  false */\n  0x00\n    /* \"contracts/2_variables_modifiers.sol\":498:532  bool private boolead_false = false */\n  0x08\n  exp(0x0100, 0x02)\n  dup2\n  sload\n  dup2\n  0xff\n  mul\n  not\n  and\n  swap1\n  dup4\n  iszero\n  iszero\n  mul\n  or\n  swap1\n  sstore\n  pop\n    /* \"contracts/2_variables_modifiers.sol\":590:619  bytes4 public second_byte=\"D\" */\n  0x4400000000000000000000000000000000000000000000000000000000000000\n  0x0a\n  exp(0x0100, 0x00)\n  dup2\n  sload\n  dup2\n  0xffffffff\n  mul\n  not\n  and\n  swap1\n  dup4\n  0xe0\n  shr\n  mul\n  or\n  swap1\n  sstore\n  pop\n    /* \"contracts/2_variables_modifiers.sol\":671:702  abi.encodePacked(\"Hello World\") */\n  add(0x20, mload(0x40))\n  tag_4\n  swap1\n  tag_5\n  jump\t// in\ntag_4:\n  mload(0x40)\n  0x20\n  dup2\n  dup4\n  sub\n  sub\n  dup2\n  mstore\n  swap1\n  0x40\n  mstore\n    /* \"contracts/2_variables_modifiers.sol\":661:703  keccak256(abi.encodePacked(\"Hello World\")) */\n  dup1\n  mload\n  swap1\n  0x20\n  add\n  keccak256\n    /* \"contracts/2_variables_modifiers.sol\":626:703  bytes32 public hashing_keccak256 = keccak256(abi.encodePacked(\"Hello World\")) */\n  0x0b\n  sstore\n    /* \"contracts/2_variables_modifiers.sol\":742:781  sha256(abi.encodePacked(\"Hello World\")) */\n  0x02\n    /* \"contracts/2_variables_modifiers.sol\":749:780  abi.encodePacked(\"Hello World\") */\n  add(0x20, mload(0x40))\n  tag_6\n  swap1\n  tag_5\n  jump\t// in\ntag_6:\n  mload(0x40)\n  0x20\n  dup2\n  dup4\n  sub\n  sub\n  dup2\n  mstore\n  swap1\n  0x40\n  mstore\n    /* \"contracts/2_variables_modifiers.sol\":742:781  sha256(abi.encodePacked(\"Hello World\")) */\n  mload(0x40)\n  tag_7\n  swap2\n  swap1\n  tag_8\n  jump\t// in\ntag_7:\n  0x20\n  mload(0x40)\n  dup1\n  dup4\n  sub\n  dup2\n  dup6\n  gas\n  staticcall\n  iszero\n  dup1\n  iszero\n  tag_10\n  jumpi\n  returndatasize\n  0x00\n  dup1\n  returndatacopy\n  revert(0x00, returndatasize)\ntag_10:\n  pop\n  pop\n  pop\n  mload(0x40)\n  returndatasize\n  not(0x1f)\n  0x1f\n  dup3\n  add\n  and\n  dup3\n  add\n  dup1\n  0x40\n  mstore\n  pop\n  dup2\n  add\n  swap1\n  tag_11\n  swap2\n  swap1\n  tag_12\n  jump\t// in\ntag_11:\n    /* \"contracts/2_variables_modifiers.sol\":710:781  bytes32 public hashing_sha256 = sha256(abi.encodePacked(\"Hello World\")) */\n  0x0c\n  sstore\n    /* \"contracts/2_variables_modifiers.sol\":823:865  ripemd160(abi.encodePacked(\"Hello World\")) */\n  0x03\n    /* \"contracts/2_variables_modifiers.sol\":833:864  abi.encodePacked(\"Hello World\") */\n  add(0x20, mload(0x40))\n  tag_13\n  swap1\n  tag_5\n  jump\t// in\ntag_13:\n  mload(0x40)\n  0x20\n  dup2\n  dup4\n  sub\n  sub\n  dup2\n  mstore\n  swap1\n  0x40\n  mstore\n    /* \"contracts/2_variables_modifiers.sol\":823:865  ripemd160(abi.encodePacked(\"Hello World\")) */\n  mload(0x40)\n  tag_14\n  swap2\n  swap1\n  tag_8\n  jump\t// in\ntag_14:\n  0x20\n  mload(0x40)\n  dup1\n  dup4\n  sub\n  dup2\n  dup6\n  gas\n  staticcall\n  iszero\n  dup1\n  iszero\n  tag_16\n  jumpi\n  returndatasize\n  0x00\n  dup1\n  returndatacopy\n  revert(0x00, returndatasize)\ntag_16:\n  pop\n  pop\n  pop\n  shl(0x60, mload(mload(0x40)))\n    /* \"contracts/2_variables_modifiers.sol\":788:865  bytes32 public hashing_ripemd160 = ripemd160(abi.encodePacked(\"Hello World\")) */\n  not(0xffffffffffffffffffffffff)\n  and\n  0x0d\n  sstore\n    /* \"contracts/2_variables_modifiers.sol\":927:937  msg.sender */\n  caller\n    /* \"contracts/2_variables_modifiers.sol\":899:937  address public my_address = msg.sender */\n  0x0e\n  exp(0x0100, 0x00)\n  dup2\n  sload\n  dup2\n  0xffffffffffffffffffffffffffffffffffffffff\n  mul\n  not\n  and\n  swap1\n  dup4\n  0xffffffffffffffffffffffffffffffffffffffff\n  and\n  mul\n  or\n  swap1\n  sstore\n  pop\n    /* \"contracts/2_variables_modifiers.sol\":969:1011  0xcD6a42782d230D7c13A74ddec5dD140e55499Df9 */\n  0xcd6a42782d230d7c13a74ddec5dd140e55499df9\n    /* \"contracts/2_variables_modifiers.sol\":944:1011  address public addres1 = 0xcD6a42782d230D7c13A74ddec5dD140e55499Df9 */\n  0x0f\n  exp(0x0100, 0x00)\n  dup2\n  sload\n  dup2\n  0xffffffffffffffffffffffffffffffffffffffff\n  mul\n  not\n  and\n  swap1\n  dup4\n  0xffffffffffffffffffffffffffffffffffffffff\n  and\n  mul\n  or\n  swap1\n  sstore\n  pop\n    /* \"contracts/2_variables_modifiers.sol\":1101:1114  options.ERROR */\n  0x02\n    /* \"contracts/2_variables_modifiers.sol\":1078:1114  options public state = options.ERROR */\n  0x0f\n  exp(0x0100, 0x14)\n  dup2\n  sload\n  dup2\n  0xff\n  mul\n  not\n  and\n  swap1\n  dup4\n  0x02\n  dup2\n  gt\n  iszero\n  tag_17\n  jumpi\n  tag_18\n  tag_19\n  jump\t// in\ntag_18:\ntag_17:\n  mul\n  or\n  swap1\n  sstore\n  pop\n    /* \"contracts/2_variables_modifiers.sol\":66:1351  contract variables_modifiers{\r... */\n  callvalue\n  dup1\n  iszero\n  tag_20\n  jumpi\n  0x00\n  dup1\n  revert\ntag_20:\n  pop\n  jump(tag_21)\ntag_2:\n  dup3\n  dup1\n  sload\n  tag_22\n  swap1\n  tag_23\n  jump\t// in\ntag_22:\n  swap1\n  0x00\n  mstore\n  keccak256(0x00, 0x20)\n  swap1\n  0x1f\n  add\n  0x20\n  swap1\n  div\n  dup2\n  add\n  swap3\n  dup3\n  tag_25\n  jumpi\n  0x00\n  dup6\n  sstore\n  jump(tag_24)\ntag_25:\n  dup3\n  0x1f\n  lt\n  tag_26\n  jumpi\n  dup1\n  mload\n  not(0xff)\n  and\n  dup4\n  dup1\n  add\n  or\n  dup6\n  sstore\n  jump(tag_24)\ntag_26:\n  dup3\n  dup1\n  add\n  0x01\n  add\n  dup6\n  sstore\n  dup3\n  iszero\n  tag_24\n  jumpi\n  swap2\n  dup3\n  add\ntag_27:\n  dup3\n  dup2\n  gt\n  iszero\n  tag_28\n  jumpi\n  dup3\n  mload\n  dup3\n  sstore\n  swap2\n  0x20\n  add\n  swap2\n  swap1\n  0x01\n  add\n  swap1\n  jump(tag_27)\ntag_28:\ntag_24:\n  pop\n  swap1\n  pop\n  tag_29\n  swap2\n  swap1\n  tag_30\n  jump\t// in\ntag_29:\n  pop\n  swap1\n  jump\t// out\ntag_30:\ntag_31:\n  dup1\n  dup3\n  gt\n  iszero\n  tag_32\n  jumpi\n  0x00\n  dup2\n  0x00\n  swap1\n  sstore\n  pop\n  0x01\n  add\n  jump(tag_31)\ntag_32:\n  pop\n  swap1\n  jump\t// out\n    /* \"#utility.yul\":7:150   */\ntag_34:\n    /* \"#utility.yul\":64:69   */\n  0x00\n    /* \"#utility.yul\":95:101   */\n  dup2\n    /* \"#utility.yul\":89:102   */\n  mload\n    /* \"#utility.yul\":80:102   */\n  swap1\n  pop\n    /* \"#utility.yul\":111:144   */\n  tag_36\n    /* \"#utility.yul\":138:143   */\n  dup2\n    /* \"#utility.yul\":111:144   */\n  tag_37\n  jump\t// in\ntag_36:\n    /* \"#utility.yul\":7:150   */\n  swap3\n  swap2\n  pop\n  pop\n  jump\t// out\n    /* \"#utility.yul\":156:507   */\ntag_12:\n    /* \"#utility.yul\":226:232   */\n  0x00\n    /* \"#utility.yul\":275:277   */\n  0x20\n    /* \"#utility.yul\":263:272   */\n  dup3\n    /* \"#utility.yul\":254:261   */\n  dup5\n    /* \"#utility.yul\":250:273   */\n  sub\n    /* \"#utility.yul\":246:278   */\n  slt\n    /* \"#utility.yul\":243:362   */\n  iszero\n  tag_39\n  jumpi\n    /* \"#utility.yul\":281:360   */\n  tag_40\n  tag_41\n  jump\t// in\ntag_40:\n    /* \"#utility.yul\":243:362   */\ntag_39:\n    /* \"#utility.yul\":401:402   */\n  0x00\n    /* \"#utility.yul\":426:490   */\n  tag_42\n    /* \"#utility.yul\":482:489   */\n  dup5\n    /* \"#utility.yul\":473:479   */\n  dup3\n    /* \"#utility.yul\":462:471   */\n  dup6\n    /* \"#utility.yul\":458:480   */\n  add\n    /* \"#utility.yul\":426:490   */\n  tag_34\n  jump\t// in\ntag_42:\n    /* \"#utility.yul\":416:490   */\n  swap2\n  pop\n    /* \"#utility.yul\":372:500   */\n  pop\n    /* \"#utility.yul\":156:507   */\n  swap3\n  swap2\n  pop\n  pop\n  jump\t// out\n    /* \"#utility.yul\":513:886   */\ntag_43:\n    /* \"#utility.yul\":617:620   */\n  0x00\n    /* \"#utility.yul\":645:683   */\n  tag_45\n    /* \"#utility.yul\":677:682   */\n  dup3\n    /* \"#utility.yul\":645:683   */\n  tag_46\n  jump\t// in\ntag_45:\n    /* \"#utility.yul\":699:787   */\n  tag_47\n    /* \"#utility.yul\":780:786   */\n  dup2\n    /* \"#utility.yul\":775:778   */\n  dup6\n    /* \"#utility.yul\":699:787   */\n  tag_48\n  jump\t// in\ntag_47:\n    /* \"#utility.yul\":692:787   */\n  swap4\n  pop\n    /* \"#utility.yul\":796:848   */\n  tag_49\n    /* \"#utility.yul\":841:847   */\n  dup2\n    /* \"#utility.yul\":836:839   */\n  dup6\n    /* \"#utility.yul\":829:833   */\n  0x20\n    /* \"#utility.yul\":822:827   */\n  dup7\n    /* \"#utility.yul\":818:834   */\n  add\n    /* \"#utility.yul\":796:848   */\n  tag_50\n  jump\t// in\ntag_49:\n    /* \"#utility.yul\":873:879   */\n  dup1\n    /* \"#utility.yul\":868:871   */\n  dup5\n    /* \"#utility.yul\":864:880   */\n  add\n    /* \"#utility.yul\":857:880   */\n  swap2\n  pop\n    /* \"#utility.yul\":621:886   */\n  pop\n    /* \"#utility.yul\":513:886   */\n  swap3\n  swap2\n  pop\n  pop\n  jump\t// out\n    /* \"#utility.yul\":892:1294   */\ntag_51:\n    /* \"#utility.yul\":1052:1055   */\n  0x00\n    /* \"#utility.yul\":1073:1158   */\n  tag_53\n    /* \"#utility.yul\":1155:1157   */\n  0x0b\n    /* \"#utility.yul\":1150:1153   */\n  dup4\n    /* \"#utility.yul\":1073:1158   */\n  tag_54\n  jump\t// in\ntag_53:\n    /* \"#utility.yul\":1066:1158   */\n  swap2\n  pop\n    /* \"#utility.yul\":1167:1260   */\n  tag_55\n    /* \"#utility.yul\":1256:1259   */\n  dup3\n    /* \"#utility.yul\":1167:1260   */\n  tag_56\n  jump\t// in\ntag_55:\n    /* \"#utility.yul\":1285:1287   */\n  0x0b\n    /* \"#utility.yul\":1280:1283   */\n  dup3\n    /* \"#utility.yul\":1276:1288   */\n  add\n    /* \"#utility.yul\":1269:1288   */\n  swap1\n  pop\n    /* \"#utility.yul\":892:1294   */\n  swap2\n  swap1\n  pop\n  jump\t// out\n    /* \"#utility.yul\":1300:1571   */\ntag_8:\n    /* \"#utility.yul\":1430:1433   */\n  0x00\n    /* \"#utility.yul\":1452:1545   */\n  tag_58\n    /* \"#utility.yul\":1541:1544   */\n  dup3\n    /* \"#utility.yul\":1532:1538   */\n  dup5\n    /* \"#utility.yul\":1452:1545   */\n  tag_43\n  jump\t// in\ntag_58:\n    /* \"#utility.yul\":1445:1545   */\n  swap2\n  pop\n    /* \"#utility.yul\":1562:1565   */\n  dup2\n    /* \"#utility.yul\":1555:1565   */\n  swap1\n  pop\n    /* \"#utility.yul\":1300:1571   */\n  swap3\n  swap2\n  pop\n  pop\n  jump\t// out\n    /* \"#utility.yul\":1577:1958   */\ntag_5:\n    /* \"#utility.yul\":1762:1765   */\n  0x00\n    /* \"#utility.yul\":1784:1932   */\n  tag_60\n    /* \"#utility.yul\":1928:1931   */\n  dup3\n    /* \"#utility.yul\":1784:1932   */\n  tag_51\n  jump\t// in\ntag_60:\n    /* \"#utility.yul\":1777:1932   */\n  swap2\n  pop\n    /* \"#utility.yul\":1949:1952   */\n  dup2\n    /* \"#utility.yul\":1942:1952   */\n  swap1\n  pop\n    /* \"#utility.yul\":1577:1958   */\n  swap2\n  swap1\n  pop\n  jump\t// out\n    /* \"#utility.yul\":2045:2143   */\ntag_46:\n    /* \"#utility.yul\":2096:2102   */\n  0x00\n    /* \"#utility.yul\":2130:2135   */\n  dup2\n    /* \"#utility.yul\":2124:2136   */\n  mload\n    /* \"#utility.yul\":2114:2136   */\n  swap1\n  pop\n    /* \"#utility.yul\":2045:2143   */\n  swap2\n  swap1\n  pop\n  jump\t// out\n    /* \"#utility.yul\":2149:2296   */\ntag_48:\n    /* \"#utility.yul\":2250:2261   */\n  0x00\n    /* \"#utility.yul\":2287:2290   */\n  dup2\n    /* \"#utility.yul\":2272:2290   */\n  swap1\n  pop\n    /* \"#utility.yul\":2149:2296   */\n  swap3\n  swap2\n  pop\n  pop\n  jump\t// out\n    /* \"#utility.yul\":2302:2450   */\ntag_54:\n    /* \"#utility.yul\":2404:2415   */\n  0x00\n    /* \"#utility.yul\":2441:2444   */\n  dup2\n    /* \"#utility.yul\":2426:2444   */\n  swap1\n  pop\n    /* \"#utility.yul\":2302:2450   */\n  swap3\n  swap2\n  pop\n  pop\n  jump\t// out\n    /* \"#utility.yul\":2456:2533   */\ntag_66:\n    /* \"#utility.yul\":2493:2500   */\n  0x00\n    /* \"#utility.yul\":2522:2527   */\n  dup2\n    /* \"#utility.yul\":2511:2527   */\n  swap1\n  pop\n    /* \"#utility.yul\":2456:2533   */\n  swap2\n  swap1\n  pop\n  jump\t// out\n    /* \"#utility.yul\":2539:2846   */\ntag_50:\n    /* \"#utility.yul\":2607:2608   */\n  0x00\n    /* \"#utility.yul\":2617:2730   */\ntag_69:\n    /* \"#utility.yul\":2631:2637   */\n  dup4\n    /* \"#utility.yul\":2628:2629   */\n  dup2\n    /* \"#utility.yul\":2625:2638   */\n  lt\n    /* \"#utility.yul\":2617:2730   */\n  iszero\n  tag_71\n  jumpi\n    /* \"#utility.yul\":2716:2717   */\n  dup1\n    /* \"#utility.yul\":2711:2714   */\n  dup3\n    /* \"#utility.yul\":2707:2718   */\n  add\n    /* \"#utility.yul\":2701:2719   */\n  mload\n    /* \"#utility.yul\":2697:2698   */\n  dup2\n    /* \"#utility.yul\":2692:2695   */\n  dup5\n    /* \"#utility.yul\":2688:2699   */\n  add\n    /* \"#utility.yul\":2681:2720   */\n  mstore\n    /* \"#utility.yul\":2653:2655   */\n  0x20\n    /* \"#utility.yul\":2650:2651   */\n  dup2\n    /* \"#utility.yul\":2646:2656   */\n  add\n    /* \"#utility.yul\":2641:2656   */\n  swap1\n  pop\n    /* \"#utility.yul\":2617:2730   */\n  jump(tag_69)\ntag_71:\n    /* \"#utility.yul\":2748:2754   */\n  dup4\n    /* \"#utility.yul\":2745:2746   */\n  dup2\n    /* \"#utility.yul\":2742:2755   */\n  gt\n    /* \"#utility.yul\":2739:2840   */\n  iszero\n  tag_72\n  jumpi\n    /* \"#utility.yul\":2828:2829   */\n  0x00\n    /* \"#utility.yul\":2819:2825   */\n  dup5\n    /* \"#utility.yul\":2814:2817   */\n  dup5\n    /* \"#utility.yul\":2810:2826   */\n  add\n    /* \"#utility.yul\":2803:2830   */\n  mstore\n    /* \"#utility.yul\":2739:2840   */\ntag_72:\n    /* \"#utility.yul\":2588:2846   */\n  pop\n    /* \"#utility.yul\":2539:2846   */\n  pop\n  pop\n  pop\n  jump\t// out\n    /* \"#utility.yul\":2852:3172   */\ntag_23:\n    /* \"#utility.yul\":2896:2902   */\n  0x00\n    /* \"#utility.yul\":2933:2934   */\n  0x02\n    /* \"#utility.yul\":2927:2931   */\n  dup3\n    /* \"#utility.yul\":2923:2935   */\n  div\n    /* \"#utility.yul\":2913:2935   */\n  swap1\n  pop\n    /* \"#utility.yul\":2980:2981   */\n  0x01\n    /* \"#utility.yul\":2974:2978   */\n  dup3\n    /* \"#utility.yul\":2970:2982   */\n  and\n    /* \"#utility.yul\":3001:3019   */\n  dup1\n    /* \"#utility.yul\":2991:3072   */\n  tag_74\n  jumpi\n    /* \"#utility.yul\":3057:3061   */\n  0x7f\n    /* \"#utility.yul\":3049:3055   */\n  dup3\n    /* \"#utility.yul\":3045:3062   */\n  and\n    /* \"#utility.yul\":3035:3062   */\n  swap2\n  pop\n    /* \"#utility.yul\":2991:3072   */\ntag_74:\n    /* \"#utility.yul\":3119:3121   */\n  0x20\n    /* \"#utility.yul\":3111:3117   */\n  dup3\n    /* \"#utility.yul\":3108:3122   */\n  lt\n    /* \"#utility.yul\":3088:3106   */\n  dup2\n    /* \"#utility.yul\":3085:3123   */\n  eq\n    /* \"#utility.yul\":3082:3166   */\n  iszero\n  tag_75\n  jumpi\n    /* \"#utility.yul\":3138:3156   */\n  tag_76\n  tag_77\n  jump\t// in\ntag_76:\n    /* \"#utility.yul\":3082:3166   */\ntag_75:\n    /* \"#utility.yul\":2903:3172   */\n  pop\n    /* \"#utility.yul\":2852:3172   */\n  swap2\n  swap1\n  pop\n  jump\t// out\n    /* \"#utility.yul\":3178:3358   */\ntag_19:\n    /* \"#utility.yul\":3226:3303   */\n  0x4e487b7100000000000000000000000000000000000000000000000000000000\n    /* \"#utility.yul\":3223:3224   */\n  0x00\n    /* \"#utility.yul\":3216:3304   */\n  mstore\n    /* \"#utility.yul\":3323:3327   */\n  0x21\n    /* \"#utility.yul\":3320:3321   */\n  0x04\n    /* \"#utility.yul\":3313:3328   */\n  mstore\n    /* \"#utility.yul\":3347:3351   */\n  0x24\n    /* \"#utility.yul\":3344:3345   */\n  0x00\n    /* \"#utility.yul\":3337:3352   */\n  revert\n    /* \"#utility.yul\":3364:3544   */\ntag_77:\n    /* \"#utility.yul\":3412:3489   */\n  0x4e487b7100000000000000000000000000000000000000000000000000000000\n    /* \"#utility.yul\":3409:3410   */\n  0x00\n    /* \"#utility.yul\":3402:3490   */\n  mstore\n    /* \"#utility.yul\":3509:3513   */\n  0x22\n    /* \"#utility.yul\":3506:3507   */\n  0x04\n    /* \"#utility.yul\":3499:3514   */\n  mstore\n    /* \"#utility.yul\":3533:3537   */\n  0x24\n    /* \"#utility.yul\":3530:3531   */\n  0x00\n    /* \"#utility.yul\":3523:3538   */\n  revert\n    /* \"#utility.yul\":3673:3790   */\ntag_41:\n    /* \"#utility.yul\":3782:3783   */\n  0x00\n    /* \"#utility.yul\":3779:3780   */\n  dup1\n    /* \"#utility.yul\":3772:3784   */\n  revert\n    /* \"#utility.yul\":3796:3957   */\ntag_56:\n    /* \"#utility.yul\":3936:3949   */\n  0x48656c6c6f20576f726c64000000000000000000000000000000000000000000\n    /* \"#utility.yul\":3932:3933   */\n  0x00\n    /* \"#utility.yul\":3924:3930   */\n  dup3\n    /* \"#utility.yul\":3920:3934   */\n  add\n    /* \"#utility.yul\":3913:3950   */\n  mstore\n    /* \"#utility.yul\":3796:3957   */\n  pop\n  jump\t// out\n    /* \"#utility.yul\":3963:4085   */\ntag_37:\n    /* \"#utility.yul\":4036:4060   */\n  tag_85\n    /* \"#utility.yul\":4054:4059   */\n  dup2\n    /* \"#utility.yul\":4036:4060   */\n  tag_66\n  jump\t// in\ntag_85:\n    /* \"#utility.yul\":4029:4034   */\n  dup2\n    /* \"#utility.yul\":4026:4061   */\n  eq\n    /* \"#utility.yul\":4016:4079   */\n  tag_86\n  jumpi\n    /* \"#utility.yul\":4075:4076   */\n  0x00\n    /* \"#utility.yul\":4072:4073   */\n  dup1\n    /* \"#utility.yul\":4065:4077   */\n  revert\n    /* \"#utility.yul\":4016:4079   */\ntag_86:\n    /* \"#utility.yul\":3963:4085   */\n  pop\n  jump\t// out\n    /* \"contracts/2_variables_modifiers.sol\":66:1351  contract variables_modifiers{\r... */\ntag_21:\n  dataSize(sub_0)\n  dup1\n  dataOffset(sub_0)\n  0x00\n  codecopy\n  0x00\n  return\nstop\n\nsub_0: assembly {\n        /* \"contracts/2_variables_modifiers.sol\":66:1351  contract variables_modifiers{\r... */\n      mstore(0x40, 0x80)\n      callvalue\n      dup1\n      iszero\n      tag_1\n      jumpi\n      0x00\n      dup1\n      revert\n    tag_1:\n      pop\n      jumpi(tag_2, lt(calldatasize, 0x04))\n      shr(0xe0, calldataload(0x00))\n      dup1\n      0xaf10c810\n      gt\n      tag_18\n      jumpi\n      dup1\n      0xc19d93fb\n      gt\n      tag_19\n      jumpi\n      dup1\n      0xc19d93fb\n      eq\n      tag_14\n      jumpi\n      dup1\n      0xc7109d04\n      eq\n      tag_15\n      jumpi\n      dup1\n      0xea362b44\n      eq\n      tag_16\n      jumpi\n      dup1\n      0xebbb4bec\n      eq\n      tag_17\n      jumpi\n      jump(tag_2)\n    tag_19:\n      dup1\n      0xaf10c810\n      eq\n      tag_10\n      jumpi\n      dup1\n      0xb71d2cec\n      eq\n      tag_11\n      jumpi\n      dup1\n      0xb83d07b7\n      eq\n      tag_12\n      jumpi\n      dup1\n      0xba33ed7d\n      eq\n      tag_13\n      jumpi\n      jump(tag_2)\n    tag_18:\n      dup1\n      0x4df7e3d0\n      gt\n      tag_20\n      jumpi\n      dup1\n      0x4df7e3d0\n      eq\n      tag_6\n      jumpi\n      dup1\n      0x7272eea1\n      eq\n      tag_7\n      jumpi\n      dup1\n      0x7a68ef7f\n      eq\n      tag_8\n      jumpi\n      dup1\n      0x8a054ac2\n      eq\n      tag_9\n      jumpi\n      jump(tag_2)\n    tag_20:\n      dup1\n      0x2b73648d\n      eq\n      tag_3\n      jumpi\n      dup1\n      0x312eef29\n      eq\n      tag_4\n      jumpi\n      dup1\n      0x4dab6cbe\n      eq\n      tag_5\n      jumpi\n    tag_2:\n      0x00\n      dup1\n      revert\n        /* \"contracts/2_variables_modifiers.sol\":626:703  bytes32 public hashing_keccak256 = keccak256(abi.encodePacked(\"Hello World\")) */\n    tag_3:\n      tag_21\n      tag_22\n      jump\t// in\n    tag_21:\n      mload(0x40)\n      tag_23\n      swap2\n      swap1\n      tag_24\n      jump\t// in\n    tag_23:\n      mload(0x40)\n      dup1\n      swap2\n      sub\n      swap1\n      return\n        /* \"contracts/2_variables_modifiers.sol\":460:491  bool public boolean_true = true */\n    tag_4:\n      tag_25\n      tag_26\n      jump\t// in\n    tag_25:\n      mload(0x40)\n      tag_27\n      swap2\n      swap1\n      tag_28\n      jump\t// in\n    tag_27:\n      mload(0x40)\n      dup1\n      swap2\n      sub\n      swap1\n      return\n        /* \"contracts/2_variables_modifiers.sol\":944:1011  address public addres1 = 0xcD6a42782d230D7c13A74ddec5dD140e55499Df9 */\n    tag_5:\n      tag_29\n      tag_30\n      jump\t// in\n    tag_29:\n      mload(0x40)\n      tag_31\n      swap2\n      swap1\n      tag_32\n      jump\t// in\n    tag_31:\n      mload(0x40)\n      dup1\n      swap2\n      sub\n      swap1\n      return\n        /* \"contracts/2_variables_modifiers.sol\":160:176  uint8 public b=3 */\n    tag_6:\n      tag_33\n      tag_34\n      jump\t// in\n    tag_33:\n      mload(0x40)\n      tag_35\n      swap2\n      swap1\n      tag_36\n      jump\t// in\n    tag_35:\n      mload(0x40)\n      dup1\n      swap2\n      sub\n      swap1\n      return\n        /* \"contracts/2_variables_modifiers.sol\":1264:1348  function displayState() public view returns (options){\r... */\n    tag_7:\n      tag_37\n      tag_38\n      jump\t// in\n    tag_37:\n      mload(0x40)\n      tag_39\n      swap2\n      swap1\n      tag_40\n      jump\t// in\n    tag_39:\n      mload(0x40)\n      dup1\n      swap2\n      sub\n      swap1\n      return\n        /* \"contracts/2_variables_modifiers.sol\":788:865  bytes32 public hashing_ripemd160 = ripemd160(abi.encodePacked(\"Hello World\")) */\n    tag_8:\n      tag_41\n      tag_42\n      jump\t// in\n    tag_41:\n      mload(0x40)\n      tag_43\n      swap2\n      swap1\n      tag_24\n      jump\t// in\n    tag_43:\n      mload(0x40)\n      dup1\n      swap2\n      sub\n      swap1\n      return\n        /* \"contracts/2_variables_modifiers.sol\":225:244  int8 public d = -10 */\n    tag_9:\n      tag_44\n      tag_45\n      jump\t// in\n    tag_44:\n      mload(0x40)\n      tag_46\n      swap2\n      swap1\n      tag_47\n      jump\t// in\n    tag_46:\n      mload(0x40)\n      dup1\n      swap2\n      sub\n      swap1\n      return\n        /* \"contracts/2_variables_modifiers.sol\":1192:1256  function turnOff() public {\r... */\n    tag_10:\n      tag_48\n      tag_49\n      jump\t// in\n    tag_48:\n      stop\n        /* \"contracts/2_variables_modifiers.sol\":899:937  address public my_address = msg.sender */\n    tag_11:\n      tag_50\n      tag_51\n      jump\t// in\n    tag_50:\n      mload(0x40)\n      tag_52\n      swap2\n      swap1\n      tag_32\n      jump\t// in\n    tag_52:\n      mload(0x40)\n      dup1\n      swap2\n      sub\n      swap1\n      return\n        /* \"contracts/2_variables_modifiers.sol\":311:355  string public str_public = \"Esto es publico\" */\n    tag_12:\n      tag_53\n      tag_54\n      jump\t// in\n    tag_53:\n      mload(0x40)\n      tag_55\n      swap2\n      swap1\n      tag_56\n      jump\t// in\n    tag_55:\n      mload(0x40)\n      dup1\n      swap2\n      sub\n      swap1\n      return\n        /* \"contracts/2_variables_modifiers.sol\":1123:1185  function turnOn() public {\r... */\n    tag_13:\n      tag_57\n      tag_58\n      jump\t// in\n    tag_57:\n      stop\n        /* \"contracts/2_variables_modifiers.sol\":1078:1114  options public state = options.ERROR */\n    tag_14:\n      tag_59\n      tag_60\n      jump\t// in\n    tag_59:\n      mload(0x40)\n      tag_61\n      swap2\n      swap1\n      tag_40\n      jump\t// in\n    tag_61:\n      mload(0x40)\n      dup1\n      swap2\n      sub\n      swap1\n      return\n        /* \"contracts/2_variables_modifiers.sol\":710:781  bytes32 public hashing_sha256 = sha256(abi.encodePacked(\"Hello World\")) */\n    tag_15:\n      tag_62\n      tag_63\n      jump\t// in\n    tag_62:\n      mload(0x40)\n      tag_64\n      swap2\n      swap1\n      tag_24\n      jump\t// in\n    tag_64:\n      mload(0x40)\n      dup1\n      swap2\n      sub\n      swap1\n      return\n        /* \"contracts/2_variables_modifiers.sol\":590:619  bytes4 public second_byte=\"D\" */\n    tag_16:\n      tag_65\n      tag_66\n      jump\t// in\n    tag_65:\n      mload(0x40)\n      tag_67\n      swap2\n      swap1\n      tag_68\n      jump\t// in\n    tag_67:\n      mload(0x40)\n      dup1\n      swap2\n      sub\n      swap1\n      return\n        /* \"contracts/2_variables_modifiers.sol\":362:407  string public str_privado = \"Esto es privado\" */\n    tag_17:\n      tag_69\n      tag_70\n      jump\t// in\n    tag_69:\n      mload(0x40)\n      tag_71\n      swap2\n      swap1\n      tag_56\n      jump\t// in\n    tag_71:\n      mload(0x40)\n      dup1\n      swap2\n      sub\n      swap1\n      return\n        /* \"contracts/2_variables_modifiers.sol\":626:703  bytes32 public hashing_keccak256 = keccak256(abi.encodePacked(\"Hello World\")) */\n    tag_22:\n      sload(0x0b)\n      dup2\n      jump\t// out\n        /* \"contracts/2_variables_modifiers.sol\":460:491  bool public boolean_true = true */\n    tag_26:\n      0x08\n      0x01\n      swap1\n      sload\n      swap1\n      0x0100\n      exp\n      swap1\n      div\n      0xff\n      and\n      dup2\n      jump\t// out\n        /* \"contracts/2_variables_modifiers.sol\":944:1011  address public addres1 = 0xcD6a42782d230D7c13A74ddec5dD140e55499Df9 */\n    tag_30:\n      0x0f\n      0x00\n      swap1\n      sload\n      swap1\n      0x0100\n      exp\n      swap1\n      div\n      0xffffffffffffffffffffffffffffffffffffffff\n      and\n      dup2\n      jump\t// out\n        /* \"contracts/2_variables_modifiers.sol\":160:176  uint8 public b=3 */\n    tag_34:\n      0x01\n      0x00\n      swap1\n      sload\n      swap1\n      0x0100\n      exp\n      swap1\n      div\n      0xff\n      and\n      dup2\n      jump\t// out\n        /* \"contracts/2_variables_modifiers.sol\":1264:1348  function displayState() public view returns (options){\r... */\n    tag_38:\n        /* \"contracts/2_variables_modifiers.sol\":1309:1316  options */\n      0x00\n        /* \"contracts/2_variables_modifiers.sol\":1335:1340  state */\n      0x0f\n      0x14\n      swap1\n      sload\n      swap1\n      0x0100\n      exp\n      swap1\n      div\n      0xff\n      and\n        /* \"contracts/2_variables_modifiers.sol\":1328:1340  return state */\n      swap1\n      pop\n        /* \"contracts/2_variables_modifiers.sol\":1264:1348  function displayState() public view returns (options){\r... */\n      swap1\n      jump\t// out\n        /* \"contracts/2_variables_modifiers.sol\":788:865  bytes32 public hashing_ripemd160 = ripemd160(abi.encodePacked(\"Hello World\")) */\n    tag_42:\n      sload(0x0d)\n      dup2\n      jump\t// out\n        /* \"contracts/2_variables_modifiers.sol\":225:244  int8 public d = -10 */\n    tag_45:\n      0x03\n      0x00\n      swap1\n      sload\n      swap1\n      0x0100\n      exp\n      swap1\n      div\n      0x00\n      signextend\n      dup2\n      jump\t// out\n        /* \"contracts/2_variables_modifiers.sol\":1192:1256  function turnOff() public {\r... */\n    tag_49:\n        /* \"contracts/2_variables_modifiers.sol\":1237:1248  options.OFF */\n      0x01\n        /* \"contracts/2_variables_modifiers.sol\":1229:1234  state */\n      0x0f\n      0x14\n        /* \"contracts/2_variables_modifiers.sol\":1229:1248  state = options.OFF */\n      0x0100\n      exp\n      dup2\n      sload\n      dup2\n      0xff\n      mul\n      not\n      and\n      swap1\n      dup4\n      0x02\n      dup2\n      gt\n      iszero\n      tag_74\n      jumpi\n      tag_75\n      tag_76\n      jump\t// in\n    tag_75:\n    tag_74:\n      mul\n      or\n      swap1\n      sstore\n      pop\n        /* \"contracts/2_variables_modifiers.sol\":1192:1256  function turnOff() public {\r... */\n      jump\t// out\n        /* \"contracts/2_variables_modifiers.sol\":899:937  address public my_address = msg.sender */\n    tag_51:\n      0x0e\n      0x00\n      swap1\n      sload\n      swap1\n      0x0100\n      exp\n      swap1\n      div\n      0xffffffffffffffffffffffffffffffffffffffff\n      and\n      dup2\n      jump\t// out\n        /* \"contracts/2_variables_modifiers.sol\":311:355  string public str_public = \"Esto es publico\" */\n    tag_54:\n      0x06\n      dup1\n      sload\n      tag_77\n      swap1\n      tag_78\n      jump\t// in\n    tag_77:\n      dup1\n      0x1f\n      add\n      0x20\n      dup1\n      swap2\n      div\n      mul\n      0x20\n      add\n      mload(0x40)\n      swap1\n      dup2\n      add\n      0x40\n      mstore\n      dup1\n      swap3\n      swap2\n      swap1\n      dup2\n      dup2\n      mstore\n      0x20\n      add\n      dup3\n      dup1\n      sload\n      tag_79\n      swap1\n      tag_78\n      jump\t// in\n    tag_79:\n      dup1\n      iszero\n      tag_80\n      jumpi\n      dup1\n      0x1f\n      lt\n      tag_81\n      jumpi\n      0x0100\n      dup1\n      dup4\n      sload\n      div\n      mul\n      dup4\n      mstore\n      swap2\n      0x20\n      add\n      swap2\n      jump(tag_80)\n    tag_81:\n      dup3\n      add\n      swap2\n      swap1\n      0x00\n      mstore\n      keccak256(0x00, 0x20)\n      swap1\n    tag_82:\n      dup2\n      sload\n      dup2\n      mstore\n      swap1\n      0x01\n      add\n      swap1\n      0x20\n      add\n      dup1\n      dup4\n      gt\n      tag_82\n      jumpi\n      dup3\n      swap1\n      sub\n      0x1f\n      and\n      dup3\n      add\n      swap2\n    tag_80:\n      pop\n      pop\n      pop\n      pop\n      pop\n      dup2\n      jump\t// out\n        /* \"contracts/2_variables_modifiers.sol\":1123:1185  function turnOn() public {\r... */\n    tag_58:\n        /* \"contracts/2_variables_modifiers.sol\":1167:1177  options.ON */\n      0x00\n        /* \"contracts/2_variables_modifiers.sol\":1159:1164  state */\n      0x0f\n      0x14\n        /* \"contracts/2_variables_modifiers.sol\":1159:1177  state = options.ON */\n      0x0100\n      exp\n      dup2\n      sload\n      dup2\n      0xff\n      mul\n      not\n      and\n      swap1\n      dup4\n      0x02\n      dup2\n      gt\n      iszero\n      tag_84\n      jumpi\n      tag_85\n      tag_76\n      jump\t// in\n    tag_85:\n    tag_84:\n      mul\n      or\n      swap1\n      sstore\n      pop\n        /* \"contracts/2_variables_modifiers.sol\":1123:1185  function turnOn() public {\r... */\n      jump\t// out\n        /* \"contracts/2_variables_modifiers.sol\":1078:1114  options public state = options.ERROR */\n    tag_60:\n      0x0f\n      0x14\n      swap1\n      sload\n      swap1\n      0x0100\n      exp\n      swap1\n      div\n      0xff\n      and\n      dup2\n      jump\t// out\n        /* \"contracts/2_variables_modifiers.sol\":710:781  bytes32 public hashing_sha256 = sha256(abi.encodePacked(\"Hello World\")) */\n    tag_63:\n      sload(0x0c)\n      dup2\n      jump\t// out\n        /* \"contracts/2_variables_modifiers.sol\":590:619  bytes4 public second_byte=\"D\" */\n    tag_66:\n      0x0a\n      0x00\n      swap1\n      sload\n      swap1\n      0x0100\n      exp\n      swap1\n      div\n      0xe0\n      shl\n      dup2\n      jump\t// out\n        /* \"contracts/2_variables_modifiers.sol\":362:407  string public str_privado = \"Esto es privado\" */\n    tag_70:\n      0x07\n      dup1\n      sload\n      tag_86\n      swap1\n      tag_78\n      jump\t// in\n    tag_86:\n      dup1\n      0x1f\n      add\n      0x20\n      dup1\n      swap2\n      div\n      mul\n      0x20\n      add\n      mload(0x40)\n      swap1\n      dup2\n      add\n      0x40\n      mstore\n      dup1\n      swap3\n      swap2\n      swap1\n      dup2\n      dup2\n      mstore\n      0x20\n      add\n      dup3\n      dup1\n      sload\n      tag_87\n      swap1\n      tag_78\n      jump\t// in\n    tag_87:\n      dup1\n      iszero\n      tag_88\n      jumpi\n      dup1\n      0x1f\n      lt\n      tag_89\n      jumpi\n      0x0100\n      dup1\n      dup4\n      sload\n      div\n      mul\n      dup4\n      mstore\n      swap2\n      0x20\n      add\n      swap2\n      jump(tag_88)\n    tag_89:\n      dup3\n      add\n      swap2\n      swap1\n      0x00\n      mstore\n      keccak256(0x00, 0x20)\n      swap1\n    tag_90:\n      dup2\n      sload\n      dup2\n      mstore\n      swap1\n      0x01\n      add\n      swap1\n      0x20\n      add\n      dup1\n      dup4\n      gt\n      tag_90\n      jumpi\n      dup3\n      swap1\n      sub\n      0x1f\n      and\n      dup3\n      add\n      swap2\n    tag_88:\n      pop\n      pop\n      pop\n      pop\n      pop\n      dup2\n      jump\t// out\n        /* \"#utility.yul\":7:125   */\n    tag_92:\n        /* \"#utility.yul\":94:118   */\n      tag_94\n        /* \"#utility.yul\":112:117   */\n      dup2\n        /* \"#utility.yul\":94:118   */\n      tag_95\n      jump\t// in\n    tag_94:\n        /* \"#utility.yul\":89:92   */\n      dup3\n        /* \"#utility.yul\":82:119   */\n      mstore\n        /* \"#utility.yul\":7:125   */\n      pop\n      pop\n      jump\t// out\n        /* \"#utility.yul\":131:240   */\n    tag_96:\n        /* \"#utility.yul\":212:233   */\n      tag_98\n        /* \"#utility.yul\":227:232   */\n      dup2\n        /* \"#utility.yul\":212:233   */\n      tag_99\n      jump\t// in\n    tag_98:\n        /* \"#utility.yul\":207:210   */\n      dup3\n        /* \"#utility.yul\":200:234   */\n      mstore\n        /* \"#utility.yul\":131:240   */\n      pop\n      pop\n      jump\t// out\n        /* \"#utility.yul\":246:364   */\n    tag_100:\n        /* \"#utility.yul\":333:357   */\n      tag_102\n        /* \"#utility.yul\":351:356   */\n      dup2\n        /* \"#utility.yul\":333:357   */\n      tag_103\n      jump\t// in\n    tag_102:\n        /* \"#utility.yul\":328:331   */\n      dup3\n        /* \"#utility.yul\":321:358   */\n      mstore\n        /* \"#utility.yul\":246:364   */\n      pop\n      pop\n      jump\t// out\n        /* \"#utility.yul\":370:485   */\n    tag_104:\n        /* \"#utility.yul\":455:478   */\n      tag_106\n        /* \"#utility.yul\":472:477   */\n      dup2\n        /* \"#utility.yul\":455:478   */\n      tag_107\n      jump\t// in\n    tag_106:\n        /* \"#utility.yul\":450:453   */\n      dup3\n        /* \"#utility.yul\":443:479   */\n      mstore\n        /* \"#utility.yul\":370:485   */\n      pop\n      pop\n      jump\t// out\n        /* \"#utility.yul\":491:638   */\n    tag_108:\n        /* \"#utility.yul\":586:631   */\n      tag_110\n        /* \"#utility.yul\":625:630   */\n      dup2\n        /* \"#utility.yul\":586:631   */\n      tag_111\n      jump\t// in\n    tag_110:\n        /* \"#utility.yul\":581:584   */\n      dup3\n        /* \"#utility.yul\":574:632   */\n      mstore\n        /* \"#utility.yul\":491:638   */\n      pop\n      pop\n      jump\t// out\n        /* \"#utility.yul\":644:753   */\n    tag_112:\n        /* \"#utility.yul\":725:746   */\n      tag_114\n        /* \"#utility.yul\":740:745   */\n      dup2\n        /* \"#utility.yul\":725:746   */\n      tag_115\n      jump\t// in\n    tag_114:\n        /* \"#utility.yul\":720:723   */\n      dup3\n        /* \"#utility.yul\":713:747   */\n      mstore\n        /* \"#utility.yul\":644:753   */\n      pop\n      pop\n      jump\t// out\n        /* \"#utility.yul\":759:1123   */\n    tag_116:\n        /* \"#utility.yul\":847:850   */\n      0x00\n        /* \"#utility.yul\":875:914   */\n      tag_118\n        /* \"#utility.yul\":908:913   */\n      dup3\n        /* \"#utility.yul\":875:914   */\n      tag_119\n      jump\t// in\n    tag_118:\n        /* \"#utility.yul\":930:1001   */\n      tag_120\n        /* \"#utility.yul\":994:1000   */\n      dup2\n        /* \"#utility.yul\":989:992   */\n      dup6\n        /* \"#utility.yul\":930:1001   */\n      tag_121\n      jump\t// in\n    tag_120:\n        /* \"#utility.yul\":923:1001   */\n      swap4\n      pop\n        /* \"#utility.yul\":1010:1062   */\n      tag_122\n        /* \"#utility.yul\":1055:1061   */\n      dup2\n        /* \"#utility.yul\":1050:1053   */\n      dup6\n        /* \"#utility.yul\":1043:1047   */\n      0x20\n        /* \"#utility.yul\":1036:1041   */\n      dup7\n        /* \"#utility.yul\":1032:1048   */\n      add\n        /* \"#utility.yul\":1010:1062   */\n      tag_123\n      jump\t// in\n    tag_122:\n        /* \"#utility.yul\":1087:1116   */\n      tag_124\n        /* \"#utility.yul\":1109:1115   */\n      dup2\n        /* \"#utility.yul\":1087:1116   */\n      tag_125\n      jump\t// in\n    tag_124:\n        /* \"#utility.yul\":1082:1085   */\n      dup5\n        /* \"#utility.yul\":1078:1117   */\n      add\n        /* \"#utility.yul\":1071:1117   */\n      swap2\n      pop\n        /* \"#utility.yul\":851:1123   */\n      pop\n        /* \"#utility.yul\":759:1123   */\n      swap3\n      swap2\n      pop\n      pop\n      jump\t// out\n        /* \"#utility.yul\":1129:1241   */\n    tag_126:\n        /* \"#utility.yul\":1212:1234   */\n      tag_128\n        /* \"#utility.yul\":1228:1233   */\n      dup2\n        /* \"#utility.yul\":1212:1234   */\n      tag_129\n      jump\t// in\n    tag_128:\n        /* \"#utility.yul\":1207:1210   */\n      dup3\n        /* \"#utility.yul\":1200:1235   */\n      mstore\n        /* \"#utility.yul\":1129:1241   */\n      pop\n      pop\n      jump\t// out\n        /* \"#utility.yul\":1247:1469   */\n    tag_32:\n        /* \"#utility.yul\":1340:1344   */\n      0x00\n        /* \"#utility.yul\":1378:1380   */\n      0x20\n        /* \"#utility.yul\":1367:1376   */\n      dup3\n        /* \"#utility.yul\":1363:1381   */\n      add\n        /* \"#utility.yul\":1355:1381   */\n      swap1\n      pop\n        /* \"#utility.yul\":1391:1462   */\n      tag_131\n        /* \"#utility.yul\":1459:1460   */\n      0x00\n        /* \"#utility.yul\":1448:1457   */\n      dup4\n        /* \"#utility.yul\":1444:1461   */\n      add\n        /* \"#utility.yul\":1435:1441   */\n      dup5\n        /* \"#utility.yul\":1391:1462   */\n      tag_92\n      jump\t// in\n    tag_131:\n        /* \"#utility.yul\":1247:1469   */\n      swap3\n      swap2\n      pop\n      pop\n      jump\t// out\n        /* \"#utility.yul\":1475:1685   */\n    tag_28:\n        /* \"#utility.yul\":1562:1566   */\n      0x00\n        /* \"#utility.yul\":1600:1602   */\n      0x20\n        /* \"#utility.yul\":1589:1598   */\n      dup3\n        /* \"#utility.yul\":1585:1603   */\n      add\n        /* \"#utility.yul\":1577:1603   */\n      swap1\n      pop\n        /* \"#utility.yul\":1613:1678   */\n      tag_133\n        /* \"#utility.yul\":1675:1676   */\n      0x00\n        /* \"#utility.yul\":1664:1673   */\n      dup4\n        /* \"#utility.yul\":1660:1677   */\n      add\n        /* \"#utility.yul\":1651:1657   */\n      dup5\n        /* \"#utility.yul\":1613:1678   */\n      tag_96\n      jump\t// in\n    tag_133:\n        /* \"#utility.yul\":1475:1685   */\n      swap3\n      swap2\n      pop\n      pop\n      jump\t// out\n        /* \"#utility.yul\":1691:1913   */\n    tag_24:\n        /* \"#utility.yul\":1784:1788   */\n      0x00\n        /* \"#utility.yul\":1822:1824   */\n      0x20\n        /* \"#utility.yul\":1811:1820   */\n      dup3\n        /* \"#utility.yul\":1807:1825   */\n      add\n        /* \"#utility.yul\":1799:1825   */\n      swap1\n      pop\n        /* \"#utility.yul\":1835:1906   */\n      tag_135\n        /* \"#utility.yul\":1903:1904   */\n      0x00\n        /* \"#utility.yul\":1892:1901   */\n      dup4\n        /* \"#utility.yul\":1888:1905   */\n      add\n        /* \"#utility.yul\":1879:1885   */\n      dup5\n        /* \"#utility.yul\":1835:1906   */\n      tag_100\n      jump\t// in\n    tag_135:\n        /* \"#utility.yul\":1691:1913   */\n      swap3\n      swap2\n      pop\n      pop\n      jump\t// out\n        /* \"#utility.yul\":1919:2137   */\n    tag_68:\n        /* \"#utility.yul\":2010:2014   */\n      0x00\n        /* \"#utility.yul\":2048:2050   */\n      0x20\n        /* \"#utility.yul\":2037:2046   */\n      dup3\n        /* \"#utility.yul\":2033:2051   */\n      add\n        /* \"#utility.yul\":2025:2051   */\n      swap1\n      pop\n        /* \"#utility.yul\":2061:2130   */\n      tag_137\n        /* \"#utility.yul\":2127:2128   */\n      0x00\n        /* \"#utility.yul\":2116:2125   */\n      dup4\n        /* \"#utility.yul\":2112:2129   */\n      add\n        /* \"#utility.yul\":2103:2109   */\n      dup5\n        /* \"#utility.yul\":2061:2130   */\n      tag_104\n      jump\t// in\n    tag_137:\n        /* \"#utility.yul\":1919:2137   */\n      swap3\n      swap2\n      pop\n      pop\n      jump\t// out\n        /* \"#utility.yul\":2143:2381   */\n    tag_40:\n        /* \"#utility.yul\":2244:2248   */\n      0x00\n        /* \"#utility.yul\":2282:2284   */\n      0x20\n        /* \"#utility.yul\":2271:2280   */\n      dup3\n        /* \"#utility.yul\":2267:2285   */\n      add\n        /* \"#utility.yul\":2259:2285   */\n      swap1\n      pop\n        /* \"#utility.yul\":2295:2374   */\n      tag_139\n        /* \"#utility.yul\":2371:2372   */\n      0x00\n        /* \"#utility.yul\":2360:2369   */\n      dup4\n        /* \"#utility.yul\":2356:2373   */\n      add\n        /* \"#utility.yul\":2347:2353   */\n      dup5\n        /* \"#utility.yul\":2295:2374   */\n      tag_108\n      jump\t// in\n    tag_139:\n        /* \"#utility.yul\":2143:2381   */\n      swap3\n      swap2\n      pop\n      pop\n      jump\t// out\n        /* \"#utility.yul\":2387:2597   */\n    tag_47:\n        /* \"#utility.yul\":2474:2478   */\n      0x00\n        /* \"#utility.yul\":2512:2514   */\n      0x20\n        /* \"#utility.yul\":2501:2510   */\n      dup3\n        /* \"#utility.yul\":2497:2515   */\n      add\n        /* \"#utility.yul\":2489:2515   */\n      swap1\n      pop\n        /* \"#utility.yul\":2525:2590   */\n      tag_141\n        /* \"#utility.yul\":2587:2588   */\n      0x00\n        /* \"#utility.yul\":2576:2585   */\n      dup4\n        /* \"#utility.yul\":2572:2589   */\n      add\n        /* \"#utility.yul\":2563:2569   */\n      dup5\n        /* \"#utility.yul\":2525:2590   */\n      tag_112\n      jump\t// in\n    tag_141:\n        /* \"#utility.yul\":2387:2597   */\n      swap3\n      swap2\n      pop\n      pop\n      jump\t// out\n        /* \"#utility.yul\":2603:2916   */\n    tag_56:\n        /* \"#utility.yul\":2716:2720   */\n      0x00\n        /* \"#utility.yul\":2754:2756   */\n      0x20\n        /* \"#utility.yul\":2743:2752   */\n      dup3\n        /* \"#utility.yul\":2739:2757   */\n      add\n        /* \"#utility.yul\":2731:2757   */\n      swap1\n      pop\n        /* \"#utility.yul\":2803:2812   */\n      dup2\n        /* \"#utility.yul\":2797:2801   */\n      dup2\n        /* \"#utility.yul\":2793:2813   */\n      sub\n        /* \"#utility.yul\":2789:2790   */\n      0x00\n        /* \"#utility.yul\":2778:2787   */\n      dup4\n        /* \"#utility.yul\":2774:2791   */\n      add\n        /* \"#utility.yul\":2767:2814   */\n      mstore\n        /* \"#utility.yul\":2831:2909   */\n      tag_143\n        /* \"#utility.yul\":2904:2908   */\n      dup2\n        /* \"#utility.yul\":2895:2901   */\n      dup5\n        /* \"#utility.yul\":2831:2909   */\n      tag_116\n      jump\t// in\n    tag_143:\n        /* \"#utility.yul\":2823:2909   */\n      swap1\n      pop\n        /* \"#utility.yul\":2603:2916   */\n      swap3\n      swap2\n      pop\n      pop\n      jump\t// out\n        /* \"#utility.yul\":2922:3136   */\n    tag_36:\n        /* \"#utility.yul\":3011:3015   */\n      0x00\n        /* \"#utility.yul\":3049:3051   */\n      0x20\n        /* \"#utility.yul\":3038:3047   */\n      dup3\n        /* \"#utility.yul\":3034:3052   */\n      add\n        /* \"#utility.yul\":3026:3052   */\n      swap1\n      pop\n        /* \"#utility.yul\":3062:3129   */\n      tag_145\n        /* \"#utility.yul\":3126:3127   */\n      0x00\n        /* \"#utility.yul\":3115:3124   */\n      dup4\n        /* \"#utility.yul\":3111:3128   */\n      add\n        /* \"#utility.yul\":3102:3108   */\n      dup5\n        /* \"#utility.yul\":3062:3129   */\n      tag_126\n      jump\t// in\n    tag_145:\n        /* \"#utility.yul\":2922:3136   */\n      swap3\n      swap2\n      pop\n      pop\n      jump\t// out\n        /* \"#utility.yul\":3142:3241   */\n    tag_119:\n        /* \"#utility.yul\":3194:3200   */\n      0x00\n        /* \"#utility.yul\":3228:3233   */\n      dup2\n        /* \"#utility.yul\":3222:3234   */\n      mload\n        /* \"#utility.yul\":3212:3234   */\n      swap1\n      pop\n        /* \"#utility.yul\":3142:3241   */\n      swap2\n      swap1\n      pop\n      jump\t// out\n        /* \"#utility.yul\":3247:3416   */\n    tag_121:\n        /* \"#utility.yul\":3331:3342   */\n      0x00\n        /* \"#utility.yul\":3365:3371   */\n      dup3\n        /* \"#utility.yul\":3360:3363   */\n      dup3\n        /* \"#utility.yul\":3353:3372   */\n      mstore\n        /* \"#utility.yul\":3405:3409   */\n      0x20\n        /* \"#utility.yul\":3400:3403   */\n      dup3\n        /* \"#utility.yul\":3396:3410   */\n      add\n        /* \"#utility.yul\":3381:3410   */\n      swap1\n      pop\n        /* \"#utility.yul\":3247:3416   */\n      swap3\n      swap2\n      pop\n      pop\n      jump\t// out\n        /* \"#utility.yul\":3422:3518   */\n    tag_95:\n        /* \"#utility.yul\":3459:3466   */\n      0x00\n        /* \"#utility.yul\":3488:3512   */\n      tag_149\n        /* \"#utility.yul\":3506:3511   */\n      dup3\n        /* \"#utility.yul\":3488:3512   */\n      tag_150\n      jump\t// in\n    tag_149:\n        /* \"#utility.yul\":3477:3512   */\n      swap1\n      pop\n        /* \"#utility.yul\":3422:3518   */\n      swap2\n      swap1\n      pop\n      jump\t// out\n        /* \"#utility.yul\":3524:3614   */\n    tag_99:\n        /* \"#utility.yul\":3558:3565   */\n      0x00\n        /* \"#utility.yul\":3601:3606   */\n      dup2\n        /* \"#utility.yul\":3594:3607   */\n      iszero\n        /* \"#utility.yul\":3587:3608   */\n      iszero\n        /* \"#utility.yul\":3576:3608   */\n      swap1\n      pop\n        /* \"#utility.yul\":3524:3614   */\n      swap2\n      swap1\n      pop\n      jump\t// out\n        /* \"#utility.yul\":3620:3697   */\n    tag_103:\n        /* \"#utility.yul\":3657:3664   */\n      0x00\n        /* \"#utility.yul\":3686:3691   */\n      dup2\n        /* \"#utility.yul\":3675:3691   */\n      swap1\n      pop\n        /* \"#utility.yul\":3620:3697   */\n      swap2\n      swap1\n      pop\n      jump\t// out\n        /* \"#utility.yul\":3703:3852   */\n    tag_107:\n        /* \"#utility.yul\":3739:3746   */\n      0x00\n        /* \"#utility.yul\":3779:3845   */\n      0xffffffff00000000000000000000000000000000000000000000000000000000\n        /* \"#utility.yul\":3772:3777   */\n      dup3\n        /* \"#utility.yul\":3768:3846   */\n      and\n        /* \"#utility.yul\":3757:3846   */\n      swap1\n      pop\n        /* \"#utility.yul\":3703:3852   */\n      swap2\n      swap1\n      pop\n      jump\t// out\n        /* \"#utility.yul\":3858:3989   */\n    tag_154:\n        /* \"#utility.yul\":3905:3912   */\n      0x00\n        /* \"#utility.yul\":3934:3939   */\n      dup2\n        /* \"#utility.yul\":3923:3939   */\n      swap1\n      pop\n        /* \"#utility.yul\":3940:3983   */\n      tag_156\n        /* \"#utility.yul\":3977:3982   */\n      dup3\n        /* \"#utility.yul\":3940:3983   */\n      tag_157\n      jump\t// in\n    tag_156:\n        /* \"#utility.yul\":3858:3989   */\n      swap2\n      swap1\n      pop\n      jump\t// out\n        /* \"#utility.yul\":3995:4084   */\n    tag_115:\n        /* \"#utility.yul\":4029:4036   */\n      0x00\n        /* \"#utility.yul\":4072:4077   */\n      dup2\n        /* \"#utility.yul\":4069:4070   */\n      0x00\n        /* \"#utility.yul\":4058:4078   */\n      signextend\n        /* \"#utility.yul\":4047:4078   */\n      swap1\n      pop\n        /* \"#utility.yul\":3995:4084   */\n      swap2\n      swap1\n      pop\n      jump\t// out\n        /* \"#utility.yul\":4090:4216   */\n    tag_150:\n        /* \"#utility.yul\":4127:4134   */\n      0x00\n        /* \"#utility.yul\":4167:4209   */\n      0xffffffffffffffffffffffffffffffffffffffff\n        /* \"#utility.yul\":4160:4165   */\n      dup3\n        /* \"#utility.yul\":4156:4210   */\n      and\n        /* \"#utility.yul\":4145:4210   */\n      swap1\n      pop\n        /* \"#utility.yul\":4090:4216   */\n      swap2\n      swap1\n      pop\n      jump\t// out\n        /* \"#utility.yul\":4222:4308   */\n    tag_129:\n        /* \"#utility.yul\":4257:4264   */\n      0x00\n        /* \"#utility.yul\":4297:4301   */\n      0xff\n        /* \"#utility.yul\":4290:4295   */\n      dup3\n        /* \"#utility.yul\":4286:4302   */\n      and\n        /* \"#utility.yul\":4275:4302   */\n      swap1\n      pop\n        /* \"#utility.yul\":4222:4308   */\n      swap2\n      swap1\n      pop\n      jump\t// out\n        /* \"#utility.yul\":4314:4445   */\n    tag_111:\n        /* \"#utility.yul\":4372:4381   */\n      0x00\n        /* \"#utility.yul\":4405:4439   */\n      tag_162\n        /* \"#utility.yul\":4433:4438   */\n      dup3\n        /* \"#utility.yul\":4405:4439   */\n      tag_154\n      jump\t// in\n    tag_162:\n        /* \"#utility.yul\":4392:4439   */\n      swap1\n      pop\n        /* \"#utility.yul\":4314:4445   */\n      swap2\n      swap1\n      pop\n      jump\t// out\n        /* \"#utility.yul\":4451:4758   */\n    tag_123:\n        /* \"#utility.yul\":4519:4520   */\n      0x00\n        /* \"#utility.yul\":4529:4642   */\n    tag_164:\n        /* \"#utility.yul\":4543:4549   */\n      dup4\n        /* \"#utility.yul\":4540:4541   */\n      dup2\n        /* \"#utility.yul\":4537:4550   */\n      lt\n        /* \"#utility.yul\":4529:4642   */\n      iszero\n      tag_166\n      jumpi\n        /* \"#utility.yul\":4628:4629   */\n      dup1\n        /* \"#utility.yul\":4623:4626   */\n      dup3\n        /* \"#utility.yul\":4619:4630   */\n      add\n        /* \"#utility.yul\":4613:4631   */\n      mload\n        /* \"#utility.yul\":4609:4610   */\n      dup2\n        /* \"#utility.yul\":4604:4607   */\n      dup5\n        /* \"#utility.yul\":4600:4611   */\n      add\n        /* \"#utility.yul\":4593:4632   */\n      mstore\n        /* \"#utility.yul\":4565:4567   */\n      0x20\n        /* \"#utility.yul\":4562:4563   */\n      dup2\n        /* \"#utility.yul\":4558:4568   */\n      add\n        /* \"#utility.yul\":4553:4568   */\n      swap1\n      pop\n        /* \"#utility.yul\":4529:4642   */\n      jump(tag_164)\n    tag_166:\n        /* \"#utility.yul\":4660:4666   */\n      dup4\n        /* \"#utility.yul\":4657:4658   */\n      dup2\n        /* \"#utility.yul\":4654:4667   */\n      gt\n        /* \"#utility.yul\":4651:4752   */\n      iszero\n      tag_167\n      jumpi\n        /* \"#utility.yul\":4740:4741   */\n      0x00\n        /* \"#utility.yul\":4731:4737   */\n      dup5\n        /* \"#utility.yul\":4726:4729   */\n      dup5\n        /* \"#utility.yul\":4722:4738   */\n      add\n        /* \"#utility.yul\":4715:4742   */\n      mstore\n        /* \"#utility.yul\":4651:4752   */\n    tag_167:\n        /* \"#utility.yul\":4500:4758   */\n      pop\n        /* \"#utility.yul\":4451:4758   */\n      pop\n      pop\n      pop\n      jump\t// out\n        /* \"#utility.yul\":4764:5084   */\n    tag_78:\n        /* \"#utility.yul\":4808:4814   */\n      0x00\n        /* \"#utility.yul\":4845:4846   */\n      0x02\n        /* \"#utility.yul\":4839:4843   */\n      dup3\n        /* \"#utility.yul\":4835:4847   */\n      div\n        /* \"#utility.yul\":4825:4847   */\n      swap1\n      pop\n        /* \"#utility.yul\":4892:4893   */\n      0x01\n        /* \"#utility.yul\":4886:4890   */\n      dup3\n        /* \"#utility.yul\":4882:4894   */\n      and\n        /* \"#utility.yul\":4913:4931   */\n      dup1\n        /* \"#utility.yul\":4903:4984   */\n      tag_169\n      jumpi\n        /* \"#utility.yul\":4969:4973   */\n      0x7f\n        /* \"#utility.yul\":4961:4967   */\n      dup3\n        /* \"#utility.yul\":4957:4974   */\n      and\n        /* \"#utility.yul\":4947:4974   */\n      swap2\n      pop\n        /* \"#utility.yul\":4903:4984   */\n    tag_169:\n        /* \"#utility.yul\":5031:5033   */\n      0x20\n        /* \"#utility.yul\":5023:5029   */\n      dup3\n        /* \"#utility.yul\":5020:5034   */\n      lt\n        /* \"#utility.yul\":5000:5018   */\n      dup2\n        /* \"#utility.yul\":4997:5035   */\n      eq\n        /* \"#utility.yul\":4994:5078   */\n      iszero\n      tag_170\n      jumpi\n        /* \"#utility.yul\":5050:5068   */\n      tag_171\n      tag_172\n      jump\t// in\n    tag_171:\n        /* \"#utility.yul\":4994:5078   */\n    tag_170:\n        /* \"#utility.yul\":4815:5084   */\n      pop\n        /* \"#utility.yul\":4764:5084   */\n      swap2\n      swap1\n      pop\n      jump\t// out\n        /* \"#utility.yul\":5090:5270   */\n    tag_76:\n        /* \"#utility.yul\":5138:5215   */\n      0x4e487b7100000000000000000000000000000000000000000000000000000000\n        /* \"#utility.yul\":5135:5136   */\n      0x00\n        /* \"#utility.yul\":5128:5216   */\n      mstore\n        /* \"#utility.yul\":5235:5239   */\n      0x21\n        /* \"#utility.yul\":5232:5233   */\n      0x04\n        /* \"#utility.yul\":5225:5240   */\n      mstore\n        /* \"#utility.yul\":5259:5263   */\n      0x24\n        /* \"#utility.yul\":5256:5257   */\n      0x00\n        /* \"#utility.yul\":5249:5264   */\n      revert\n        /* \"#utility.yul\":5276:5456   */\n    tag_172:\n        /* \"#utility.yul\":5324:5401   */\n      0x4e487b7100000000000000000000000000000000000000000000000000000000\n        /* \"#utility.yul\":5321:5322   */\n      0x00\n        /* \"#utility.yul\":5314:5402   */\n      mstore\n        /* \"#utility.yul\":5421:5425   */\n      0x22\n        /* \"#utility.yul\":5418:5419   */\n      0x04\n        /* \"#utility.yul\":5411:5426   */\n      mstore\n        /* \"#utility.yul\":5445:5449   */\n      0x24\n        /* \"#utility.yul\":5442:5443   */\n      0x00\n        /* \"#utility.yul\":5435:5450   */\n      revert\n        /* \"#utility.yul\":5462:5564   */\n    tag_125:\n        /* \"#utility.yul\":5503:5509   */\n      0x00\n        /* \"#utility.yul\":5554:5556   */\n      0x1f\n        /* \"#utility.yul\":5550:5557   */\n      not\n        /* \"#utility.yul\":5545:5547   */\n      0x1f\n        /* \"#utility.yul\":5538:5543   */\n      dup4\n        /* \"#utility.yul\":5534:5548   */\n      add\n        /* \"#utility.yul\":5530:5558   */\n      and\n        /* \"#utility.yul\":5520:5558   */\n      swap1\n      pop\n        /* \"#utility.yul\":5462:5564   */\n      swap2\n      swap1\n      pop\n      jump\t// out\n        /* \"#utility.yul\":5570:5685   */\n    tag_157:\n        /* \"#utility.yul\":5653:5654   */\n      0x03\n        /* \"#utility.yul\":5646:5651   */\n      dup2\n        /* \"#utility.yul\":5643:5655   */\n      lt\n        /* \"#utility.yul\":5633:5679   */\n      tag_177\n      jumpi\n        /* \"#utility.yul\":5659:5677   */\n      tag_178\n      tag_76\n      jump\t// in\n    tag_178:\n        /* \"#utility.yul\":5633:5679   */\n    tag_177:\n        /* \"#utility.yul\":5570:5685   */\n      pop\n      jump\t// out\n\n    auxdata: 0xa26469706673582212205bb419ca3aff390d1a5f792a0a3079c0d888d19a41988b3c453d2ebfce27346864736f6c63430008070033\n}\n",
				"bytecode": {
					"linkReferences": {},
					"object": "60806040526003600160006101000a81548160ff021916908360ff1602179055507ffffffffffffffffffffffffffffffffffffffffffffffffffffffffffffffff6600360006101000a81548160ff021916908360000b60ff16021790555060416004556040518060400160405280600f81526020017f4573746f206573207075626c69636f000000000000000000000000000000000081525060069080519060200190620000b092919062000357565b506040518060400160405280600f81526020017f4573746f206573207072697661646f000000000000000000000000000000000081525060079080519060200190620000fe92919062000357565b506001600860016101000a81548160ff0219169083151502179055506000600860026101000a81548160ff0219169083151502179055507f4400000000000000000000000000000000000000000000000000000000000000600a60006101000a81548163ffffffff021916908360e01c02179055506040516020016200018490620004c7565b60405160208183030381529060405280519060200120600b556002604051602001620001b090620004c7565b604051602081830303815290604052604051620001ce9190620004ae565b602060405180830381855afa158015620001ec573d6000803e3d6000fd5b5050506040513d601f19601f820116820180604052508101906200021191906200041e565b600c5560036040516020016200022790620004c7565b604051602081830303815290604052604051620002459190620004ae565b602060405180830381855afa15801562000263573d6000803e3d6000fd5b5050506040515160601b6bffffffffffffffffffffffff1916600d5533600e60006101000a81548173ffffffffffffffffffffffffffffffffffffffff021916908373ffffffffffffffffffffffffffffffffffffffff16021790555073cd6a42782d230d7c13a74ddec5dd140e55499df9600f60006101000a81548173ffffffffffffffffffffffffffffffffffffffff021916908373ffffffffffffffffffffffffffffffffffffffff1602179055506002600f60146101000a81548160ff021916908360028111156200033e576200033d62000575565b5b02179055503480156200035057600080fd5b506200061b565b82805462000365906200053f565b90600052602060002090601f016020900481019282620003895760008555620003d5565b82601f10620003a457805160ff1916838001178555620003d5565b82800160010185558215620003d5579182015b82811115620003d4578251825591602001919060010190620003b7565b5b509050620003e49190620003e8565b5090565b5b8082111562000403576000816000905550600101620003e9565b5090565b600081519050620004188162000601565b92915050565b600060208284031215620004375762000436620005d3565b5b6000620004478482850162000407565b91505092915050565b60006200045d82620004de565b620004698185620004e9565b93506200047b81856020860162000509565b80840191505092915050565b600062000496600b83620004f4565b9150620004a382620005d8565b600b82019050919050565b6000620004bc828462000450565b915081905092915050565b6000620004d48262000487565b9150819050919050565b600081519050919050565b600081905092915050565b600081905092915050565b6000819050919050565b60005b83811015620005295780820151818401526020810190506200050c565b8381111562000539576000848401525b50505050565b600060028204905060018216806200055857607f821691505b602082108114156200056f576200056e620005a4565b5b50919050565b7f4e487b7100000000000000000000000000000000000000000000000000000000600052602160045260246000fd5b7f4e487b7100000000000000000000000000000000000000000000000000000000600052602260045260246000fd5b600080fd5b7f48656c6c6f20576f726c64000000000000000000000000000000000000000000600082015250565b6200060c81620004ff565b81146200061857600080fd5b50565b61084c806200062b6000396000f3fe608060405234801561001057600080fd5b50600436106100f55760003560e01c8063af10c81011610097578063c19d93fb11610066578063c19d93fb1461021c578063c7109d041461023a578063ea362b4414610258578063ebbb4bec14610276576100f5565b8063af10c810146101cc578063b71d2cec146101d6578063b83d07b7146101f4578063ba33ed7d14610212576100f5565b80634df7e3d0116100d35780634df7e3d0146101545780637272eea1146101725780637a68ef7f146101905780638a054ac2146101ae576100f5565b80632b73648d146100fa578063312eef29146101185780634dab6cbe14610136575b600080fd5b610102610294565b60405161010f91906105b6565b60405180910390f35b61012061029a565b60405161012d919061059b565b60405180910390f35b61013e6102ad565b60405161014b9190610580565b60405180910390f35b61015c6102d3565b6040516101699190610644565b60405180910390f35b61017a6102e6565b60405161018791906105ec565b60405180910390f35b6101986102fd565b6040516101a591906105b6565b60405180910390f35b6101b6610303565b6040516101c39190610607565b60405180910390f35b6101d4610316565b005b6101de610343565b6040516101eb9190610580565b60405180910390f35b6101fc610369565b6040516102099190610622565b60405180910390f35b61021a6103f7565b005b610224610424565b60405161023191906105ec565b60405180910390f35b610242610437565b60405161024f91906105b6565b60405180910390f35b61026061043d565b60405161026d91906105d1565b60405180910390f35b61027e610450565b60405161028b9190610622565b60405180910390f35b600b5481565b600860019054906101000a900460ff1681565b600f60009054906101000a900473ffffffffffffffffffffffffffffffffffffffff1681565b600160009054906101000a900460ff1681565b6000600f60149054906101000a900460ff16905090565b600d5481565b600360009054906101000a900460000b81565b6001600f60146101000a81548160ff0219169083600281111561033c5761033b610793565b5b0217905550565b600e60009054906101000a900473ffffffffffffffffffffffffffffffffffffffff1681565b6006805461037690610761565b80601f01602080910402602001604051908101604052809291908181526020018280546103a290610761565b80156103ef5780601f106103c4576101008083540402835291602001916103ef565b820191906000526020600020905b8154815290600101906020018083116103d257829003601f168201915b505050505081565b6000600f60146101000a81548160ff0219169083600281111561041d5761041c610793565b5b0217905550565b600f60149054906101000a900460ff1681565b600c5481565b600a60009054906101000a900460e01b81565b6007805461045d90610761565b80601f016020809104026020016040519081016040528092919081815260200182805461048990610761565b80156104d65780601f106104ab576101008083540402835291602001916104d6565b820191906000526020600020905b8154815290600101906020018083116104b957829003601f168201915b505050505081565b6104e78161067b565b82525050565b6104f68161068d565b82525050565b61050581610699565b82525050565b610514816106a3565b82525050565b6105238161071c565b82525050565b610532816106e2565b82525050565b60006105438261065f565b61054d818561066a565b935061055d81856020860161072e565b610566816107f1565b840191505092915050565b61057a8161070f565b82525050565b600060208201905061059560008301846104de565b92915050565b60006020820190506105b060008301846104ed565b92915050565b60006020820190506105cb60008301846104fc565b92915050565b60006020820190506105e6600083018461050b565b92915050565b6000602082019050610601600083018461051a565b92915050565b600060208201905061061c6000830184610529565b92915050565b6000602082019050818103600083015261063c8184610538565b905092915050565b60006020820190506106596000830184610571565b92915050565b600081519050919050565b600082825260208201905092915050565b6000610686826106ef565b9050919050565b60008115159050919050565b6000819050919050565b60007fffffffff0000000000000000000000000000000000000000000000000000000082169050919050565b60008190506106dd82610802565b919050565b60008160000b9050919050565b600073ffffffffffffffffffffffffffffffffffffffff82169050919050565b600060ff82169050919050565b6000610727826106cf565b9050919050565b60005b8381101561074c578082015181840152602081019050610731565b8381111561075b576000848401525b50505050565b6000600282049050600182168061077957607f821691505b6020821081141561078d5761078c6107c2565b5b50919050565b7f4e487b7100000000000000000000000000000000000000000000000000000000600052602160045260246000fd5b7f4e487b7100000000000000000000000000000000000000000000000000000000600052602260045260246000fd5b6000601f19601f8301169050919050565b6003811061081357610812610793565b5b5056fea26469706673582212205bb419ca3aff390d1a5f792a0a3079c0d888d19a41988b3c453d2ebfce27346864736f6c63430008070033",
					"opcodes": "PUSH1 0x80 PUSH1 0x40 MSTORE PUSH1 0x3 PUSH1 0x1 PUSH1 0x0 PUSH2 0x100 EXP DUP2 SLOAD DUP2 PUSH1 0xFF MUL NOT AND SWAP1 DUP4 PUSH1 0xFF AND MUL OR SWAP1 SSTORE POP PUSH32 0xFFFFFFFFFFFFFFFFFFFFFFFFFFFFFFFFFFFFFFFFFFFFFFFFFFFFFFFFFFFFFFF6 PUSH1 0x3 PUSH1 0x0 PUSH2 0x100 EXP DUP2 SLOAD DUP2 PUSH1 0xFF MUL NOT AND SWAP1 DUP4 PUSH1 0x0 SIGNEXTEND PUSH1 0xFF AND MUL OR SWAP1 SSTORE POP PUSH1 0x41 PUSH1 0x4 SSTORE PUSH1 0x40 MLOAD DUP1 PUSH1 0x40 ADD PUSH1 0x40 MSTORE DUP1 PUSH1 0xF DUP2 MSTORE PUSH1 0x20 ADD PUSH32 0x4573746F206573207075626C69636F0000000000000000000000000000000000 DUP2 MSTORE POP PUSH1 0x6 SWAP1 DUP1 MLOAD SWAP1 PUSH1 0x20 ADD SWAP1 PUSH3 0xB0 SWAP3 SWAP2 SWAP1 PUSH3 0x357 JUMP JUMPDEST POP PUSH1 0x40 MLOAD DUP1 PUSH1 0x40 ADD PUSH1 0x40 MSTORE DUP1 PUSH1 0xF DUP2 MSTORE PUSH1 0x20 ADD PUSH32 0x4573746F206573207072697661646F0000000000000000000000000000000000 DUP2 MSTORE POP PUSH1 0x7 SWAP1 DUP1 MLOAD SWAP1 PUSH1 0x20 ADD SWAP1 PUSH3 0xFE SWAP3 SWAP2 SWAP1 PUSH3 0x357 JUMP JUMPDEST POP PUSH1 0x1 PUSH1 0x8 PUSH1 0x1 PUSH2 0x100 EXP DUP2 SLOAD DUP2 PUSH1 0xFF MUL NOT AND SWAP1 DUP4 ISZERO ISZERO MUL OR SWAP1 SSTORE POP PUSH1 0x0 PUSH1 0x8 PUSH1 0x2 PUSH2 0x100 EXP DUP2 SLOAD DUP2 PUSH1 0xFF MUL NOT AND SWAP1 DUP4 ISZERO ISZERO MUL OR SWAP1 SSTORE POP PUSH32 0x4400000000000000000000000000000000000000000000000000000000000000 PUSH1 0xA PUSH1 0x0 PUSH2 0x100 EXP DUP2 SLOAD DUP2 PUSH4 0xFFFFFFFF MUL NOT AND SWAP1 DUP4 PUSH1 0xE0 SHR MUL OR SWAP1 SSTORE POP PUSH1 0x40 MLOAD PUSH1 0x20 ADD PUSH3 0x184 SWAP1 PUSH3 0x4C7 JUMP JUMPDEST PUSH1 0x40 MLOAD PUSH1 0x20 DUP2 DUP4 SUB SUB DUP2 MSTORE SWAP1 PUSH1 0x40 MSTORE DUP1 MLOAD SWAP1 PUSH1 0x20 ADD KECCAK256 PUSH1 0xB SSTORE PUSH1 0x2 PUSH1 0x40 MLOAD PUSH1 0x20 ADD PUSH3 0x1B0 SWAP1 PUSH3 0x4C7 JUMP JUMPDEST PUSH1 0x40 MLOAD PUSH1 0x20 DUP2 DUP4 SUB SUB DUP2 MSTORE SWAP1 PUSH1 0x40 MSTORE PUSH1 0x40 MLOAD PUSH3 0x1CE SWAP2 SWAP1 PUSH3 0x4AE JUMP JUMPDEST PUSH1 0x20 PUSH1 0x40 MLOAD DUP1 DUP4 SUB DUP2 DUP6 GAS STATICCALL ISZERO DUP1 ISZERO PUSH3 0x1EC JUMPI RETURNDATASIZE PUSH1 0x0 DUP1 RETURNDATACOPY RETURNDATASIZE PUSH1 0x0 REVERT JUMPDEST POP POP POP PUSH1 0x40 MLOAD RETURNDATASIZE PUSH1 0x1F NOT PUSH1 0x1F DUP3 ADD AND DUP3 ADD DUP1 PUSH1 0x40 MSTORE POP DUP2 ADD SWAP1 PUSH3 0x211 SWAP2 SWAP1 PUSH3 0x41E JUMP JUMPDEST PUSH1 0xC SSTORE PUSH1 0x3 PUSH1 0x40 MLOAD PUSH1 0x20 ADD PUSH3 0x227 SWAP1 PUSH3 0x4C7 JUMP JUMPDEST PUSH1 0x40 MLOAD PUSH1 0x20 DUP2 DUP4 SUB SUB DUP2 MSTORE SWAP1 PUSH1 0x40 MSTORE PUSH1 0x40 MLOAD PUSH3 0x245 SWAP2 SWAP1 PUSH3 0x4AE JUMP JUMPDEST PUSH1 0x20 PUSH1 0x40 MLOAD DUP1 DUP4 SUB DUP2 DUP6 GAS STATICCALL ISZERO DUP1 ISZERO PUSH3 0x263 JUMPI RETURNDATASIZE PUSH1 0x0 DUP1 RETURNDATACOPY RETURNDATASIZE PUSH1 0x0 REVERT JUMPDEST POP POP POP PUSH1 0x40 MLOAD MLOAD PUSH1 0x60 SHL PUSH12 0xFFFFFFFFFFFFFFFFFFFFFFFF NOT AND PUSH1 0xD SSTORE CALLER PUSH1 0xE PUSH1 0x0 PUSH2 0x100 EXP DUP2 SLOAD DUP2 PUSH20 0xFFFFFFFFFFFFFFFFFFFFFFFFFFFFFFFFFFFFFFFF MUL NOT AND SWAP1 DUP4 PUSH20 0xFFFFFFFFFFFFFFFFFFFFFFFFFFFFFFFFFFFFFFFF AND MUL OR SWAP1 SSTORE POP PUSH20 0xCD6A42782D230D7C13A74DDEC5DD140E55499DF9 PUSH1 0xF PUSH1 0x0 PUSH2 0x100 EXP DUP2 SLOAD DUP2 PUSH20 0xFFFFFFFFFFFFFFFFFFFFFFFFFFFFFFFFFFFFFFFF MUL NOT AND SWAP1 DUP4 PUSH20 0xFFFFFFFFFFFFFFFFFFFFFFFFFFFFFFFFFFFFFFFF AND MUL OR SWAP1 SSTORE POP PUSH1 0x2 PUSH1 0xF PUSH1 0x14 PUSH2 0x100 EXP DUP2 SLOAD DUP2 PUSH1 0xFF MUL NOT AND SWAP1 DUP4 PUSH1 0x2 DUP2 GT ISZERO PUSH3 0x33E JUMPI PUSH3 0x33D PUSH3 0x575 JUMP JUMPDEST JUMPDEST MUL OR SWAP1 SSTORE POP CALLVALUE DUP1 ISZERO PUSH3 0x350 JUMPI PUSH1 0x0 DUP1 REVERT JUMPDEST POP PUSH3 0x61B JUMP JUMPDEST DUP3 DUP1 SLOAD PUSH3 0x365 SWAP1 PUSH3 0x53F JUMP JUMPDEST SWAP1 PUSH1 0x0 MSTORE PUSH1 0x20 PUSH1 0x0 KECCAK256 SWAP1 PUSH1 0x1F ADD PUSH1 0x20 SWAP1 DIV DUP2 ADD SWAP3 DUP3 PUSH3 0x389 JUMPI PUSH1 0x0 DUP6 SSTORE PUSH3 0x3D5 JUMP JUMPDEST DUP3 PUSH1 0x1F LT PUSH3 0x3A4 JUMPI DUP1 MLOAD PUSH1 0xFF NOT AND DUP4 DUP1 ADD OR DUP6 SSTORE PUSH3 0x3D5 JUMP JUMPDEST DUP3 DUP1 ADD PUSH1 0x1 ADD DUP6 SSTORE DUP3 ISZERO PUSH3 0x3D5 JUMPI SWAP2 DUP3 ADD JUMPDEST DUP3 DUP2 GT ISZERO PUSH3 0x3D4 JUMPI DUP3 MLOAD DUP3 SSTORE SWAP2 PUSH1 0x20 ADD SWAP2 SWAP1 PUSH1 0x1 ADD SWAP1 PUSH3 0x3B7 JUMP JUMPDEST JUMPDEST POP SWAP1 POP PUSH3 0x3E4 SWAP2 SWAP1 PUSH3 0x3E8 JUMP JUMPDEST POP SWAP1 JUMP JUMPDEST JUMPDEST DUP1 DUP3 GT ISZERO PUSH3 0x403 JUMPI PUSH1 0x0 DUP2 PUSH1 0x0 SWAP1 SSTORE POP PUSH1 0x1 ADD PUSH3 0x3E9 JUMP JUMPDEST POP SWAP1 JUMP JUMPDEST PUSH1 0x0 DUP2 MLOAD SWAP1 POP PUSH3 0x418 DUP2 PUSH3 0x601 JUMP JUMPDEST SWAP3 SWAP2 POP POP JUMP JUMPDEST PUSH1 0x0 PUSH1 0x20 DUP3 DUP5 SUB SLT ISZERO PUSH3 0x437 JUMPI PUSH3 0x436 PUSH3 0x5D3 JUMP JUMPDEST JUMPDEST PUSH1 0x0 PUSH3 0x447 DUP5 DUP3 DUP6 ADD PUSH3 0x407 JUMP JUMPDEST SWAP2 POP POP SWAP3 SWAP2 POP POP JUMP JUMPDEST PUSH1 0x0 PUSH3 0x45D DUP3 PUSH3 0x4DE JUMP JUMPDEST PUSH3 0x469 DUP2 DUP6 PUSH3 0x4E9 JUMP JUMPDEST SWAP4 POP PUSH3 0x47B DUP2 DUP6 PUSH1 0x20 DUP7 ADD PUSH3 0x509 JUMP JUMPDEST DUP1 DUP5 ADD SWAP2 POP POP SWAP3 SWAP2 POP POP JUMP JUMPDEST PUSH1 0x0 PUSH3 0x496 PUSH1 0xB DUP4 PUSH3 0x4F4 JUMP JUMPDEST SWAP2 POP PUSH3 0x4A3 DUP3 PUSH3 0x5D8 JUMP JUMPDEST PUSH1 0xB DUP3 ADD SWAP1 POP SWAP2 SWAP1 POP JUMP JUMPDEST PUSH1 0x0 PUSH3 0x4BC DUP3 DUP5 PUSH3 0x450 JUMP JUMPDEST SWAP2 POP DUP2 SWAP1 POP SWAP3 SWAP2 POP POP JUMP JUMPDEST PUSH1 0x0 PUSH3 0x4D4 DUP3 PUSH3 0x487 JUMP JUMPDEST SWAP2 POP DUP2 SWAP1 POP SWAP2 SWAP1 POP JUMP JUMPDEST PUSH1 0x0 DUP2 MLOAD SWAP1 POP SWAP2 SWAP1 POP JUMP JUMPDEST PUSH1 0x0 DUP2 SWAP1 POP SWAP3 SWAP2 POP POP JUMP JUMPDEST PUSH1 0x0 DUP2 SWAP1 POP SWAP3 SWAP2 POP POP JUMP JUMPDEST PUSH1 0x0 DUP2 SWAP1 POP SWAP2 SWAP1 POP JUMP JUMPDEST PUSH1 0x0 JUMPDEST DUP4 DUP2 LT ISZERO PUSH3 0x529 JUMPI DUP1 DUP3 ADD MLOAD DUP2 DUP5 ADD MSTORE PUSH1 0x20 DUP2 ADD SWAP1 POP PUSH3 0x50C JUMP JUMPDEST DUP4 DUP2 GT ISZERO PUSH3 0x539 JUMPI PUSH1 0x0 DUP5 DUP5 ADD MSTORE JUMPDEST POP POP POP POP JUMP JUMPDEST PUSH1 0x0 PUSH1 0x2 DUP3 DIV SWAP1 POP PUSH1 0x1 DUP3 AND DUP1 PUSH3 0x558 JUMPI PUSH1 0x7F DUP3 AND SWAP2 POP JUMPDEST PUSH1 0x20 DUP3 LT DUP2 EQ ISZERO PUSH3 0x56F JUMPI PUSH3 0x56E PUSH3 0x5A4 JUMP JUMPDEST JUMPDEST POP SWAP2 SWAP1 POP JUMP JUMPDEST PUSH32 0x4E487B7100000000000000000000000000000000000000000000000000000000 PUSH1 0x0 MSTORE PUSH1 0x21 PUSH1 0x4 MSTORE PUSH1 0x24 PUSH1 0x0 REVERT JUMPDEST PUSH32 0x4E487B7100000000000000000000000000000000000000000000000000000000 PUSH1 0x0 MSTORE PUSH1 0x22 PUSH1 0x4 MSTORE PUSH1 0x24 PUSH1 0x0 REVERT JUMPDEST PUSH1 0x0 DUP1 REVERT JUMPDEST PUSH32 0x48656C6C6F20576F726C64000000000000000000000000000000000000000000 PUSH1 0x0 DUP3 ADD MSTORE POP JUMP JUMPDEST PUSH3 0x60C DUP2 PUSH3 0x4FF JUMP JUMPDEST DUP2 EQ PUSH3 0x618 JUMPI PUSH1 0x0 DUP1 REVERT JUMPDEST POP JUMP JUMPDEST PUSH2 0x84C DUP1 PUSH3 0x62B PUSH1 0x0 CODECOPY PUSH1 0x0 RETURN INVALID PUSH1 0x80 PUSH1 0x40 MSTORE CALLVALUE DUP1 ISZERO PUSH2 0x10 JUMPI PUSH1 0x0 DUP1 REVERT JUMPDEST POP PUSH1 0x4 CALLDATASIZE LT PUSH2 0xF5 JUMPI PUSH1 0x0 CALLDATALOAD PUSH1 0xE0 SHR DUP1 PUSH4 0xAF10C810 GT PUSH2 0x97 JUMPI DUP1 PUSH4 0xC19D93FB GT PUSH2 0x66 JUMPI DUP1 PUSH4 0xC19D93FB EQ PUSH2 0x21C JUMPI DUP1 PUSH4 0xC7109D04 EQ PUSH2 0x23A JUMPI DUP1 PUSH4 0xEA362B44 EQ PUSH2 0x258 JUMPI DUP1 PUSH4 0xEBBB4BEC EQ PUSH2 0x276 JUMPI PUSH2 0xF5 JUMP JUMPDEST DUP1 PUSH4 0xAF10C810 EQ PUSH2 0x1CC JUMPI DUP1 PUSH4 0xB71D2CEC EQ PUSH2 0x1D6 JUMPI DUP1 PUSH4 0xB83D07B7 EQ PUSH2 0x1F4 JUMPI DUP1 PUSH4 0xBA33ED7D EQ PUSH2 0x212 JUMPI PUSH2 0xF5 JUMP JUMPDEST DUP1 PUSH4 0x4DF7E3D0 GT PUSH2 0xD3 JUMPI DUP1 PUSH4 0x4DF7E3D0 EQ PUSH2 0x154 JUMPI DUP1 PUSH4 0x7272EEA1 EQ PUSH2 0x172 JUMPI DUP1 PUSH4 0x7A68EF7F EQ PUSH2 0x190 JUMPI DUP1 PUSH4 0x8A054AC2 EQ PUSH2 0x1AE JUMPI PUSH2 0xF5 JUMP JUMPDEST DUP1 PUSH4 0x2B73648D EQ PUSH2 0xFA JUMPI DUP1 PUSH4 0x312EEF29 EQ PUSH2 0x118 JUMPI DUP1 PUSH4 0x4DAB6CBE EQ PUSH2 0x136 JUMPI JUMPDEST PUSH1 0x0 DUP1 REVERT JUMPDEST PUSH2 0x102 PUSH2 0x294 JUMP JUMPDEST PUSH1 0x40 MLOAD PUSH2 0x10F SWAP2 SWAP1 PUSH2 0x5B6 JUMP JUMPDEST PUSH1 0x40 MLOAD DUP1 SWAP2 SUB SWAP1 RETURN JUMPDEST PUSH2 0x120 PUSH2 0x29A JUMP JUMPDEST PUSH1 0x40 MLOAD PUSH2 0x12D SWAP2 SWAP1 PUSH2 0x59B JUMP JUMPDEST PUSH1 0x40 MLOAD DUP1 SWAP2 SUB SWAP1 RETURN JUMPDEST PUSH2 0x13E PUSH2 0x2AD JUMP JUMPDEST PUSH1 0x40 MLOAD PUSH2 0x14B SWAP2 SWAP1 PUSH2 0x580 JUMP JUMPDEST PUSH1 0x40 MLOAD DUP1 SWAP2 SUB SWAP1 RETURN JUMPDEST PUSH2 0x15C PUSH2 0x2D3 JUMP JUMPDEST PUSH1 0x40 MLOAD PUSH2 0x169 SWAP2 SWAP1 PUSH2 0x644 JUMP JUMPDEST PUSH1 0x40 MLOAD DUP1 SWAP2 SUB SWAP1 RETURN JUMPDEST PUSH2 0x17A PUSH2 0x2E6 JUMP JUMPDEST PUSH1 0x40 MLOAD PUSH2 0x187 SWAP2 SWAP1 PUSH2 0x5EC JUMP JUMPDEST PUSH1 0x40 MLOAD DUP1 SWAP2 SUB SWAP1 RETURN JUMPDEST PUSH2 0x198 PUSH2 0x2FD JUMP JUMPDEST PUSH1 0x40 MLOAD PUSH2 0x1A5 SWAP2 SWAP1 PUSH2 0x5B6 JUMP JUMPDEST PUSH1 0x40 MLOAD DUP1 SWAP2 SUB SWAP1 RETURN JUMPDEST PUSH2 0x1B6 PUSH2 0x303 JUMP JUMPDEST PUSH1 0x40 MLOAD PUSH2 0x1C3 SWAP2 SWAP1 PUSH2 0x607 JUMP JUMPDEST PUSH1 0x40 MLOAD DUP1 SWAP2 SUB SWAP1 RETURN JUMPDEST PUSH2 0x1D4 PUSH2 0x316 JUMP JUMPDEST STOP JUMPDEST PUSH2 0x1DE PUSH2 0x343 JUMP JUMPDEST PUSH1 0x40 MLOAD PUSH2 0x1EB SWAP2 SWAP1 PUSH2 0x580 JUMP JUMPDEST PUSH1 0x40 MLOAD DUP1 SWAP2 SUB SWAP1 RETURN JUMPDEST PUSH2 0x1FC PUSH2 0x369 JUMP JUMPDEST PUSH1 0x40 MLOAD PUSH2 0x209 SWAP2 SWAP1 PUSH2 0x622 JUMP JUMPDEST PUSH1 0x40 MLOAD DUP1 SWAP2 SUB SWAP1 RETURN JUMPDEST PUSH2 0x21A PUSH2 0x3F7 JUMP JUMPDEST STOP JUMPDEST PUSH2 0x224 PUSH2 0x424 JUMP JUMPDEST PUSH1 0x40 MLOAD PUSH2 0x231 SWAP2 SWAP1 PUSH2 0x5EC JUMP JUMPDEST PUSH1 0x40 MLOAD DUP1 SWAP2 SUB SWAP1 RETURN JUMPDEST PUSH2 0x242 PUSH2 0x437 JUMP JUMPDEST PUSH1 0x40 MLOAD PUSH2 0x24F SWAP2 SWAP1 PUSH2 0x5B6 JUMP JUMPDEST PUSH1 0x40 MLOAD DUP1 SWAP2 SUB SWAP1 RETURN JUMPDEST PUSH2 0x260 PUSH2 0x43D JUMP JUMPDEST PUSH1 0x40 MLOAD PUSH2 0x26D SWAP2 SWAP1 PUSH2 0x5D1 JUMP JUMPDEST PUSH1 0x40 MLOAD DUP1 SWAP2 SUB SWAP1 RETURN JUMPDEST PUSH2 0x27E PUSH2 0x450 JUMP JUMPDEST PUSH1 0x40 MLOAD PUSH2 0x28B SWAP2 SWAP1 PUSH2 0x622 JUMP JUMPDEST PUSH1 0x40 MLOAD DUP1 SWAP2 SUB SWAP1 RETURN JUMPDEST PUSH1 0xB SLOAD DUP2 JUMP JUMPDEST PUSH1 0x8 PUSH1 0x1 SWAP1 SLOAD SWAP1 PUSH2 0x100 EXP SWAP1 DIV PUSH1 0xFF AND DUP2 JUMP JUMPDEST PUSH1 0xF PUSH1 0x0 SWAP1 SLOAD SWAP1 PUSH2 0x100 EXP SWAP1 DIV PUSH20 0xFFFFFFFFFFFFFFFFFFFFFFFFFFFFFFFFFFFFFFFF AND DUP2 JUMP JUMPDEST PUSH1 0x1 PUSH1 0x0 SWAP1 SLOAD SWAP1 PUSH2 0x100 EXP SWAP1 DIV PUSH1 0xFF AND DUP2 JUMP JUMPDEST PUSH1 0x0 PUSH1 0xF PUSH1 0x14 SWAP1 SLOAD SWAP1 PUSH2 0x100 EXP SWAP1 DIV PUSH1 0xFF AND SWAP1 POP SWAP1 JUMP JUMPDEST PUSH1 0xD SLOAD DUP2 JUMP JUMPDEST PUSH1 0x3 PUSH1 0x0 SWAP1 SLOAD SWAP1 PUSH2 0x100 EXP SWAP1 DIV PUSH1 0x0 SIGNEXTEND DUP2 JUMP JUMPDEST PUSH1 0x1 PUSH1 0xF PUSH1 0x14 PUSH2 0x100 EXP DUP2 SLOAD DUP2 PUSH1 0xFF MUL NOT AND SWAP1 DUP4 PUSH1 0x2 DUP2 GT ISZERO PUSH2 0x33C JUMPI PUSH2 0x33B PUSH2 0x793 JUMP JUMPDEST JUMPDEST MUL OR SWAP1 SSTORE POP JUMP JUMPDEST PUSH1 0xE PUSH1 0x0 SWAP1 SLOAD SWAP1 PUSH2 0x100 EXP SWAP1 DIV PUSH20 0xFFFFFFFFFFFFFFFFFFFFFFFFFFFFFFFFFFFFFFFF AND DUP2 JUMP JUMPDEST PUSH1 0x6 DUP1 SLOAD PUSH2 0x376 SWAP1 PUSH2 0x761 JUMP JUMPDEST DUP1 PUSH1 0x1F ADD PUSH1 0x20 DUP1 SWAP2 DIV MUL PUSH1 0x20 ADD PUSH1 0x40 MLOAD SWAP1 DUP2 ADD PUSH1 0x40 MSTORE DUP1 SWAP3 SWAP2 SWAP1 DUP2 DUP2 MSTORE PUSH1 0x20 ADD DUP3 DUP1 SLOAD PUSH2 0x3A2 SWAP1 PUSH2 0x761 JUMP JUMPDEST DUP1 ISZERO PUSH2 0x3EF JUMPI DUP1 PUSH1 0x1F LT PUSH2 0x3C4 JUMPI PUSH2 0x100 DUP1 DUP4 SLOAD DIV MUL DUP4 MSTORE SWAP2 PUSH1 0x20 ADD SWAP2 PUSH2 0x3EF JUMP JUMPDEST DUP3 ADD SWAP2 SWAP1 PUSH1 0x0 MSTORE PUSH1 0x20 PUSH1 0x0 KECCAK256 SWAP1 JUMPDEST DUP2 SLOAD DUP2 MSTORE SWAP1 PUSH1 0x1 ADD SWAP1 PUSH1 0x20 ADD DUP1 DUP4 GT PUSH2 0x3D2 JUMPI DUP3 SWAP1 SUB PUSH1 0x1F AND DUP3 ADD SWAP2 JUMPDEST POP POP POP POP POP DUP2 JUMP JUMPDEST PUSH1 0x0 PUSH1 0xF PUSH1 0x14 PUSH2 0x100 EXP DUP2 SLOAD DUP2 PUSH1 0xFF MUL NOT AND SWAP1 DUP4 PUSH1 0x2 DUP2 GT ISZERO PUSH2 0x41D JUMPI PUSH2 0x41C PUSH2 0x793 JUMP JUMPDEST JUMPDEST MUL OR SWAP1 SSTORE POP JUMP JUMPDEST PUSH1 0xF PUSH1 0x14 SWAP1 SLOAD SWAP1 PUSH2 0x100 EXP SWAP1 DIV PUSH1 0xFF AND DUP2 JUMP JUMPDEST PUSH1 0xC SLOAD DUP2 JUMP JUMPDEST PUSH1 0xA PUSH1 0x0 SWAP1 SLOAD SWAP1 PUSH2 0x100 EXP SWAP1 DIV PUSH1 0xE0 SHL DUP2 JUMP JUMPDEST PUSH1 0x7 DUP1 SLOAD PUSH2 0x45D SWAP1 PUSH2 0x761 JUMP JUMPDEST DUP1 PUSH1 0x1F ADD PUSH1 0x20 DUP1 SWAP2 DIV MUL PUSH1 0x20 ADD PUSH1 0x40 MLOAD SWAP1 DUP2 ADD PUSH1 0x40 MSTORE DUP1 SWAP3 SWAP2 SWAP1 DUP2 DUP2 MSTORE PUSH1 0x20 ADD DUP3 DUP1 SLOAD PUSH2 0x489 SWAP1 PUSH2 0x761 JUMP JUMPDEST DUP1 ISZERO PUSH2 0x4D6 JUMPI DUP1 PUSH1 0x1F LT PUSH2 0x4AB JUMPI PUSH2 0x100 DUP1 DUP4 SLOAD DIV MUL DUP4 MSTORE SWAP2 PUSH1 0x20 ADD SWAP2 PUSH2 0x4D6 JUMP JUMPDEST DUP3 ADD SWAP2 SWAP1 PUSH1 0x0 MSTORE PUSH1 0x20 PUSH1 0x0 KECCAK256 SWAP1 JUMPDEST DUP2 SLOAD DUP2 MSTORE SWAP1 PUSH1 0x1 ADD SWAP1 PUSH1 0x20 ADD DUP1 DUP4 GT PUSH2 0x4B9 JUMPI DUP3 SWAP1 SUB PUSH1 0x1F AND DUP3 ADD SWAP2 JUMPDEST POP POP POP POP POP DUP2 JUMP JUMPDEST PUSH2 0x4E7 DUP2 PUSH2 0x67B JUMP JUMPDEST DUP3 MSTORE POP POP JUMP JUMPDEST PUSH2 0x4F6 DUP2 PUSH2 0x68D JUMP JUMPDEST DUP3 MSTORE POP POP JUMP JUMPDEST PUSH2 0x505 DUP2 PUSH2 0x699 JUMP JUMPDEST DUP3 MSTORE POP POP JUMP JUMPDEST PUSH2 0x514 DUP2 PUSH2 0x6A3 JUMP JUMPDEST DUP3 MSTORE POP POP JUMP JUMPDEST PUSH2 0x523 DUP2 PUSH2 0x71C JUMP JUMPDEST DUP3 MSTORE POP POP JUMP JUMPDEST PUSH2 0x532 DUP2 PUSH2 0x6E2 JUMP JUMPDEST DUP3 MSTORE POP POP JUMP JUMPDEST PUSH1 0x0 PUSH2 0x543 DUP3 PUSH2 0x65F JUMP JUMPDEST PUSH2 0x54D DUP2 DUP6 PUSH2 0x66A JUMP JUMPDEST SWAP4 POP PUSH2 0x55D DUP2 DUP6 PUSH1 0x20 DUP7 ADD PUSH2 0x72E JUMP JUMPDEST PUSH2 0x566 DUP2 PUSH2 0x7F1 JUMP JUMPDEST DUP5 ADD SWAP2 POP POP SWAP3 SWAP2 POP POP JUMP JUMPDEST PUSH2 0x57A DUP2 PUSH2 0x70F JUMP JUMPDEST DUP3 MSTORE POP POP JUMP JUMPDEST PUSH1 0x0 PUSH1 0x20 DUP3 ADD SWAP1 POP PUSH2 0x595 PUSH1 0x0 DUP4 ADD DUP5 PUSH2 0x4DE JUMP JUMPDEST SWAP3 SWAP2 POP POP JUMP JUMPDEST PUSH1 0x0 PUSH1 0x20 DUP3 ADD SWAP1 POP PUSH2 0x5B0 PUSH1 0x0 DUP4 ADD DUP5 PUSH2 0x4ED JUMP JUMPDEST SWAP3 SWAP2 POP POP JUMP JUMPDEST PUSH1 0x0 PUSH1 0x20 DUP3 ADD SWAP1 POP PUSH2 0x5CB PUSH1 0x0 DUP4 ADD DUP5 PUSH2 0x4FC JUMP JUMPDEST SWAP3 SWAP2 POP POP JUMP JUMPDEST PUSH1 0x0 PUSH1 0x20 DUP3 ADD SWAP1 POP PUSH2 0x5E6 PUSH1 0x0 DUP4 ADD DUP5 PUSH2 0x50B JUMP JUMPDEST SWAP3 SWAP2 POP POP JUMP JUMPDEST PUSH1 0x0 PUSH1 0x20 DUP3 ADD SWAP1 POP PUSH2 0x601 PUSH1 0x0 DUP4 ADD DUP5 PUSH2 0x51A JUMP JUMPDEST SWAP3 SWAP2 POP POP JUMP JUMPDEST PUSH1 0x0 PUSH1 0x20 DUP3 ADD SWAP1 POP PUSH2 0x61C PUSH1 0x0 DUP4 ADD DUP5 PUSH2 0x529 JUMP JUMPDEST SWAP3 SWAP2 POP POP JUMP JUMPDEST PUSH1 0x0 PUSH1 0x20 DUP3 ADD SWAP1 POP DUP2 DUP2 SUB PUSH1 0x0 DUP4 ADD MSTORE PUSH2 0x63C DUP2 DUP5 PUSH2 0x538 JUMP JUMPDEST SWAP1 POP SWAP3 SWAP2 POP POP JUMP JUMPDEST PUSH1 0x0 PUSH1 0x20 DUP3 ADD SWAP1 POP PUSH2 0x659 PUSH1 0x0 DUP4 ADD DUP5 PUSH2 0x571 JUMP JUMPDEST SWAP3 SWAP2 POP POP JUMP JUMPDEST PUSH1 0x0 DUP2 MLOAD SWAP1 POP SWAP2 SWAP1 POP JUMP JUMPDEST PUSH1 0x0 DUP3 DUP3 MSTORE PUSH1 0x20 DUP3 ADD SWAP1 POP SWAP3 SWAP2 POP POP JUMP JUMPDEST PUSH1 0x0 PUSH2 0x686 DUP3 PUSH2 0x6EF JUMP JUMPDEST SWAP1 POP SWAP2 SWAP1 POP JUMP JUMPDEST PUSH1 0x0 DUP2 ISZERO ISZERO SWAP1 POP SWAP2 SWAP1 POP JUMP JUMPDEST PUSH1 0x0 DUP2 SWAP1 POP SWAP2 SWAP1 POP JUMP JUMPDEST PUSH1 0x0 PUSH32 0xFFFFFFFF00000000000000000000000000000000000000000000000000000000 DUP3 AND SWAP1 POP SWAP2 SWAP1 POP JUMP JUMPDEST PUSH1 0x0 DUP2 SWAP1 POP PUSH2 0x6DD DUP3 PUSH2 0x802 JUMP JUMPDEST SWAP2 SWAP1 POP JUMP JUMPDEST PUSH1 0x0 DUP2 PUSH1 0x0 SIGNEXTEND SWAP1 POP SWAP2 SWAP1 POP JUMP JUMPDEST PUSH1 0x0 PUSH20 0xFFFFFFFFFFFFFFFFFFFFFFFFFFFFFFFFFFFFFFFF DUP3 AND SWAP1 POP SWAP2 SWAP1 POP JUMP JUMPDEST PUSH1 0x0 PUSH1 0xFF DUP3 AND SWAP1 POP SWAP2 SWAP1 POP JUMP JUMPDEST PUSH1 0x0 PUSH2 0x727 DUP3 PUSH2 0x6CF JUMP JUMPDEST SWAP1 POP SWAP2 SWAP1 POP JUMP JUMPDEST PUSH1 0x0 JUMPDEST DUP4 DUP2 LT ISZERO PUSH2 0x74C JUMPI DUP1 DUP3 ADD MLOAD DUP2 DUP5 ADD MSTORE PUSH1 0x20 DUP2 ADD SWAP1 POP PUSH2 0x731 JUMP JUMPDEST DUP4 DUP2 GT ISZERO PUSH2 0x75B JUMPI PUSH1 0x0 DUP5 DUP5 ADD MSTORE JUMPDEST POP POP POP POP JUMP JUMPDEST PUSH1 0x0 PUSH1 0x2 DUP3 DIV SWAP1 POP PUSH1 0x1 DUP3 AND DUP1 PUSH2 0x779 JUMPI PUSH1 0x7F DUP3 AND SWAP2 POP JUMPDEST PUSH1 0x20 DUP3 LT DUP2 EQ ISZERO PUSH2 0x78D JUMPI PUSH2 0x78C PUSH2 0x7C2 JUMP JUMPDEST JUMPDEST POP SWAP2 SWAP1 POP JUMP JUMPDEST PUSH32 0x4E487B7100000000000000000000000000000000000000000000000000000000 PUSH1 0x0 MSTORE PUSH1 0x21 PUSH1 0x4 MSTORE PUSH1 0x24 PUSH1 0x0 REVERT JUMPDEST PUSH32 0x4E487B7100000000000000000000000000000000000000000000000000000000 PUSH1 0x0 MSTORE PUSH1 0x22 PUSH1 0x4 MSTORE PUSH1 0x24 PUSH1 0x0 REVERT JUMPDEST PUSH1 0x0 PUSH1 0x1F NOT PUSH1 0x1F DUP4 ADD AND SWAP1 POP SWAP2 SWAP1 POP JUMP JUMPDEST PUSH1 0x3 DUP2 LT PUSH2 0x813 JUMPI PUSH2 0x812 PUSH2 0x793 JUMP JUMPDEST JUMPDEST POP JUMP INVALID LOG2 PUSH5 0x6970667358 0x22 SLT KECCAK256 JUMPDEST 0xB4 NOT 0xCA GASPRICE SELFDESTRUCT CODECOPY 0xD BYTE 0x5F PUSH26 0x2A0A3079C0D888D19A41988B3C453D2EBFCE27346864736F6C63 NUMBER STOP ADDMOD SMOD STOP CALLER "
				},
				"gasEstimates": {
					"creation": {
						"codeDepositCost": "424800",
						"executionCost": "infinite",
						"totalCost": "infinite"
					},
					"external": {
						"addres1()": "2582",
						"b()": "2494",
						"boolean_true()": "2567",
						"d()": "2564",
						"displayState()": "2663",
						"hashing_keccak256()": "2453",
						"hashing_ripemd160()": "2496",
						"hashing_sha256()": "2473",
						"my_address()": "2559",
						"second_byte()": "2537",
						"state()": "2632",
						"str_privado()": "infinite",
						"str_public()": "infinite",
						"turnOff()": "24504",
						"turnOn()": "24570"
					}
				},
				"methodIdentifiers": {
					"addres1()": "4dab6cbe",
					"b()": "4df7e3d0",
					"boolean_true()": "312eef29",
					"d()": "8a054ac2",
					"displayState()": "7272eea1",
					"hashing_keccak256()": "2b73648d",
					"hashing_ripemd160()": "7a68ef7f",
					"hashing_sha256()": "c7109d04",
					"my_address()": "b71d2cec",
					"second_byte()": "ea362b44",
					"state()": "c19d93fb",
					"str_privado()": "ebbb4bec",
					"str_public()": "b83d07b7",
					"turnOff()": "af10c810",
					"turnOn()": "ba33ed7d"
				}
			},
			"storageLayout": {
				"storage": [
					{
						"astId": 3,
						"contract": "contracts/2_variables_modifiers.sol:variables_modifiers",
						"label": "a",
						"offset": 0,
						"slot": "0",
						"type": "t_uint256"
					},
					{
						"astId": 6,
						"contract": "contracts/2_variables_modifiers.sol:variables_modifiers",
						"label": "b",
						"offset": 0,
						"slot": "1",
						"type": "t_uint8"
					},
					{
						"astId": 8,
						"contract": "contracts/2_variables_modifiers.sol:variables_modifiers",
						"label": "c",
						"offset": 0,
						"slot": "2",
						"type": "t_int256"
					},
					{
						"astId": 12,
						"contract": "contracts/2_variables_modifiers.sol:variables_modifiers",
						"label": "d",
						"offset": 0,
						"slot": "3",
						"type": "t_int8"
					},
					{
						"astId": 15,
						"contract": "contracts/2_variables_modifiers.sol:variables_modifiers",
						"label": "e",
						"offset": 0,
						"slot": "4",
						"type": "t_int256"
					},
					{
						"astId": 17,
						"contract": "contracts/2_variables_modifiers.sol:variables_modifiers",
						"label": "str",
						"offset": 0,
						"slot": "5",
						"type": "t_string_storage"
					},
					{
						"astId": 20,
						"contract": "contracts/2_variables_modifiers.sol:variables_modifiers",
						"label": "str_public",
						"offset": 0,
						"slot": "6",
						"type": "t_string_storage"
					},
					{
						"astId": 23,
						"contract": "contracts/2_variables_modifiers.sol:variables_modifiers",
						"label": "str_privado",
						"offset": 0,
						"slot": "7",
						"type": "t_string_storage"
					},
					{
						"astId": 25,
						"contract": "contracts/2_variables_modifiers.sol:variables_modifiers",
						"label": "boolean",
						"offset": 0,
						"slot": "8",
						"type": "t_bool"
					},
					{
						"astId": 28,
						"contract": "contracts/2_variables_modifiers.sol:variables_modifiers",
						"label": "boolean_true",
						"offset": 1,
						"slot": "8",
						"type": "t_bool"
					},
					{
						"astId": 31,
						"contract": "contracts/2_variables_modifiers.sol:variables_modifiers",
						"label": "boolead_false",
						"offset": 2,
						"slot": "8",
						"type": "t_bool"
					},
					{
						"astId": 33,
						"contract": "contracts/2_variables_modifiers.sol:variables_modifiers",
						"label": "first_bytes",
						"offset": 0,
						"slot": "9",
						"type": "t_bytes32"
					},
					{
						"astId": 36,
						"contract": "contracts/2_variables_modifiers.sol:variables_modifiers",
						"label": "second_byte",
						"offset": 0,
						"slot": "10",
						"type": "t_bytes4"
					},
					{
						"astId": 44,
						"contract": "contracts/2_variables_modifiers.sol:variables_modifiers",
						"label": "hashing_keccak256",
						"offset": 0,
						"slot": "11",
						"type": "t_bytes32"
					},
					{
						"astId": 52,
						"contract": "contracts/2_variables_modifiers.sol:variables_modifiers",
						"label": "hashing_sha256",
						"offset": 0,
						"slot": "12",
						"type": "t_bytes32"
					},
					{
						"astId": 60,
						"contract": "contracts/2_variables_modifiers.sol:variables_modifiers",
						"label": "hashing_ripemd160",
						"offset": 0,
						"slot": "13",
						"type": "t_bytes32"
					},
					{
						"astId": 64,
						"contract": "contracts/2_variables_modifiers.sol:variables_modifiers",
						"label": "my_address",
						"offset": 0,
						"slot": "14",
						"type": "t_address"
					},
					{
						"astId": 67,
						"contract": "contracts/2_variables_modifiers.sol:variables_modifiers",
						"label": "addres1",
						"offset": 0,
						"slot": "15",
						"type": "t_address"
					},
					{
						"astId": 76,
						"contract": "contracts/2_variables_modifiers.sol:variables_modifiers",
						"label": "state",
						"offset": 20,
						"slot": "15",
						"type": "t_enum(options)71"
					}
				],
				"types": {
					"t_address": {
						"encoding": "inplace",
						"label": "address",
						"numberOfBytes": "20"
					},
					"t_bool": {
						"encoding": "inplace",
						"label": "bool",
						"numberOfBytes": "1"
					},
					"t_bytes32": {
						"encoding": "inplace",
						"label": "bytes32",
						"numberOfBytes": "32"
					},
					"t_bytes4": {
						"encoding": "inplace",
						"label": "bytes4",
						"numberOfBytes": "4"
					},
					"t_enum(options)71": {
						"encoding": "inplace",
						"label": "enum variables_modifiers.options",
						"numberOfBytes": "1"
					},
					"t_int256": {
						"encoding": "inplace",
						"label": "int256",
						"numberOfBytes": "32"
					},
					"t_int8": {
						"encoding": "inplace",
						"label": "int8",
						"numberOfBytes": "1"
					},
					"t_string_storage": {
						"encoding": "bytes",
						"label": "string",
						"numberOfBytes": "32"
					},
					"t_uint256": {
						"encoding": "inplace",
						"label": "uint256",
						"numberOfBytes": "32"
					},
					"t_uint8": {
						"encoding": "inplace",
						"label": "uint8",
						"numberOfBytes": "1"
					}
				}
			},
			"userdoc": {
				"kind": "user",
				"methods": {},
				"version": 1
			}
		}
	}
}