{
	"contracts/2_variables_modifiers.sol": {
		"variables_modifiers": {
			"abi": [
				{
					"inputs": [],
					"name": "b",
					"outputs": [
						{
							"internalType": "uint8",
							"name": "",
							"type": "uint8"
						}
					],
					"stateMutability": "view",
					"type": "function"
				},
				{
					"inputs": [],
					"name": "boolean_true",
					"outputs": [
						{
							"internalType": "bool",
							"name": "",
							"type": "bool"
						}
					],
					"stateMutability": "view",
					"type": "function"
				},
				{
					"inputs": [],
					"name": "d",
					"outputs": [
						{
							"internalType": "int8",
							"name": "",
							"type": "int8"
						}
					],
					"stateMutability": "view",
					"type": "function"
				},
				{
					"inputs": [],
					"name": "hashing",
					"outputs": [
						{
							"internalType": "bytes32",
							"name": "",
							"type": "bytes32"
						}
					],
					"stateMutability": "view",
					"type": "function"
				},
				{
					"inputs": [],
					"name": "second_byte",
					"outputs": [
						{
							"internalType": "bytes4",
							"name": "",
							"type": "bytes4"
						}
					],
					"stateMutability": "view",
					"type": "function"
				},
				{
					"inputs": [],
					"name": "str_privado",
					"outputs": [
						{
							"internalType": "string",
							"name": "",
							"type": "string"
						}
					],
					"stateMutability": "view",
					"type": "function"
				},
				{
					"inputs": [],
					"name": "str_public",
					"outputs": [
						{
							"internalType": "string",
							"name": "",
							"type": "string"
						}
					],
					"stateMutability": "view",
					"type": "function"
				}
			],
			"devdoc": {
				"kind": "dev",
				"methods": {},
				"version": 1
			},
			"evm": {
				"assembly": "    /* \"contracts/2_variables_modifiers.sol\":66:705  contract variables_modifiers{\r... */\n  mstore(0x40, 0x80)\n    /* \"contracts/2_variables_modifiers.sol\":175:176  3 */\n  0x03\n    /* \"contracts/2_variables_modifiers.sol\":160:176  uint8 public b=3 */\n  0x01\n  exp(0x0100, 0x00)\n  dup2\n  sload\n  dup2\n  0xff\n  mul\n  not\n  and\n  swap1\n  dup4\n  0xff\n  and\n  mul\n  or\n  swap1\n  sstore\n  pop\n    /* \"contracts/2_variables_modifiers.sol\":241:244  -10 */\n  0xfffffffffffffffffffffffffffffffffffffffffffffffffffffffffffffff6\n    /* \"contracts/2_variables_modifiers.sol\":225:244  int8 public d = -10 */\n  0x03\n  exp(0x0100, 0x00)\n  dup2\n  sload\n  dup2\n  0xff\n  mul\n  not\n  and\n  swap1\n  dup4\n  0x00\n  signextend\n  0xff\n  and\n  mul\n  or\n  swap1\n  sstore\n  pop\n    /* \"contracts/2_variables_modifiers.sol\":259:261  65 */\n  0x41\n    /* \"contracts/2_variables_modifiers.sol\":251:261  int e = 65 */\n  0x04\n  sstore\n    /* \"contracts/2_variables_modifiers.sol\":311:355  string public str_public = \"Esto es publico\" */\n  mload(0x40)\n  dup1\n  0x40\n  add\n  0x40\n  mstore\n  dup1\n  0x0f\n  dup2\n  mstore\n  0x20\n  add\n  0x4573746f206573207075626c69636f0000000000000000000000000000000000\n  dup2\n  mstore\n  pop\n  0x06\n  swap1\n  dup1\n  mload\n  swap1\n  0x20\n  add\n  swap1\n  tag_1\n  swap3\n  swap2\n  swap1\n  tag_2\n  jump\t// in\ntag_1:\n  pop\n    /* \"contracts/2_variables_modifiers.sol\":362:407  string public str_privado = \"Esto es privado\" */\n  mload(0x40)\n  dup1\n  0x40\n  add\n  0x40\n  mstore\n  dup1\n  0x0f\n  dup2\n  mstore\n  0x20\n  add\n  0x4573746f206573207072697661646f0000000000000000000000000000000000\n  dup2\n  mstore\n  pop\n  0x07\n  swap1\n  dup1\n  mload\n  swap1\n  0x20\n  add\n  swap1\n  tag_3\n  swap3\n  swap2\n  swap1\n  tag_2\n  jump\t// in\ntag_3:\n  pop\n    /* \"contracts/2_variables_modifiers.sol\":487:491  true */\n  0x01\n    /* \"contracts/2_variables_modifiers.sol\":460:491  bool public boolean_true = true */\n  0x08\n  exp(0x0100, 0x01)\n  dup2\n  sload\n  dup2\n  0xff\n  mul\n  not\n  and\n  swap1\n  dup4\n  iszero\n  iszero\n  mul\n  or\n  swap1\n  sstore\n  pop\n    /* \"contracts/2_variables_modifiers.sol\":527:532  false */\n  0x00\n    /* \"contracts/2_variables_modifiers.sol\":498:532  bool private boolead_false = false */\n  0x08\n  exp(0x0100, 0x02)\n  dup2\n  sload\n  dup2\n  0xff\n  mul\n  not\n  and\n  swap1\n  dup4\n  iszero\n  iszero\n  mul\n  or\n  swap1\n  sstore\n  pop\n    /* \"contracts/2_variables_modifiers.sol\":590:619  bytes4 public second_byte=\"D\" */\n  0x4400000000000000000000000000000000000000000000000000000000000000\n  0x0a\n  exp(0x0100, 0x00)\n  dup2\n  sload\n  dup2\n  0xffffffff\n  mul\n  not\n  and\n  swap1\n  dup4\n  0xe0\n  shr\n  mul\n  or\n  swap1\n  sstore\n  pop\n    /* \"contracts/2_variables_modifiers.sol\":667:698  abi.encodePacked(\"Hola\",\"Joan\") */\n  add(0x20, mload(0x40))\n  tag_4\n  swap1\n  tag_5\n  jump\t// in\ntag_4:\n  mload(0x40)\n  0x20\n  dup2\n  dup4\n  sub\n  sub\n  dup2\n  mstore\n  swap1\n  0x40\n  mstore\n    /* \"contracts/2_variables_modifiers.sol\":657:699  keccak256(abi.encodePacked(\"Hola\",\"Joan\")) */\n  dup1\n  mload\n  swap1\n  0x20\n  add\n  keccak256\n    /* \"contracts/2_variables_modifiers.sol\":632:699  bytes32 public hashing = keccak256(abi.encodePacked(\"Hola\",\"Joan\")) */\n  0x0b\n  sstore\n    /* \"contracts/2_variables_modifiers.sol\":66:705  contract variables_modifiers{\r... */\n  callvalue\n  dup1\n  iszero\n  tag_6\n  jumpi\n  0x00\n  dup1\n  revert\ntag_6:\n  pop\n  jump(tag_7)\ntag_2:\n  dup3\n  dup1\n  sload\n  tag_8\n  swap1\n  tag_9\n  jump\t// in\ntag_8:\n  swap1\n  0x00\n  mstore\n  keccak256(0x00, 0x20)\n  swap1\n  0x1f\n  add\n  0x20\n  swap1\n  div\n  dup2\n  add\n  swap3\n  dup3\n  tag_11\n  jumpi\n  0x00\n  dup6\n  sstore\n  jump(tag_10)\ntag_11:\n  dup3\n  0x1f\n  lt\n  tag_12\n  jumpi\n  dup1\n  mload\n  not(0xff)\n  and\n  dup4\n  dup1\n  add\n  or\n  dup6\n  sstore\n  jump(tag_10)\ntag_12:\n  dup3\n  dup1\n  add\n  0x01\n  add\n  dup6\n  sstore\n  dup3\n  iszero\n  tag_10\n  jumpi\n  swap2\n  dup3\n  add\ntag_13:\n  dup3\n  dup2\n  gt\n  iszero\n  tag_14\n  jumpi\n  dup3\n  mload\n  dup3\n  sstore\n  swap2\n  0x20\n  add\n  swap2\n  swap1\n  0x01\n  add\n  swap1\n  jump(tag_13)\ntag_14:\ntag_10:\n  pop\n  swap1\n  pop\n  tag_15\n  swap2\n  swap1\n  tag_16\n  jump\t// in\ntag_15:\n  pop\n  swap1\n  jump\t// out\ntag_16:\ntag_17:\n  dup1\n  dup3\n  gt\n  iszero\n  tag_18\n  jumpi\n  0x00\n  dup2\n  0x00\n  swap1\n  sstore\n  pop\n  0x01\n  add\n  jump(tag_17)\ntag_18:\n  pop\n  swap1\n  jump\t// out\n    /* \"#utility.yul\":7:407   */\ntag_20:\n    /* \"#utility.yul\":167:170   */\n  0x00\n    /* \"#utility.yul\":188:272   */\n  tag_22\n    /* \"#utility.yul\":270:271   */\n  0x04\n    /* \"#utility.yul\":265:268   */\n  dup4\n    /* \"#utility.yul\":188:272   */\n  tag_23\n  jump\t// in\ntag_22:\n    /* \"#utility.yul\":181:272   */\n  swap2\n  pop\n    /* \"#utility.yul\":281:374   */\n  tag_24\n    /* \"#utility.yul\":370:373   */\n  dup3\n    /* \"#utility.yul\":281:374   */\n  tag_25\n  jump\t// in\ntag_24:\n    /* \"#utility.yul\":399:400   */\n  0x04\n    /* \"#utility.yul\":394:397   */\n  dup3\n    /* \"#utility.yul\":390:401   */\n  add\n    /* \"#utility.yul\":383:401   */\n  swap1\n  pop\n    /* \"#utility.yul\":171:407   */\n  swap2\n  swap1\n  pop\n  jump\t// out\n    /* \"#utility.yul\":413:813   */\ntag_26:\n    /* \"#utility.yul\":573:576   */\n  0x00\n    /* \"#utility.yul\":594:678   */\n  tag_28\n    /* \"#utility.yul\":676:677   */\n  0x04\n    /* \"#utility.yul\":671:674   */\n  dup4\n    /* \"#utility.yul\":594:678   */\n  tag_23\n  jump\t// in\ntag_28:\n    /* \"#utility.yul\":587:678   */\n  swap2\n  pop\n    /* \"#utility.yul\":687:780   */\n  tag_29\n    /* \"#utility.yul\":776:779   */\n  dup3\n    /* \"#utility.yul\":687:780   */\n  tag_30\n  jump\t// in\ntag_29:\n    /* \"#utility.yul\":805:806   */\n  0x04\n    /* \"#utility.yul\":800:803   */\n  dup3\n    /* \"#utility.yul\":796:807   */\n  add\n    /* \"#utility.yul\":789:807   */\n  swap1\n  pop\n    /* \"#utility.yul\":577:813   */\n  swap2\n  swap1\n  pop\n  jump\t// out\n    /* \"#utility.yul\":819:1466   */\ntag_5:\n    /* \"#utility.yul\":1105:1108   */\n  0x00\n    /* \"#utility.yul\":1127:1275   */\n  tag_32\n    /* \"#utility.yul\":1271:1274   */\n  dup3\n    /* \"#utility.yul\":1127:1275   */\n  tag_20\n  jump\t// in\ntag_32:\n    /* \"#utility.yul\":1120:1275   */\n  swap2\n  pop\n    /* \"#utility.yul\":1292:1440   */\n  tag_33\n    /* \"#utility.yul\":1436:1439   */\n  dup3\n    /* \"#utility.yul\":1292:1440   */\n  tag_26\n  jump\t// in\ntag_33:\n    /* \"#utility.yul\":1285:1440   */\n  swap2\n  pop\n    /* \"#utility.yul\":1457:1460   */\n  dup2\n    /* \"#utility.yul\":1450:1460   */\n  swap1\n  pop\n    /* \"#utility.yul\":1109:1466   */\n  swap2\n  swap1\n  pop\n  jump\t// out\n    /* \"#utility.yul\":1472:1620   */\ntag_23:\n    /* \"#utility.yul\":1574:1585   */\n  0x00\n    /* \"#utility.yul\":1611:1614   */\n  dup2\n    /* \"#utility.yul\":1596:1614   */\n  swap1\n  pop\n    /* \"#utility.yul\":1586:1620   */\n  swap3\n  swap2\n  pop\n  pop\n  jump\t// out\n    /* \"#utility.yul\":1626:1946   */\ntag_9:\n    /* \"#utility.yul\":1670:1676   */\n  0x00\n    /* \"#utility.yul\":1707:1708   */\n  0x02\n    /* \"#utility.yul\":1701:1705   */\n  dup3\n    /* \"#utility.yul\":1697:1709   */\n  div\n    /* \"#utility.yul\":1687:1709   */\n  swap1\n  pop\n    /* \"#utility.yul\":1754:1755   */\n  0x01\n    /* \"#utility.yul\":1748:1752   */\n  dup3\n    /* \"#utility.yul\":1744:1756   */\n  and\n    /* \"#utility.yul\":1775:1793   */\n  dup1\n    /* \"#utility.yul\":1765:1767   */\n  tag_36\n  jumpi\n    /* \"#utility.yul\":1831:1835   */\n  0x7f\n    /* \"#utility.yul\":1823:1829   */\n  dup3\n    /* \"#utility.yul\":1819:1836   */\n  and\n    /* \"#utility.yul\":1809:1836   */\n  swap2\n  pop\n    /* \"#utility.yul\":1765:1767   */\ntag_36:\n    /* \"#utility.yul\":1893:1895   */\n  0x20\n    /* \"#utility.yul\":1885:1891   */\n  dup3\n    /* \"#utility.yul\":1882:1896   */\n  lt\n    /* \"#utility.yul\":1862:1880   */\n  dup2\n    /* \"#utility.yul\":1859:1897   */\n  eq\n    /* \"#utility.yul\":1856:1858   */\n  iszero\n  tag_37\n  jumpi\n    /* \"#utility.yul\":1912:1930   */\n  tag_38\n  tag_39\n  jump\t// in\ntag_38:\n    /* \"#utility.yul\":1856:1858   */\ntag_37:\n    /* \"#utility.yul\":1677:1946   */\n  pop\n  swap2\n  swap1\n  pop\n  jump\t// out\n    /* \"#utility.yul\":1952:2132   */\ntag_39:\n    /* \"#utility.yul\":2000:2077   */\n  0x4e487b7100000000000000000000000000000000000000000000000000000000\n    /* \"#utility.yul\":1997:1998   */\n  0x00\n    /* \"#utility.yul\":1990:2078   */\n  mstore\n    /* \"#utility.yul\":2097:2101   */\n  0x22\n    /* \"#utility.yul\":2094:2095   */\n  0x04\n    /* \"#utility.yul\":2087:2102   */\n  mstore\n    /* \"#utility.yul\":2121:2125   */\n  0x24\n    /* \"#utility.yul\":2118:2119   */\n  0x00\n    /* \"#utility.yul\":2111:2126   */\n  revert\n    /* \"#utility.yul\":2138:2292   */\ntag_25:\n    /* \"#utility.yul\":2278:2284   */\n  0x486f6c6100000000000000000000000000000000000000000000000000000000\n    /* \"#utility.yul\":2274:2275   */\n  0x00\n    /* \"#utility.yul\":2266:2272   */\n  dup3\n    /* \"#utility.yul\":2262:2276   */\n  add\n    /* \"#utility.yul\":2255:2285   */\n  mstore\n    /* \"#utility.yul\":2244:2292   */\n  pop\n  jump\t// out\n    /* \"#utility.yul\":2298:2452   */\ntag_30:\n    /* \"#utility.yul\":2438:2444   */\n  0x4a6f616e00000000000000000000000000000000000000000000000000000000\n    /* \"#utility.yul\":2434:2435   */\n  0x00\n    /* \"#utility.yul\":2426:2432   */\n  dup3\n    /* \"#utility.yul\":2422:2436   */\n  add\n    /* \"#utility.yul\":2415:2445   */\n  mstore\n    /* \"#utility.yul\":2404:2452   */\n  pop\n  jump\t// out\n    /* \"contracts/2_variables_modifiers.sol\":66:705  contract variables_modifiers{\r... */\ntag_7:\n  dataSize(sub_0)\n  dup1\n  dataOffset(sub_0)\n  0x00\n  codecopy\n  0x00\n  return\nstop\n\nsub_0: assembly {\n        /* \"contracts/2_variables_modifiers.sol\":66:705  contract variables_modifiers{\r... */\n      mstore(0x40, 0x80)\n      callvalue\n      dup1\n      iszero\n      tag_1\n      jumpi\n      0x00\n      dup1\n      revert\n    tag_1:\n      pop\n      jumpi(tag_2, lt(calldatasize, 0x04))\n      shr(0xe0, calldataload(0x00))\n      dup1\n      0xb83d07b7\n      gt\n      tag_10\n      jumpi\n      dup1\n      0xb83d07b7\n      eq\n      tag_6\n      jumpi\n      dup1\n      0xcd97d84e\n      eq\n      tag_7\n      jumpi\n      dup1\n      0xea362b44\n      eq\n      tag_8\n      jumpi\n      dup1\n      0xebbb4bec\n      eq\n      tag_9\n      jumpi\n      jump(tag_2)\n    tag_10:\n      dup1\n      0x312eef29\n      eq\n      tag_3\n      jumpi\n      dup1\n      0x4df7e3d0\n      eq\n      tag_4\n      jumpi\n      dup1\n      0x8a054ac2\n      eq\n      tag_5\n      jumpi\n    tag_2:\n      0x00\n      dup1\n      revert\n        /* \"contracts/2_variables_modifiers.sol\":460:491  bool public boolean_true = true */\n    tag_3:\n      tag_11\n      tag_12\n      jump\t// in\n    tag_11:\n      mload(0x40)\n      tag_13\n      swap2\n      swap1\n      tag_14\n      jump\t// in\n    tag_13:\n      mload(0x40)\n      dup1\n      swap2\n      sub\n      swap1\n      return\n        /* \"contracts/2_variables_modifiers.sol\":160:176  uint8 public b=3 */\n    tag_4:\n      tag_15\n      tag_16\n      jump\t// in\n    tag_15:\n      mload(0x40)\n      tag_17\n      swap2\n      swap1\n      tag_18\n      jump\t// in\n    tag_17:\n      mload(0x40)\n      dup1\n      swap2\n      sub\n      swap1\n      return\n        /* \"contracts/2_variables_modifiers.sol\":225:244  int8 public d = -10 */\n    tag_5:\n      tag_19\n      tag_20\n      jump\t// in\n    tag_19:\n      mload(0x40)\n      tag_21\n      swap2\n      swap1\n      tag_22\n      jump\t// in\n    tag_21:\n      mload(0x40)\n      dup1\n      swap2\n      sub\n      swap1\n      return\n        /* \"contracts/2_variables_modifiers.sol\":311:355  string public str_public = \"Esto es publico\" */\n    tag_6:\n      tag_23\n      tag_24\n      jump\t// in\n    tag_23:\n      mload(0x40)\n      tag_25\n      swap2\n      swap1\n      tag_26\n      jump\t// in\n    tag_25:\n      mload(0x40)\n      dup1\n      swap2\n      sub\n      swap1\n      return\n        /* \"contracts/2_variables_modifiers.sol\":632:699  bytes32 public hashing = keccak256(abi.encodePacked(\"Hola\",\"Joan\")) */\n    tag_7:\n      tag_27\n      tag_28\n      jump\t// in\n    tag_27:\n      mload(0x40)\n      tag_29\n      swap2\n      swap1\n      tag_30\n      jump\t// in\n    tag_29:\n      mload(0x40)\n      dup1\n      swap2\n      sub\n      swap1\n      return\n        /* \"contracts/2_variables_modifiers.sol\":590:619  bytes4 public second_byte=\"D\" */\n    tag_8:\n      tag_31\n      tag_32\n      jump\t// in\n    tag_31:\n      mload(0x40)\n      tag_33\n      swap2\n      swap1\n      tag_34\n      jump\t// in\n    tag_33:\n      mload(0x40)\n      dup1\n      swap2\n      sub\n      swap1\n      return\n        /* \"contracts/2_variables_modifiers.sol\":362:407  string public str_privado = \"Esto es privado\" */\n    tag_9:\n      tag_35\n      tag_36\n      jump\t// in\n    tag_35:\n      mload(0x40)\n      tag_37\n      swap2\n      swap1\n      tag_26\n      jump\t// in\n    tag_37:\n      mload(0x40)\n      dup1\n      swap2\n      sub\n      swap1\n      return\n        /* \"contracts/2_variables_modifiers.sol\":460:491  bool public boolean_true = true */\n    tag_12:\n      0x08\n      0x01\n      swap1\n      sload\n      swap1\n      0x0100\n      exp\n      swap1\n      div\n      0xff\n      and\n      dup2\n      jump\t// out\n        /* \"contracts/2_variables_modifiers.sol\":160:176  uint8 public b=3 */\n    tag_16:\n      0x01\n      0x00\n      swap1\n      sload\n      swap1\n      0x0100\n      exp\n      swap1\n      div\n      0xff\n      and\n      dup2\n      jump\t// out\n        /* \"contracts/2_variables_modifiers.sol\":225:244  int8 public d = -10 */\n    tag_20:\n      0x03\n      0x00\n      swap1\n      sload\n      swap1\n      0x0100\n      exp\n      swap1\n      div\n      0x00\n      signextend\n      dup2\n      jump\t// out\n        /* \"contracts/2_variables_modifiers.sol\":311:355  string public str_public = \"Esto es publico\" */\n    tag_24:\n      0x06\n      dup1\n      sload\n      tag_38\n      swap1\n      tag_39\n      jump\t// in\n    tag_38:\n      dup1\n      0x1f\n      add\n      0x20\n      dup1\n      swap2\n      div\n      mul\n      0x20\n      add\n      mload(0x40)\n      swap1\n      dup2\n      add\n      0x40\n      mstore\n      dup1\n      swap3\n      swap2\n      swap1\n      dup2\n      dup2\n      mstore\n      0x20\n      add\n      dup3\n      dup1\n      sload\n      tag_40\n      swap1\n      tag_39\n      jump\t// in\n    tag_40:\n      dup1\n      iszero\n      tag_41\n      jumpi\n      dup1\n      0x1f\n      lt\n      tag_42\n      jumpi\n      0x0100\n      dup1\n      dup4\n      sload\n      div\n      mul\n      dup4\n      mstore\n      swap2\n      0x20\n      add\n      swap2\n      jump(tag_41)\n    tag_42:\n      dup3\n      add\n      swap2\n      swap1\n      0x00\n      mstore\n      keccak256(0x00, 0x20)\n      swap1\n    tag_43:\n      dup2\n      sload\n      dup2\n      mstore\n      swap1\n      0x01\n      add\n      swap1\n      0x20\n      add\n      dup1\n      dup4\n      gt\n      tag_43\n      jumpi\n      dup3\n      swap1\n      sub\n      0x1f\n      and\n      dup3\n      add\n      swap2\n    tag_41:\n      pop\n      pop\n      pop\n      pop\n      pop\n      dup2\n      jump\t// out\n        /* \"contracts/2_variables_modifiers.sol\":632:699  bytes32 public hashing = keccak256(abi.encodePacked(\"Hola\",\"Joan\")) */\n    tag_28:\n      sload(0x0b)\n      dup2\n      jump\t// out\n        /* \"contracts/2_variables_modifiers.sol\":590:619  bytes4 public second_byte=\"D\" */\n    tag_32:\n      0x0a\n      0x00\n      swap1\n      sload\n      swap1\n      0x0100\n      exp\n      swap1\n      div\n      0xe0\n      shl\n      dup2\n      jump\t// out\n        /* \"contracts/2_variables_modifiers.sol\":362:407  string public str_privado = \"Esto es privado\" */\n    tag_36:\n      0x07\n      dup1\n      sload\n      tag_44\n      swap1\n      tag_39\n      jump\t// in\n    tag_44:\n      dup1\n      0x1f\n      add\n      0x20\n      dup1\n      swap2\n      div\n      mul\n      0x20\n      add\n      mload(0x40)\n      swap1\n      dup2\n      add\n      0x40\n      mstore\n      dup1\n      swap3\n      swap2\n      swap1\n      dup2\n      dup2\n      mstore\n      0x20\n      add\n      dup3\n      dup1\n      sload\n      tag_45\n      swap1\n      tag_39\n      jump\t// in\n    tag_45:\n      dup1\n      iszero\n      tag_46\n      jumpi\n      dup1\n      0x1f\n      lt\n      tag_47\n      jumpi\n      0x0100\n      dup1\n      dup4\n      sload\n      div\n      mul\n      dup4\n      mstore\n      swap2\n      0x20\n      add\n      swap2\n      jump(tag_46)\n    tag_47:\n      dup3\n      add\n      swap2\n      swap1\n      0x00\n      mstore\n      keccak256(0x00, 0x20)\n      swap1\n    tag_48:\n      dup2\n      sload\n      dup2\n      mstore\n      swap1\n      0x01\n      add\n      swap1\n      0x20\n      add\n      dup1\n      dup4\n      gt\n      tag_48\n      jumpi\n      dup3\n      swap1\n      sub\n      0x1f\n      and\n      dup3\n      add\n      swap2\n    tag_46:\n      pop\n      pop\n      pop\n      pop\n      pop\n      dup2\n      jump\t// out\n        /* \"#utility.yul\":7:116   */\n    tag_50:\n        /* \"#utility.yul\":88:109   */\n      tag_52\n        /* \"#utility.yul\":103:108   */\n      dup2\n        /* \"#utility.yul\":88:109   */\n      tag_53\n      jump\t// in\n    tag_52:\n        /* \"#utility.yul\":83:86   */\n      dup3\n        /* \"#utility.yul\":76:110   */\n      mstore\n        /* \"#utility.yul\":66:116   */\n      pop\n      pop\n      jump\t// out\n        /* \"#utility.yul\":122:240   */\n    tag_54:\n        /* \"#utility.yul\":209:233   */\n      tag_56\n        /* \"#utility.yul\":227:232   */\n      dup2\n        /* \"#utility.yul\":209:233   */\n      tag_57\n      jump\t// in\n    tag_56:\n        /* \"#utility.yul\":204:207   */\n      dup3\n        /* \"#utility.yul\":197:234   */\n      mstore\n        /* \"#utility.yul\":187:240   */\n      pop\n      pop\n      jump\t// out\n        /* \"#utility.yul\":246:361   */\n    tag_58:\n        /* \"#utility.yul\":331:354   */\n      tag_60\n        /* \"#utility.yul\":348:353   */\n      dup2\n        /* \"#utility.yul\":331:354   */\n      tag_61\n      jump\t// in\n    tag_60:\n        /* \"#utility.yul\":326:329   */\n      dup3\n        /* \"#utility.yul\":319:355   */\n      mstore\n        /* \"#utility.yul\":309:361   */\n      pop\n      pop\n      jump\t// out\n        /* \"#utility.yul\":367:476   */\n    tag_62:\n        /* \"#utility.yul\":448:469   */\n      tag_64\n        /* \"#utility.yul\":463:468   */\n      dup2\n        /* \"#utility.yul\":448:469   */\n      tag_65\n      jump\t// in\n    tag_64:\n        /* \"#utility.yul\":443:446   */\n      dup3\n        /* \"#utility.yul\":436:470   */\n      mstore\n        /* \"#utility.yul\":426:476   */\n      pop\n      pop\n      jump\t// out\n        /* \"#utility.yul\":482:846   */\n    tag_66:\n        /* \"#utility.yul\":570:573   */\n      0x00\n        /* \"#utility.yul\":598:637   */\n      tag_68\n        /* \"#utility.yul\":631:636   */\n      dup3\n        /* \"#utility.yul\":598:637   */\n      tag_69\n      jump\t// in\n    tag_68:\n        /* \"#utility.yul\":653:724   */\n      tag_70\n        /* \"#utility.yul\":717:723   */\n      dup2\n        /* \"#utility.yul\":712:715   */\n      dup6\n        /* \"#utility.yul\":653:724   */\n      tag_71\n      jump\t// in\n    tag_70:\n        /* \"#utility.yul\":646:724   */\n      swap4\n      pop\n        /* \"#utility.yul\":733:785   */\n      tag_72\n        /* \"#utility.yul\":778:784   */\n      dup2\n        /* \"#utility.yul\":773:776   */\n      dup6\n        /* \"#utility.yul\":766:770   */\n      0x20\n        /* \"#utility.yul\":759:764   */\n      dup7\n        /* \"#utility.yul\":755:771   */\n      add\n        /* \"#utility.yul\":733:785   */\n      tag_73\n      jump\t// in\n    tag_72:\n        /* \"#utility.yul\":810:839   */\n      tag_74\n        /* \"#utility.yul\":832:838   */\n      dup2\n        /* \"#utility.yul\":810:839   */\n      tag_75\n      jump\t// in\n    tag_74:\n        /* \"#utility.yul\":805:808   */\n      dup5\n        /* \"#utility.yul\":801:840   */\n      add\n        /* \"#utility.yul\":794:840   */\n      swap2\n      pop\n        /* \"#utility.yul\":574:846   */\n      pop\n      swap3\n      swap2\n      pop\n      pop\n      jump\t// out\n        /* \"#utility.yul\":852:964   */\n    tag_76:\n        /* \"#utility.yul\":935:957   */\n      tag_78\n        /* \"#utility.yul\":951:956   */\n      dup2\n        /* \"#utility.yul\":935:957   */\n      tag_79\n      jump\t// in\n    tag_78:\n        /* \"#utility.yul\":930:933   */\n      dup3\n        /* \"#utility.yul\":923:958   */\n      mstore\n        /* \"#utility.yul\":913:964   */\n      pop\n      pop\n      jump\t// out\n        /* \"#utility.yul\":970:1180   */\n    tag_14:\n        /* \"#utility.yul\":1057:1061   */\n      0x00\n        /* \"#utility.yul\":1095:1097   */\n      0x20\n        /* \"#utility.yul\":1084:1093   */\n      dup3\n        /* \"#utility.yul\":1080:1098   */\n      add\n        /* \"#utility.yul\":1072:1098   */\n      swap1\n      pop\n        /* \"#utility.yul\":1108:1173   */\n      tag_81\n        /* \"#utility.yul\":1170:1171   */\n      0x00\n        /* \"#utility.yul\":1159:1168   */\n      dup4\n        /* \"#utility.yul\":1155:1172   */\n      add\n        /* \"#utility.yul\":1146:1152   */\n      dup5\n        /* \"#utility.yul\":1108:1173   */\n      tag_50\n      jump\t// in\n    tag_81:\n        /* \"#utility.yul\":1062:1180   */\n      swap3\n      swap2\n      pop\n      pop\n      jump\t// out\n        /* \"#utility.yul\":1186:1408   */\n    tag_30:\n        /* \"#utility.yul\":1279:1283   */\n      0x00\n        /* \"#utility.yul\":1317:1319   */\n      0x20\n        /* \"#utility.yul\":1306:1315   */\n      dup3\n        /* \"#utility.yul\":1302:1320   */\n      add\n        /* \"#utility.yul\":1294:1320   */\n      swap1\n      pop\n        /* \"#utility.yul\":1330:1401   */\n      tag_83\n        /* \"#utility.yul\":1398:1399   */\n      0x00\n        /* \"#utility.yul\":1387:1396   */\n      dup4\n        /* \"#utility.yul\":1383:1400   */\n      add\n        /* \"#utility.yul\":1374:1380   */\n      dup5\n        /* \"#utility.yul\":1330:1401   */\n      tag_54\n      jump\t// in\n    tag_83:\n        /* \"#utility.yul\":1284:1408   */\n      swap3\n      swap2\n      pop\n      pop\n      jump\t// out\n        /* \"#utility.yul\":1414:1632   */\n    tag_34:\n        /* \"#utility.yul\":1505:1509   */\n      0x00\n        /* \"#utility.yul\":1543:1545   */\n      0x20\n        /* \"#utility.yul\":1532:1541   */\n      dup3\n        /* \"#utility.yul\":1528:1546   */\n      add\n        /* \"#utility.yul\":1520:1546   */\n      swap1\n      pop\n        /* \"#utility.yul\":1556:1625   */\n      tag_85\n        /* \"#utility.yul\":1622:1623   */\n      0x00\n        /* \"#utility.yul\":1611:1620   */\n      dup4\n        /* \"#utility.yul\":1607:1624   */\n      add\n        /* \"#utility.yul\":1598:1604   */\n      dup5\n        /* \"#utility.yul\":1556:1625   */\n      tag_58\n      jump\t// in\n    tag_85:\n        /* \"#utility.yul\":1510:1632   */\n      swap3\n      swap2\n      pop\n      pop\n      jump\t// out\n        /* \"#utility.yul\":1638:1848   */\n    tag_22:\n        /* \"#utility.yul\":1725:1729   */\n      0x00\n        /* \"#utility.yul\":1763:1765   */\n      0x20\n        /* \"#utility.yul\":1752:1761   */\n      dup3\n        /* \"#utility.yul\":1748:1766   */\n      add\n        /* \"#utility.yul\":1740:1766   */\n      swap1\n      pop\n        /* \"#utility.yul\":1776:1841   */\n      tag_87\n        /* \"#utility.yul\":1838:1839   */\n      0x00\n        /* \"#utility.yul\":1827:1836   */\n      dup4\n        /* \"#utility.yul\":1823:1840   */\n      add\n        /* \"#utility.yul\":1814:1820   */\n      dup5\n        /* \"#utility.yul\":1776:1841   */\n      tag_62\n      jump\t// in\n    tag_87:\n        /* \"#utility.yul\":1730:1848   */\n      swap3\n      swap2\n      pop\n      pop\n      jump\t// out\n        /* \"#utility.yul\":1854:2167   */\n    tag_26:\n        /* \"#utility.yul\":1967:1971   */\n      0x00\n        /* \"#utility.yul\":2005:2007   */\n      0x20\n        /* \"#utility.yul\":1994:2003   */\n      dup3\n        /* \"#utility.yul\":1990:2008   */\n      add\n        /* \"#utility.yul\":1982:2008   */\n      swap1\n      pop\n        /* \"#utility.yul\":2054:2063   */\n      dup2\n        /* \"#utility.yul\":2048:2052   */\n      dup2\n        /* \"#utility.yul\":2044:2064   */\n      sub\n        /* \"#utility.yul\":2040:2041   */\n      0x00\n        /* \"#utility.yul\":2029:2038   */\n      dup4\n        /* \"#utility.yul\":2025:2042   */\n      add\n        /* \"#utility.yul\":2018:2065   */\n      mstore\n        /* \"#utility.yul\":2082:2160   */\n      tag_89\n        /* \"#utility.yul\":2155:2159   */\n      dup2\n        /* \"#utility.yul\":2146:2152   */\n      dup5\n        /* \"#utility.yul\":2082:2160   */\n      tag_66\n      jump\t// in\n    tag_89:\n        /* \"#utility.yul\":2074:2160   */\n      swap1\n      pop\n        /* \"#utility.yul\":1972:2167   */\n      swap3\n      swap2\n      pop\n      pop\n      jump\t// out\n        /* \"#utility.yul\":2173:2387   */\n    tag_18:\n        /* \"#utility.yul\":2262:2266   */\n      0x00\n        /* \"#utility.yul\":2300:2302   */\n      0x20\n        /* \"#utility.yul\":2289:2298   */\n      dup3\n        /* \"#utility.yul\":2285:2303   */\n      add\n        /* \"#utility.yul\":2277:2303   */\n      swap1\n      pop\n        /* \"#utility.yul\":2313:2380   */\n      tag_91\n        /* \"#utility.yul\":2377:2378   */\n      0x00\n        /* \"#utility.yul\":2366:2375   */\n      dup4\n        /* \"#utility.yul\":2362:2379   */\n      add\n        /* \"#utility.yul\":2353:2359   */\n      dup5\n        /* \"#utility.yul\":2313:2380   */\n      tag_76\n      jump\t// in\n    tag_91:\n        /* \"#utility.yul\":2267:2387   */\n      swap3\n      swap2\n      pop\n      pop\n      jump\t// out\n        /* \"#utility.yul\":2393:2492   */\n    tag_69:\n        /* \"#utility.yul\":2445:2451   */\n      0x00\n        /* \"#utility.yul\":2479:2484   */\n      dup2\n        /* \"#utility.yul\":2473:2485   */\n      mload\n        /* \"#utility.yul\":2463:2485   */\n      swap1\n      pop\n        /* \"#utility.yul\":2452:2492   */\n      swap2\n      swap1\n      pop\n      jump\t// out\n        /* \"#utility.yul\":2498:2667   */\n    tag_71:\n        /* \"#utility.yul\":2582:2593   */\n      0x00\n        /* \"#utility.yul\":2616:2622   */\n      dup3\n        /* \"#utility.yul\":2611:2614   */\n      dup3\n        /* \"#utility.yul\":2604:2623   */\n      mstore\n        /* \"#utility.yul\":2656:2660   */\n      0x20\n        /* \"#utility.yul\":2651:2654   */\n      dup3\n        /* \"#utility.yul\":2647:2661   */\n      add\n        /* \"#utility.yul\":2632:2661   */\n      swap1\n      pop\n        /* \"#utility.yul\":2594:2667   */\n      swap3\n      swap2\n      pop\n      pop\n      jump\t// out\n        /* \"#utility.yul\":2673:2763   */\n    tag_53:\n        /* \"#utility.yul\":2707:2714   */\n      0x00\n        /* \"#utility.yul\":2750:2755   */\n      dup2\n        /* \"#utility.yul\":2743:2756   */\n      iszero\n        /* \"#utility.yul\":2736:2757   */\n      iszero\n        /* \"#utility.yul\":2725:2757   */\n      swap1\n      pop\n        /* \"#utility.yul\":2715:2763   */\n      swap2\n      swap1\n      pop\n      jump\t// out\n        /* \"#utility.yul\":2769:2846   */\n    tag_57:\n        /* \"#utility.yul\":2806:2813   */\n      0x00\n        /* \"#utility.yul\":2835:2840   */\n      dup2\n        /* \"#utility.yul\":2824:2840   */\n      swap1\n      pop\n        /* \"#utility.yul\":2814:2846   */\n      swap2\n      swap1\n      pop\n      jump\t// out\n        /* \"#utility.yul\":2852:3001   */\n    tag_61:\n        /* \"#utility.yul\":2888:2895   */\n      0x00\n        /* \"#utility.yul\":2928:2994   */\n      0xffffffff00000000000000000000000000000000000000000000000000000000\n        /* \"#utility.yul\":2921:2926   */\n      dup3\n        /* \"#utility.yul\":2917:2995   */\n      and\n        /* \"#utility.yul\":2906:2995   */\n      swap1\n      pop\n        /* \"#utility.yul\":2896:3001   */\n      swap2\n      swap1\n      pop\n      jump\t// out\n        /* \"#utility.yul\":3007:3096   */\n    tag_65:\n        /* \"#utility.yul\":3041:3048   */\n      0x00\n        /* \"#utility.yul\":3084:3089   */\n      dup2\n        /* \"#utility.yul\":3081:3082   */\n      0x00\n        /* \"#utility.yul\":3070:3090   */\n      signextend\n        /* \"#utility.yul\":3059:3090   */\n      swap1\n      pop\n        /* \"#utility.yul\":3049:3096   */\n      swap2\n      swap1\n      pop\n      jump\t// out\n        /* \"#utility.yul\":3102:3188   */\n    tag_79:\n        /* \"#utility.yul\":3137:3144   */\n      0x00\n        /* \"#utility.yul\":3177:3181   */\n      0xff\n        /* \"#utility.yul\":3170:3175   */\n      dup3\n        /* \"#utility.yul\":3166:3182   */\n      and\n        /* \"#utility.yul\":3155:3182   */\n      swap1\n      pop\n        /* \"#utility.yul\":3145:3188   */\n      swap2\n      swap1\n      pop\n      jump\t// out\n        /* \"#utility.yul\":3194:3501   */\n    tag_73:\n        /* \"#utility.yul\":3262:3263   */\n      0x00\n        /* \"#utility.yul\":3272:3385   */\n    tag_100:\n        /* \"#utility.yul\":3286:3292   */\n      dup4\n        /* \"#utility.yul\":3283:3284   */\n      dup2\n        /* \"#utility.yul\":3280:3293   */\n      lt\n        /* \"#utility.yul\":3272:3385   */\n      iszero\n      tag_102\n      jumpi\n        /* \"#utility.yul\":3371:3372   */\n      dup1\n        /* \"#utility.yul\":3366:3369   */\n      dup3\n        /* \"#utility.yul\":3362:3373   */\n      add\n        /* \"#utility.yul\":3356:3374   */\n      mload\n        /* \"#utility.yul\":3352:3353   */\n      dup2\n        /* \"#utility.yul\":3347:3350   */\n      dup5\n        /* \"#utility.yul\":3343:3354   */\n      add\n        /* \"#utility.yul\":3336:3375   */\n      mstore\n        /* \"#utility.yul\":3308:3310   */\n      0x20\n        /* \"#utility.yul\":3305:3306   */\n      dup2\n        /* \"#utility.yul\":3301:3311   */\n      add\n        /* \"#utility.yul\":3296:3311   */\n      swap1\n      pop\n        /* \"#utility.yul\":3272:3385   */\n      jump(tag_100)\n    tag_102:\n        /* \"#utility.yul\":3403:3409   */\n      dup4\n        /* \"#utility.yul\":3400:3401   */\n      dup2\n        /* \"#utility.yul\":3397:3410   */\n      gt\n        /* \"#utility.yul\":3394:3396   */\n      iszero\n      tag_103\n      jumpi\n        /* \"#utility.yul\":3483:3484   */\n      0x00\n        /* \"#utility.yul\":3474:3480   */\n      dup5\n        /* \"#utility.yul\":3469:3472   */\n      dup5\n        /* \"#utility.yul\":3465:3481   */\n      add\n        /* \"#utility.yul\":3458:3485   */\n      mstore\n        /* \"#utility.yul\":3394:3396   */\n    tag_103:\n        /* \"#utility.yul\":3243:3501   */\n      pop\n      pop\n      pop\n      pop\n      jump\t// out\n        /* \"#utility.yul\":3507:3827   */\n    tag_39:\n        /* \"#utility.yul\":3551:3557   */\n      0x00\n        /* \"#utility.yul\":3588:3589   */\n      0x02\n        /* \"#utility.yul\":3582:3586   */\n      dup3\n        /* \"#utility.yul\":3578:3590   */\n      div\n        /* \"#utility.yul\":3568:3590   */\n      swap1\n      pop\n        /* \"#utility.yul\":3635:3636   */\n      0x01\n        /* \"#utility.yul\":3629:3633   */\n      dup3\n        /* \"#utility.yul\":3625:3637   */\n      and\n        /* \"#utility.yul\":3656:3674   */\n      dup1\n        /* \"#utility.yul\":3646:3648   */\n      tag_105\n      jumpi\n        /* \"#utility.yul\":3712:3716   */\n      0x7f\n        /* \"#utility.yul\":3704:3710   */\n      dup3\n        /* \"#utility.yul\":3700:3717   */\n      and\n        /* \"#utility.yul\":3690:3717   */\n      swap2\n      pop\n        /* \"#utility.yul\":3646:3648   */\n    tag_105:\n        /* \"#utility.yul\":3774:3776   */\n      0x20\n        /* \"#utility.yul\":3766:3772   */\n      dup3\n        /* \"#utility.yul\":3763:3777   */\n      lt\n        /* \"#utility.yul\":3743:3761   */\n      dup2\n        /* \"#utility.yul\":3740:3778   */\n      eq\n        /* \"#utility.yul\":3737:3739   */\n      iszero\n      tag_106\n      jumpi\n        /* \"#utility.yul\":3793:3811   */\n      tag_107\n      tag_108\n      jump\t// in\n    tag_107:\n        /* \"#utility.yul\":3737:3739   */\n    tag_106:\n        /* \"#utility.yul\":3558:3827   */\n      pop\n      swap2\n      swap1\n      pop\n      jump\t// out\n        /* \"#utility.yul\":3833:4013   */\n    tag_108:\n        /* \"#utility.yul\":3881:3958   */\n      0x4e487b7100000000000000000000000000000000000000000000000000000000\n        /* \"#utility.yul\":3878:3879   */\n      0x00\n        /* \"#utility.yul\":3871:3959   */\n      mstore\n        /* \"#utility.yul\":3978:3982   */\n      0x22\n        /* \"#utility.yul\":3975:3976   */\n      0x04\n        /* \"#utility.yul\":3968:3983   */\n      mstore\n        /* \"#utility.yul\":4002:4006   */\n      0x24\n        /* \"#utility.yul\":3999:4000   */\n      0x00\n        /* \"#utility.yul\":3992:4007   */\n      revert\n        /* \"#utility.yul\":4019:4121   */\n    tag_75:\n        /* \"#utility.yul\":4060:4066   */\n      0x00\n        /* \"#utility.yul\":4111:4113   */\n      0x1f\n        /* \"#utility.yul\":4107:4114   */\n      not\n        /* \"#utility.yul\":4102:4104   */\n      0x1f\n        /* \"#utility.yul\":4095:4100   */\n      dup4\n        /* \"#utility.yul\":4091:4105   */\n      add\n        /* \"#utility.yul\":4087:4115   */\n      and\n        /* \"#utility.yul\":4077:4115   */\n      swap1\n      pop\n        /* \"#utility.yul\":4067:4121   */\n      swap2\n      swap1\n      pop\n      jump\t// out\n\n    auxdata: 0xa264697066735822122033e31d6c36b8dc7ac669557aacbb81fe2c7c4396d8165e027aac51dd200d3ea764736f6c63430008040033\n}\n",
				"bytecode": {
					"linkReferences": {},
					"object": "60806040526003600160006101000a81548160ff021916908360ff1602179055507ffffffffffffffffffffffffffffffffffffffffffffffffffffffffffffffff6600360006101000a81548160ff021916908360000b60ff16021790555060416004556040518060400160405280600f81526020017f4573746f206573207075626c69636f0000000000000000000000000000000000815250600690805190602001906100ae9291906101a9565b506040518060400160405280600f81526020017f4573746f206573207072697661646f0000000000000000000000000000000000815250600790805190602001906100fa9291906101a9565b506001600860016101000a81548160ff0219169083151502179055506000600860026101000a81548160ff0219169083151502179055507f4400000000000000000000000000000000000000000000000000000000000000600a60006101000a81548163ffffffff021916908360e01c021790555060405160200161017e90610292565b60405160208183030381529060405280519060200120600b553480156101a357600080fd5b50610370565b8280546101b5906102bd565b90600052602060002090601f0160209004810192826101d7576000855561021e565b82601f106101f057805160ff191683800117855561021e565b8280016001018555821561021e579182015b8281111561021d578251825591602001919060010190610202565b5b50905061022b919061022f565b5090565b5b80821115610248576000816000905550600101610230565b5090565b60006102596004836102b2565b91506102648261031e565b600482019050919050565b600061027c6004836102b2565b915061028782610347565b600482019050919050565b600061029d8261024c565b91506102a88261026f565b9150819050919050565b600081905092915050565b600060028204905060018216806102d557607f821691505b602082108114156102e9576102e86102ef565b5b50919050565b7f4e487b7100000000000000000000000000000000000000000000000000000000600052602260045260246000fd5b7f486f6c6100000000000000000000000000000000000000000000000000000000600082015250565b7f4a6f616e00000000000000000000000000000000000000000000000000000000600082015250565b6105428061037f6000396000f3fe608060405234801561001057600080fd5b506004361061007d5760003560e01c8063b83d07b71161005b578063b83d07b7146100dc578063cd97d84e146100fa578063ea362b4414610118578063ebbb4bec146101365761007d565b8063312eef29146100825780634df7e3d0146100a05780638a054ac2146100be575b600080fd5b61008a610154565b6040516100979190610346565b60405180910390f35b6100a8610167565b6040516100b591906103d4565b60405180910390f35b6100c661017a565b6040516100d39190610397565b60405180910390f35b6100e461018d565b6040516100f191906103b2565b60405180910390f35b61010261021b565b60405161010f9190610361565b60405180910390f35b610120610221565b60405161012d919061037c565b60405180910390f35b61013e610234565b60405161014b91906103b2565b60405180910390f35b600860019054906101000a900460ff1681565b600160009054906101000a900460ff1681565b600360009054906101000a900460000b81565b6006805461019a9061049a565b80601f01602080910402602001604051908101604052809291908181526020018280546101c69061049a565b80156102135780601f106101e857610100808354040283529160200191610213565b820191906000526020600020905b8154815290600101906020018083116101f657829003601f168201915b505050505081565b600b5481565b600a60009054906101000a900460e01b81565b600780546102419061049a565b80601f016020809104026020016040519081016040528092919081815260200182805461026d9061049a565b80156102ba5780601f1061028f576101008083540402835291602001916102ba565b820191906000526020600020905b81548152906001019060200180831161029d57829003601f168201915b505050505081565b6102cb8161040b565b82525050565b6102da81610417565b82525050565b6102e981610421565b82525050565b6102f88161044d565b82525050565b6000610309826103ef565b61031381856103fa565b9350610323818560208601610467565b61032c816104fb565b840191505092915050565b6103408161045a565b82525050565b600060208201905061035b60008301846102c2565b92915050565b600060208201905061037660008301846102d1565b92915050565b600060208201905061039160008301846102e0565b92915050565b60006020820190506103ac60008301846102ef565b92915050565b600060208201905081810360008301526103cc81846102fe565b905092915050565b60006020820190506103e96000830184610337565b92915050565b600081519050919050565b600082825260208201905092915050565b60008115159050919050565b6000819050919050565b60007fffffffff0000000000000000000000000000000000000000000000000000000082169050919050565b60008160000b9050919050565b600060ff82169050919050565b60005b8381101561048557808201518184015260208101905061046a565b83811115610494576000848401525b50505050565b600060028204905060018216806104b257607f821691505b602082108114156104c6576104c56104cc565b5b50919050565b7f4e487b7100000000000000000000000000000000000000000000000000000000600052602260045260246000fd5b6000601f19601f830116905091905056fea264697066735822122033e31d6c36b8dc7ac669557aacbb81fe2c7c4396d8165e027aac51dd200d3ea764736f6c63430008040033",
					"opcodes": "PUSH1 0x80 PUSH1 0x40 MSTORE PUSH1 0x3 PUSH1 0x1 PUSH1 0x0 PUSH2 0x100 EXP DUP2 SLOAD DUP2 PUSH1 0xFF MUL NOT AND SWAP1 DUP4 PUSH1 0xFF AND MUL OR SWAP1 SSTORE POP PUSH32 0xFFFFFFFFFFFFFFFFFFFFFFFFFFFFFFFFFFFFFFFFFFFFFFFFFFFFFFFFFFFFFFF6 PUSH1 0x3 PUSH1 0x0 PUSH2 0x100 EXP DUP2 SLOAD DUP2 PUSH1 0xFF MUL NOT AND SWAP1 DUP4 PUSH1 0x0 SIGNEXTEND PUSH1 0xFF AND MUL OR SWAP1 SSTORE POP PUSH1 0x41 PUSH1 0x4 SSTORE PUSH1 0x40 MLOAD DUP1 PUSH1 0x40 ADD PUSH1 0x40 MSTORE DUP1 PUSH1 0xF DUP2 MSTORE PUSH1 0x20 ADD PUSH32 0x4573746F206573207075626C69636F0000000000000000000000000000000000 DUP2 MSTORE POP PUSH1 0x6 SWAP1 DUP1 MLOAD SWAP1 PUSH1 0x20 ADD SWAP1 PUSH2 0xAE SWAP3 SWAP2 SWAP1 PUSH2 0x1A9 JUMP JUMPDEST POP PUSH1 0x40 MLOAD DUP1 PUSH1 0x40 ADD PUSH1 0x40 MSTORE DUP1 PUSH1 0xF DUP2 MSTORE PUSH1 0x20 ADD PUSH32 0x4573746F206573207072697661646F0000000000000000000000000000000000 DUP2 MSTORE POP PUSH1 0x7 SWAP1 DUP1 MLOAD SWAP1 PUSH1 0x20 ADD SWAP1 PUSH2 0xFA SWAP3 SWAP2 SWAP1 PUSH2 0x1A9 JUMP JUMPDEST POP PUSH1 0x1 PUSH1 0x8 PUSH1 0x1 PUSH2 0x100 EXP DUP2 SLOAD DUP2 PUSH1 0xFF MUL NOT AND SWAP1 DUP4 ISZERO ISZERO MUL OR SWAP1 SSTORE POP PUSH1 0x0 PUSH1 0x8 PUSH1 0x2 PUSH2 0x100 EXP DUP2 SLOAD DUP2 PUSH1 0xFF MUL NOT AND SWAP1 DUP4 ISZERO ISZERO MUL OR SWAP1 SSTORE POP PUSH32 0x4400000000000000000000000000000000000000000000000000000000000000 PUSH1 0xA PUSH1 0x0 PUSH2 0x100 EXP DUP2 SLOAD DUP2 PUSH4 0xFFFFFFFF MUL NOT AND SWAP1 DUP4 PUSH1 0xE0 SHR MUL OR SWAP1 SSTORE POP PUSH1 0x40 MLOAD PUSH1 0x20 ADD PUSH2 0x17E SWAP1 PUSH2 0x292 JUMP JUMPDEST PUSH1 0x40 MLOAD PUSH1 0x20 DUP2 DUP4 SUB SUB DUP2 MSTORE SWAP1 PUSH1 0x40 MSTORE DUP1 MLOAD SWAP1 PUSH1 0x20 ADD KECCAK256 PUSH1 0xB SSTORE CALLVALUE DUP1 ISZERO PUSH2 0x1A3 JUMPI PUSH1 0x0 DUP1 REVERT JUMPDEST POP PUSH2 0x370 JUMP JUMPDEST DUP3 DUP1 SLOAD PUSH2 0x1B5 SWAP1 PUSH2 0x2BD JUMP JUMPDEST SWAP1 PUSH1 0x0 MSTORE PUSH1 0x20 PUSH1 0x0 KECCAK256 SWAP1 PUSH1 0x1F ADD PUSH1 0x20 SWAP1 DIV DUP2 ADD SWAP3 DUP3 PUSH2 0x1D7 JUMPI PUSH1 0x0 DUP6 SSTORE PUSH2 0x21E JUMP JUMPDEST DUP3 PUSH1 0x1F LT PUSH2 0x1F0 JUMPI DUP1 MLOAD PUSH1 0xFF NOT AND DUP4 DUP1 ADD OR DUP6 SSTORE PUSH2 0x21E JUMP JUMPDEST DUP3 DUP1 ADD PUSH1 0x1 ADD DUP6 SSTORE DUP3 ISZERO PUSH2 0x21E JUMPI SWAP2 DUP3 ADD JUMPDEST DUP3 DUP2 GT ISZERO PUSH2 0x21D JUMPI DUP3 MLOAD DUP3 SSTORE SWAP2 PUSH1 0x20 ADD SWAP2 SWAP1 PUSH1 0x1 ADD SWAP1 PUSH2 0x202 JUMP JUMPDEST JUMPDEST POP SWAP1 POP PUSH2 0x22B SWAP2 SWAP1 PUSH2 0x22F JUMP JUMPDEST POP SWAP1 JUMP JUMPDEST JUMPDEST DUP1 DUP3 GT ISZERO PUSH2 0x248 JUMPI PUSH1 0x0 DUP2 PUSH1 0x0 SWAP1 SSTORE POP PUSH1 0x1 ADD PUSH2 0x230 JUMP JUMPDEST POP SWAP1 JUMP JUMPDEST PUSH1 0x0 PUSH2 0x259 PUSH1 0x4 DUP4 PUSH2 0x2B2 JUMP JUMPDEST SWAP2 POP PUSH2 0x264 DUP3 PUSH2 0x31E JUMP JUMPDEST PUSH1 0x4 DUP3 ADD SWAP1 POP SWAP2 SWAP1 POP JUMP JUMPDEST PUSH1 0x0 PUSH2 0x27C PUSH1 0x4 DUP4 PUSH2 0x2B2 JUMP JUMPDEST SWAP2 POP PUSH2 0x287 DUP3 PUSH2 0x347 JUMP JUMPDEST PUSH1 0x4 DUP3 ADD SWAP1 POP SWAP2 SWAP1 POP JUMP JUMPDEST PUSH1 0x0 PUSH2 0x29D DUP3 PUSH2 0x24C JUMP JUMPDEST SWAP2 POP PUSH2 0x2A8 DUP3 PUSH2 0x26F JUMP JUMPDEST SWAP2 POP DUP2 SWAP1 POP SWAP2 SWAP1 POP JUMP JUMPDEST PUSH1 0x0 DUP2 SWAP1 POP SWAP3 SWAP2 POP POP JUMP JUMPDEST PUSH1 0x0 PUSH1 0x2 DUP3 DIV SWAP1 POP PUSH1 0x1 DUP3 AND DUP1 PUSH2 0x2D5 JUMPI PUSH1 0x7F DUP3 AND SWAP2 POP JUMPDEST PUSH1 0x20 DUP3 LT DUP2 EQ ISZERO PUSH2 0x2E9 JUMPI PUSH2 0x2E8 PUSH2 0x2EF JUMP JUMPDEST JUMPDEST POP SWAP2 SWAP1 POP JUMP JUMPDEST PUSH32 0x4E487B7100000000000000000000000000000000000000000000000000000000 PUSH1 0x0 MSTORE PUSH1 0x22 PUSH1 0x4 MSTORE PUSH1 0x24 PUSH1 0x0 REVERT JUMPDEST PUSH32 0x486F6C6100000000000000000000000000000000000000000000000000000000 PUSH1 0x0 DUP3 ADD MSTORE POP JUMP JUMPDEST PUSH32 0x4A6F616E00000000000000000000000000000000000000000000000000000000 PUSH1 0x0 DUP3 ADD MSTORE POP JUMP JUMPDEST PUSH2 0x542 DUP1 PUSH2 0x37F PUSH1 0x0 CODECOPY PUSH1 0x0 RETURN INVALID PUSH1 0x80 PUSH1 0x40 MSTORE CALLVALUE DUP1 ISZERO PUSH2 0x10 JUMPI PUSH1 0x0 DUP1 REVERT JUMPDEST POP PUSH1 0x4 CALLDATASIZE LT PUSH2 0x7D JUMPI PUSH1 0x0 CALLDATALOAD PUSH1 0xE0 SHR DUP1 PUSH4 0xB83D07B7 GT PUSH2 0x5B JUMPI DUP1 PUSH4 0xB83D07B7 EQ PUSH2 0xDC JUMPI DUP1 PUSH4 0xCD97D84E EQ PUSH2 0xFA JUMPI DUP1 PUSH4 0xEA362B44 EQ PUSH2 0x118 JUMPI DUP1 PUSH4 0xEBBB4BEC EQ PUSH2 0x136 JUMPI PUSH2 0x7D JUMP JUMPDEST DUP1 PUSH4 0x312EEF29 EQ PUSH2 0x82 JUMPI DUP1 PUSH4 0x4DF7E3D0 EQ PUSH2 0xA0 JUMPI DUP1 PUSH4 0x8A054AC2 EQ PUSH2 0xBE JUMPI JUMPDEST PUSH1 0x0 DUP1 REVERT JUMPDEST PUSH2 0x8A PUSH2 0x154 JUMP JUMPDEST PUSH1 0x40 MLOAD PUSH2 0x97 SWAP2 SWAP1 PUSH2 0x346 JUMP JUMPDEST PUSH1 0x40 MLOAD DUP1 SWAP2 SUB SWAP1 RETURN JUMPDEST PUSH2 0xA8 PUSH2 0x167 JUMP JUMPDEST PUSH1 0x40 MLOAD PUSH2 0xB5 SWAP2 SWAP1 PUSH2 0x3D4 JUMP JUMPDEST PUSH1 0x40 MLOAD DUP1 SWAP2 SUB SWAP1 RETURN JUMPDEST PUSH2 0xC6 PUSH2 0x17A JUMP JUMPDEST PUSH1 0x40 MLOAD PUSH2 0xD3 SWAP2 SWAP1 PUSH2 0x397 JUMP JUMPDEST PUSH1 0x40 MLOAD DUP1 SWAP2 SUB SWAP1 RETURN JUMPDEST PUSH2 0xE4 PUSH2 0x18D JUMP JUMPDEST PUSH1 0x40 MLOAD PUSH2 0xF1 SWAP2 SWAP1 PUSH2 0x3B2 JUMP JUMPDEST PUSH1 0x40 MLOAD DUP1 SWAP2 SUB SWAP1 RETURN JUMPDEST PUSH2 0x102 PUSH2 0x21B JUMP JUMPDEST PUSH1 0x40 MLOAD PUSH2 0x10F SWAP2 SWAP1 PUSH2 0x361 JUMP JUMPDEST PUSH1 0x40 MLOAD DUP1 SWAP2 SUB SWAP1 RETURN JUMPDEST PUSH2 0x120 PUSH2 0x221 JUMP JUMPDEST PUSH1 0x40 MLOAD PUSH2 0x12D SWAP2 SWAP1 PUSH2 0x37C JUMP JUMPDEST PUSH1 0x40 MLOAD DUP1 SWAP2 SUB SWAP1 RETURN JUMPDEST PUSH2 0x13E PUSH2 0x234 JUMP JUMPDEST PUSH1 0x40 MLOAD PUSH2 0x14B SWAP2 SWAP1 PUSH2 0x3B2 JUMP JUMPDEST PUSH1 0x40 MLOAD DUP1 SWAP2 SUB SWAP1 RETURN JUMPDEST PUSH1 0x8 PUSH1 0x1 SWAP1 SLOAD SWAP1 PUSH2 0x100 EXP SWAP1 DIV PUSH1 0xFF AND DUP2 JUMP JUMPDEST PUSH1 0x1 PUSH1 0x0 SWAP1 SLOAD SWAP1 PUSH2 0x100 EXP SWAP1 DIV PUSH1 0xFF AND DUP2 JUMP JUMPDEST PUSH1 0x3 PUSH1 0x0 SWAP1 SLOAD SWAP1 PUSH2 0x100 EXP SWAP1 DIV PUSH1 0x0 SIGNEXTEND DUP2 JUMP JUMPDEST PUSH1 0x6 DUP1 SLOAD PUSH2 0x19A SWAP1 PUSH2 0x49A JUMP JUMPDEST DUP1 PUSH1 0x1F ADD PUSH1 0x20 DUP1 SWAP2 DIV MUL PUSH1 0x20 ADD PUSH1 0x40 MLOAD SWAP1 DUP2 ADD PUSH1 0x40 MSTORE DUP1 SWAP3 SWAP2 SWAP1 DUP2 DUP2 MSTORE PUSH1 0x20 ADD DUP3 DUP1 SLOAD PUSH2 0x1C6 SWAP1 PUSH2 0x49A JUMP JUMPDEST DUP1 ISZERO PUSH2 0x213 JUMPI DUP1 PUSH1 0x1F LT PUSH2 0x1E8 JUMPI PUSH2 0x100 DUP1 DUP4 SLOAD DIV MUL DUP4 MSTORE SWAP2 PUSH1 0x20 ADD SWAP2 PUSH2 0x213 JUMP JUMPDEST DUP3 ADD SWAP2 SWAP1 PUSH1 0x0 MSTORE PUSH1 0x20 PUSH1 0x0 KECCAK256 SWAP1 JUMPDEST DUP2 SLOAD DUP2 MSTORE SWAP1 PUSH1 0x1 ADD SWAP1 PUSH1 0x20 ADD DUP1 DUP4 GT PUSH2 0x1F6 JUMPI DUP3 SWAP1 SUB PUSH1 0x1F AND DUP3 ADD SWAP2 JUMPDEST POP POP POP POP POP DUP2 JUMP JUMPDEST PUSH1 0xB SLOAD DUP2 JUMP JUMPDEST PUSH1 0xA PUSH1 0x0 SWAP1 SLOAD SWAP1 PUSH2 0x100 EXP SWAP1 DIV PUSH1 0xE0 SHL DUP2 JUMP JUMPDEST PUSH1 0x7 DUP1 SLOAD PUSH2 0x241 SWAP1 PUSH2 0x49A JUMP JUMPDEST DUP1 PUSH1 0x1F ADD PUSH1 0x20 DUP1 SWAP2 DIV MUL PUSH1 0x20 ADD PUSH1 0x40 MLOAD SWAP1 DUP2 ADD PUSH1 0x40 MSTORE DUP1 SWAP3 SWAP2 SWAP1 DUP2 DUP2 MSTORE PUSH1 0x20 ADD DUP3 DUP1 SLOAD PUSH2 0x26D SWAP1 PUSH2 0x49A JUMP JUMPDEST DUP1 ISZERO PUSH2 0x2BA JUMPI DUP1 PUSH1 0x1F LT PUSH2 0x28F JUMPI PUSH2 0x100 DUP1 DUP4 SLOAD DIV MUL DUP4 MSTORE SWAP2 PUSH1 0x20 ADD SWAP2 PUSH2 0x2BA JUMP JUMPDEST DUP3 ADD SWAP2 SWAP1 PUSH1 0x0 MSTORE PUSH1 0x20 PUSH1 0x0 KECCAK256 SWAP1 JUMPDEST DUP2 SLOAD DUP2 MSTORE SWAP1 PUSH1 0x1 ADD SWAP1 PUSH1 0x20 ADD DUP1 DUP4 GT PUSH2 0x29D JUMPI DUP3 SWAP1 SUB PUSH1 0x1F AND DUP3 ADD SWAP2 JUMPDEST POP POP POP POP POP DUP2 JUMP JUMPDEST PUSH2 0x2CB DUP2 PUSH2 0x40B JUMP JUMPDEST DUP3 MSTORE POP POP JUMP JUMPDEST PUSH2 0x2DA DUP2 PUSH2 0x417 JUMP JUMPDEST DUP3 MSTORE POP POP JUMP JUMPDEST PUSH2 0x2E9 DUP2 PUSH2 0x421 JUMP JUMPDEST DUP3 MSTORE POP POP JUMP JUMPDEST PUSH2 0x2F8 DUP2 PUSH2 0x44D JUMP JUMPDEST DUP3 MSTORE POP POP JUMP JUMPDEST PUSH1 0x0 PUSH2 0x309 DUP3 PUSH2 0x3EF JUMP JUMPDEST PUSH2 0x313 DUP2 DUP6 PUSH2 0x3FA JUMP JUMPDEST SWAP4 POP PUSH2 0x323 DUP2 DUP6 PUSH1 0x20 DUP7 ADD PUSH2 0x467 JUMP JUMPDEST PUSH2 0x32C DUP2 PUSH2 0x4FB JUMP JUMPDEST DUP5 ADD SWAP2 POP POP SWAP3 SWAP2 POP POP JUMP JUMPDEST PUSH2 0x340 DUP2 PUSH2 0x45A JUMP JUMPDEST DUP3 MSTORE POP POP JUMP JUMPDEST PUSH1 0x0 PUSH1 0x20 DUP3 ADD SWAP1 POP PUSH2 0x35B PUSH1 0x0 DUP4 ADD DUP5 PUSH2 0x2C2 JUMP JUMPDEST SWAP3 SWAP2 POP POP JUMP JUMPDEST PUSH1 0x0 PUSH1 0x20 DUP3 ADD SWAP1 POP PUSH2 0x376 PUSH1 0x0 DUP4 ADD DUP5 PUSH2 0x2D1 JUMP JUMPDEST SWAP3 SWAP2 POP POP JUMP JUMPDEST PUSH1 0x0 PUSH1 0x20 DUP3 ADD SWAP1 POP PUSH2 0x391 PUSH1 0x0 DUP4 ADD DUP5 PUSH2 0x2E0 JUMP JUMPDEST SWAP3 SWAP2 POP POP JUMP JUMPDEST PUSH1 0x0 PUSH1 0x20 DUP3 ADD SWAP1 POP PUSH2 0x3AC PUSH1 0x0 DUP4 ADD DUP5 PUSH2 0x2EF JUMP JUMPDEST SWAP3 SWAP2 POP POP JUMP JUMPDEST PUSH1 0x0 PUSH1 0x20 DUP3 ADD SWAP1 POP DUP2 DUP2 SUB PUSH1 0x0 DUP4 ADD MSTORE PUSH2 0x3CC DUP2 DUP5 PUSH2 0x2FE JUMP JUMPDEST SWAP1 POP SWAP3 SWAP2 POP POP JUMP JUMPDEST PUSH1 0x0 PUSH1 0x20 DUP3 ADD SWAP1 POP PUSH2 0x3E9 PUSH1 0x0 DUP4 ADD DUP5 PUSH2 0x337 JUMP JUMPDEST SWAP3 SWAP2 POP POP JUMP JUMPDEST PUSH1 0x0 DUP2 MLOAD SWAP1 POP SWAP2 SWAP1 POP JUMP JUMPDEST PUSH1 0x0 DUP3 DUP3 MSTORE PUSH1 0x20 DUP3 ADD SWAP1 POP SWAP3 SWAP2 POP POP JUMP JUMPDEST PUSH1 0x0 DUP2 ISZERO ISZERO SWAP1 POP SWAP2 SWAP1 POP JUMP JUMPDEST PUSH1 0x0 DUP2 SWAP1 POP SWAP2 SWAP1 POP JUMP JUMPDEST PUSH1 0x0 PUSH32 0xFFFFFFFF00000000000000000000000000000000000000000000000000000000 DUP3 AND SWAP1 POP SWAP2 SWAP1 POP JUMP JUMPDEST PUSH1 0x0 DUP2 PUSH1 0x0 SIGNEXTEND SWAP1 POP SWAP2 SWAP1 POP JUMP JUMPDEST PUSH1 0x0 PUSH1 0xFF DUP3 AND SWAP1 POP SWAP2 SWAP1 POP JUMP JUMPDEST PUSH1 0x0 JUMPDEST DUP4 DUP2 LT ISZERO PUSH2 0x485 JUMPI DUP1 DUP3 ADD MLOAD DUP2 DUP5 ADD MSTORE PUSH1 0x20 DUP2 ADD SWAP1 POP PUSH2 0x46A JUMP JUMPDEST DUP4 DUP2 GT ISZERO PUSH2 0x494 JUMPI PUSH1 0x0 DUP5 DUP5 ADD MSTORE JUMPDEST POP POP POP POP JUMP JUMPDEST PUSH1 0x0 PUSH1 0x2 DUP3 DIV SWAP1 POP PUSH1 0x1 DUP3 AND DUP1 PUSH2 0x4B2 JUMPI PUSH1 0x7F DUP3 AND SWAP2 POP JUMPDEST PUSH1 0x20 DUP3 LT DUP2 EQ ISZERO PUSH2 0x4C6 JUMPI PUSH2 0x4C5 PUSH2 0x4CC JUMP JUMPDEST JUMPDEST POP SWAP2 SWAP1 POP JUMP JUMPDEST PUSH32 0x4E487B7100000000000000000000000000000000000000000000000000000000 PUSH1 0x0 MSTORE PUSH1 0x22 PUSH1 0x4 MSTORE PUSH1 0x24 PUSH1 0x0 REVERT JUMPDEST PUSH1 0x0 PUSH1 0x1F NOT PUSH1 0x1F DUP4 ADD AND SWAP1 POP SWAP2 SWAP1 POP JUMP INVALID LOG2 PUSH5 0x6970667358 0x22 SLT KECCAK256 CALLER 0xE3 SAR PUSH13 0x36B8DC7AC669557AACBB81FE2C PUSH29 0x4396D8165E027AAC51DD200D3EA764736F6C6343000804003300000000 "
				},
				"gasEstimates": {
					"creation": {
						"codeDepositCost": "269200",
						"executionCost": "infinite",
						"totalCost": "infinite"
					},
					"external": {
						"b()": "1194",
						"boolean_true()": "1222",
						"d()": "1220",
						"hashing()": "1151",
						"second_byte()": "1215",
						"str_privado()": "infinite",
						"str_public()": "infinite"
					}
				},
				"methodIdentifiers": {
					"b()": "4df7e3d0",
					"boolean_true()": "312eef29",
					"d()": "8a054ac2",
					"hashing()": "cd97d84e",
					"second_byte()": "ea362b44",
					"str_privado()": "ebbb4bec",
					"str_public()": "b83d07b7"
				}
			},
			"storageLayout": {
				"storage": [
					{
						"astId": 3,
						"contract": "contracts/2_variables_modifiers.sol:variables_modifiers",
						"label": "a",
						"offset": 0,
						"slot": "0",
						"type": "t_uint256"
					},
					{
						"astId": 6,
						"contract": "contracts/2_variables_modifiers.sol:variables_modifiers",
						"label": "b",
						"offset": 0,
						"slot": "1",
						"type": "t_uint8"
					},
					{
						"astId": 8,
						"contract": "contracts/2_variables_modifiers.sol:variables_modifiers",
						"label": "c",
						"offset": 0,
						"slot": "2",
						"type": "t_int256"
					},
					{
						"astId": 12,
						"contract": "contracts/2_variables_modifiers.sol:variables_modifiers",
						"label": "d",
						"offset": 0,
						"slot": "3",
						"type": "t_int8"
					},
					{
						"astId": 15,
						"contract": "contracts/2_variables_modifiers.sol:variables_modifiers",
						"label": "e",
						"offset": 0,
						"slot": "4",
						"type": "t_int256"
					},
					{
						"astId": 17,
						"contract": "contracts/2_variables_modifiers.sol:variables_modifiers",
						"label": "str",
						"offset": 0,
						"slot": "5",
						"type": "t_string_storage"
					},
					{
						"astId": 20,
						"contract": "contracts/2_variables_modifiers.sol:variables_modifiers",
						"label": "str_public",
						"offset": 0,
						"slot": "6",
						"type": "t_string_storage"
					},
					{
						"astId": 23,
						"contract": "contracts/2_variables_modifiers.sol:variables_modifiers",
						"label": "str_privado",
						"offset": 0,
						"slot": "7",
						"type": "t_string_storage"
					},
					{
						"astId": 25,
						"contract": "contracts/2_variables_modifiers.sol:variables_modifiers",
						"label": "boolean",
						"offset": 0,
						"slot": "8",
						"type": "t_bool"
					},
					{
						"astId": 28,
						"contract": "contracts/2_variables_modifiers.sol:variables_modifiers",
						"label": "boolean_true",
						"offset": 1,
						"slot": "8",
						"type": "t_bool"
					},
					{
						"astId": 31,
						"contract": "contracts/2_variables_modifiers.sol:variables_modifiers",
						"label": "boolead_false",
						"offset": 2,
						"slot": "8",
						"type": "t_bool"
					},
					{
						"astId": 33,
						"contract": "contracts/2_variables_modifiers.sol:variables_modifiers",
						"label": "first_bytes",
						"offset": 0,
						"slot": "9",
						"type": "t_bytes32"
					},
					{
						"astId": 36,
						"contract": "contracts/2_variables_modifiers.sol:variables_modifiers",
						"label": "second_byte",
						"offset": 0,
						"slot": "10",
						"type": "t_bytes4"
					},
					{
						"astId": 45,
						"contract": "contracts/2_variables_modifiers.sol:variables_modifiers",
						"label": "hashing",
						"offset": 0,
						"slot": "11",
						"type": "t_bytes32"
					}
				],
				"types": {
					"t_bool": {
						"encoding": "inplace",
						"label": "bool",
						"numberOfBytes": "1"
					},
					"t_bytes32": {
						"encoding": "inplace",
						"label": "bytes32",
						"numberOfBytes": "32"
					},
					"t_bytes4": {
						"encoding": "inplace",
						"label": "bytes4",
						"numberOfBytes": "4"
					},
					"t_int256": {
						"encoding": "inplace",
						"label": "int256",
						"numberOfBytes": "32"
					},
					"t_int8": {
						"encoding": "inplace",
						"label": "int8",
						"numberOfBytes": "1"
					},
					"t_string_storage": {
						"encoding": "bytes",
						"label": "string",
						"numberOfBytes": "32"
					},
					"t_uint256": {
						"encoding": "inplace",
						"label": "uint256",
						"numberOfBytes": "32"
					},
					"t_uint8": {
						"encoding": "inplace",
						"label": "uint8",
						"numberOfBytes": "1"
					}
				}
			},
			"userdoc": {
				"kind": "user",
				"methods": {},
				"version": 1
			}
		}
	}
}