{
	"contracts/2_variables_modifiers.sol": {
		"variables_modifiers": {
			"abi": [
				{
					"inputs": [],
					"name": "b",
					"outputs": [
						{
							"internalType": "uint8",
							"name": "",
							"type": "uint8"
						}
					],
					"stateMutability": "view",
					"type": "function"
				},
				{
					"inputs": [],
					"name": "boolean_true",
					"outputs": [
						{
							"internalType": "bool",
							"name": "",
							"type": "bool"
						}
					],
					"stateMutability": "view",
					"type": "function"
				},
				{
					"inputs": [],
					"name": "d",
					"outputs": [
						{
							"internalType": "int8",
							"name": "",
							"type": "int8"
						}
					],
					"stateMutability": "view",
					"type": "function"
				},
				{
					"inputs": [],
					"name": "str_privado",
					"outputs": [
						{
							"internalType": "string",
							"name": "",
							"type": "string"
						}
					],
					"stateMutability": "view",
					"type": "function"
				},
				{
					"inputs": [],
					"name": "str_public",
					"outputs": [
						{
							"internalType": "string",
							"name": "",
							"type": "string"
						}
					],
					"stateMutability": "view",
					"type": "function"
				}
			],
			"devdoc": {
				"kind": "dev",
				"methods": {},
				"version": 1
			},
			"evm": {
				"assembly": "    /* \"contracts/2_variables_modifiers.sol\":66:538  contract variables_modifiers{\r... */\n  mstore(0x40, 0x80)\n    /* \"contracts/2_variables_modifiers.sol\":175:176  3 */\n  0x03\n    /* \"contracts/2_variables_modifiers.sol\":160:176  uint8 public b=3 */\n  0x01\n  exp(0x0100, 0x00)\n  dup2\n  sload\n  dup2\n  0xff\n  mul\n  not\n  and\n  swap1\n  dup4\n  0xff\n  and\n  mul\n  or\n  swap1\n  sstore\n  pop\n    /* \"contracts/2_variables_modifiers.sol\":241:244  -10 */\n  0xfffffffffffffffffffffffffffffffffffffffffffffffffffffffffffffff6\n    /* \"contracts/2_variables_modifiers.sol\":225:244  int8 public d = -10 */\n  0x03\n  exp(0x0100, 0x00)\n  dup2\n  sload\n  dup2\n  0xff\n  mul\n  not\n  and\n  swap1\n  dup4\n  0x00\n  signextend\n  0xff\n  and\n  mul\n  or\n  swap1\n  sstore\n  pop\n    /* \"contracts/2_variables_modifiers.sol\":259:261  65 */\n  0x41\n    /* \"contracts/2_variables_modifiers.sol\":251:261  int e = 65 */\n  0x04\n  sstore\n    /* \"contracts/2_variables_modifiers.sol\":311:355  string public str_public = \"Esto es publico\" */\n  mload(0x40)\n  dup1\n  0x40\n  add\n  0x40\n  mstore\n  dup1\n  0x0f\n  dup2\n  mstore\n  0x20\n  add\n  0x4573746f206573207075626c69636f0000000000000000000000000000000000\n  dup2\n  mstore\n  pop\n  0x06\n  swap1\n  dup1\n  mload\n  swap1\n  0x20\n  add\n  swap1\n  tag_1\n  swap3\n  swap2\n  swap1\n  tag_2\n  jump\t// in\ntag_1:\n  pop\n    /* \"contracts/2_variables_modifiers.sol\":362:407  string public str_privado = \"Esto es privado\" */\n  mload(0x40)\n  dup1\n  0x40\n  add\n  0x40\n  mstore\n  dup1\n  0x0f\n  dup2\n  mstore\n  0x20\n  add\n  0x4573746f206573207072697661646f0000000000000000000000000000000000\n  dup2\n  mstore\n  pop\n  0x07\n  swap1\n  dup1\n  mload\n  swap1\n  0x20\n  add\n  swap1\n  tag_3\n  swap3\n  swap2\n  swap1\n  tag_2\n  jump\t// in\ntag_3:\n  pop\n    /* \"contracts/2_variables_modifiers.sol\":487:491  true */\n  0x01\n    /* \"contracts/2_variables_modifiers.sol\":460:491  bool public boolean_true = true */\n  0x08\n  exp(0x0100, 0x01)\n  dup2\n  sload\n  dup2\n  0xff\n  mul\n  not\n  and\n  swap1\n  dup4\n  iszero\n  iszero\n  mul\n  or\n  swap1\n  sstore\n  pop\n    /* \"contracts/2_variables_modifiers.sol\":527:532  false */\n  0x00\n    /* \"contracts/2_variables_modifiers.sol\":498:532  bool private boolead_false = false */\n  0x08\n  exp(0x0100, 0x02)\n  dup2\n  sload\n  dup2\n  0xff\n  mul\n  not\n  and\n  swap1\n  dup4\n  iszero\n  iszero\n  mul\n  or\n  swap1\n  sstore\n  pop\n    /* \"contracts/2_variables_modifiers.sol\":66:538  contract variables_modifiers{\r... */\n  callvalue\n  dup1\n  iszero\n  tag_4\n  jumpi\n  0x00\n  dup1\n  revert\ntag_4:\n  pop\n  jump(tag_5)\ntag_2:\n  dup3\n  dup1\n  sload\n  tag_6\n  swap1\n  tag_7\n  jump\t// in\ntag_6:\n  swap1\n  0x00\n  mstore\n  keccak256(0x00, 0x20)\n  swap1\n  0x1f\n  add\n  0x20\n  swap1\n  div\n  dup2\n  add\n  swap3\n  dup3\n  tag_9\n  jumpi\n  0x00\n  dup6\n  sstore\n  jump(tag_8)\ntag_9:\n  dup3\n  0x1f\n  lt\n  tag_10\n  jumpi\n  dup1\n  mload\n  not(0xff)\n  and\n  dup4\n  dup1\n  add\n  or\n  dup6\n  sstore\n  jump(tag_8)\ntag_10:\n  dup3\n  dup1\n  add\n  0x01\n  add\n  dup6\n  sstore\n  dup3\n  iszero\n  tag_8\n  jumpi\n  swap2\n  dup3\n  add\ntag_11:\n  dup3\n  dup2\n  gt\n  iszero\n  tag_12\n  jumpi\n  dup3\n  mload\n  dup3\n  sstore\n  swap2\n  0x20\n  add\n  swap2\n  swap1\n  0x01\n  add\n  swap1\n  jump(tag_11)\ntag_12:\ntag_8:\n  pop\n  swap1\n  pop\n  tag_13\n  swap2\n  swap1\n  tag_14\n  jump\t// in\ntag_13:\n  pop\n  swap1\n  jump\t// out\ntag_14:\ntag_15:\n  dup1\n  dup3\n  gt\n  iszero\n  tag_16\n  jumpi\n  0x00\n  dup2\n  0x00\n  swap1\n  sstore\n  pop\n  0x01\n  add\n  jump(tag_15)\ntag_16:\n  pop\n  swap1\n  jump\t// out\n    /* \"#utility.yul\":7:327   */\ntag_7:\n    /* \"#utility.yul\":51:57   */\n  0x00\n    /* \"#utility.yul\":88:89   */\n  0x02\n    /* \"#utility.yul\":82:86   */\n  dup3\n    /* \"#utility.yul\":78:90   */\n  div\n    /* \"#utility.yul\":68:90   */\n  swap1\n  pop\n    /* \"#utility.yul\":135:136   */\n  0x01\n    /* \"#utility.yul\":129:133   */\n  dup3\n    /* \"#utility.yul\":125:137   */\n  and\n    /* \"#utility.yul\":156:174   */\n  dup1\n    /* \"#utility.yul\":146:148   */\n  tag_19\n  jumpi\n    /* \"#utility.yul\":212:216   */\n  0x7f\n    /* \"#utility.yul\":204:210   */\n  dup3\n    /* \"#utility.yul\":200:217   */\n  and\n    /* \"#utility.yul\":190:217   */\n  swap2\n  pop\n    /* \"#utility.yul\":146:148   */\ntag_19:\n    /* \"#utility.yul\":274:276   */\n  0x20\n    /* \"#utility.yul\":266:272   */\n  dup3\n    /* \"#utility.yul\":263:277   */\n  lt\n    /* \"#utility.yul\":243:261   */\n  dup2\n    /* \"#utility.yul\":240:278   */\n  eq\n    /* \"#utility.yul\":237:239   */\n  iszero\n  tag_20\n  jumpi\n    /* \"#utility.yul\":293:311   */\n  tag_21\n  tag_22\n  jump\t// in\ntag_21:\n    /* \"#utility.yul\":237:239   */\ntag_20:\n    /* \"#utility.yul\":58:327   */\n  pop\n  swap2\n  swap1\n  pop\n  jump\t// out\n    /* \"#utility.yul\":333:513   */\ntag_22:\n    /* \"#utility.yul\":381:458   */\n  0x4e487b7100000000000000000000000000000000000000000000000000000000\n    /* \"#utility.yul\":378:379   */\n  0x00\n    /* \"#utility.yul\":371:459   */\n  mstore\n    /* \"#utility.yul\":478:482   */\n  0x22\n    /* \"#utility.yul\":475:476   */\n  0x04\n    /* \"#utility.yul\":468:483   */\n  mstore\n    /* \"#utility.yul\":502:506   */\n  0x24\n    /* \"#utility.yul\":499:500   */\n  0x00\n    /* \"#utility.yul\":492:507   */\n  revert\n    /* \"contracts/2_variables_modifiers.sol\":66:538  contract variables_modifiers{\r... */\ntag_5:\n  dataSize(sub_0)\n  dup1\n  dataOffset(sub_0)\n  0x00\n  codecopy\n  0x00\n  return\nstop\n\nsub_0: assembly {\n        /* \"contracts/2_variables_modifiers.sol\":66:538  contract variables_modifiers{\r... */\n      mstore(0x40, 0x80)\n      callvalue\n      dup1\n      iszero\n      tag_1\n      jumpi\n      0x00\n      dup1\n      revert\n    tag_1:\n      pop\n      jumpi(tag_2, lt(calldatasize, 0x04))\n      shr(0xe0, calldataload(0x00))\n      dup1\n      0x312eef29\n      eq\n      tag_3\n      jumpi\n      dup1\n      0x4df7e3d0\n      eq\n      tag_4\n      jumpi\n      dup1\n      0x8a054ac2\n      eq\n      tag_5\n      jumpi\n      dup1\n      0xb83d07b7\n      eq\n      tag_6\n      jumpi\n      dup1\n      0xebbb4bec\n      eq\n      tag_7\n      jumpi\n    tag_2:\n      0x00\n      dup1\n      revert\n        /* \"contracts/2_variables_modifiers.sol\":460:491  bool public boolean_true = true */\n    tag_3:\n      tag_8\n      tag_9\n      jump\t// in\n    tag_8:\n      mload(0x40)\n      tag_10\n      swap2\n      swap1\n      tag_11\n      jump\t// in\n    tag_10:\n      mload(0x40)\n      dup1\n      swap2\n      sub\n      swap1\n      return\n        /* \"contracts/2_variables_modifiers.sol\":160:176  uint8 public b=3 */\n    tag_4:\n      tag_12\n      tag_13\n      jump\t// in\n    tag_12:\n      mload(0x40)\n      tag_14\n      swap2\n      swap1\n      tag_15\n      jump\t// in\n    tag_14:\n      mload(0x40)\n      dup1\n      swap2\n      sub\n      swap1\n      return\n        /* \"contracts/2_variables_modifiers.sol\":225:244  int8 public d = -10 */\n    tag_5:\n      tag_16\n      tag_17\n      jump\t// in\n    tag_16:\n      mload(0x40)\n      tag_18\n      swap2\n      swap1\n      tag_19\n      jump\t// in\n    tag_18:\n      mload(0x40)\n      dup1\n      swap2\n      sub\n      swap1\n      return\n        /* \"contracts/2_variables_modifiers.sol\":311:355  string public str_public = \"Esto es publico\" */\n    tag_6:\n      tag_20\n      tag_21\n      jump\t// in\n    tag_20:\n      mload(0x40)\n      tag_22\n      swap2\n      swap1\n      tag_23\n      jump\t// in\n    tag_22:\n      mload(0x40)\n      dup1\n      swap2\n      sub\n      swap1\n      return\n        /* \"contracts/2_variables_modifiers.sol\":362:407  string public str_privado = \"Esto es privado\" */\n    tag_7:\n      tag_24\n      tag_25\n      jump\t// in\n    tag_24:\n      mload(0x40)\n      tag_26\n      swap2\n      swap1\n      tag_23\n      jump\t// in\n    tag_26:\n      mload(0x40)\n      dup1\n      swap2\n      sub\n      swap1\n      return\n        /* \"contracts/2_variables_modifiers.sol\":460:491  bool public boolean_true = true */\n    tag_9:\n      0x08\n      0x01\n      swap1\n      sload\n      swap1\n      0x0100\n      exp\n      swap1\n      div\n      0xff\n      and\n      dup2\n      jump\t// out\n        /* \"contracts/2_variables_modifiers.sol\":160:176  uint8 public b=3 */\n    tag_13:\n      0x01\n      0x00\n      swap1\n      sload\n      swap1\n      0x0100\n      exp\n      swap1\n      div\n      0xff\n      and\n      dup2\n      jump\t// out\n        /* \"contracts/2_variables_modifiers.sol\":225:244  int8 public d = -10 */\n    tag_17:\n      0x03\n      0x00\n      swap1\n      sload\n      swap1\n      0x0100\n      exp\n      swap1\n      div\n      0x00\n      signextend\n      dup2\n      jump\t// out\n        /* \"contracts/2_variables_modifiers.sol\":311:355  string public str_public = \"Esto es publico\" */\n    tag_21:\n      0x06\n      dup1\n      sload\n      tag_27\n      swap1\n      tag_28\n      jump\t// in\n    tag_27:\n      dup1\n      0x1f\n      add\n      0x20\n      dup1\n      swap2\n      div\n      mul\n      0x20\n      add\n      mload(0x40)\n      swap1\n      dup2\n      add\n      0x40\n      mstore\n      dup1\n      swap3\n      swap2\n      swap1\n      dup2\n      dup2\n      mstore\n      0x20\n      add\n      dup3\n      dup1\n      sload\n      tag_29\n      swap1\n      tag_28\n      jump\t// in\n    tag_29:\n      dup1\n      iszero\n      tag_30\n      jumpi\n      dup1\n      0x1f\n      lt\n      tag_31\n      jumpi\n      0x0100\n      dup1\n      dup4\n      sload\n      div\n      mul\n      dup4\n      mstore\n      swap2\n      0x20\n      add\n      swap2\n      jump(tag_30)\n    tag_31:\n      dup3\n      add\n      swap2\n      swap1\n      0x00\n      mstore\n      keccak256(0x00, 0x20)\n      swap1\n    tag_32:\n      dup2\n      sload\n      dup2\n      mstore\n      swap1\n      0x01\n      add\n      swap1\n      0x20\n      add\n      dup1\n      dup4\n      gt\n      tag_32\n      jumpi\n      dup3\n      swap1\n      sub\n      0x1f\n      and\n      dup3\n      add\n      swap2\n    tag_30:\n      pop\n      pop\n      pop\n      pop\n      pop\n      dup2\n      jump\t// out\n        /* \"contracts/2_variables_modifiers.sol\":362:407  string public str_privado = \"Esto es privado\" */\n    tag_25:\n      0x07\n      dup1\n      sload\n      tag_33\n      swap1\n      tag_28\n      jump\t// in\n    tag_33:\n      dup1\n      0x1f\n      add\n      0x20\n      dup1\n      swap2\n      div\n      mul\n      0x20\n      add\n      mload(0x40)\n      swap1\n      dup2\n      add\n      0x40\n      mstore\n      dup1\n      swap3\n      swap2\n      swap1\n      dup2\n      dup2\n      mstore\n      0x20\n      add\n      dup3\n      dup1\n      sload\n      tag_34\n      swap1\n      tag_28\n      jump\t// in\n    tag_34:\n      dup1\n      iszero\n      tag_35\n      jumpi\n      dup1\n      0x1f\n      lt\n      tag_36\n      jumpi\n      0x0100\n      dup1\n      dup4\n      sload\n      div\n      mul\n      dup4\n      mstore\n      swap2\n      0x20\n      add\n      swap2\n      jump(tag_35)\n    tag_36:\n      dup3\n      add\n      swap2\n      swap1\n      0x00\n      mstore\n      keccak256(0x00, 0x20)\n      swap1\n    tag_37:\n      dup2\n      sload\n      dup2\n      mstore\n      swap1\n      0x01\n      add\n      swap1\n      0x20\n      add\n      dup1\n      dup4\n      gt\n      tag_37\n      jumpi\n      dup3\n      swap1\n      sub\n      0x1f\n      and\n      dup3\n      add\n      swap2\n    tag_35:\n      pop\n      pop\n      pop\n      pop\n      pop\n      dup2\n      jump\t// out\n        /* \"#utility.yul\":7:116   */\n    tag_39:\n        /* \"#utility.yul\":88:109   */\n      tag_41\n        /* \"#utility.yul\":103:108   */\n      dup2\n        /* \"#utility.yul\":88:109   */\n      tag_42\n      jump\t// in\n    tag_41:\n        /* \"#utility.yul\":83:86   */\n      dup3\n        /* \"#utility.yul\":76:110   */\n      mstore\n        /* \"#utility.yul\":66:116   */\n      pop\n      pop\n      jump\t// out\n        /* \"#utility.yul\":122:231   */\n    tag_43:\n        /* \"#utility.yul\":203:224   */\n      tag_45\n        /* \"#utility.yul\":218:223   */\n      dup2\n        /* \"#utility.yul\":203:224   */\n      tag_46\n      jump\t// in\n    tag_45:\n        /* \"#utility.yul\":198:201   */\n      dup3\n        /* \"#utility.yul\":191:225   */\n      mstore\n        /* \"#utility.yul\":181:231   */\n      pop\n      pop\n      jump\t// out\n        /* \"#utility.yul\":237:601   */\n    tag_47:\n        /* \"#utility.yul\":325:328   */\n      0x00\n        /* \"#utility.yul\":353:392   */\n      tag_49\n        /* \"#utility.yul\":386:391   */\n      dup3\n        /* \"#utility.yul\":353:392   */\n      tag_50\n      jump\t// in\n    tag_49:\n        /* \"#utility.yul\":408:479   */\n      tag_51\n        /* \"#utility.yul\":472:478   */\n      dup2\n        /* \"#utility.yul\":467:470   */\n      dup6\n        /* \"#utility.yul\":408:479   */\n      tag_52\n      jump\t// in\n    tag_51:\n        /* \"#utility.yul\":401:479   */\n      swap4\n      pop\n        /* \"#utility.yul\":488:540   */\n      tag_53\n        /* \"#utility.yul\":533:539   */\n      dup2\n        /* \"#utility.yul\":528:531   */\n      dup6\n        /* \"#utility.yul\":521:525   */\n      0x20\n        /* \"#utility.yul\":514:519   */\n      dup7\n        /* \"#utility.yul\":510:526   */\n      add\n        /* \"#utility.yul\":488:540   */\n      tag_54\n      jump\t// in\n    tag_53:\n        /* \"#utility.yul\":565:594   */\n      tag_55\n        /* \"#utility.yul\":587:593   */\n      dup2\n        /* \"#utility.yul\":565:594   */\n      tag_56\n      jump\t// in\n    tag_55:\n        /* \"#utility.yul\":560:563   */\n      dup5\n        /* \"#utility.yul\":556:595   */\n      add\n        /* \"#utility.yul\":549:595   */\n      swap2\n      pop\n        /* \"#utility.yul\":329:601   */\n      pop\n      swap3\n      swap2\n      pop\n      pop\n      jump\t// out\n        /* \"#utility.yul\":607:719   */\n    tag_57:\n        /* \"#utility.yul\":690:712   */\n      tag_59\n        /* \"#utility.yul\":706:711   */\n      dup2\n        /* \"#utility.yul\":690:712   */\n      tag_60\n      jump\t// in\n    tag_59:\n        /* \"#utility.yul\":685:688   */\n      dup3\n        /* \"#utility.yul\":678:713   */\n      mstore\n        /* \"#utility.yul\":668:719   */\n      pop\n      pop\n      jump\t// out\n        /* \"#utility.yul\":725:935   */\n    tag_11:\n        /* \"#utility.yul\":812:816   */\n      0x00\n        /* \"#utility.yul\":850:852   */\n      0x20\n        /* \"#utility.yul\":839:848   */\n      dup3\n        /* \"#utility.yul\":835:853   */\n      add\n        /* \"#utility.yul\":827:853   */\n      swap1\n      pop\n        /* \"#utility.yul\":863:928   */\n      tag_62\n        /* \"#utility.yul\":925:926   */\n      0x00\n        /* \"#utility.yul\":914:923   */\n      dup4\n        /* \"#utility.yul\":910:927   */\n      add\n        /* \"#utility.yul\":901:907   */\n      dup5\n        /* \"#utility.yul\":863:928   */\n      tag_39\n      jump\t// in\n    tag_62:\n        /* \"#utility.yul\":817:935   */\n      swap3\n      swap2\n      pop\n      pop\n      jump\t// out\n        /* \"#utility.yul\":941:1151   */\n    tag_19:\n        /* \"#utility.yul\":1028:1032   */\n      0x00\n        /* \"#utility.yul\":1066:1068   */\n      0x20\n        /* \"#utility.yul\":1055:1064   */\n      dup3\n        /* \"#utility.yul\":1051:1069   */\n      add\n        /* \"#utility.yul\":1043:1069   */\n      swap1\n      pop\n        /* \"#utility.yul\":1079:1144   */\n      tag_64\n        /* \"#utility.yul\":1141:1142   */\n      0x00\n        /* \"#utility.yul\":1130:1139   */\n      dup4\n        /* \"#utility.yul\":1126:1143   */\n      add\n        /* \"#utility.yul\":1117:1123   */\n      dup5\n        /* \"#utility.yul\":1079:1144   */\n      tag_43\n      jump\t// in\n    tag_64:\n        /* \"#utility.yul\":1033:1151   */\n      swap3\n      swap2\n      pop\n      pop\n      jump\t// out\n        /* \"#utility.yul\":1157:1470   */\n    tag_23:\n        /* \"#utility.yul\":1270:1274   */\n      0x00\n        /* \"#utility.yul\":1308:1310   */\n      0x20\n        /* \"#utility.yul\":1297:1306   */\n      dup3\n        /* \"#utility.yul\":1293:1311   */\n      add\n        /* \"#utility.yul\":1285:1311   */\n      swap1\n      pop\n        /* \"#utility.yul\":1357:1366   */\n      dup2\n        /* \"#utility.yul\":1351:1355   */\n      dup2\n        /* \"#utility.yul\":1347:1367   */\n      sub\n        /* \"#utility.yul\":1343:1344   */\n      0x00\n        /* \"#utility.yul\":1332:1341   */\n      dup4\n        /* \"#utility.yul\":1328:1345   */\n      add\n        /* \"#utility.yul\":1321:1368   */\n      mstore\n        /* \"#utility.yul\":1385:1463   */\n      tag_66\n        /* \"#utility.yul\":1458:1462   */\n      dup2\n        /* \"#utility.yul\":1449:1455   */\n      dup5\n        /* \"#utility.yul\":1385:1463   */\n      tag_47\n      jump\t// in\n    tag_66:\n        /* \"#utility.yul\":1377:1463   */\n      swap1\n      pop\n        /* \"#utility.yul\":1275:1470   */\n      swap3\n      swap2\n      pop\n      pop\n      jump\t// out\n        /* \"#utility.yul\":1476:1690   */\n    tag_15:\n        /* \"#utility.yul\":1565:1569   */\n      0x00\n        /* \"#utility.yul\":1603:1605   */\n      0x20\n        /* \"#utility.yul\":1592:1601   */\n      dup3\n        /* \"#utility.yul\":1588:1606   */\n      add\n        /* \"#utility.yul\":1580:1606   */\n      swap1\n      pop\n        /* \"#utility.yul\":1616:1683   */\n      tag_68\n        /* \"#utility.yul\":1680:1681   */\n      0x00\n        /* \"#utility.yul\":1669:1678   */\n      dup4\n        /* \"#utility.yul\":1665:1682   */\n      add\n        /* \"#utility.yul\":1656:1662   */\n      dup5\n        /* \"#utility.yul\":1616:1683   */\n      tag_57\n      jump\t// in\n    tag_68:\n        /* \"#utility.yul\":1570:1690   */\n      swap3\n      swap2\n      pop\n      pop\n      jump\t// out\n        /* \"#utility.yul\":1696:1795   */\n    tag_50:\n        /* \"#utility.yul\":1748:1754   */\n      0x00\n        /* \"#utility.yul\":1782:1787   */\n      dup2\n        /* \"#utility.yul\":1776:1788   */\n      mload\n        /* \"#utility.yul\":1766:1788   */\n      swap1\n      pop\n        /* \"#utility.yul\":1755:1795   */\n      swap2\n      swap1\n      pop\n      jump\t// out\n        /* \"#utility.yul\":1801:1970   */\n    tag_52:\n        /* \"#utility.yul\":1885:1896   */\n      0x00\n        /* \"#utility.yul\":1919:1925   */\n      dup3\n        /* \"#utility.yul\":1914:1917   */\n      dup3\n        /* \"#utility.yul\":1907:1926   */\n      mstore\n        /* \"#utility.yul\":1959:1963   */\n      0x20\n        /* \"#utility.yul\":1954:1957   */\n      dup3\n        /* \"#utility.yul\":1950:1964   */\n      add\n        /* \"#utility.yul\":1935:1964   */\n      swap1\n      pop\n        /* \"#utility.yul\":1897:1970   */\n      swap3\n      swap2\n      pop\n      pop\n      jump\t// out\n        /* \"#utility.yul\":1976:2066   */\n    tag_42:\n        /* \"#utility.yul\":2010:2017   */\n      0x00\n        /* \"#utility.yul\":2053:2058   */\n      dup2\n        /* \"#utility.yul\":2046:2059   */\n      iszero\n        /* \"#utility.yul\":2039:2060   */\n      iszero\n        /* \"#utility.yul\":2028:2060   */\n      swap1\n      pop\n        /* \"#utility.yul\":2018:2066   */\n      swap2\n      swap1\n      pop\n      jump\t// out\n        /* \"#utility.yul\":2072:2161   */\n    tag_46:\n        /* \"#utility.yul\":2106:2113   */\n      0x00\n        /* \"#utility.yul\":2149:2154   */\n      dup2\n        /* \"#utility.yul\":2146:2147   */\n      0x00\n        /* \"#utility.yul\":2135:2155   */\n      signextend\n        /* \"#utility.yul\":2124:2155   */\n      swap1\n      pop\n        /* \"#utility.yul\":2114:2161   */\n      swap2\n      swap1\n      pop\n      jump\t// out\n        /* \"#utility.yul\":2167:2253   */\n    tag_60:\n        /* \"#utility.yul\":2202:2209   */\n      0x00\n        /* \"#utility.yul\":2242:2246   */\n      0xff\n        /* \"#utility.yul\":2235:2240   */\n      dup3\n        /* \"#utility.yul\":2231:2247   */\n      and\n        /* \"#utility.yul\":2220:2247   */\n      swap1\n      pop\n        /* \"#utility.yul\":2210:2253   */\n      swap2\n      swap1\n      pop\n      jump\t// out\n        /* \"#utility.yul\":2259:2566   */\n    tag_54:\n        /* \"#utility.yul\":2327:2328   */\n      0x00\n        /* \"#utility.yul\":2337:2450   */\n    tag_75:\n        /* \"#utility.yul\":2351:2357   */\n      dup4\n        /* \"#utility.yul\":2348:2349   */\n      dup2\n        /* \"#utility.yul\":2345:2358   */\n      lt\n        /* \"#utility.yul\":2337:2450   */\n      iszero\n      tag_77\n      jumpi\n        /* \"#utility.yul\":2436:2437   */\n      dup1\n        /* \"#utility.yul\":2431:2434   */\n      dup3\n        /* \"#utility.yul\":2427:2438   */\n      add\n        /* \"#utility.yul\":2421:2439   */\n      mload\n        /* \"#utility.yul\":2417:2418   */\n      dup2\n        /* \"#utility.yul\":2412:2415   */\n      dup5\n        /* \"#utility.yul\":2408:2419   */\n      add\n        /* \"#utility.yul\":2401:2440   */\n      mstore\n        /* \"#utility.yul\":2373:2375   */\n      0x20\n        /* \"#utility.yul\":2370:2371   */\n      dup2\n        /* \"#utility.yul\":2366:2376   */\n      add\n        /* \"#utility.yul\":2361:2376   */\n      swap1\n      pop\n        /* \"#utility.yul\":2337:2450   */\n      jump(tag_75)\n    tag_77:\n        /* \"#utility.yul\":2468:2474   */\n      dup4\n        /* \"#utility.yul\":2465:2466   */\n      dup2\n        /* \"#utility.yul\":2462:2475   */\n      gt\n        /* \"#utility.yul\":2459:2461   */\n      iszero\n      tag_78\n      jumpi\n        /* \"#utility.yul\":2548:2549   */\n      0x00\n        /* \"#utility.yul\":2539:2545   */\n      dup5\n        /* \"#utility.yul\":2534:2537   */\n      dup5\n        /* \"#utility.yul\":2530:2546   */\n      add\n        /* \"#utility.yul\":2523:2550   */\n      mstore\n        /* \"#utility.yul\":2459:2461   */\n    tag_78:\n        /* \"#utility.yul\":2308:2566   */\n      pop\n      pop\n      pop\n      pop\n      jump\t// out\n        /* \"#utility.yul\":2572:2892   */\n    tag_28:\n        /* \"#utility.yul\":2616:2622   */\n      0x00\n        /* \"#utility.yul\":2653:2654   */\n      0x02\n        /* \"#utility.yul\":2647:2651   */\n      dup3\n        /* \"#utility.yul\":2643:2655   */\n      div\n        /* \"#utility.yul\":2633:2655   */\n      swap1\n      pop\n        /* \"#utility.yul\":2700:2701   */\n      0x01\n        /* \"#utility.yul\":2694:2698   */\n      dup3\n        /* \"#utility.yul\":2690:2702   */\n      and\n        /* \"#utility.yul\":2721:2739   */\n      dup1\n        /* \"#utility.yul\":2711:2713   */\n      tag_80\n      jumpi\n        /* \"#utility.yul\":2777:2781   */\n      0x7f\n        /* \"#utility.yul\":2769:2775   */\n      dup3\n        /* \"#utility.yul\":2765:2782   */\n      and\n        /* \"#utility.yul\":2755:2782   */\n      swap2\n      pop\n        /* \"#utility.yul\":2711:2713   */\n    tag_80:\n        /* \"#utility.yul\":2839:2841   */\n      0x20\n        /* \"#utility.yul\":2831:2837   */\n      dup3\n        /* \"#utility.yul\":2828:2842   */\n      lt\n        /* \"#utility.yul\":2808:2826   */\n      dup2\n        /* \"#utility.yul\":2805:2843   */\n      eq\n        /* \"#utility.yul\":2802:2804   */\n      iszero\n      tag_81\n      jumpi\n        /* \"#utility.yul\":2858:2876   */\n      tag_82\n      tag_83\n      jump\t// in\n    tag_82:\n        /* \"#utility.yul\":2802:2804   */\n    tag_81:\n        /* \"#utility.yul\":2623:2892   */\n      pop\n      swap2\n      swap1\n      pop\n      jump\t// out\n        /* \"#utility.yul\":2898:3078   */\n    tag_83:\n        /* \"#utility.yul\":2946:3023   */\n      0x4e487b7100000000000000000000000000000000000000000000000000000000\n        /* \"#utility.yul\":2943:2944   */\n      0x00\n        /* \"#utility.yul\":2936:3024   */\n      mstore\n        /* \"#utility.yul\":3043:3047   */\n      0x22\n        /* \"#utility.yul\":3040:3041   */\n      0x04\n        /* \"#utility.yul\":3033:3048   */\n      mstore\n        /* \"#utility.yul\":3067:3071   */\n      0x24\n        /* \"#utility.yul\":3064:3065   */\n      0x00\n        /* \"#utility.yul\":3057:3072   */\n      revert\n        /* \"#utility.yul\":3084:3186   */\n    tag_56:\n        /* \"#utility.yul\":3125:3131   */\n      0x00\n        /* \"#utility.yul\":3176:3178   */\n      0x1f\n        /* \"#utility.yul\":3172:3179   */\n      not\n        /* \"#utility.yul\":3167:3169   */\n      0x1f\n        /* \"#utility.yul\":3160:3165   */\n      dup4\n        /* \"#utility.yul\":3156:3170   */\n      add\n        /* \"#utility.yul\":3152:3180   */\n      and\n        /* \"#utility.yul\":3142:3180   */\n      swap1\n      pop\n        /* \"#utility.yul\":3132:3186   */\n      swap2\n      swap1\n      pop\n      jump\t// out\n\n    auxdata: 0xa2646970667358221220327b75f83c0bdbca34782e1363033bdaeca99c78290ce2b8c90d4fce11191d2064736f6c63430008040033\n}\n",
				"bytecode": {
					"linkReferences": {},
					"object": "60806040526003600160006101000a81548160ff021916908360ff1602179055507ffffffffffffffffffffffffffffffffffffffffffffffffffffffffffffffff6600360006101000a81548160ff021916908360000b60ff16021790555060416004556040518060400160405280600f81526020017f4573746f206573207075626c69636f0000000000000000000000000000000000815250600690805190602001906100ae929190610143565b506040518060400160405280600f81526020017f4573746f206573207072697661646f0000000000000000000000000000000000815250600790805190602001906100fa929190610143565b506001600860016101000a81548160ff0219169083151502179055506000600860026101000a81548160ff02191690831515021790555034801561013d57600080fd5b50610247565b82805461014f906101e6565b90600052602060002090601f01602090048101928261017157600085556101b8565b82601f1061018a57805160ff19168380011785556101b8565b828001600101855582156101b8579182015b828111156101b757825182559160200191906001019061019c565b5b5090506101c591906101c9565b5090565b5b808211156101e25760008160009055506001016101ca565b5090565b600060028204905060018216806101fe57607f821691505b6020821081141561021257610211610218565b5b50919050565b7f4e487b7100000000000000000000000000000000000000000000000000000000600052602260045260246000fd5b61043d806102566000396000f3fe608060405234801561001057600080fd5b50600436106100575760003560e01c8063312eef291461005c5780634df7e3d01461007a5780638a054ac214610098578063b83d07b7146100b6578063ebbb4bec146100d4575b600080fd5b6100646100f2565b60405161007191906102ad565b60405180910390f35b610082610105565b60405161008f9190610305565b60405180910390f35b6100a0610118565b6040516100ad91906102c8565b60405180910390f35b6100be61012b565b6040516100cb91906102e3565b60405180910390f35b6100dc6101b9565b6040516100e991906102e3565b60405180910390f35b600860019054906101000a900460ff1681565b600160009054906101000a900460ff1681565b600360009054906101000a900460000b81565b6006805461013890610395565b80601f016020809104026020016040519081016040528092919081815260200182805461016490610395565b80156101b15780601f10610186576101008083540402835291602001916101b1565b820191906000526020600020905b81548152906001019060200180831161019457829003601f168201915b505050505081565b600780546101c690610395565b80601f01602080910402602001604051908101604052809291908181526020018280546101f290610395565b801561023f5780601f106102145761010080835404028352916020019161023f565b820191906000526020600020905b81548152906001019060200180831161022257829003601f168201915b505050505081565b6102508161033c565b82525050565b61025f81610348565b82525050565b600061027082610320565b61027a818561032b565b935061028a818560208601610362565b610293816103f6565b840191505092915050565b6102a781610355565b82525050565b60006020820190506102c26000830184610247565b92915050565b60006020820190506102dd6000830184610256565b92915050565b600060208201905081810360008301526102fd8184610265565b905092915050565b600060208201905061031a600083018461029e565b92915050565b600081519050919050565b600082825260208201905092915050565b60008115159050919050565b60008160000b9050919050565b600060ff82169050919050565b60005b83811015610380578082015181840152602081019050610365565b8381111561038f576000848401525b50505050565b600060028204905060018216806103ad57607f821691505b602082108114156103c1576103c06103c7565b5b50919050565b7f4e487b7100000000000000000000000000000000000000000000000000000000600052602260045260246000fd5b6000601f19601f830116905091905056fea2646970667358221220327b75f83c0bdbca34782e1363033bdaeca99c78290ce2b8c90d4fce11191d2064736f6c63430008040033",
					"opcodes": "PUSH1 0x80 PUSH1 0x40 MSTORE PUSH1 0x3 PUSH1 0x1 PUSH1 0x0 PUSH2 0x100 EXP DUP2 SLOAD DUP2 PUSH1 0xFF MUL NOT AND SWAP1 DUP4 PUSH1 0xFF AND MUL OR SWAP1 SSTORE POP PUSH32 0xFFFFFFFFFFFFFFFFFFFFFFFFFFFFFFFFFFFFFFFFFFFFFFFFFFFFFFFFFFFFFFF6 PUSH1 0x3 PUSH1 0x0 PUSH2 0x100 EXP DUP2 SLOAD DUP2 PUSH1 0xFF MUL NOT AND SWAP1 DUP4 PUSH1 0x0 SIGNEXTEND PUSH1 0xFF AND MUL OR SWAP1 SSTORE POP PUSH1 0x41 PUSH1 0x4 SSTORE PUSH1 0x40 MLOAD DUP1 PUSH1 0x40 ADD PUSH1 0x40 MSTORE DUP1 PUSH1 0xF DUP2 MSTORE PUSH1 0x20 ADD PUSH32 0x4573746F206573207075626C69636F0000000000000000000000000000000000 DUP2 MSTORE POP PUSH1 0x6 SWAP1 DUP1 MLOAD SWAP1 PUSH1 0x20 ADD SWAP1 PUSH2 0xAE SWAP3 SWAP2 SWAP1 PUSH2 0x143 JUMP JUMPDEST POP PUSH1 0x40 MLOAD DUP1 PUSH1 0x40 ADD PUSH1 0x40 MSTORE DUP1 PUSH1 0xF DUP2 MSTORE PUSH1 0x20 ADD PUSH32 0x4573746F206573207072697661646F0000000000000000000000000000000000 DUP2 MSTORE POP PUSH1 0x7 SWAP1 DUP1 MLOAD SWAP1 PUSH1 0x20 ADD SWAP1 PUSH2 0xFA SWAP3 SWAP2 SWAP1 PUSH2 0x143 JUMP JUMPDEST POP PUSH1 0x1 PUSH1 0x8 PUSH1 0x1 PUSH2 0x100 EXP DUP2 SLOAD DUP2 PUSH1 0xFF MUL NOT AND SWAP1 DUP4 ISZERO ISZERO MUL OR SWAP1 SSTORE POP PUSH1 0x0 PUSH1 0x8 PUSH1 0x2 PUSH2 0x100 EXP DUP2 SLOAD DUP2 PUSH1 0xFF MUL NOT AND SWAP1 DUP4 ISZERO ISZERO MUL OR SWAP1 SSTORE POP CALLVALUE DUP1 ISZERO PUSH2 0x13D JUMPI PUSH1 0x0 DUP1 REVERT JUMPDEST POP PUSH2 0x247 JUMP JUMPDEST DUP3 DUP1 SLOAD PUSH2 0x14F SWAP1 PUSH2 0x1E6 JUMP JUMPDEST SWAP1 PUSH1 0x0 MSTORE PUSH1 0x20 PUSH1 0x0 KECCAK256 SWAP1 PUSH1 0x1F ADD PUSH1 0x20 SWAP1 DIV DUP2 ADD SWAP3 DUP3 PUSH2 0x171 JUMPI PUSH1 0x0 DUP6 SSTORE PUSH2 0x1B8 JUMP JUMPDEST DUP3 PUSH1 0x1F LT PUSH2 0x18A JUMPI DUP1 MLOAD PUSH1 0xFF NOT AND DUP4 DUP1 ADD OR DUP6 SSTORE PUSH2 0x1B8 JUMP JUMPDEST DUP3 DUP1 ADD PUSH1 0x1 ADD DUP6 SSTORE DUP3 ISZERO PUSH2 0x1B8 JUMPI SWAP2 DUP3 ADD JUMPDEST DUP3 DUP2 GT ISZERO PUSH2 0x1B7 JUMPI DUP3 MLOAD DUP3 SSTORE SWAP2 PUSH1 0x20 ADD SWAP2 SWAP1 PUSH1 0x1 ADD SWAP1 PUSH2 0x19C JUMP JUMPDEST JUMPDEST POP SWAP1 POP PUSH2 0x1C5 SWAP2 SWAP1 PUSH2 0x1C9 JUMP JUMPDEST POP SWAP1 JUMP JUMPDEST JUMPDEST DUP1 DUP3 GT ISZERO PUSH2 0x1E2 JUMPI PUSH1 0x0 DUP2 PUSH1 0x0 SWAP1 SSTORE POP PUSH1 0x1 ADD PUSH2 0x1CA JUMP JUMPDEST POP SWAP1 JUMP JUMPDEST PUSH1 0x0 PUSH1 0x2 DUP3 DIV SWAP1 POP PUSH1 0x1 DUP3 AND DUP1 PUSH2 0x1FE JUMPI PUSH1 0x7F DUP3 AND SWAP2 POP JUMPDEST PUSH1 0x20 DUP3 LT DUP2 EQ ISZERO PUSH2 0x212 JUMPI PUSH2 0x211 PUSH2 0x218 JUMP JUMPDEST JUMPDEST POP SWAP2 SWAP1 POP JUMP JUMPDEST PUSH32 0x4E487B7100000000000000000000000000000000000000000000000000000000 PUSH1 0x0 MSTORE PUSH1 0x22 PUSH1 0x4 MSTORE PUSH1 0x24 PUSH1 0x0 REVERT JUMPDEST PUSH2 0x43D DUP1 PUSH2 0x256 PUSH1 0x0 CODECOPY PUSH1 0x0 RETURN INVALID PUSH1 0x80 PUSH1 0x40 MSTORE CALLVALUE DUP1 ISZERO PUSH2 0x10 JUMPI PUSH1 0x0 DUP1 REVERT JUMPDEST POP PUSH1 0x4 CALLDATASIZE LT PUSH2 0x57 JUMPI PUSH1 0x0 CALLDATALOAD PUSH1 0xE0 SHR DUP1 PUSH4 0x312EEF29 EQ PUSH2 0x5C JUMPI DUP1 PUSH4 0x4DF7E3D0 EQ PUSH2 0x7A JUMPI DUP1 PUSH4 0x8A054AC2 EQ PUSH2 0x98 JUMPI DUP1 PUSH4 0xB83D07B7 EQ PUSH2 0xB6 JUMPI DUP1 PUSH4 0xEBBB4BEC EQ PUSH2 0xD4 JUMPI JUMPDEST PUSH1 0x0 DUP1 REVERT JUMPDEST PUSH2 0x64 PUSH2 0xF2 JUMP JUMPDEST PUSH1 0x40 MLOAD PUSH2 0x71 SWAP2 SWAP1 PUSH2 0x2AD JUMP JUMPDEST PUSH1 0x40 MLOAD DUP1 SWAP2 SUB SWAP1 RETURN JUMPDEST PUSH2 0x82 PUSH2 0x105 JUMP JUMPDEST PUSH1 0x40 MLOAD PUSH2 0x8F SWAP2 SWAP1 PUSH2 0x305 JUMP JUMPDEST PUSH1 0x40 MLOAD DUP1 SWAP2 SUB SWAP1 RETURN JUMPDEST PUSH2 0xA0 PUSH2 0x118 JUMP JUMPDEST PUSH1 0x40 MLOAD PUSH2 0xAD SWAP2 SWAP1 PUSH2 0x2C8 JUMP JUMPDEST PUSH1 0x40 MLOAD DUP1 SWAP2 SUB SWAP1 RETURN JUMPDEST PUSH2 0xBE PUSH2 0x12B JUMP JUMPDEST PUSH1 0x40 MLOAD PUSH2 0xCB SWAP2 SWAP1 PUSH2 0x2E3 JUMP JUMPDEST PUSH1 0x40 MLOAD DUP1 SWAP2 SUB SWAP1 RETURN JUMPDEST PUSH2 0xDC PUSH2 0x1B9 JUMP JUMPDEST PUSH1 0x40 MLOAD PUSH2 0xE9 SWAP2 SWAP1 PUSH2 0x2E3 JUMP JUMPDEST PUSH1 0x40 MLOAD DUP1 SWAP2 SUB SWAP1 RETURN JUMPDEST PUSH1 0x8 PUSH1 0x1 SWAP1 SLOAD SWAP1 PUSH2 0x100 EXP SWAP1 DIV PUSH1 0xFF AND DUP2 JUMP JUMPDEST PUSH1 0x1 PUSH1 0x0 SWAP1 SLOAD SWAP1 PUSH2 0x100 EXP SWAP1 DIV PUSH1 0xFF AND DUP2 JUMP JUMPDEST PUSH1 0x3 PUSH1 0x0 SWAP1 SLOAD SWAP1 PUSH2 0x100 EXP SWAP1 DIV PUSH1 0x0 SIGNEXTEND DUP2 JUMP JUMPDEST PUSH1 0x6 DUP1 SLOAD PUSH2 0x138 SWAP1 PUSH2 0x395 JUMP JUMPDEST DUP1 PUSH1 0x1F ADD PUSH1 0x20 DUP1 SWAP2 DIV MUL PUSH1 0x20 ADD PUSH1 0x40 MLOAD SWAP1 DUP2 ADD PUSH1 0x40 MSTORE DUP1 SWAP3 SWAP2 SWAP1 DUP2 DUP2 MSTORE PUSH1 0x20 ADD DUP3 DUP1 SLOAD PUSH2 0x164 SWAP1 PUSH2 0x395 JUMP JUMPDEST DUP1 ISZERO PUSH2 0x1B1 JUMPI DUP1 PUSH1 0x1F LT PUSH2 0x186 JUMPI PUSH2 0x100 DUP1 DUP4 SLOAD DIV MUL DUP4 MSTORE SWAP2 PUSH1 0x20 ADD SWAP2 PUSH2 0x1B1 JUMP JUMPDEST DUP3 ADD SWAP2 SWAP1 PUSH1 0x0 MSTORE PUSH1 0x20 PUSH1 0x0 KECCAK256 SWAP1 JUMPDEST DUP2 SLOAD DUP2 MSTORE SWAP1 PUSH1 0x1 ADD SWAP1 PUSH1 0x20 ADD DUP1 DUP4 GT PUSH2 0x194 JUMPI DUP3 SWAP1 SUB PUSH1 0x1F AND DUP3 ADD SWAP2 JUMPDEST POP POP POP POP POP DUP2 JUMP JUMPDEST PUSH1 0x7 DUP1 SLOAD PUSH2 0x1C6 SWAP1 PUSH2 0x395 JUMP JUMPDEST DUP1 PUSH1 0x1F ADD PUSH1 0x20 DUP1 SWAP2 DIV MUL PUSH1 0x20 ADD PUSH1 0x40 MLOAD SWAP1 DUP2 ADD PUSH1 0x40 MSTORE DUP1 SWAP3 SWAP2 SWAP1 DUP2 DUP2 MSTORE PUSH1 0x20 ADD DUP3 DUP1 SLOAD PUSH2 0x1F2 SWAP1 PUSH2 0x395 JUMP JUMPDEST DUP1 ISZERO PUSH2 0x23F JUMPI DUP1 PUSH1 0x1F LT PUSH2 0x214 JUMPI PUSH2 0x100 DUP1 DUP4 SLOAD DIV MUL DUP4 MSTORE SWAP2 PUSH1 0x20 ADD SWAP2 PUSH2 0x23F JUMP JUMPDEST DUP3 ADD SWAP2 SWAP1 PUSH1 0x0 MSTORE PUSH1 0x20 PUSH1 0x0 KECCAK256 SWAP1 JUMPDEST DUP2 SLOAD DUP2 MSTORE SWAP1 PUSH1 0x1 ADD SWAP1 PUSH1 0x20 ADD DUP1 DUP4 GT PUSH2 0x222 JUMPI DUP3 SWAP1 SUB PUSH1 0x1F AND DUP3 ADD SWAP2 JUMPDEST POP POP POP POP POP DUP2 JUMP JUMPDEST PUSH2 0x250 DUP2 PUSH2 0x33C JUMP JUMPDEST DUP3 MSTORE POP POP JUMP JUMPDEST PUSH2 0x25F DUP2 PUSH2 0x348 JUMP JUMPDEST DUP3 MSTORE POP POP JUMP JUMPDEST PUSH1 0x0 PUSH2 0x270 DUP3 PUSH2 0x320 JUMP JUMPDEST PUSH2 0x27A DUP2 DUP6 PUSH2 0x32B JUMP JUMPDEST SWAP4 POP PUSH2 0x28A DUP2 DUP6 PUSH1 0x20 DUP7 ADD PUSH2 0x362 JUMP JUMPDEST PUSH2 0x293 DUP2 PUSH2 0x3F6 JUMP JUMPDEST DUP5 ADD SWAP2 POP POP SWAP3 SWAP2 POP POP JUMP JUMPDEST PUSH2 0x2A7 DUP2 PUSH2 0x355 JUMP JUMPDEST DUP3 MSTORE POP POP JUMP JUMPDEST PUSH1 0x0 PUSH1 0x20 DUP3 ADD SWAP1 POP PUSH2 0x2C2 PUSH1 0x0 DUP4 ADD DUP5 PUSH2 0x247 JUMP JUMPDEST SWAP3 SWAP2 POP POP JUMP JUMPDEST PUSH1 0x0 PUSH1 0x20 DUP3 ADD SWAP1 POP PUSH2 0x2DD PUSH1 0x0 DUP4 ADD DUP5 PUSH2 0x256 JUMP JUMPDEST SWAP3 SWAP2 POP POP JUMP JUMPDEST PUSH1 0x0 PUSH1 0x20 DUP3 ADD SWAP1 POP DUP2 DUP2 SUB PUSH1 0x0 DUP4 ADD MSTORE PUSH2 0x2FD DUP2 DUP5 PUSH2 0x265 JUMP JUMPDEST SWAP1 POP SWAP3 SWAP2 POP POP JUMP JUMPDEST PUSH1 0x0 PUSH1 0x20 DUP3 ADD SWAP1 POP PUSH2 0x31A PUSH1 0x0 DUP4 ADD DUP5 PUSH2 0x29E JUMP JUMPDEST SWAP3 SWAP2 POP POP JUMP JUMPDEST PUSH1 0x0 DUP2 MLOAD SWAP1 POP SWAP2 SWAP1 POP JUMP JUMPDEST PUSH1 0x0 DUP3 DUP3 MSTORE PUSH1 0x20 DUP3 ADD SWAP1 POP SWAP3 SWAP2 POP POP JUMP JUMPDEST PUSH1 0x0 DUP2 ISZERO ISZERO SWAP1 POP SWAP2 SWAP1 POP JUMP JUMPDEST PUSH1 0x0 DUP2 PUSH1 0x0 SIGNEXTEND SWAP1 POP SWAP2 SWAP1 POP JUMP JUMPDEST PUSH1 0x0 PUSH1 0xFF DUP3 AND SWAP1 POP SWAP2 SWAP1 POP JUMP JUMPDEST PUSH1 0x0 JUMPDEST DUP4 DUP2 LT ISZERO PUSH2 0x380 JUMPI DUP1 DUP3 ADD MLOAD DUP2 DUP5 ADD MSTORE PUSH1 0x20 DUP2 ADD SWAP1 POP PUSH2 0x365 JUMP JUMPDEST DUP4 DUP2 GT ISZERO PUSH2 0x38F JUMPI PUSH1 0x0 DUP5 DUP5 ADD MSTORE JUMPDEST POP POP POP POP JUMP JUMPDEST PUSH1 0x0 PUSH1 0x2 DUP3 DIV SWAP1 POP PUSH1 0x1 DUP3 AND DUP1 PUSH2 0x3AD JUMPI PUSH1 0x7F DUP3 AND SWAP2 POP JUMPDEST PUSH1 0x20 DUP3 LT DUP2 EQ ISZERO PUSH2 0x3C1 JUMPI PUSH2 0x3C0 PUSH2 0x3C7 JUMP JUMPDEST JUMPDEST POP SWAP2 SWAP1 POP JUMP JUMPDEST PUSH32 0x4E487B7100000000000000000000000000000000000000000000000000000000 PUSH1 0x0 MSTORE PUSH1 0x22 PUSH1 0x4 MSTORE PUSH1 0x24 PUSH1 0x0 REVERT JUMPDEST PUSH1 0x0 PUSH1 0x1F NOT PUSH1 0x1F DUP4 ADD AND SWAP1 POP SWAP2 SWAP1 POP JUMP INVALID LOG2 PUSH5 0x6970667358 0x22 SLT KECCAK256 ORIGIN PUSH28 0x75F83C0BDBCA34782E1363033BDAECA99C78290CE2B8C90D4FCE1119 SAR KECCAK256 PUSH5 0x736F6C6343 STOP ADDMOD DIV STOP CALLER "
				},
				"gasEstimates": {
					"creation": {
						"codeDepositCost": "217000",
						"executionCost": "infinite",
						"totalCost": "infinite"
					},
					"external": {
						"b()": "1171",
						"boolean_true()": "1199",
						"d()": "1197",
						"str_privado()": "infinite",
						"str_public()": "infinite"
					}
				},
				"methodIdentifiers": {
					"b()": "4df7e3d0",
					"boolean_true()": "312eef29",
					"d()": "8a054ac2",
					"str_privado()": "ebbb4bec",
					"str_public()": "b83d07b7"
				}
			},
			"storageLayout": {
				"storage": [
					{
						"astId": 3,
						"contract": "contracts/2_variables_modifiers.sol:variables_modifiers",
						"label": "a",
						"offset": 0,
						"slot": "0",
						"type": "t_uint256"
					},
					{
						"astId": 6,
						"contract": "contracts/2_variables_modifiers.sol:variables_modifiers",
						"label": "b",
						"offset": 0,
						"slot": "1",
						"type": "t_uint8"
					},
					{
						"astId": 8,
						"contract": "contracts/2_variables_modifiers.sol:variables_modifiers",
						"label": "c",
						"offset": 0,
						"slot": "2",
						"type": "t_int256"
					},
					{
						"astId": 12,
						"contract": "contracts/2_variables_modifiers.sol:variables_modifiers",
						"label": "d",
						"offset": 0,
						"slot": "3",
						"type": "t_int8"
					},
					{
						"astId": 15,
						"contract": "contracts/2_variables_modifiers.sol:variables_modifiers",
						"label": "e",
						"offset": 0,
						"slot": "4",
						"type": "t_int256"
					},
					{
						"astId": 17,
						"contract": "contracts/2_variables_modifiers.sol:variables_modifiers",
						"label": "str",
						"offset": 0,
						"slot": "5",
						"type": "t_string_storage"
					},
					{
						"astId": 20,
						"contract": "contracts/2_variables_modifiers.sol:variables_modifiers",
						"label": "str_public",
						"offset": 0,
						"slot": "6",
						"type": "t_string_storage"
					},
					{
						"astId": 23,
						"contract": "contracts/2_variables_modifiers.sol:variables_modifiers",
						"label": "str_privado",
						"offset": 0,
						"slot": "7",
						"type": "t_string_storage"
					},
					{
						"astId": 25,
						"contract": "contracts/2_variables_modifiers.sol:variables_modifiers",
						"label": "boolean",
						"offset": 0,
						"slot": "8",
						"type": "t_bool"
					},
					{
						"astId": 28,
						"contract": "contracts/2_variables_modifiers.sol:variables_modifiers",
						"label": "boolean_true",
						"offset": 1,
						"slot": "8",
						"type": "t_bool"
					},
					{
						"astId": 31,
						"contract": "contracts/2_variables_modifiers.sol:variables_modifiers",
						"label": "boolead_false",
						"offset": 2,
						"slot": "8",
						"type": "t_bool"
					}
				],
				"types": {
					"t_bool": {
						"encoding": "inplace",
						"label": "bool",
						"numberOfBytes": "1"
					},
					"t_int256": {
						"encoding": "inplace",
						"label": "int256",
						"numberOfBytes": "32"
					},
					"t_int8": {
						"encoding": "inplace",
						"label": "int8",
						"numberOfBytes": "1"
					},
					"t_string_storage": {
						"encoding": "bytes",
						"label": "string",
						"numberOfBytes": "32"
					},
					"t_uint256": {
						"encoding": "inplace",
						"label": "uint256",
						"numberOfBytes": "32"
					},
					"t_uint8": {
						"encoding": "inplace",
						"label": "uint8",
						"numberOfBytes": "1"
					}
				}
			},
			"userdoc": {
				"kind": "user",
				"methods": {},
				"version": 1
			}
		}
	}
}