{
	"contracts/2_variables_modifiers.sol": {
		"variables_modifiers": {
			"abi": [
				{
					"inputs": [],
					"name": "addres1",
					"outputs": [
						{
							"internalType": "address",
							"name": "",
							"type": "address"
						}
					],
					"stateMutability": "view",
					"type": "function"
				},
				{
					"inputs": [],
					"name": "b",
					"outputs": [
						{
							"internalType": "uint8",
							"name": "",
							"type": "uint8"
						}
					],
					"stateMutability": "view",
					"type": "function"
				},
				{
					"inputs": [],
					"name": "boolean_true",
					"outputs": [
						{
							"internalType": "bool",
							"name": "",
							"type": "bool"
						}
					],
					"stateMutability": "view",
					"type": "function"
				},
				{
					"inputs": [],
					"name": "d",
					"outputs": [
						{
							"internalType": "int8",
							"name": "",
							"type": "int8"
						}
					],
					"stateMutability": "view",
					"type": "function"
				},
				{
					"inputs": [],
					"name": "displayState",
					"outputs": [
						{
							"internalType": "enum variables_modifiers.options",
							"name": "",
							"type": "uint8"
						}
					],
					"stateMutability": "view",
					"type": "function"
				},
				{
					"inputs": [],
					"name": "hashing_keccak256",
					"outputs": [
						{
							"internalType": "bytes32",
							"name": "",
							"type": "bytes32"
						}
					],
					"stateMutability": "view",
					"type": "function"
				},
				{
					"inputs": [],
					"name": "hashing_sha256",
					"outputs": [
						{
							"internalType": "bytes32",
							"name": "",
							"type": "bytes32"
						}
					],
					"stateMutability": "view",
					"type": "function"
				},
				{
					"inputs": [],
					"name": "my_address",
					"outputs": [
						{
							"internalType": "address",
							"name": "",
							"type": "address"
						}
					],
					"stateMutability": "view",
					"type": "function"
				},
				{
					"inputs": [],
					"name": "second_byte",
					"outputs": [
						{
							"internalType": "bytes4",
							"name": "",
							"type": "bytes4"
						}
					],
					"stateMutability": "view",
					"type": "function"
				},
				{
					"inputs": [],
					"name": "state",
					"outputs": [
						{
							"internalType": "enum variables_modifiers.options",
							"name": "",
							"type": "uint8"
						}
					],
					"stateMutability": "view",
					"type": "function"
				},
				{
					"inputs": [],
					"name": "str_privado",
					"outputs": [
						{
							"internalType": "string",
							"name": "",
							"type": "string"
						}
					],
					"stateMutability": "view",
					"type": "function"
				},
				{
					"inputs": [],
					"name": "str_public",
					"outputs": [
						{
							"internalType": "string",
							"name": "",
							"type": "string"
						}
					],
					"stateMutability": "view",
					"type": "function"
				},
				{
					"inputs": [],
					"name": "turnOff",
					"outputs": [],
					"stateMutability": "nonpayable",
					"type": "function"
				},
				{
					"inputs": [],
					"name": "turnOn",
					"outputs": [],
					"stateMutability": "nonpayable",
					"type": "function"
				}
			],
			"devdoc": {
				"kind": "dev",
				"methods": {},
				"version": 1
			},
			"evm": {
				"assembly": "    /* \"contracts/2_variables_modifiers.sol\":66:1267  contract variables_modifiers{\r... */\n  mstore(0x40, 0x80)\n    /* \"contracts/2_variables_modifiers.sol\":175:176  3 */\n  0x03\n    /* \"contracts/2_variables_modifiers.sol\":160:176  uint8 public b=3 */\n  0x01\n  exp(0x0100, 0x00)\n  dup2\n  sload\n  dup2\n  0xff\n  mul\n  not\n  and\n  swap1\n  dup4\n  0xff\n  and\n  mul\n  or\n  swap1\n  sstore\n  pop\n    /* \"contracts/2_variables_modifiers.sol\":241:244  -10 */\n  0xfffffffffffffffffffffffffffffffffffffffffffffffffffffffffffffff6\n    /* \"contracts/2_variables_modifiers.sol\":225:244  int8 public d = -10 */\n  0x03\n  exp(0x0100, 0x00)\n  dup2\n  sload\n  dup2\n  0xff\n  mul\n  not\n  and\n  swap1\n  dup4\n  0x00\n  signextend\n  0xff\n  and\n  mul\n  or\n  swap1\n  sstore\n  pop\n    /* \"contracts/2_variables_modifiers.sol\":259:261  65 */\n  0x41\n    /* \"contracts/2_variables_modifiers.sol\":251:261  int e = 65 */\n  0x04\n  sstore\n    /* \"contracts/2_variables_modifiers.sol\":311:355  string public str_public = \"Esto es publico\" */\n  mload(0x40)\n  dup1\n  0x40\n  add\n  0x40\n  mstore\n  dup1\n  0x0f\n  dup2\n  mstore\n  0x20\n  add\n  0x4573746f206573207075626c69636f0000000000000000000000000000000000\n  dup2\n  mstore\n  pop\n  0x06\n  swap1\n  dup1\n  mload\n  swap1\n  0x20\n  add\n  swap1\n  tag_1\n  swap3\n  swap2\n  swap1\n  tag_2\n  jump\t// in\ntag_1:\n  pop\n    /* \"contracts/2_variables_modifiers.sol\":362:407  string public str_privado = \"Esto es privado\" */\n  mload(0x40)\n  dup1\n  0x40\n  add\n  0x40\n  mstore\n  dup1\n  0x0f\n  dup2\n  mstore\n  0x20\n  add\n  0x4573746f206573207072697661646f0000000000000000000000000000000000\n  dup2\n  mstore\n  pop\n  0x07\n  swap1\n  dup1\n  mload\n  swap1\n  0x20\n  add\n  swap1\n  tag_3\n  swap3\n  swap2\n  swap1\n  tag_2\n  jump\t// in\ntag_3:\n  pop\n    /* \"contracts/2_variables_modifiers.sol\":487:491  true */\n  0x01\n    /* \"contracts/2_variables_modifiers.sol\":460:491  bool public boolean_true = true */\n  0x08\n  exp(0x0100, 0x01)\n  dup2\n  sload\n  dup2\n  0xff\n  mul\n  not\n  and\n  swap1\n  dup4\n  iszero\n  iszero\n  mul\n  or\n  swap1\n  sstore\n  pop\n    /* \"contracts/2_variables_modifiers.sol\":527:532  false */\n  0x00\n    /* \"contracts/2_variables_modifiers.sol\":498:532  bool private boolead_false = false */\n  0x08\n  exp(0x0100, 0x02)\n  dup2\n  sload\n  dup2\n  0xff\n  mul\n  not\n  and\n  swap1\n  dup4\n  iszero\n  iszero\n  mul\n  or\n  swap1\n  sstore\n  pop\n    /* \"contracts/2_variables_modifiers.sol\":590:619  bytes4 public second_byte=\"D\" */\n  0x4400000000000000000000000000000000000000000000000000000000000000\n  0x0a\n  exp(0x0100, 0x00)\n  dup2\n  sload\n  dup2\n  0xffffffff\n  mul\n  not\n  and\n  swap1\n  dup4\n  0xe0\n  shr\n  mul\n  or\n  swap1\n  sstore\n  pop\n    /* \"contracts/2_variables_modifiers.sol\":671:702  abi.encodePacked(\"Hola\",\"Joan\") */\n  add(0x20, mload(0x40))\n  tag_4\n  swap1\n  tag_5\n  jump\t// in\ntag_4:\n  mload(0x40)\n  0x20\n  dup2\n  dup4\n  sub\n  sub\n  dup2\n  mstore\n  swap1\n  0x40\n  mstore\n    /* \"contracts/2_variables_modifiers.sol\":661:703  keccak256(abi.encodePacked(\"Hola\",\"Joan\")) */\n  dup1\n  mload\n  swap1\n  0x20\n  add\n  keccak256\n    /* \"contracts/2_variables_modifiers.sol\":626:703  bytes32 public hashing_keccak256 = keccak256(abi.encodePacked(\"Hola\",\"Joan\")) */\n  0x0b\n  sstore\n    /* \"contracts/2_variables_modifiers.sol\":742:781  sha256(abi.encodePacked(\"Hola\",\"Joan\")) */\n  0x02\n    /* \"contracts/2_variables_modifiers.sol\":749:780  abi.encodePacked(\"Hola\",\"Joan\") */\n  add(0x20, mload(0x40))\n  tag_6\n  swap1\n  tag_5\n  jump\t// in\ntag_6:\n  mload(0x40)\n  0x20\n  dup2\n  dup4\n  sub\n  sub\n  dup2\n  mstore\n  swap1\n  0x40\n  mstore\n    /* \"contracts/2_variables_modifiers.sol\":742:781  sha256(abi.encodePacked(\"Hola\",\"Joan\")) */\n  mload(0x40)\n  tag_7\n  swap2\n  swap1\n  tag_8\n  jump\t// in\ntag_7:\n  0x20\n  mload(0x40)\n  dup1\n  dup4\n  sub\n  dup2\n  dup6\n  gas\n  staticcall\n  iszero\n  dup1\n  iszero\n  tag_10\n  jumpi\n  returndatasize\n  0x00\n  dup1\n  returndatacopy\n  revert(0x00, returndatasize)\ntag_10:\n  pop\n  pop\n  pop\n  mload(0x40)\n  returndatasize\n  not(0x1f)\n  0x1f\n  dup3\n  add\n  and\n  dup3\n  add\n  dup1\n  0x40\n  mstore\n  pop\n  dup2\n  add\n  swap1\n  tag_11\n  swap2\n  swap1\n  tag_12\n  jump\t// in\ntag_11:\n    /* \"contracts/2_variables_modifiers.sol\":710:781  bytes32 public hashing_sha256 = sha256(abi.encodePacked(\"Hola\",\"Joan\")) */\n  0x0c\n  sstore\n    /* \"contracts/2_variables_modifiers.sol\":843:853  msg.sender */\n  caller\n    /* \"contracts/2_variables_modifiers.sol\":815:853  address public my_address = msg.sender */\n  0x0d\n  exp(0x0100, 0x00)\n  dup2\n  sload\n  dup2\n  0xffffffffffffffffffffffffffffffffffffffff\n  mul\n  not\n  and\n  swap1\n  dup4\n  0xffffffffffffffffffffffffffffffffffffffff\n  and\n  mul\n  or\n  swap1\n  sstore\n  pop\n    /* \"contracts/2_variables_modifiers.sol\":885:927  0xcD6a42782d230D7c13A74ddec5dD140e55499Df9 */\n  0xcd6a42782d230d7c13a74ddec5dd140e55499df9\n    /* \"contracts/2_variables_modifiers.sol\":860:927  address public addres1 = 0xcD6a42782d230D7c13A74ddec5dD140e55499Df9 */\n  0x0e\n  exp(0x0100, 0x00)\n  dup2\n  sload\n  dup2\n  0xffffffffffffffffffffffffffffffffffffffff\n  mul\n  not\n  and\n  swap1\n  dup4\n  0xffffffffffffffffffffffffffffffffffffffff\n  and\n  mul\n  or\n  swap1\n  sstore\n  pop\n    /* \"contracts/2_variables_modifiers.sol\":1017:1030  options.ERROR */\n  0x02\n    /* \"contracts/2_variables_modifiers.sol\":994:1030  options public state = options.ERROR */\n  0x0e\n  exp(0x0100, 0x14)\n  dup2\n  sload\n  dup2\n  0xff\n  mul\n  not\n  and\n  swap1\n  dup4\n  0x02\n  dup2\n  gt\n  iszero\n  tag_13\n  jumpi\n  tag_14\n  tag_15\n  jump\t// in\ntag_14:\ntag_13:\n  mul\n  or\n  swap1\n  sstore\n  pop\n    /* \"contracts/2_variables_modifiers.sol\":66:1267  contract variables_modifiers{\r... */\n  callvalue\n  dup1\n  iszero\n  tag_16\n  jumpi\n  0x00\n  dup1\n  revert\ntag_16:\n  pop\n  jump(tag_17)\ntag_2:\n  dup3\n  dup1\n  sload\n  tag_18\n  swap1\n  tag_19\n  jump\t// in\ntag_18:\n  swap1\n  0x00\n  mstore\n  keccak256(0x00, 0x20)\n  swap1\n  0x1f\n  add\n  0x20\n  swap1\n  div\n  dup2\n  add\n  swap3\n  dup3\n  tag_21\n  jumpi\n  0x00\n  dup6\n  sstore\n  jump(tag_20)\ntag_21:\n  dup3\n  0x1f\n  lt\n  tag_22\n  jumpi\n  dup1\n  mload\n  not(0xff)\n  and\n  dup4\n  dup1\n  add\n  or\n  dup6\n  sstore\n  jump(tag_20)\ntag_22:\n  dup3\n  dup1\n  add\n  0x01\n  add\n  dup6\n  sstore\n  dup3\n  iszero\n  tag_20\n  jumpi\n  swap2\n  dup3\n  add\ntag_23:\n  dup3\n  dup2\n  gt\n  iszero\n  tag_24\n  jumpi\n  dup3\n  mload\n  dup3\n  sstore\n  swap2\n  0x20\n  add\n  swap2\n  swap1\n  0x01\n  add\n  swap1\n  jump(tag_23)\ntag_24:\ntag_20:\n  pop\n  swap1\n  pop\n  tag_25\n  swap2\n  swap1\n  tag_26\n  jump\t// in\ntag_25:\n  pop\n  swap1\n  jump\t// out\ntag_26:\ntag_27:\n  dup1\n  dup3\n  gt\n  iszero\n  tag_28\n  jumpi\n  0x00\n  dup2\n  0x00\n  swap1\n  sstore\n  pop\n  0x01\n  add\n  jump(tag_27)\ntag_28:\n  pop\n  swap1\n  jump\t// out\n    /* \"#utility.yul\":7:150   */\ntag_30:\n    /* \"#utility.yul\":64:69   */\n  0x00\n    /* \"#utility.yul\":95:101   */\n  dup2\n    /* \"#utility.yul\":89:102   */\n  mload\n    /* \"#utility.yul\":80:102   */\n  swap1\n  pop\n    /* \"#utility.yul\":111:144   */\n  tag_32\n    /* \"#utility.yul\":138:143   */\n  dup2\n    /* \"#utility.yul\":111:144   */\n  tag_33\n  jump\t// in\ntag_32:\n    /* \"#utility.yul\":7:150   */\n  swap3\n  swap2\n  pop\n  pop\n  jump\t// out\n    /* \"#utility.yul\":156:507   */\ntag_12:\n    /* \"#utility.yul\":226:232   */\n  0x00\n    /* \"#utility.yul\":275:277   */\n  0x20\n    /* \"#utility.yul\":263:272   */\n  dup3\n    /* \"#utility.yul\":254:261   */\n  dup5\n    /* \"#utility.yul\":250:273   */\n  sub\n    /* \"#utility.yul\":246:278   */\n  slt\n    /* \"#utility.yul\":243:362   */\n  iszero\n  tag_35\n  jumpi\n    /* \"#utility.yul\":281:360   */\n  tag_36\n  tag_37\n  jump\t// in\ntag_36:\n    /* \"#utility.yul\":243:362   */\ntag_35:\n    /* \"#utility.yul\":401:402   */\n  0x00\n    /* \"#utility.yul\":426:490   */\n  tag_38\n    /* \"#utility.yul\":482:489   */\n  dup5\n    /* \"#utility.yul\":473:479   */\n  dup3\n    /* \"#utility.yul\":462:471   */\n  dup6\n    /* \"#utility.yul\":458:480   */\n  add\n    /* \"#utility.yul\":426:490   */\n  tag_30\n  jump\t// in\ntag_38:\n    /* \"#utility.yul\":416:490   */\n  swap2\n  pop\n    /* \"#utility.yul\":372:500   */\n  pop\n    /* \"#utility.yul\":156:507   */\n  swap3\n  swap2\n  pop\n  pop\n  jump\t// out\n    /* \"#utility.yul\":513:886   */\ntag_39:\n    /* \"#utility.yul\":617:620   */\n  0x00\n    /* \"#utility.yul\":645:683   */\n  tag_41\n    /* \"#utility.yul\":677:682   */\n  dup3\n    /* \"#utility.yul\":645:683   */\n  tag_42\n  jump\t// in\ntag_41:\n    /* \"#utility.yul\":699:787   */\n  tag_43\n    /* \"#utility.yul\":780:786   */\n  dup2\n    /* \"#utility.yul\":775:778   */\n  dup6\n    /* \"#utility.yul\":699:787   */\n  tag_44\n  jump\t// in\ntag_43:\n    /* \"#utility.yul\":692:787   */\n  swap4\n  pop\n    /* \"#utility.yul\":796:848   */\n  tag_45\n    /* \"#utility.yul\":841:847   */\n  dup2\n    /* \"#utility.yul\":836:839   */\n  dup6\n    /* \"#utility.yul\":829:833   */\n  0x20\n    /* \"#utility.yul\":822:827   */\n  dup7\n    /* \"#utility.yul\":818:834   */\n  add\n    /* \"#utility.yul\":796:848   */\n  tag_46\n  jump\t// in\ntag_45:\n    /* \"#utility.yul\":873:879   */\n  dup1\n    /* \"#utility.yul\":868:871   */\n  dup5\n    /* \"#utility.yul\":864:880   */\n  add\n    /* \"#utility.yul\":857:880   */\n  swap2\n  pop\n    /* \"#utility.yul\":621:886   */\n  pop\n    /* \"#utility.yul\":513:886   */\n  swap3\n  swap2\n  pop\n  pop\n  jump\t// out\n    /* \"#utility.yul\":892:1292   */\ntag_47:\n    /* \"#utility.yul\":1052:1055   */\n  0x00\n    /* \"#utility.yul\":1073:1157   */\n  tag_49\n    /* \"#utility.yul\":1155:1156   */\n  0x04\n    /* \"#utility.yul\":1150:1153   */\n  dup4\n    /* \"#utility.yul\":1073:1157   */\n  tag_50\n  jump\t// in\ntag_49:\n    /* \"#utility.yul\":1066:1157   */\n  swap2\n  pop\n    /* \"#utility.yul\":1166:1259   */\n  tag_51\n    /* \"#utility.yul\":1255:1258   */\n  dup3\n    /* \"#utility.yul\":1166:1259   */\n  tag_52\n  jump\t// in\ntag_51:\n    /* \"#utility.yul\":1284:1285   */\n  0x04\n    /* \"#utility.yul\":1279:1282   */\n  dup3\n    /* \"#utility.yul\":1275:1286   */\n  add\n    /* \"#utility.yul\":1268:1286   */\n  swap1\n  pop\n    /* \"#utility.yul\":892:1292   */\n  swap2\n  swap1\n  pop\n  jump\t// out\n    /* \"#utility.yul\":1298:1698   */\ntag_53:\n    /* \"#utility.yul\":1458:1461   */\n  0x00\n    /* \"#utility.yul\":1479:1563   */\n  tag_55\n    /* \"#utility.yul\":1561:1562   */\n  0x04\n    /* \"#utility.yul\":1556:1559   */\n  dup4\n    /* \"#utility.yul\":1479:1563   */\n  tag_50\n  jump\t// in\ntag_55:\n    /* \"#utility.yul\":1472:1563   */\n  swap2\n  pop\n    /* \"#utility.yul\":1572:1665   */\n  tag_56\n    /* \"#utility.yul\":1661:1664   */\n  dup3\n    /* \"#utility.yul\":1572:1665   */\n  tag_57\n  jump\t// in\ntag_56:\n    /* \"#utility.yul\":1690:1691   */\n  0x04\n    /* \"#utility.yul\":1685:1688   */\n  dup3\n    /* \"#utility.yul\":1681:1692   */\n  add\n    /* \"#utility.yul\":1674:1692   */\n  swap1\n  pop\n    /* \"#utility.yul\":1298:1698   */\n  swap2\n  swap1\n  pop\n  jump\t// out\n    /* \"#utility.yul\":1704:1975   */\ntag_8:\n    /* \"#utility.yul\":1834:1837   */\n  0x00\n    /* \"#utility.yul\":1856:1949   */\n  tag_59\n    /* \"#utility.yul\":1945:1948   */\n  dup3\n    /* \"#utility.yul\":1936:1942   */\n  dup5\n    /* \"#utility.yul\":1856:1949   */\n  tag_39\n  jump\t// in\ntag_59:\n    /* \"#utility.yul\":1849:1949   */\n  swap2\n  pop\n    /* \"#utility.yul\":1966:1969   */\n  dup2\n    /* \"#utility.yul\":1959:1969   */\n  swap1\n  pop\n    /* \"#utility.yul\":1704:1975   */\n  swap3\n  swap2\n  pop\n  pop\n  jump\t// out\n    /* \"#utility.yul\":1981:2628   */\ntag_5:\n    /* \"#utility.yul\":2267:2270   */\n  0x00\n    /* \"#utility.yul\":2289:2437   */\n  tag_61\n    /* \"#utility.yul\":2433:2436   */\n  dup3\n    /* \"#utility.yul\":2289:2437   */\n  tag_47\n  jump\t// in\ntag_61:\n    /* \"#utility.yul\":2282:2437   */\n  swap2\n  pop\n    /* \"#utility.yul\":2454:2602   */\n  tag_62\n    /* \"#utility.yul\":2598:2601   */\n  dup3\n    /* \"#utility.yul\":2454:2602   */\n  tag_53\n  jump\t// in\ntag_62:\n    /* \"#utility.yul\":2447:2602   */\n  swap2\n  pop\n    /* \"#utility.yul\":2619:2622   */\n  dup2\n    /* \"#utility.yul\":2612:2622   */\n  swap1\n  pop\n    /* \"#utility.yul\":1981:2628   */\n  swap2\n  swap1\n  pop\n  jump\t// out\n    /* \"#utility.yul\":2715:2813   */\ntag_42:\n    /* \"#utility.yul\":2766:2772   */\n  0x00\n    /* \"#utility.yul\":2800:2805   */\n  dup2\n    /* \"#utility.yul\":2794:2806   */\n  mload\n    /* \"#utility.yul\":2784:2806   */\n  swap1\n  pop\n    /* \"#utility.yul\":2715:2813   */\n  swap2\n  swap1\n  pop\n  jump\t// out\n    /* \"#utility.yul\":2819:2966   */\ntag_44:\n    /* \"#utility.yul\":2920:2931   */\n  0x00\n    /* \"#utility.yul\":2957:2960   */\n  dup2\n    /* \"#utility.yul\":2942:2960   */\n  swap1\n  pop\n    /* \"#utility.yul\":2819:2966   */\n  swap3\n  swap2\n  pop\n  pop\n  jump\t// out\n    /* \"#utility.yul\":2972:3120   */\ntag_50:\n    /* \"#utility.yul\":3074:3085   */\n  0x00\n    /* \"#utility.yul\":3111:3114   */\n  dup2\n    /* \"#utility.yul\":3096:3114   */\n  swap1\n  pop\n    /* \"#utility.yul\":2972:3120   */\n  swap3\n  swap2\n  pop\n  pop\n  jump\t// out\n    /* \"#utility.yul\":3126:3203   */\ntag_68:\n    /* \"#utility.yul\":3163:3170   */\n  0x00\n    /* \"#utility.yul\":3192:3197   */\n  dup2\n    /* \"#utility.yul\":3181:3197   */\n  swap1\n  pop\n    /* \"#utility.yul\":3126:3203   */\n  swap2\n  swap1\n  pop\n  jump\t// out\n    /* \"#utility.yul\":3209:3516   */\ntag_46:\n    /* \"#utility.yul\":3277:3278   */\n  0x00\n    /* \"#utility.yul\":3287:3400   */\ntag_71:\n    /* \"#utility.yul\":3301:3307   */\n  dup4\n    /* \"#utility.yul\":3298:3299   */\n  dup2\n    /* \"#utility.yul\":3295:3308   */\n  lt\n    /* \"#utility.yul\":3287:3400   */\n  iszero\n  tag_73\n  jumpi\n    /* \"#utility.yul\":3386:3387   */\n  dup1\n    /* \"#utility.yul\":3381:3384   */\n  dup3\n    /* \"#utility.yul\":3377:3388   */\n  add\n    /* \"#utility.yul\":3371:3389   */\n  mload\n    /* \"#utility.yul\":3367:3368   */\n  dup2\n    /* \"#utility.yul\":3362:3365   */\n  dup5\n    /* \"#utility.yul\":3358:3369   */\n  add\n    /* \"#utility.yul\":3351:3390   */\n  mstore\n    /* \"#utility.yul\":3323:3325   */\n  0x20\n    /* \"#utility.yul\":3320:3321   */\n  dup2\n    /* \"#utility.yul\":3316:3326   */\n  add\n    /* \"#utility.yul\":3311:3326   */\n  swap1\n  pop\n    /* \"#utility.yul\":3287:3400   */\n  jump(tag_71)\ntag_73:\n    /* \"#utility.yul\":3418:3424   */\n  dup4\n    /* \"#utility.yul\":3415:3416   */\n  dup2\n    /* \"#utility.yul\":3412:3425   */\n  gt\n    /* \"#utility.yul\":3409:3510   */\n  iszero\n  tag_74\n  jumpi\n    /* \"#utility.yul\":3498:3499   */\n  0x00\n    /* \"#utility.yul\":3489:3495   */\n  dup5\n    /* \"#utility.yul\":3484:3487   */\n  dup5\n    /* \"#utility.yul\":3480:3496   */\n  add\n    /* \"#utility.yul\":3473:3500   */\n  mstore\n    /* \"#utility.yul\":3409:3510   */\ntag_74:\n    /* \"#utility.yul\":3258:3516   */\n  pop\n    /* \"#utility.yul\":3209:3516   */\n  pop\n  pop\n  pop\n  jump\t// out\n    /* \"#utility.yul\":3522:3842   */\ntag_19:\n    /* \"#utility.yul\":3566:3572   */\n  0x00\n    /* \"#utility.yul\":3603:3604   */\n  0x02\n    /* \"#utility.yul\":3597:3601   */\n  dup3\n    /* \"#utility.yul\":3593:3605   */\n  div\n    /* \"#utility.yul\":3583:3605   */\n  swap1\n  pop\n    /* \"#utility.yul\":3650:3651   */\n  0x01\n    /* \"#utility.yul\":3644:3648   */\n  dup3\n    /* \"#utility.yul\":3640:3652   */\n  and\n    /* \"#utility.yul\":3671:3689   */\n  dup1\n    /* \"#utility.yul\":3661:3742   */\n  tag_76\n  jumpi\n    /* \"#utility.yul\":3727:3731   */\n  0x7f\n    /* \"#utility.yul\":3719:3725   */\n  dup3\n    /* \"#utility.yul\":3715:3732   */\n  and\n    /* \"#utility.yul\":3705:3732   */\n  swap2\n  pop\n    /* \"#utility.yul\":3661:3742   */\ntag_76:\n    /* \"#utility.yul\":3789:3791   */\n  0x20\n    /* \"#utility.yul\":3781:3787   */\n  dup3\n    /* \"#utility.yul\":3778:3792   */\n  lt\n    /* \"#utility.yul\":3758:3776   */\n  dup2\n    /* \"#utility.yul\":3755:3793   */\n  eq\n    /* \"#utility.yul\":3752:3836   */\n  iszero\n  tag_77\n  jumpi\n    /* \"#utility.yul\":3808:3826   */\n  tag_78\n  tag_79\n  jump\t// in\ntag_78:\n    /* \"#utility.yul\":3752:3836   */\ntag_77:\n    /* \"#utility.yul\":3573:3842   */\n  pop\n    /* \"#utility.yul\":3522:3842   */\n  swap2\n  swap1\n  pop\n  jump\t// out\n    /* \"#utility.yul\":3848:4028   */\ntag_15:\n    /* \"#utility.yul\":3896:3973   */\n  0x4e487b7100000000000000000000000000000000000000000000000000000000\n    /* \"#utility.yul\":3893:3894   */\n  0x00\n    /* \"#utility.yul\":3886:3974   */\n  mstore\n    /* \"#utility.yul\":3993:3997   */\n  0x21\n    /* \"#utility.yul\":3990:3991   */\n  0x04\n    /* \"#utility.yul\":3983:3998   */\n  mstore\n    /* \"#utility.yul\":4017:4021   */\n  0x24\n    /* \"#utility.yul\":4014:4015   */\n  0x00\n    /* \"#utility.yul\":4007:4022   */\n  revert\n    /* \"#utility.yul\":4034:4214   */\ntag_79:\n    /* \"#utility.yul\":4082:4159   */\n  0x4e487b7100000000000000000000000000000000000000000000000000000000\n    /* \"#utility.yul\":4079:4080   */\n  0x00\n    /* \"#utility.yul\":4072:4160   */\n  mstore\n    /* \"#utility.yul\":4179:4183   */\n  0x22\n    /* \"#utility.yul\":4176:4177   */\n  0x04\n    /* \"#utility.yul\":4169:4184   */\n  mstore\n    /* \"#utility.yul\":4203:4207   */\n  0x24\n    /* \"#utility.yul\":4200:4201   */\n  0x00\n    /* \"#utility.yul\":4193:4208   */\n  revert\n    /* \"#utility.yul\":4343:4460   */\ntag_37:\n    /* \"#utility.yul\":4452:4453   */\n  0x00\n    /* \"#utility.yul\":4449:4450   */\n  dup1\n    /* \"#utility.yul\":4442:4454   */\n  revert\n    /* \"#utility.yul\":4466:4620   */\ntag_52:\n    /* \"#utility.yul\":4606:4612   */\n  0x486f6c6100000000000000000000000000000000000000000000000000000000\n    /* \"#utility.yul\":4602:4603   */\n  0x00\n    /* \"#utility.yul\":4594:4600   */\n  dup3\n    /* \"#utility.yul\":4590:4604   */\n  add\n    /* \"#utility.yul\":4583:4613   */\n  mstore\n    /* \"#utility.yul\":4466:4620   */\n  pop\n  jump\t// out\n    /* \"#utility.yul\":4626:4780   */\ntag_57:\n    /* \"#utility.yul\":4766:4772   */\n  0x4a6f616e00000000000000000000000000000000000000000000000000000000\n    /* \"#utility.yul\":4762:4763   */\n  0x00\n    /* \"#utility.yul\":4754:4760   */\n  dup3\n    /* \"#utility.yul\":4750:4764   */\n  add\n    /* \"#utility.yul\":4743:4773   */\n  mstore\n    /* \"#utility.yul\":4626:4780   */\n  pop\n  jump\t// out\n    /* \"#utility.yul\":4786:4908   */\ntag_33:\n    /* \"#utility.yul\":4859:4883   */\n  tag_88\n    /* \"#utility.yul\":4877:4882   */\n  dup2\n    /* \"#utility.yul\":4859:4883   */\n  tag_68\n  jump\t// in\ntag_88:\n    /* \"#utility.yul\":4852:4857   */\n  dup2\n    /* \"#utility.yul\":4849:4884   */\n  eq\n    /* \"#utility.yul\":4839:4902   */\n  tag_89\n  jumpi\n    /* \"#utility.yul\":4898:4899   */\n  0x00\n    /* \"#utility.yul\":4895:4896   */\n  dup1\n    /* \"#utility.yul\":4888:4900   */\n  revert\n    /* \"#utility.yul\":4839:4902   */\ntag_89:\n    /* \"#utility.yul\":4786:4908   */\n  pop\n  jump\t// out\n    /* \"contracts/2_variables_modifiers.sol\":66:1267  contract variables_modifiers{\r... */\ntag_17:\n  dataSize(sub_0)\n  dup1\n  dataOffset(sub_0)\n  0x00\n  codecopy\n  0x00\n  return\nstop\n\nsub_0: assembly {\n        /* \"contracts/2_variables_modifiers.sol\":66:1267  contract variables_modifiers{\r... */\n      mstore(0x40, 0x80)\n      callvalue\n      dup1\n      iszero\n      tag_1\n      jumpi\n      0x00\n      dup1\n      revert\n    tag_1:\n      pop\n      jumpi(tag_2, lt(calldatasize, 0x04))\n      shr(0xe0, calldataload(0x00))\n      dup1\n      0xb71d2cec\n      gt\n      tag_17\n      jumpi\n      dup1\n      0xc19d93fb\n      gt\n      tag_18\n      jumpi\n      dup1\n      0xc19d93fb\n      eq\n      tag_13\n      jumpi\n      dup1\n      0xc7109d04\n      eq\n      tag_14\n      jumpi\n      dup1\n      0xea362b44\n      eq\n      tag_15\n      jumpi\n      dup1\n      0xebbb4bec\n      eq\n      tag_16\n      jumpi\n      jump(tag_2)\n    tag_18:\n      dup1\n      0xb71d2cec\n      eq\n      tag_10\n      jumpi\n      dup1\n      0xb83d07b7\n      eq\n      tag_11\n      jumpi\n      dup1\n      0xba33ed7d\n      eq\n      tag_12\n      jumpi\n      jump(tag_2)\n    tag_17:\n      dup1\n      0x4df7e3d0\n      gt\n      tag_19\n      jumpi\n      dup1\n      0x4df7e3d0\n      eq\n      tag_6\n      jumpi\n      dup1\n      0x7272eea1\n      eq\n      tag_7\n      jumpi\n      dup1\n      0x8a054ac2\n      eq\n      tag_8\n      jumpi\n      dup1\n      0xaf10c810\n      eq\n      tag_9\n      jumpi\n      jump(tag_2)\n    tag_19:\n      dup1\n      0x2b73648d\n      eq\n      tag_3\n      jumpi\n      dup1\n      0x312eef29\n      eq\n      tag_4\n      jumpi\n      dup1\n      0x4dab6cbe\n      eq\n      tag_5\n      jumpi\n    tag_2:\n      0x00\n      dup1\n      revert\n        /* \"contracts/2_variables_modifiers.sol\":626:703  bytes32 public hashing_keccak256 = keccak256(abi.encodePacked(\"Hola\",\"Joan\")) */\n    tag_3:\n      tag_20\n      tag_21\n      jump\t// in\n    tag_20:\n      mload(0x40)\n      tag_22\n      swap2\n      swap1\n      tag_23\n      jump\t// in\n    tag_22:\n      mload(0x40)\n      dup1\n      swap2\n      sub\n      swap1\n      return\n        /* \"contracts/2_variables_modifiers.sol\":460:491  bool public boolean_true = true */\n    tag_4:\n      tag_24\n      tag_25\n      jump\t// in\n    tag_24:\n      mload(0x40)\n      tag_26\n      swap2\n      swap1\n      tag_27\n      jump\t// in\n    tag_26:\n      mload(0x40)\n      dup1\n      swap2\n      sub\n      swap1\n      return\n        /* \"contracts/2_variables_modifiers.sol\":860:927  address public addres1 = 0xcD6a42782d230D7c13A74ddec5dD140e55499Df9 */\n    tag_5:\n      tag_28\n      tag_29\n      jump\t// in\n    tag_28:\n      mload(0x40)\n      tag_30\n      swap2\n      swap1\n      tag_31\n      jump\t// in\n    tag_30:\n      mload(0x40)\n      dup1\n      swap2\n      sub\n      swap1\n      return\n        /* \"contracts/2_variables_modifiers.sol\":160:176  uint8 public b=3 */\n    tag_6:\n      tag_32\n      tag_33\n      jump\t// in\n    tag_32:\n      mload(0x40)\n      tag_34\n      swap2\n      swap1\n      tag_35\n      jump\t// in\n    tag_34:\n      mload(0x40)\n      dup1\n      swap2\n      sub\n      swap1\n      return\n        /* \"contracts/2_variables_modifiers.sol\":1180:1264  function displayState() public view returns (options){\r... */\n    tag_7:\n      tag_36\n      tag_37\n      jump\t// in\n    tag_36:\n      mload(0x40)\n      tag_38\n      swap2\n      swap1\n      tag_39\n      jump\t// in\n    tag_38:\n      mload(0x40)\n      dup1\n      swap2\n      sub\n      swap1\n      return\n        /* \"contracts/2_variables_modifiers.sol\":225:244  int8 public d = -10 */\n    tag_8:\n      tag_40\n      tag_41\n      jump\t// in\n    tag_40:\n      mload(0x40)\n      tag_42\n      swap2\n      swap1\n      tag_43\n      jump\t// in\n    tag_42:\n      mload(0x40)\n      dup1\n      swap2\n      sub\n      swap1\n      return\n        /* \"contracts/2_variables_modifiers.sol\":1108:1172  function turnOff() public {\r... */\n    tag_9:\n      tag_44\n      tag_45\n      jump\t// in\n    tag_44:\n      stop\n        /* \"contracts/2_variables_modifiers.sol\":815:853  address public my_address = msg.sender */\n    tag_10:\n      tag_46\n      tag_47\n      jump\t// in\n    tag_46:\n      mload(0x40)\n      tag_48\n      swap2\n      swap1\n      tag_31\n      jump\t// in\n    tag_48:\n      mload(0x40)\n      dup1\n      swap2\n      sub\n      swap1\n      return\n        /* \"contracts/2_variables_modifiers.sol\":311:355  string public str_public = \"Esto es publico\" */\n    tag_11:\n      tag_49\n      tag_50\n      jump\t// in\n    tag_49:\n      mload(0x40)\n      tag_51\n      swap2\n      swap1\n      tag_52\n      jump\t// in\n    tag_51:\n      mload(0x40)\n      dup1\n      swap2\n      sub\n      swap1\n      return\n        /* \"contracts/2_variables_modifiers.sol\":1039:1101  function turnOn() public {\r... */\n    tag_12:\n      tag_53\n      tag_54\n      jump\t// in\n    tag_53:\n      stop\n        /* \"contracts/2_variables_modifiers.sol\":994:1030  options public state = options.ERROR */\n    tag_13:\n      tag_55\n      tag_56\n      jump\t// in\n    tag_55:\n      mload(0x40)\n      tag_57\n      swap2\n      swap1\n      tag_39\n      jump\t// in\n    tag_57:\n      mload(0x40)\n      dup1\n      swap2\n      sub\n      swap1\n      return\n        /* \"contracts/2_variables_modifiers.sol\":710:781  bytes32 public hashing_sha256 = sha256(abi.encodePacked(\"Hola\",\"Joan\")) */\n    tag_14:\n      tag_58\n      tag_59\n      jump\t// in\n    tag_58:\n      mload(0x40)\n      tag_60\n      swap2\n      swap1\n      tag_23\n      jump\t// in\n    tag_60:\n      mload(0x40)\n      dup1\n      swap2\n      sub\n      swap1\n      return\n        /* \"contracts/2_variables_modifiers.sol\":590:619  bytes4 public second_byte=\"D\" */\n    tag_15:\n      tag_61\n      tag_62\n      jump\t// in\n    tag_61:\n      mload(0x40)\n      tag_63\n      swap2\n      swap1\n      tag_64\n      jump\t// in\n    tag_63:\n      mload(0x40)\n      dup1\n      swap2\n      sub\n      swap1\n      return\n        /* \"contracts/2_variables_modifiers.sol\":362:407  string public str_privado = \"Esto es privado\" */\n    tag_16:\n      tag_65\n      tag_66\n      jump\t// in\n    tag_65:\n      mload(0x40)\n      tag_67\n      swap2\n      swap1\n      tag_52\n      jump\t// in\n    tag_67:\n      mload(0x40)\n      dup1\n      swap2\n      sub\n      swap1\n      return\n        /* \"contracts/2_variables_modifiers.sol\":626:703  bytes32 public hashing_keccak256 = keccak256(abi.encodePacked(\"Hola\",\"Joan\")) */\n    tag_21:\n      sload(0x0b)\n      dup2\n      jump\t// out\n        /* \"contracts/2_variables_modifiers.sol\":460:491  bool public boolean_true = true */\n    tag_25:\n      0x08\n      0x01\n      swap1\n      sload\n      swap1\n      0x0100\n      exp\n      swap1\n      div\n      0xff\n      and\n      dup2\n      jump\t// out\n        /* \"contracts/2_variables_modifiers.sol\":860:927  address public addres1 = 0xcD6a42782d230D7c13A74ddec5dD140e55499Df9 */\n    tag_29:\n      0x0e\n      0x00\n      swap1\n      sload\n      swap1\n      0x0100\n      exp\n      swap1\n      div\n      0xffffffffffffffffffffffffffffffffffffffff\n      and\n      dup2\n      jump\t// out\n        /* \"contracts/2_variables_modifiers.sol\":160:176  uint8 public b=3 */\n    tag_33:\n      0x01\n      0x00\n      swap1\n      sload\n      swap1\n      0x0100\n      exp\n      swap1\n      div\n      0xff\n      and\n      dup2\n      jump\t// out\n        /* \"contracts/2_variables_modifiers.sol\":1180:1264  function displayState() public view returns (options){\r... */\n    tag_37:\n        /* \"contracts/2_variables_modifiers.sol\":1225:1232  options */\n      0x00\n        /* \"contracts/2_variables_modifiers.sol\":1251:1256  state */\n      0x0e\n      0x14\n      swap1\n      sload\n      swap1\n      0x0100\n      exp\n      swap1\n      div\n      0xff\n      and\n        /* \"contracts/2_variables_modifiers.sol\":1244:1256  return state */\n      swap1\n      pop\n        /* \"contracts/2_variables_modifiers.sol\":1180:1264  function displayState() public view returns (options){\r... */\n      swap1\n      jump\t// out\n        /* \"contracts/2_variables_modifiers.sol\":225:244  int8 public d = -10 */\n    tag_41:\n      0x03\n      0x00\n      swap1\n      sload\n      swap1\n      0x0100\n      exp\n      swap1\n      div\n      0x00\n      signextend\n      dup2\n      jump\t// out\n        /* \"contracts/2_variables_modifiers.sol\":1108:1172  function turnOff() public {\r... */\n    tag_45:\n        /* \"contracts/2_variables_modifiers.sol\":1153:1164  options.OFF */\n      0x01\n        /* \"contracts/2_variables_modifiers.sol\":1145:1150  state */\n      0x0e\n      0x14\n        /* \"contracts/2_variables_modifiers.sol\":1145:1164  state = options.OFF */\n      0x0100\n      exp\n      dup2\n      sload\n      dup2\n      0xff\n      mul\n      not\n      and\n      swap1\n      dup4\n      0x02\n      dup2\n      gt\n      iszero\n      tag_70\n      jumpi\n      tag_71\n      tag_72\n      jump\t// in\n    tag_71:\n    tag_70:\n      mul\n      or\n      swap1\n      sstore\n      pop\n        /* \"contracts/2_variables_modifiers.sol\":1108:1172  function turnOff() public {\r... */\n      jump\t// out\n        /* \"contracts/2_variables_modifiers.sol\":815:853  address public my_address = msg.sender */\n    tag_47:\n      0x0d\n      0x00\n      swap1\n      sload\n      swap1\n      0x0100\n      exp\n      swap1\n      div\n      0xffffffffffffffffffffffffffffffffffffffff\n      and\n      dup2\n      jump\t// out\n        /* \"contracts/2_variables_modifiers.sol\":311:355  string public str_public = \"Esto es publico\" */\n    tag_50:\n      0x06\n      dup1\n      sload\n      tag_73\n      swap1\n      tag_74\n      jump\t// in\n    tag_73:\n      dup1\n      0x1f\n      add\n      0x20\n      dup1\n      swap2\n      div\n      mul\n      0x20\n      add\n      mload(0x40)\n      swap1\n      dup2\n      add\n      0x40\n      mstore\n      dup1\n      swap3\n      swap2\n      swap1\n      dup2\n      dup2\n      mstore\n      0x20\n      add\n      dup3\n      dup1\n      sload\n      tag_75\n      swap1\n      tag_74\n      jump\t// in\n    tag_75:\n      dup1\n      iszero\n      tag_76\n      jumpi\n      dup1\n      0x1f\n      lt\n      tag_77\n      jumpi\n      0x0100\n      dup1\n      dup4\n      sload\n      div\n      mul\n      dup4\n      mstore\n      swap2\n      0x20\n      add\n      swap2\n      jump(tag_76)\n    tag_77:\n      dup3\n      add\n      swap2\n      swap1\n      0x00\n      mstore\n      keccak256(0x00, 0x20)\n      swap1\n    tag_78:\n      dup2\n      sload\n      dup2\n      mstore\n      swap1\n      0x01\n      add\n      swap1\n      0x20\n      add\n      dup1\n      dup4\n      gt\n      tag_78\n      jumpi\n      dup3\n      swap1\n      sub\n      0x1f\n      and\n      dup3\n      add\n      swap2\n    tag_76:\n      pop\n      pop\n      pop\n      pop\n      pop\n      dup2\n      jump\t// out\n        /* \"contracts/2_variables_modifiers.sol\":1039:1101  function turnOn() public {\r... */\n    tag_54:\n        /* \"contracts/2_variables_modifiers.sol\":1083:1093  options.ON */\n      0x00\n        /* \"contracts/2_variables_modifiers.sol\":1075:1080  state */\n      0x0e\n      0x14\n        /* \"contracts/2_variables_modifiers.sol\":1075:1093  state = options.ON */\n      0x0100\n      exp\n      dup2\n      sload\n      dup2\n      0xff\n      mul\n      not\n      and\n      swap1\n      dup4\n      0x02\n      dup2\n      gt\n      iszero\n      tag_80\n      jumpi\n      tag_81\n      tag_72\n      jump\t// in\n    tag_81:\n    tag_80:\n      mul\n      or\n      swap1\n      sstore\n      pop\n        /* \"contracts/2_variables_modifiers.sol\":1039:1101  function turnOn() public {\r... */\n      jump\t// out\n        /* \"contracts/2_variables_modifiers.sol\":994:1030  options public state = options.ERROR */\n    tag_56:\n      0x0e\n      0x14\n      swap1\n      sload\n      swap1\n      0x0100\n      exp\n      swap1\n      div\n      0xff\n      and\n      dup2\n      jump\t// out\n        /* \"contracts/2_variables_modifiers.sol\":710:781  bytes32 public hashing_sha256 = sha256(abi.encodePacked(\"Hola\",\"Joan\")) */\n    tag_59:\n      sload(0x0c)\n      dup2\n      jump\t// out\n        /* \"contracts/2_variables_modifiers.sol\":590:619  bytes4 public second_byte=\"D\" */\n    tag_62:\n      0x0a\n      0x00\n      swap1\n      sload\n      swap1\n      0x0100\n      exp\n      swap1\n      div\n      0xe0\n      shl\n      dup2\n      jump\t// out\n        /* \"contracts/2_variables_modifiers.sol\":362:407  string public str_privado = \"Esto es privado\" */\n    tag_66:\n      0x07\n      dup1\n      sload\n      tag_82\n      swap1\n      tag_74\n      jump\t// in\n    tag_82:\n      dup1\n      0x1f\n      add\n      0x20\n      dup1\n      swap2\n      div\n      mul\n      0x20\n      add\n      mload(0x40)\n      swap1\n      dup2\n      add\n      0x40\n      mstore\n      dup1\n      swap3\n      swap2\n      swap1\n      dup2\n      dup2\n      mstore\n      0x20\n      add\n      dup3\n      dup1\n      sload\n      tag_83\n      swap1\n      tag_74\n      jump\t// in\n    tag_83:\n      dup1\n      iszero\n      tag_84\n      jumpi\n      dup1\n      0x1f\n      lt\n      tag_85\n      jumpi\n      0x0100\n      dup1\n      dup4\n      sload\n      div\n      mul\n      dup4\n      mstore\n      swap2\n      0x20\n      add\n      swap2\n      jump(tag_84)\n    tag_85:\n      dup3\n      add\n      swap2\n      swap1\n      0x00\n      mstore\n      keccak256(0x00, 0x20)\n      swap1\n    tag_86:\n      dup2\n      sload\n      dup2\n      mstore\n      swap1\n      0x01\n      add\n      swap1\n      0x20\n      add\n      dup1\n      dup4\n      gt\n      tag_86\n      jumpi\n      dup3\n      swap1\n      sub\n      0x1f\n      and\n      dup3\n      add\n      swap2\n    tag_84:\n      pop\n      pop\n      pop\n      pop\n      pop\n      dup2\n      jump\t// out\n        /* \"#utility.yul\":7:125   */\n    tag_88:\n        /* \"#utility.yul\":94:118   */\n      tag_90\n        /* \"#utility.yul\":112:117   */\n      dup2\n        /* \"#utility.yul\":94:118   */\n      tag_91\n      jump\t// in\n    tag_90:\n        /* \"#utility.yul\":89:92   */\n      dup3\n        /* \"#utility.yul\":82:119   */\n      mstore\n        /* \"#utility.yul\":7:125   */\n      pop\n      pop\n      jump\t// out\n        /* \"#utility.yul\":131:240   */\n    tag_92:\n        /* \"#utility.yul\":212:233   */\n      tag_94\n        /* \"#utility.yul\":227:232   */\n      dup2\n        /* \"#utility.yul\":212:233   */\n      tag_95\n      jump\t// in\n    tag_94:\n        /* \"#utility.yul\":207:210   */\n      dup3\n        /* \"#utility.yul\":200:234   */\n      mstore\n        /* \"#utility.yul\":131:240   */\n      pop\n      pop\n      jump\t// out\n        /* \"#utility.yul\":246:364   */\n    tag_96:\n        /* \"#utility.yul\":333:357   */\n      tag_98\n        /* \"#utility.yul\":351:356   */\n      dup2\n        /* \"#utility.yul\":333:357   */\n      tag_99\n      jump\t// in\n    tag_98:\n        /* \"#utility.yul\":328:331   */\n      dup3\n        /* \"#utility.yul\":321:358   */\n      mstore\n        /* \"#utility.yul\":246:364   */\n      pop\n      pop\n      jump\t// out\n        /* \"#utility.yul\":370:485   */\n    tag_100:\n        /* \"#utility.yul\":455:478   */\n      tag_102\n        /* \"#utility.yul\":472:477   */\n      dup2\n        /* \"#utility.yul\":455:478   */\n      tag_103\n      jump\t// in\n    tag_102:\n        /* \"#utility.yul\":450:453   */\n      dup3\n        /* \"#utility.yul\":443:479   */\n      mstore\n        /* \"#utility.yul\":370:485   */\n      pop\n      pop\n      jump\t// out\n        /* \"#utility.yul\":491:638   */\n    tag_104:\n        /* \"#utility.yul\":586:631   */\n      tag_106\n        /* \"#utility.yul\":625:630   */\n      dup2\n        /* \"#utility.yul\":586:631   */\n      tag_107\n      jump\t// in\n    tag_106:\n        /* \"#utility.yul\":581:584   */\n      dup3\n        /* \"#utility.yul\":574:632   */\n      mstore\n        /* \"#utility.yul\":491:638   */\n      pop\n      pop\n      jump\t// out\n        /* \"#utility.yul\":644:753   */\n    tag_108:\n        /* \"#utility.yul\":725:746   */\n      tag_110\n        /* \"#utility.yul\":740:745   */\n      dup2\n        /* \"#utility.yul\":725:746   */\n      tag_111\n      jump\t// in\n    tag_110:\n        /* \"#utility.yul\":720:723   */\n      dup3\n        /* \"#utility.yul\":713:747   */\n      mstore\n        /* \"#utility.yul\":644:753   */\n      pop\n      pop\n      jump\t// out\n        /* \"#utility.yul\":759:1123   */\n    tag_112:\n        /* \"#utility.yul\":847:850   */\n      0x00\n        /* \"#utility.yul\":875:914   */\n      tag_114\n        /* \"#utility.yul\":908:913   */\n      dup3\n        /* \"#utility.yul\":875:914   */\n      tag_115\n      jump\t// in\n    tag_114:\n        /* \"#utility.yul\":930:1001   */\n      tag_116\n        /* \"#utility.yul\":994:1000   */\n      dup2\n        /* \"#utility.yul\":989:992   */\n      dup6\n        /* \"#utility.yul\":930:1001   */\n      tag_117\n      jump\t// in\n    tag_116:\n        /* \"#utility.yul\":923:1001   */\n      swap4\n      pop\n        /* \"#utility.yul\":1010:1062   */\n      tag_118\n        /* \"#utility.yul\":1055:1061   */\n      dup2\n        /* \"#utility.yul\":1050:1053   */\n      dup6\n        /* \"#utility.yul\":1043:1047   */\n      0x20\n        /* \"#utility.yul\":1036:1041   */\n      dup7\n        /* \"#utility.yul\":1032:1048   */\n      add\n        /* \"#utility.yul\":1010:1062   */\n      tag_119\n      jump\t// in\n    tag_118:\n        /* \"#utility.yul\":1087:1116   */\n      tag_120\n        /* \"#utility.yul\":1109:1115   */\n      dup2\n        /* \"#utility.yul\":1087:1116   */\n      tag_121\n      jump\t// in\n    tag_120:\n        /* \"#utility.yul\":1082:1085   */\n      dup5\n        /* \"#utility.yul\":1078:1117   */\n      add\n        /* \"#utility.yul\":1071:1117   */\n      swap2\n      pop\n        /* \"#utility.yul\":851:1123   */\n      pop\n        /* \"#utility.yul\":759:1123   */\n      swap3\n      swap2\n      pop\n      pop\n      jump\t// out\n        /* \"#utility.yul\":1129:1241   */\n    tag_122:\n        /* \"#utility.yul\":1212:1234   */\n      tag_124\n        /* \"#utility.yul\":1228:1233   */\n      dup2\n        /* \"#utility.yul\":1212:1234   */\n      tag_125\n      jump\t// in\n    tag_124:\n        /* \"#utility.yul\":1207:1210   */\n      dup3\n        /* \"#utility.yul\":1200:1235   */\n      mstore\n        /* \"#utility.yul\":1129:1241   */\n      pop\n      pop\n      jump\t// out\n        /* \"#utility.yul\":1247:1469   */\n    tag_31:\n        /* \"#utility.yul\":1340:1344   */\n      0x00\n        /* \"#utility.yul\":1378:1380   */\n      0x20\n        /* \"#utility.yul\":1367:1376   */\n      dup3\n        /* \"#utility.yul\":1363:1381   */\n      add\n        /* \"#utility.yul\":1355:1381   */\n      swap1\n      pop\n        /* \"#utility.yul\":1391:1462   */\n      tag_127\n        /* \"#utility.yul\":1459:1460   */\n      0x00\n        /* \"#utility.yul\":1448:1457   */\n      dup4\n        /* \"#utility.yul\":1444:1461   */\n      add\n        /* \"#utility.yul\":1435:1441   */\n      dup5\n        /* \"#utility.yul\":1391:1462   */\n      tag_88\n      jump\t// in\n    tag_127:\n        /* \"#utility.yul\":1247:1469   */\n      swap3\n      swap2\n      pop\n      pop\n      jump\t// out\n        /* \"#utility.yul\":1475:1685   */\n    tag_27:\n        /* \"#utility.yul\":1562:1566   */\n      0x00\n        /* \"#utility.yul\":1600:1602   */\n      0x20\n        /* \"#utility.yul\":1589:1598   */\n      dup3\n        /* \"#utility.yul\":1585:1603   */\n      add\n        /* \"#utility.yul\":1577:1603   */\n      swap1\n      pop\n        /* \"#utility.yul\":1613:1678   */\n      tag_129\n        /* \"#utility.yul\":1675:1676   */\n      0x00\n        /* \"#utility.yul\":1664:1673   */\n      dup4\n        /* \"#utility.yul\":1660:1677   */\n      add\n        /* \"#utility.yul\":1651:1657   */\n      dup5\n        /* \"#utility.yul\":1613:1678   */\n      tag_92\n      jump\t// in\n    tag_129:\n        /* \"#utility.yul\":1475:1685   */\n      swap3\n      swap2\n      pop\n      pop\n      jump\t// out\n        /* \"#utility.yul\":1691:1913   */\n    tag_23:\n        /* \"#utility.yul\":1784:1788   */\n      0x00\n        /* \"#utility.yul\":1822:1824   */\n      0x20\n        /* \"#utility.yul\":1811:1820   */\n      dup3\n        /* \"#utility.yul\":1807:1825   */\n      add\n        /* \"#utility.yul\":1799:1825   */\n      swap1\n      pop\n        /* \"#utility.yul\":1835:1906   */\n      tag_131\n        /* \"#utility.yul\":1903:1904   */\n      0x00\n        /* \"#utility.yul\":1892:1901   */\n      dup4\n        /* \"#utility.yul\":1888:1905   */\n      add\n        /* \"#utility.yul\":1879:1885   */\n      dup5\n        /* \"#utility.yul\":1835:1906   */\n      tag_96\n      jump\t// in\n    tag_131:\n        /* \"#utility.yul\":1691:1913   */\n      swap3\n      swap2\n      pop\n      pop\n      jump\t// out\n        /* \"#utility.yul\":1919:2137   */\n    tag_64:\n        /* \"#utility.yul\":2010:2014   */\n      0x00\n        /* \"#utility.yul\":2048:2050   */\n      0x20\n        /* \"#utility.yul\":2037:2046   */\n      dup3\n        /* \"#utility.yul\":2033:2051   */\n      add\n        /* \"#utility.yul\":2025:2051   */\n      swap1\n      pop\n        /* \"#utility.yul\":2061:2130   */\n      tag_133\n        /* \"#utility.yul\":2127:2128   */\n      0x00\n        /* \"#utility.yul\":2116:2125   */\n      dup4\n        /* \"#utility.yul\":2112:2129   */\n      add\n        /* \"#utility.yul\":2103:2109   */\n      dup5\n        /* \"#utility.yul\":2061:2130   */\n      tag_100\n      jump\t// in\n    tag_133:\n        /* \"#utility.yul\":1919:2137   */\n      swap3\n      swap2\n      pop\n      pop\n      jump\t// out\n        /* \"#utility.yul\":2143:2381   */\n    tag_39:\n        /* \"#utility.yul\":2244:2248   */\n      0x00\n        /* \"#utility.yul\":2282:2284   */\n      0x20\n        /* \"#utility.yul\":2271:2280   */\n      dup3\n        /* \"#utility.yul\":2267:2285   */\n      add\n        /* \"#utility.yul\":2259:2285   */\n      swap1\n      pop\n        /* \"#utility.yul\":2295:2374   */\n      tag_135\n        /* \"#utility.yul\":2371:2372   */\n      0x00\n        /* \"#utility.yul\":2360:2369   */\n      dup4\n        /* \"#utility.yul\":2356:2373   */\n      add\n        /* \"#utility.yul\":2347:2353   */\n      dup5\n        /* \"#utility.yul\":2295:2374   */\n      tag_104\n      jump\t// in\n    tag_135:\n        /* \"#utility.yul\":2143:2381   */\n      swap3\n      swap2\n      pop\n      pop\n      jump\t// out\n        /* \"#utility.yul\":2387:2597   */\n    tag_43:\n        /* \"#utility.yul\":2474:2478   */\n      0x00\n        /* \"#utility.yul\":2512:2514   */\n      0x20\n        /* \"#utility.yul\":2501:2510   */\n      dup3\n        /* \"#utility.yul\":2497:2515   */\n      add\n        /* \"#utility.yul\":2489:2515   */\n      swap1\n      pop\n        /* \"#utility.yul\":2525:2590   */\n      tag_137\n        /* \"#utility.yul\":2587:2588   */\n      0x00\n        /* \"#utility.yul\":2576:2585   */\n      dup4\n        /* \"#utility.yul\":2572:2589   */\n      add\n        /* \"#utility.yul\":2563:2569   */\n      dup5\n        /* \"#utility.yul\":2525:2590   */\n      tag_108\n      jump\t// in\n    tag_137:\n        /* \"#utility.yul\":2387:2597   */\n      swap3\n      swap2\n      pop\n      pop\n      jump\t// out\n        /* \"#utility.yul\":2603:2916   */\n    tag_52:\n        /* \"#utility.yul\":2716:2720   */\n      0x00\n        /* \"#utility.yul\":2754:2756   */\n      0x20\n        /* \"#utility.yul\":2743:2752   */\n      dup3\n        /* \"#utility.yul\":2739:2757   */\n      add\n        /* \"#utility.yul\":2731:2757   */\n      swap1\n      pop\n        /* \"#utility.yul\":2803:2812   */\n      dup2\n        /* \"#utility.yul\":2797:2801   */\n      dup2\n        /* \"#utility.yul\":2793:2813   */\n      sub\n        /* \"#utility.yul\":2789:2790   */\n      0x00\n        /* \"#utility.yul\":2778:2787   */\n      dup4\n        /* \"#utility.yul\":2774:2791   */\n      add\n        /* \"#utility.yul\":2767:2814   */\n      mstore\n        /* \"#utility.yul\":2831:2909   */\n      tag_139\n        /* \"#utility.yul\":2904:2908   */\n      dup2\n        /* \"#utility.yul\":2895:2901   */\n      dup5\n        /* \"#utility.yul\":2831:2909   */\n      tag_112\n      jump\t// in\n    tag_139:\n        /* \"#utility.yul\":2823:2909   */\n      swap1\n      pop\n        /* \"#utility.yul\":2603:2916   */\n      swap3\n      swap2\n      pop\n      pop\n      jump\t// out\n        /* \"#utility.yul\":2922:3136   */\n    tag_35:\n        /* \"#utility.yul\":3011:3015   */\n      0x00\n        /* \"#utility.yul\":3049:3051   */\n      0x20\n        /* \"#utility.yul\":3038:3047   */\n      dup3\n        /* \"#utility.yul\":3034:3052   */\n      add\n        /* \"#utility.yul\":3026:3052   */\n      swap1\n      pop\n        /* \"#utility.yul\":3062:3129   */\n      tag_141\n        /* \"#utility.yul\":3126:3127   */\n      0x00\n        /* \"#utility.yul\":3115:3124   */\n      dup4\n        /* \"#utility.yul\":3111:3128   */\n      add\n        /* \"#utility.yul\":3102:3108   */\n      dup5\n        /* \"#utility.yul\":3062:3129   */\n      tag_122\n      jump\t// in\n    tag_141:\n        /* \"#utility.yul\":2922:3136   */\n      swap3\n      swap2\n      pop\n      pop\n      jump\t// out\n        /* \"#utility.yul\":3142:3241   */\n    tag_115:\n        /* \"#utility.yul\":3194:3200   */\n      0x00\n        /* \"#utility.yul\":3228:3233   */\n      dup2\n        /* \"#utility.yul\":3222:3234   */\n      mload\n        /* \"#utility.yul\":3212:3234   */\n      swap1\n      pop\n        /* \"#utility.yul\":3142:3241   */\n      swap2\n      swap1\n      pop\n      jump\t// out\n        /* \"#utility.yul\":3247:3416   */\n    tag_117:\n        /* \"#utility.yul\":3331:3342   */\n      0x00\n        /* \"#utility.yul\":3365:3371   */\n      dup3\n        /* \"#utility.yul\":3360:3363   */\n      dup3\n        /* \"#utility.yul\":3353:3372   */\n      mstore\n        /* \"#utility.yul\":3405:3409   */\n      0x20\n        /* \"#utility.yul\":3400:3403   */\n      dup3\n        /* \"#utility.yul\":3396:3410   */\n      add\n        /* \"#utility.yul\":3381:3410   */\n      swap1\n      pop\n        /* \"#utility.yul\":3247:3416   */\n      swap3\n      swap2\n      pop\n      pop\n      jump\t// out\n        /* \"#utility.yul\":3422:3518   */\n    tag_91:\n        /* \"#utility.yul\":3459:3466   */\n      0x00\n        /* \"#utility.yul\":3488:3512   */\n      tag_145\n        /* \"#utility.yul\":3506:3511   */\n      dup3\n        /* \"#utility.yul\":3488:3512   */\n      tag_146\n      jump\t// in\n    tag_145:\n        /* \"#utility.yul\":3477:3512   */\n      swap1\n      pop\n        /* \"#utility.yul\":3422:3518   */\n      swap2\n      swap1\n      pop\n      jump\t// out\n        /* \"#utility.yul\":3524:3614   */\n    tag_95:\n        /* \"#utility.yul\":3558:3565   */\n      0x00\n        /* \"#utility.yul\":3601:3606   */\n      dup2\n        /* \"#utility.yul\":3594:3607   */\n      iszero\n        /* \"#utility.yul\":3587:3608   */\n      iszero\n        /* \"#utility.yul\":3576:3608   */\n      swap1\n      pop\n        /* \"#utility.yul\":3524:3614   */\n      swap2\n      swap1\n      pop\n      jump\t// out\n        /* \"#utility.yul\":3620:3697   */\n    tag_99:\n        /* \"#utility.yul\":3657:3664   */\n      0x00\n        /* \"#utility.yul\":3686:3691   */\n      dup2\n        /* \"#utility.yul\":3675:3691   */\n      swap1\n      pop\n        /* \"#utility.yul\":3620:3697   */\n      swap2\n      swap1\n      pop\n      jump\t// out\n        /* \"#utility.yul\":3703:3852   */\n    tag_103:\n        /* \"#utility.yul\":3739:3746   */\n      0x00\n        /* \"#utility.yul\":3779:3845   */\n      0xffffffff00000000000000000000000000000000000000000000000000000000\n        /* \"#utility.yul\":3772:3777   */\n      dup3\n        /* \"#utility.yul\":3768:3846   */\n      and\n        /* \"#utility.yul\":3757:3846   */\n      swap1\n      pop\n        /* \"#utility.yul\":3703:3852   */\n      swap2\n      swap1\n      pop\n      jump\t// out\n        /* \"#utility.yul\":3858:3989   */\n    tag_150:\n        /* \"#utility.yul\":3905:3912   */\n      0x00\n        /* \"#utility.yul\":3934:3939   */\n      dup2\n        /* \"#utility.yul\":3923:3939   */\n      swap1\n      pop\n        /* \"#utility.yul\":3940:3983   */\n      tag_152\n        /* \"#utility.yul\":3977:3982   */\n      dup3\n        /* \"#utility.yul\":3940:3983   */\n      tag_153\n      jump\t// in\n    tag_152:\n        /* \"#utility.yul\":3858:3989   */\n      swap2\n      swap1\n      pop\n      jump\t// out\n        /* \"#utility.yul\":3995:4084   */\n    tag_111:\n        /* \"#utility.yul\":4029:4036   */\n      0x00\n        /* \"#utility.yul\":4072:4077   */\n      dup2\n        /* \"#utility.yul\":4069:4070   */\n      0x00\n        /* \"#utility.yul\":4058:4078   */\n      signextend\n        /* \"#utility.yul\":4047:4078   */\n      swap1\n      pop\n        /* \"#utility.yul\":3995:4084   */\n      swap2\n      swap1\n      pop\n      jump\t// out\n        /* \"#utility.yul\":4090:4216   */\n    tag_146:\n        /* \"#utility.yul\":4127:4134   */\n      0x00\n        /* \"#utility.yul\":4167:4209   */\n      0xffffffffffffffffffffffffffffffffffffffff\n        /* \"#utility.yul\":4160:4165   */\n      dup3\n        /* \"#utility.yul\":4156:4210   */\n      and\n        /* \"#utility.yul\":4145:4210   */\n      swap1\n      pop\n        /* \"#utility.yul\":4090:4216   */\n      swap2\n      swap1\n      pop\n      jump\t// out\n        /* \"#utility.yul\":4222:4308   */\n    tag_125:\n        /* \"#utility.yul\":4257:4264   */\n      0x00\n        /* \"#utility.yul\":4297:4301   */\n      0xff\n        /* \"#utility.yul\":4290:4295   */\n      dup3\n        /* \"#utility.yul\":4286:4302   */\n      and\n        /* \"#utility.yul\":4275:4302   */\n      swap1\n      pop\n        /* \"#utility.yul\":4222:4308   */\n      swap2\n      swap1\n      pop\n      jump\t// out\n        /* \"#utility.yul\":4314:4445   */\n    tag_107:\n        /* \"#utility.yul\":4372:4381   */\n      0x00\n        /* \"#utility.yul\":4405:4439   */\n      tag_158\n        /* \"#utility.yul\":4433:4438   */\n      dup3\n        /* \"#utility.yul\":4405:4439   */\n      tag_150\n      jump\t// in\n    tag_158:\n        /* \"#utility.yul\":4392:4439   */\n      swap1\n      pop\n        /* \"#utility.yul\":4314:4445   */\n      swap2\n      swap1\n      pop\n      jump\t// out\n        /* \"#utility.yul\":4451:4758   */\n    tag_119:\n        /* \"#utility.yul\":4519:4520   */\n      0x00\n        /* \"#utility.yul\":4529:4642   */\n    tag_160:\n        /* \"#utility.yul\":4543:4549   */\n      dup4\n        /* \"#utility.yul\":4540:4541   */\n      dup2\n        /* \"#utility.yul\":4537:4550   */\n      lt\n        /* \"#utility.yul\":4529:4642   */\n      iszero\n      tag_162\n      jumpi\n        /* \"#utility.yul\":4628:4629   */\n      dup1\n        /* \"#utility.yul\":4623:4626   */\n      dup3\n        /* \"#utility.yul\":4619:4630   */\n      add\n        /* \"#utility.yul\":4613:4631   */\n      mload\n        /* \"#utility.yul\":4609:4610   */\n      dup2\n        /* \"#utility.yul\":4604:4607   */\n      dup5\n        /* \"#utility.yul\":4600:4611   */\n      add\n        /* \"#utility.yul\":4593:4632   */\n      mstore\n        /* \"#utility.yul\":4565:4567   */\n      0x20\n        /* \"#utility.yul\":4562:4563   */\n      dup2\n        /* \"#utility.yul\":4558:4568   */\n      add\n        /* \"#utility.yul\":4553:4568   */\n      swap1\n      pop\n        /* \"#utility.yul\":4529:4642   */\n      jump(tag_160)\n    tag_162:\n        /* \"#utility.yul\":4660:4666   */\n      dup4\n        /* \"#utility.yul\":4657:4658   */\n      dup2\n        /* \"#utility.yul\":4654:4667   */\n      gt\n        /* \"#utility.yul\":4651:4752   */\n      iszero\n      tag_163\n      jumpi\n        /* \"#utility.yul\":4740:4741   */\n      0x00\n        /* \"#utility.yul\":4731:4737   */\n      dup5\n        /* \"#utility.yul\":4726:4729   */\n      dup5\n        /* \"#utility.yul\":4722:4738   */\n      add\n        /* \"#utility.yul\":4715:4742   */\n      mstore\n        /* \"#utility.yul\":4651:4752   */\n    tag_163:\n        /* \"#utility.yul\":4500:4758   */\n      pop\n        /* \"#utility.yul\":4451:4758   */\n      pop\n      pop\n      pop\n      jump\t// out\n        /* \"#utility.yul\":4764:5084   */\n    tag_74:\n        /* \"#utility.yul\":4808:4814   */\n      0x00\n        /* \"#utility.yul\":4845:4846   */\n      0x02\n        /* \"#utility.yul\":4839:4843   */\n      dup3\n        /* \"#utility.yul\":4835:4847   */\n      div\n        /* \"#utility.yul\":4825:4847   */\n      swap1\n      pop\n        /* \"#utility.yul\":4892:4893   */\n      0x01\n        /* \"#utility.yul\":4886:4890   */\n      dup3\n        /* \"#utility.yul\":4882:4894   */\n      and\n        /* \"#utility.yul\":4913:4931   */\n      dup1\n        /* \"#utility.yul\":4903:4984   */\n      tag_165\n      jumpi\n        /* \"#utility.yul\":4969:4973   */\n      0x7f\n        /* \"#utility.yul\":4961:4967   */\n      dup3\n        /* \"#utility.yul\":4957:4974   */\n      and\n        /* \"#utility.yul\":4947:4974   */\n      swap2\n      pop\n        /* \"#utility.yul\":4903:4984   */\n    tag_165:\n        /* \"#utility.yul\":5031:5033   */\n      0x20\n        /* \"#utility.yul\":5023:5029   */\n      dup3\n        /* \"#utility.yul\":5020:5034   */\n      lt\n        /* \"#utility.yul\":5000:5018   */\n      dup2\n        /* \"#utility.yul\":4997:5035   */\n      eq\n        /* \"#utility.yul\":4994:5078   */\n      iszero\n      tag_166\n      jumpi\n        /* \"#utility.yul\":5050:5068   */\n      tag_167\n      tag_168\n      jump\t// in\n    tag_167:\n        /* \"#utility.yul\":4994:5078   */\n    tag_166:\n        /* \"#utility.yul\":4815:5084   */\n      pop\n        /* \"#utility.yul\":4764:5084   */\n      swap2\n      swap1\n      pop\n      jump\t// out\n        /* \"#utility.yul\":5090:5270   */\n    tag_72:\n        /* \"#utility.yul\":5138:5215   */\n      0x4e487b7100000000000000000000000000000000000000000000000000000000\n        /* \"#utility.yul\":5135:5136   */\n      0x00\n        /* \"#utility.yul\":5128:5216   */\n      mstore\n        /* \"#utility.yul\":5235:5239   */\n      0x21\n        /* \"#utility.yul\":5232:5233   */\n      0x04\n        /* \"#utility.yul\":5225:5240   */\n      mstore\n        /* \"#utility.yul\":5259:5263   */\n      0x24\n        /* \"#utility.yul\":5256:5257   */\n      0x00\n        /* \"#utility.yul\":5249:5264   */\n      revert\n        /* \"#utility.yul\":5276:5456   */\n    tag_168:\n        /* \"#utility.yul\":5324:5401   */\n      0x4e487b7100000000000000000000000000000000000000000000000000000000\n        /* \"#utility.yul\":5321:5322   */\n      0x00\n        /* \"#utility.yul\":5314:5402   */\n      mstore\n        /* \"#utility.yul\":5421:5425   */\n      0x22\n        /* \"#utility.yul\":5418:5419   */\n      0x04\n        /* \"#utility.yul\":5411:5426   */\n      mstore\n        /* \"#utility.yul\":5445:5449   */\n      0x24\n        /* \"#utility.yul\":5442:5443   */\n      0x00\n        /* \"#utility.yul\":5435:5450   */\n      revert\n        /* \"#utility.yul\":5462:5564   */\n    tag_121:\n        /* \"#utility.yul\":5503:5509   */\n      0x00\n        /* \"#utility.yul\":5554:5556   */\n      0x1f\n        /* \"#utility.yul\":5550:5557   */\n      not\n        /* \"#utility.yul\":5545:5547   */\n      0x1f\n        /* \"#utility.yul\":5538:5543   */\n      dup4\n        /* \"#utility.yul\":5534:5548   */\n      add\n        /* \"#utility.yul\":5530:5558   */\n      and\n        /* \"#utility.yul\":5520:5558   */\n      swap1\n      pop\n        /* \"#utility.yul\":5462:5564   */\n      swap2\n      swap1\n      pop\n      jump\t// out\n        /* \"#utility.yul\":5570:5685   */\n    tag_153:\n        /* \"#utility.yul\":5653:5654   */\n      0x03\n        /* \"#utility.yul\":5646:5651   */\n      dup2\n        /* \"#utility.yul\":5643:5655   */\n      lt\n        /* \"#utility.yul\":5633:5679   */\n      tag_173\n      jumpi\n        /* \"#utility.yul\":5659:5677   */\n      tag_174\n      tag_72\n      jump\t// in\n    tag_174:\n        /* \"#utility.yul\":5633:5679   */\n    tag_173:\n        /* \"#utility.yul\":5570:5685   */\n      pop\n      jump\t// out\n\n    auxdata: 0xa26469706673582212204131ad40a987780f07f8db9af226ac861740ad97667a20c8e6ccab6f348a339764736f6c63430008070033\n}\n",
				"bytecode": {
					"linkReferences": {},
					"object": "60806040526003600160006101000a81548160ff021916908360ff1602179055507ffffffffffffffffffffffffffffffffffffffffffffffffffffffffffffffff6600360006101000a81548160ff021916908360000b60ff16021790555060416004556040518060400160405280600f81526020017f4573746f206573207075626c69636f000000000000000000000000000000000081525060069080519060200190620000b0929190620002ec565b506040518060400160405280600f81526020017f4573746f206573207072697661646f000000000000000000000000000000000081525060079080519060200190620000fe929190620002ec565b506001600860016101000a81548160ff0219169083151502179055506000600860026101000a81548160ff0219169083151502179055507f4400000000000000000000000000000000000000000000000000000000000000600a60006101000a81548163ffffffff021916908360e01c0217905550604051602001620001849062000483565b60405160208183030381529060405280519060200120600b556002604051602001620001b09062000483565b604051602081830303815290604052604051620001ce91906200046a565b602060405180830381855afa158015620001ec573d6000803e3d6000fd5b5050506040513d601f19601f82011682018060405250810190620002119190620003b3565b600c5533600d60006101000a81548173ffffffffffffffffffffffffffffffffffffffff021916908373ffffffffffffffffffffffffffffffffffffffff16021790555073cd6a42782d230d7c13a74ddec5dd140e55499df9600e60006101000a81548173ffffffffffffffffffffffffffffffffffffffff021916908373ffffffffffffffffffffffffffffffffffffffff1602179055506002600e60146101000a81548160ff02191690836002811115620002d357620002d26200053e565b5b0217905550348015620002e557600080fd5b506200060d565b828054620002fa9062000508565b90600052602060002090601f0160209004810192826200031e57600085556200036a565b82601f106200033957805160ff19168380011785556200036a565b828001600101855582156200036a579182015b82811115620003695782518255916020019190600101906200034c565b5b5090506200037991906200037d565b5090565b5b80821115620003985760008160009055506001016200037e565b5090565b600081519050620003ad81620005f3565b92915050565b600060208284031215620003cc57620003cb6200059c565b5b6000620003dc848285016200039c565b91505092915050565b6000620003f282620004a7565b620003fe8185620004b2565b935062000410818560208601620004d2565b80840191505092915050565b60006200042b600483620004bd565b91506200043882620005a1565b600482019050919050565b600062000452600483620004bd565b91506200045f82620005ca565b600482019050919050565b6000620004788284620003e5565b915081905092915050565b600062000490826200041c565b91506200049d8262000443565b9150819050919050565b600081519050919050565b600081905092915050565b600081905092915050565b6000819050919050565b60005b83811015620004f2578082015181840152602081019050620004d5565b8381111562000502576000848401525b50505050565b600060028204905060018216806200052157607f821691505b602082108114156200053857620005376200056d565b5b50919050565b7f4e487b7100000000000000000000000000000000000000000000000000000000600052602160045260246000fd5b7f4e487b7100000000000000000000000000000000000000000000000000000000600052602260045260246000fd5b600080fd5b7f486f6c6100000000000000000000000000000000000000000000000000000000600082015250565b7f4a6f616e00000000000000000000000000000000000000000000000000000000600082015250565b620005fe81620004c8565b81146200060a57600080fd5b50565b61081d806200061d6000396000f3fe608060405234801561001057600080fd5b50600436106100ea5760003560e01c8063b71d2cec1161008c578063c19d93fb11610066578063c19d93fb146101f3578063c7109d0414610211578063ea362b441461022f578063ebbb4bec1461024d576100ea565b8063b71d2cec146101ad578063b83d07b7146101cb578063ba33ed7d146101e9576100ea565b80634df7e3d0116100c85780634df7e3d0146101495780637272eea1146101675780638a054ac214610185578063af10c810146101a3576100ea565b80632b73648d146100ef578063312eef291461010d5780634dab6cbe1461012b575b600080fd5b6100f761026b565b6040516101049190610587565b60405180910390f35b610115610271565b604051610122919061056c565b60405180910390f35b610133610284565b6040516101409190610551565b60405180910390f35b6101516102aa565b60405161015e9190610615565b60405180910390f35b61016f6102bd565b60405161017c91906105bd565b60405180910390f35b61018d6102d4565b60405161019a91906105d8565b60405180910390f35b6101ab6102e7565b005b6101b5610314565b6040516101c29190610551565b60405180910390f35b6101d361033a565b6040516101e091906105f3565b60405180910390f35b6101f16103c8565b005b6101fb6103f5565b60405161020891906105bd565b60405180910390f35b610219610408565b6040516102269190610587565b60405180910390f35b61023761040e565b60405161024491906105a2565b60405180910390f35b610255610421565b60405161026291906105f3565b60405180910390f35b600b5481565b600860019054906101000a900460ff1681565b600e60009054906101000a900473ffffffffffffffffffffffffffffffffffffffff1681565b600160009054906101000a900460ff1681565b6000600e60149054906101000a900460ff16905090565b600360009054906101000a900460000b81565b6001600e60146101000a81548160ff0219169083600281111561030d5761030c610764565b5b0217905550565b600d60009054906101000a900473ffffffffffffffffffffffffffffffffffffffff1681565b6006805461034790610732565b80601f016020809104026020016040519081016040528092919081815260200182805461037390610732565b80156103c05780601f10610395576101008083540402835291602001916103c0565b820191906000526020600020905b8154815290600101906020018083116103a357829003601f168201915b505050505081565b6000600e60146101000a81548160ff021916908360028111156103ee576103ed610764565b5b0217905550565b600e60149054906101000a900460ff1681565b600c5481565b600a60009054906101000a900460e01b81565b6007805461042e90610732565b80601f016020809104026020016040519081016040528092919081815260200182805461045a90610732565b80156104a75780601f1061047c576101008083540402835291602001916104a7565b820191906000526020600020905b81548152906001019060200180831161048a57829003601f168201915b505050505081565b6104b88161064c565b82525050565b6104c78161065e565b82525050565b6104d68161066a565b82525050565b6104e581610674565b82525050565b6104f4816106ed565b82525050565b610503816106b3565b82525050565b600061051482610630565b61051e818561063b565b935061052e8185602086016106ff565b610537816107c2565b840191505092915050565b61054b816106e0565b82525050565b600060208201905061056660008301846104af565b92915050565b600060208201905061058160008301846104be565b92915050565b600060208201905061059c60008301846104cd565b92915050565b60006020820190506105b760008301846104dc565b92915050565b60006020820190506105d260008301846104eb565b92915050565b60006020820190506105ed60008301846104fa565b92915050565b6000602082019050818103600083015261060d8184610509565b905092915050565b600060208201905061062a6000830184610542565b92915050565b600081519050919050565b600082825260208201905092915050565b6000610657826106c0565b9050919050565b60008115159050919050565b6000819050919050565b60007fffffffff0000000000000000000000000000000000000000000000000000000082169050919050565b60008190506106ae826107d3565b919050565b60008160000b9050919050565b600073ffffffffffffffffffffffffffffffffffffffff82169050919050565b600060ff82169050919050565b60006106f8826106a0565b9050919050565b60005b8381101561071d578082015181840152602081019050610702565b8381111561072c576000848401525b50505050565b6000600282049050600182168061074a57607f821691505b6020821081141561075e5761075d610793565b5b50919050565b7f4e487b7100000000000000000000000000000000000000000000000000000000600052602160045260246000fd5b7f4e487b7100000000000000000000000000000000000000000000000000000000600052602260045260246000fd5b6000601f19601f8301169050919050565b600381106107e4576107e3610764565b5b5056fea26469706673582212204131ad40a987780f07f8db9af226ac861740ad97667a20c8e6ccab6f348a339764736f6c63430008070033",
					"opcodes": "PUSH1 0x80 PUSH1 0x40 MSTORE PUSH1 0x3 PUSH1 0x1 PUSH1 0x0 PUSH2 0x100 EXP DUP2 SLOAD DUP2 PUSH1 0xFF MUL NOT AND SWAP1 DUP4 PUSH1 0xFF AND MUL OR SWAP1 SSTORE POP PUSH32 0xFFFFFFFFFFFFFFFFFFFFFFFFFFFFFFFFFFFFFFFFFFFFFFFFFFFFFFFFFFFFFFF6 PUSH1 0x3 PUSH1 0x0 PUSH2 0x100 EXP DUP2 SLOAD DUP2 PUSH1 0xFF MUL NOT AND SWAP1 DUP4 PUSH1 0x0 SIGNEXTEND PUSH1 0xFF AND MUL OR SWAP1 SSTORE POP PUSH1 0x41 PUSH1 0x4 SSTORE PUSH1 0x40 MLOAD DUP1 PUSH1 0x40 ADD PUSH1 0x40 MSTORE DUP1 PUSH1 0xF DUP2 MSTORE PUSH1 0x20 ADD PUSH32 0x4573746F206573207075626C69636F0000000000000000000000000000000000 DUP2 MSTORE POP PUSH1 0x6 SWAP1 DUP1 MLOAD SWAP1 PUSH1 0x20 ADD SWAP1 PUSH3 0xB0 SWAP3 SWAP2 SWAP1 PUSH3 0x2EC JUMP JUMPDEST POP PUSH1 0x40 MLOAD DUP1 PUSH1 0x40 ADD PUSH1 0x40 MSTORE DUP1 PUSH1 0xF DUP2 MSTORE PUSH1 0x20 ADD PUSH32 0x4573746F206573207072697661646F0000000000000000000000000000000000 DUP2 MSTORE POP PUSH1 0x7 SWAP1 DUP1 MLOAD SWAP1 PUSH1 0x20 ADD SWAP1 PUSH3 0xFE SWAP3 SWAP2 SWAP1 PUSH3 0x2EC JUMP JUMPDEST POP PUSH1 0x1 PUSH1 0x8 PUSH1 0x1 PUSH2 0x100 EXP DUP2 SLOAD DUP2 PUSH1 0xFF MUL NOT AND SWAP1 DUP4 ISZERO ISZERO MUL OR SWAP1 SSTORE POP PUSH1 0x0 PUSH1 0x8 PUSH1 0x2 PUSH2 0x100 EXP DUP2 SLOAD DUP2 PUSH1 0xFF MUL NOT AND SWAP1 DUP4 ISZERO ISZERO MUL OR SWAP1 SSTORE POP PUSH32 0x4400000000000000000000000000000000000000000000000000000000000000 PUSH1 0xA PUSH1 0x0 PUSH2 0x100 EXP DUP2 SLOAD DUP2 PUSH4 0xFFFFFFFF MUL NOT AND SWAP1 DUP4 PUSH1 0xE0 SHR MUL OR SWAP1 SSTORE POP PUSH1 0x40 MLOAD PUSH1 0x20 ADD PUSH3 0x184 SWAP1 PUSH3 0x483 JUMP JUMPDEST PUSH1 0x40 MLOAD PUSH1 0x20 DUP2 DUP4 SUB SUB DUP2 MSTORE SWAP1 PUSH1 0x40 MSTORE DUP1 MLOAD SWAP1 PUSH1 0x20 ADD KECCAK256 PUSH1 0xB SSTORE PUSH1 0x2 PUSH1 0x40 MLOAD PUSH1 0x20 ADD PUSH3 0x1B0 SWAP1 PUSH3 0x483 JUMP JUMPDEST PUSH1 0x40 MLOAD PUSH1 0x20 DUP2 DUP4 SUB SUB DUP2 MSTORE SWAP1 PUSH1 0x40 MSTORE PUSH1 0x40 MLOAD PUSH3 0x1CE SWAP2 SWAP1 PUSH3 0x46A JUMP JUMPDEST PUSH1 0x20 PUSH1 0x40 MLOAD DUP1 DUP4 SUB DUP2 DUP6 GAS STATICCALL ISZERO DUP1 ISZERO PUSH3 0x1EC JUMPI RETURNDATASIZE PUSH1 0x0 DUP1 RETURNDATACOPY RETURNDATASIZE PUSH1 0x0 REVERT JUMPDEST POP POP POP PUSH1 0x40 MLOAD RETURNDATASIZE PUSH1 0x1F NOT PUSH1 0x1F DUP3 ADD AND DUP3 ADD DUP1 PUSH1 0x40 MSTORE POP DUP2 ADD SWAP1 PUSH3 0x211 SWAP2 SWAP1 PUSH3 0x3B3 JUMP JUMPDEST PUSH1 0xC SSTORE CALLER PUSH1 0xD PUSH1 0x0 PUSH2 0x100 EXP DUP2 SLOAD DUP2 PUSH20 0xFFFFFFFFFFFFFFFFFFFFFFFFFFFFFFFFFFFFFFFF MUL NOT AND SWAP1 DUP4 PUSH20 0xFFFFFFFFFFFFFFFFFFFFFFFFFFFFFFFFFFFFFFFF AND MUL OR SWAP1 SSTORE POP PUSH20 0xCD6A42782D230D7C13A74DDEC5DD140E55499DF9 PUSH1 0xE PUSH1 0x0 PUSH2 0x100 EXP DUP2 SLOAD DUP2 PUSH20 0xFFFFFFFFFFFFFFFFFFFFFFFFFFFFFFFFFFFFFFFF MUL NOT AND SWAP1 DUP4 PUSH20 0xFFFFFFFFFFFFFFFFFFFFFFFFFFFFFFFFFFFFFFFF AND MUL OR SWAP1 SSTORE POP PUSH1 0x2 PUSH1 0xE PUSH1 0x14 PUSH2 0x100 EXP DUP2 SLOAD DUP2 PUSH1 0xFF MUL NOT AND SWAP1 DUP4 PUSH1 0x2 DUP2 GT ISZERO PUSH3 0x2D3 JUMPI PUSH3 0x2D2 PUSH3 0x53E JUMP JUMPDEST JUMPDEST MUL OR SWAP1 SSTORE POP CALLVALUE DUP1 ISZERO PUSH3 0x2E5 JUMPI PUSH1 0x0 DUP1 REVERT JUMPDEST POP PUSH3 0x60D JUMP JUMPDEST DUP3 DUP1 SLOAD PUSH3 0x2FA SWAP1 PUSH3 0x508 JUMP JUMPDEST SWAP1 PUSH1 0x0 MSTORE PUSH1 0x20 PUSH1 0x0 KECCAK256 SWAP1 PUSH1 0x1F ADD PUSH1 0x20 SWAP1 DIV DUP2 ADD SWAP3 DUP3 PUSH3 0x31E JUMPI PUSH1 0x0 DUP6 SSTORE PUSH3 0x36A JUMP JUMPDEST DUP3 PUSH1 0x1F LT PUSH3 0x339 JUMPI DUP1 MLOAD PUSH1 0xFF NOT AND DUP4 DUP1 ADD OR DUP6 SSTORE PUSH3 0x36A JUMP JUMPDEST DUP3 DUP1 ADD PUSH1 0x1 ADD DUP6 SSTORE DUP3 ISZERO PUSH3 0x36A JUMPI SWAP2 DUP3 ADD JUMPDEST DUP3 DUP2 GT ISZERO PUSH3 0x369 JUMPI DUP3 MLOAD DUP3 SSTORE SWAP2 PUSH1 0x20 ADD SWAP2 SWAP1 PUSH1 0x1 ADD SWAP1 PUSH3 0x34C JUMP JUMPDEST JUMPDEST POP SWAP1 POP PUSH3 0x379 SWAP2 SWAP1 PUSH3 0x37D JUMP JUMPDEST POP SWAP1 JUMP JUMPDEST JUMPDEST DUP1 DUP3 GT ISZERO PUSH3 0x398 JUMPI PUSH1 0x0 DUP2 PUSH1 0x0 SWAP1 SSTORE POP PUSH1 0x1 ADD PUSH3 0x37E JUMP JUMPDEST POP SWAP1 JUMP JUMPDEST PUSH1 0x0 DUP2 MLOAD SWAP1 POP PUSH3 0x3AD DUP2 PUSH3 0x5F3 JUMP JUMPDEST SWAP3 SWAP2 POP POP JUMP JUMPDEST PUSH1 0x0 PUSH1 0x20 DUP3 DUP5 SUB SLT ISZERO PUSH3 0x3CC JUMPI PUSH3 0x3CB PUSH3 0x59C JUMP JUMPDEST JUMPDEST PUSH1 0x0 PUSH3 0x3DC DUP5 DUP3 DUP6 ADD PUSH3 0x39C JUMP JUMPDEST SWAP2 POP POP SWAP3 SWAP2 POP POP JUMP JUMPDEST PUSH1 0x0 PUSH3 0x3F2 DUP3 PUSH3 0x4A7 JUMP JUMPDEST PUSH3 0x3FE DUP2 DUP6 PUSH3 0x4B2 JUMP JUMPDEST SWAP4 POP PUSH3 0x410 DUP2 DUP6 PUSH1 0x20 DUP7 ADD PUSH3 0x4D2 JUMP JUMPDEST DUP1 DUP5 ADD SWAP2 POP POP SWAP3 SWAP2 POP POP JUMP JUMPDEST PUSH1 0x0 PUSH3 0x42B PUSH1 0x4 DUP4 PUSH3 0x4BD JUMP JUMPDEST SWAP2 POP PUSH3 0x438 DUP3 PUSH3 0x5A1 JUMP JUMPDEST PUSH1 0x4 DUP3 ADD SWAP1 POP SWAP2 SWAP1 POP JUMP JUMPDEST PUSH1 0x0 PUSH3 0x452 PUSH1 0x4 DUP4 PUSH3 0x4BD JUMP JUMPDEST SWAP2 POP PUSH3 0x45F DUP3 PUSH3 0x5CA JUMP JUMPDEST PUSH1 0x4 DUP3 ADD SWAP1 POP SWAP2 SWAP1 POP JUMP JUMPDEST PUSH1 0x0 PUSH3 0x478 DUP3 DUP5 PUSH3 0x3E5 JUMP JUMPDEST SWAP2 POP DUP2 SWAP1 POP SWAP3 SWAP2 POP POP JUMP JUMPDEST PUSH1 0x0 PUSH3 0x490 DUP3 PUSH3 0x41C JUMP JUMPDEST SWAP2 POP PUSH3 0x49D DUP3 PUSH3 0x443 JUMP JUMPDEST SWAP2 POP DUP2 SWAP1 POP SWAP2 SWAP1 POP JUMP JUMPDEST PUSH1 0x0 DUP2 MLOAD SWAP1 POP SWAP2 SWAP1 POP JUMP JUMPDEST PUSH1 0x0 DUP2 SWAP1 POP SWAP3 SWAP2 POP POP JUMP JUMPDEST PUSH1 0x0 DUP2 SWAP1 POP SWAP3 SWAP2 POP POP JUMP JUMPDEST PUSH1 0x0 DUP2 SWAP1 POP SWAP2 SWAP1 POP JUMP JUMPDEST PUSH1 0x0 JUMPDEST DUP4 DUP2 LT ISZERO PUSH3 0x4F2 JUMPI DUP1 DUP3 ADD MLOAD DUP2 DUP5 ADD MSTORE PUSH1 0x20 DUP2 ADD SWAP1 POP PUSH3 0x4D5 JUMP JUMPDEST DUP4 DUP2 GT ISZERO PUSH3 0x502 JUMPI PUSH1 0x0 DUP5 DUP5 ADD MSTORE JUMPDEST POP POP POP POP JUMP JUMPDEST PUSH1 0x0 PUSH1 0x2 DUP3 DIV SWAP1 POP PUSH1 0x1 DUP3 AND DUP1 PUSH3 0x521 JUMPI PUSH1 0x7F DUP3 AND SWAP2 POP JUMPDEST PUSH1 0x20 DUP3 LT DUP2 EQ ISZERO PUSH3 0x538 JUMPI PUSH3 0x537 PUSH3 0x56D JUMP JUMPDEST JUMPDEST POP SWAP2 SWAP1 POP JUMP JUMPDEST PUSH32 0x4E487B7100000000000000000000000000000000000000000000000000000000 PUSH1 0x0 MSTORE PUSH1 0x21 PUSH1 0x4 MSTORE PUSH1 0x24 PUSH1 0x0 REVERT JUMPDEST PUSH32 0x4E487B7100000000000000000000000000000000000000000000000000000000 PUSH1 0x0 MSTORE PUSH1 0x22 PUSH1 0x4 MSTORE PUSH1 0x24 PUSH1 0x0 REVERT JUMPDEST PUSH1 0x0 DUP1 REVERT JUMPDEST PUSH32 0x486F6C6100000000000000000000000000000000000000000000000000000000 PUSH1 0x0 DUP3 ADD MSTORE POP JUMP JUMPDEST PUSH32 0x4A6F616E00000000000000000000000000000000000000000000000000000000 PUSH1 0x0 DUP3 ADD MSTORE POP JUMP JUMPDEST PUSH3 0x5FE DUP2 PUSH3 0x4C8 JUMP JUMPDEST DUP2 EQ PUSH3 0x60A JUMPI PUSH1 0x0 DUP1 REVERT JUMPDEST POP JUMP JUMPDEST PUSH2 0x81D DUP1 PUSH3 0x61D PUSH1 0x0 CODECOPY PUSH1 0x0 RETURN INVALID PUSH1 0x80 PUSH1 0x40 MSTORE CALLVALUE DUP1 ISZERO PUSH2 0x10 JUMPI PUSH1 0x0 DUP1 REVERT JUMPDEST POP PUSH1 0x4 CALLDATASIZE LT PUSH2 0xEA JUMPI PUSH1 0x0 CALLDATALOAD PUSH1 0xE0 SHR DUP1 PUSH4 0xB71D2CEC GT PUSH2 0x8C JUMPI DUP1 PUSH4 0xC19D93FB GT PUSH2 0x66 JUMPI DUP1 PUSH4 0xC19D93FB EQ PUSH2 0x1F3 JUMPI DUP1 PUSH4 0xC7109D04 EQ PUSH2 0x211 JUMPI DUP1 PUSH4 0xEA362B44 EQ PUSH2 0x22F JUMPI DUP1 PUSH4 0xEBBB4BEC EQ PUSH2 0x24D JUMPI PUSH2 0xEA JUMP JUMPDEST DUP1 PUSH4 0xB71D2CEC EQ PUSH2 0x1AD JUMPI DUP1 PUSH4 0xB83D07B7 EQ PUSH2 0x1CB JUMPI DUP1 PUSH4 0xBA33ED7D EQ PUSH2 0x1E9 JUMPI PUSH2 0xEA JUMP JUMPDEST DUP1 PUSH4 0x4DF7E3D0 GT PUSH2 0xC8 JUMPI DUP1 PUSH4 0x4DF7E3D0 EQ PUSH2 0x149 JUMPI DUP1 PUSH4 0x7272EEA1 EQ PUSH2 0x167 JUMPI DUP1 PUSH4 0x8A054AC2 EQ PUSH2 0x185 JUMPI DUP1 PUSH4 0xAF10C810 EQ PUSH2 0x1A3 JUMPI PUSH2 0xEA JUMP JUMPDEST DUP1 PUSH4 0x2B73648D EQ PUSH2 0xEF JUMPI DUP1 PUSH4 0x312EEF29 EQ PUSH2 0x10D JUMPI DUP1 PUSH4 0x4DAB6CBE EQ PUSH2 0x12B JUMPI JUMPDEST PUSH1 0x0 DUP1 REVERT JUMPDEST PUSH2 0xF7 PUSH2 0x26B JUMP JUMPDEST PUSH1 0x40 MLOAD PUSH2 0x104 SWAP2 SWAP1 PUSH2 0x587 JUMP JUMPDEST PUSH1 0x40 MLOAD DUP1 SWAP2 SUB SWAP1 RETURN JUMPDEST PUSH2 0x115 PUSH2 0x271 JUMP JUMPDEST PUSH1 0x40 MLOAD PUSH2 0x122 SWAP2 SWAP1 PUSH2 0x56C JUMP JUMPDEST PUSH1 0x40 MLOAD DUP1 SWAP2 SUB SWAP1 RETURN JUMPDEST PUSH2 0x133 PUSH2 0x284 JUMP JUMPDEST PUSH1 0x40 MLOAD PUSH2 0x140 SWAP2 SWAP1 PUSH2 0x551 JUMP JUMPDEST PUSH1 0x40 MLOAD DUP1 SWAP2 SUB SWAP1 RETURN JUMPDEST PUSH2 0x151 PUSH2 0x2AA JUMP JUMPDEST PUSH1 0x40 MLOAD PUSH2 0x15E SWAP2 SWAP1 PUSH2 0x615 JUMP JUMPDEST PUSH1 0x40 MLOAD DUP1 SWAP2 SUB SWAP1 RETURN JUMPDEST PUSH2 0x16F PUSH2 0x2BD JUMP JUMPDEST PUSH1 0x40 MLOAD PUSH2 0x17C SWAP2 SWAP1 PUSH2 0x5BD JUMP JUMPDEST PUSH1 0x40 MLOAD DUP1 SWAP2 SUB SWAP1 RETURN JUMPDEST PUSH2 0x18D PUSH2 0x2D4 JUMP JUMPDEST PUSH1 0x40 MLOAD PUSH2 0x19A SWAP2 SWAP1 PUSH2 0x5D8 JUMP JUMPDEST PUSH1 0x40 MLOAD DUP1 SWAP2 SUB SWAP1 RETURN JUMPDEST PUSH2 0x1AB PUSH2 0x2E7 JUMP JUMPDEST STOP JUMPDEST PUSH2 0x1B5 PUSH2 0x314 JUMP JUMPDEST PUSH1 0x40 MLOAD PUSH2 0x1C2 SWAP2 SWAP1 PUSH2 0x551 JUMP JUMPDEST PUSH1 0x40 MLOAD DUP1 SWAP2 SUB SWAP1 RETURN JUMPDEST PUSH2 0x1D3 PUSH2 0x33A JUMP JUMPDEST PUSH1 0x40 MLOAD PUSH2 0x1E0 SWAP2 SWAP1 PUSH2 0x5F3 JUMP JUMPDEST PUSH1 0x40 MLOAD DUP1 SWAP2 SUB SWAP1 RETURN JUMPDEST PUSH2 0x1F1 PUSH2 0x3C8 JUMP JUMPDEST STOP JUMPDEST PUSH2 0x1FB PUSH2 0x3F5 JUMP JUMPDEST PUSH1 0x40 MLOAD PUSH2 0x208 SWAP2 SWAP1 PUSH2 0x5BD JUMP JUMPDEST PUSH1 0x40 MLOAD DUP1 SWAP2 SUB SWAP1 RETURN JUMPDEST PUSH2 0x219 PUSH2 0x408 JUMP JUMPDEST PUSH1 0x40 MLOAD PUSH2 0x226 SWAP2 SWAP1 PUSH2 0x587 JUMP JUMPDEST PUSH1 0x40 MLOAD DUP1 SWAP2 SUB SWAP1 RETURN JUMPDEST PUSH2 0x237 PUSH2 0x40E JUMP JUMPDEST PUSH1 0x40 MLOAD PUSH2 0x244 SWAP2 SWAP1 PUSH2 0x5A2 JUMP JUMPDEST PUSH1 0x40 MLOAD DUP1 SWAP2 SUB SWAP1 RETURN JUMPDEST PUSH2 0x255 PUSH2 0x421 JUMP JUMPDEST PUSH1 0x40 MLOAD PUSH2 0x262 SWAP2 SWAP1 PUSH2 0x5F3 JUMP JUMPDEST PUSH1 0x40 MLOAD DUP1 SWAP2 SUB SWAP1 RETURN JUMPDEST PUSH1 0xB SLOAD DUP2 JUMP JUMPDEST PUSH1 0x8 PUSH1 0x1 SWAP1 SLOAD SWAP1 PUSH2 0x100 EXP SWAP1 DIV PUSH1 0xFF AND DUP2 JUMP JUMPDEST PUSH1 0xE PUSH1 0x0 SWAP1 SLOAD SWAP1 PUSH2 0x100 EXP SWAP1 DIV PUSH20 0xFFFFFFFFFFFFFFFFFFFFFFFFFFFFFFFFFFFFFFFF AND DUP2 JUMP JUMPDEST PUSH1 0x1 PUSH1 0x0 SWAP1 SLOAD SWAP1 PUSH2 0x100 EXP SWAP1 DIV PUSH1 0xFF AND DUP2 JUMP JUMPDEST PUSH1 0x0 PUSH1 0xE PUSH1 0x14 SWAP1 SLOAD SWAP1 PUSH2 0x100 EXP SWAP1 DIV PUSH1 0xFF AND SWAP1 POP SWAP1 JUMP JUMPDEST PUSH1 0x3 PUSH1 0x0 SWAP1 SLOAD SWAP1 PUSH2 0x100 EXP SWAP1 DIV PUSH1 0x0 SIGNEXTEND DUP2 JUMP JUMPDEST PUSH1 0x1 PUSH1 0xE PUSH1 0x14 PUSH2 0x100 EXP DUP2 SLOAD DUP2 PUSH1 0xFF MUL NOT AND SWAP1 DUP4 PUSH1 0x2 DUP2 GT ISZERO PUSH2 0x30D JUMPI PUSH2 0x30C PUSH2 0x764 JUMP JUMPDEST JUMPDEST MUL OR SWAP1 SSTORE POP JUMP JUMPDEST PUSH1 0xD PUSH1 0x0 SWAP1 SLOAD SWAP1 PUSH2 0x100 EXP SWAP1 DIV PUSH20 0xFFFFFFFFFFFFFFFFFFFFFFFFFFFFFFFFFFFFFFFF AND DUP2 JUMP JUMPDEST PUSH1 0x6 DUP1 SLOAD PUSH2 0x347 SWAP1 PUSH2 0x732 JUMP JUMPDEST DUP1 PUSH1 0x1F ADD PUSH1 0x20 DUP1 SWAP2 DIV MUL PUSH1 0x20 ADD PUSH1 0x40 MLOAD SWAP1 DUP2 ADD PUSH1 0x40 MSTORE DUP1 SWAP3 SWAP2 SWAP1 DUP2 DUP2 MSTORE PUSH1 0x20 ADD DUP3 DUP1 SLOAD PUSH2 0x373 SWAP1 PUSH2 0x732 JUMP JUMPDEST DUP1 ISZERO PUSH2 0x3C0 JUMPI DUP1 PUSH1 0x1F LT PUSH2 0x395 JUMPI PUSH2 0x100 DUP1 DUP4 SLOAD DIV MUL DUP4 MSTORE SWAP2 PUSH1 0x20 ADD SWAP2 PUSH2 0x3C0 JUMP JUMPDEST DUP3 ADD SWAP2 SWAP1 PUSH1 0x0 MSTORE PUSH1 0x20 PUSH1 0x0 KECCAK256 SWAP1 JUMPDEST DUP2 SLOAD DUP2 MSTORE SWAP1 PUSH1 0x1 ADD SWAP1 PUSH1 0x20 ADD DUP1 DUP4 GT PUSH2 0x3A3 JUMPI DUP3 SWAP1 SUB PUSH1 0x1F AND DUP3 ADD SWAP2 JUMPDEST POP POP POP POP POP DUP2 JUMP JUMPDEST PUSH1 0x0 PUSH1 0xE PUSH1 0x14 PUSH2 0x100 EXP DUP2 SLOAD DUP2 PUSH1 0xFF MUL NOT AND SWAP1 DUP4 PUSH1 0x2 DUP2 GT ISZERO PUSH2 0x3EE JUMPI PUSH2 0x3ED PUSH2 0x764 JUMP JUMPDEST JUMPDEST MUL OR SWAP1 SSTORE POP JUMP JUMPDEST PUSH1 0xE PUSH1 0x14 SWAP1 SLOAD SWAP1 PUSH2 0x100 EXP SWAP1 DIV PUSH1 0xFF AND DUP2 JUMP JUMPDEST PUSH1 0xC SLOAD DUP2 JUMP JUMPDEST PUSH1 0xA PUSH1 0x0 SWAP1 SLOAD SWAP1 PUSH2 0x100 EXP SWAP1 DIV PUSH1 0xE0 SHL DUP2 JUMP JUMPDEST PUSH1 0x7 DUP1 SLOAD PUSH2 0x42E SWAP1 PUSH2 0x732 JUMP JUMPDEST DUP1 PUSH1 0x1F ADD PUSH1 0x20 DUP1 SWAP2 DIV MUL PUSH1 0x20 ADD PUSH1 0x40 MLOAD SWAP1 DUP2 ADD PUSH1 0x40 MSTORE DUP1 SWAP3 SWAP2 SWAP1 DUP2 DUP2 MSTORE PUSH1 0x20 ADD DUP3 DUP1 SLOAD PUSH2 0x45A SWAP1 PUSH2 0x732 JUMP JUMPDEST DUP1 ISZERO PUSH2 0x4A7 JUMPI DUP1 PUSH1 0x1F LT PUSH2 0x47C JUMPI PUSH2 0x100 DUP1 DUP4 SLOAD DIV MUL DUP4 MSTORE SWAP2 PUSH1 0x20 ADD SWAP2 PUSH2 0x4A7 JUMP JUMPDEST DUP3 ADD SWAP2 SWAP1 PUSH1 0x0 MSTORE PUSH1 0x20 PUSH1 0x0 KECCAK256 SWAP1 JUMPDEST DUP2 SLOAD DUP2 MSTORE SWAP1 PUSH1 0x1 ADD SWAP1 PUSH1 0x20 ADD DUP1 DUP4 GT PUSH2 0x48A JUMPI DUP3 SWAP1 SUB PUSH1 0x1F AND DUP3 ADD SWAP2 JUMPDEST POP POP POP POP POP DUP2 JUMP JUMPDEST PUSH2 0x4B8 DUP2 PUSH2 0x64C JUMP JUMPDEST DUP3 MSTORE POP POP JUMP JUMPDEST PUSH2 0x4C7 DUP2 PUSH2 0x65E JUMP JUMPDEST DUP3 MSTORE POP POP JUMP JUMPDEST PUSH2 0x4D6 DUP2 PUSH2 0x66A JUMP JUMPDEST DUP3 MSTORE POP POP JUMP JUMPDEST PUSH2 0x4E5 DUP2 PUSH2 0x674 JUMP JUMPDEST DUP3 MSTORE POP POP JUMP JUMPDEST PUSH2 0x4F4 DUP2 PUSH2 0x6ED JUMP JUMPDEST DUP3 MSTORE POP POP JUMP JUMPDEST PUSH2 0x503 DUP2 PUSH2 0x6B3 JUMP JUMPDEST DUP3 MSTORE POP POP JUMP JUMPDEST PUSH1 0x0 PUSH2 0x514 DUP3 PUSH2 0x630 JUMP JUMPDEST PUSH2 0x51E DUP2 DUP6 PUSH2 0x63B JUMP JUMPDEST SWAP4 POP PUSH2 0x52E DUP2 DUP6 PUSH1 0x20 DUP7 ADD PUSH2 0x6FF JUMP JUMPDEST PUSH2 0x537 DUP2 PUSH2 0x7C2 JUMP JUMPDEST DUP5 ADD SWAP2 POP POP SWAP3 SWAP2 POP POP JUMP JUMPDEST PUSH2 0x54B DUP2 PUSH2 0x6E0 JUMP JUMPDEST DUP3 MSTORE POP POP JUMP JUMPDEST PUSH1 0x0 PUSH1 0x20 DUP3 ADD SWAP1 POP PUSH2 0x566 PUSH1 0x0 DUP4 ADD DUP5 PUSH2 0x4AF JUMP JUMPDEST SWAP3 SWAP2 POP POP JUMP JUMPDEST PUSH1 0x0 PUSH1 0x20 DUP3 ADD SWAP1 POP PUSH2 0x581 PUSH1 0x0 DUP4 ADD DUP5 PUSH2 0x4BE JUMP JUMPDEST SWAP3 SWAP2 POP POP JUMP JUMPDEST PUSH1 0x0 PUSH1 0x20 DUP3 ADD SWAP1 POP PUSH2 0x59C PUSH1 0x0 DUP4 ADD DUP5 PUSH2 0x4CD JUMP JUMPDEST SWAP3 SWAP2 POP POP JUMP JUMPDEST PUSH1 0x0 PUSH1 0x20 DUP3 ADD SWAP1 POP PUSH2 0x5B7 PUSH1 0x0 DUP4 ADD DUP5 PUSH2 0x4DC JUMP JUMPDEST SWAP3 SWAP2 POP POP JUMP JUMPDEST PUSH1 0x0 PUSH1 0x20 DUP3 ADD SWAP1 POP PUSH2 0x5D2 PUSH1 0x0 DUP4 ADD DUP5 PUSH2 0x4EB JUMP JUMPDEST SWAP3 SWAP2 POP POP JUMP JUMPDEST PUSH1 0x0 PUSH1 0x20 DUP3 ADD SWAP1 POP PUSH2 0x5ED PUSH1 0x0 DUP4 ADD DUP5 PUSH2 0x4FA JUMP JUMPDEST SWAP3 SWAP2 POP POP JUMP JUMPDEST PUSH1 0x0 PUSH1 0x20 DUP3 ADD SWAP1 POP DUP2 DUP2 SUB PUSH1 0x0 DUP4 ADD MSTORE PUSH2 0x60D DUP2 DUP5 PUSH2 0x509 JUMP JUMPDEST SWAP1 POP SWAP3 SWAP2 POP POP JUMP JUMPDEST PUSH1 0x0 PUSH1 0x20 DUP3 ADD SWAP1 POP PUSH2 0x62A PUSH1 0x0 DUP4 ADD DUP5 PUSH2 0x542 JUMP JUMPDEST SWAP3 SWAP2 POP POP JUMP JUMPDEST PUSH1 0x0 DUP2 MLOAD SWAP1 POP SWAP2 SWAP1 POP JUMP JUMPDEST PUSH1 0x0 DUP3 DUP3 MSTORE PUSH1 0x20 DUP3 ADD SWAP1 POP SWAP3 SWAP2 POP POP JUMP JUMPDEST PUSH1 0x0 PUSH2 0x657 DUP3 PUSH2 0x6C0 JUMP JUMPDEST SWAP1 POP SWAP2 SWAP1 POP JUMP JUMPDEST PUSH1 0x0 DUP2 ISZERO ISZERO SWAP1 POP SWAP2 SWAP1 POP JUMP JUMPDEST PUSH1 0x0 DUP2 SWAP1 POP SWAP2 SWAP1 POP JUMP JUMPDEST PUSH1 0x0 PUSH32 0xFFFFFFFF00000000000000000000000000000000000000000000000000000000 DUP3 AND SWAP1 POP SWAP2 SWAP1 POP JUMP JUMPDEST PUSH1 0x0 DUP2 SWAP1 POP PUSH2 0x6AE DUP3 PUSH2 0x7D3 JUMP JUMPDEST SWAP2 SWAP1 POP JUMP JUMPDEST PUSH1 0x0 DUP2 PUSH1 0x0 SIGNEXTEND SWAP1 POP SWAP2 SWAP1 POP JUMP JUMPDEST PUSH1 0x0 PUSH20 0xFFFFFFFFFFFFFFFFFFFFFFFFFFFFFFFFFFFFFFFF DUP3 AND SWAP1 POP SWAP2 SWAP1 POP JUMP JUMPDEST PUSH1 0x0 PUSH1 0xFF DUP3 AND SWAP1 POP SWAP2 SWAP1 POP JUMP JUMPDEST PUSH1 0x0 PUSH2 0x6F8 DUP3 PUSH2 0x6A0 JUMP JUMPDEST SWAP1 POP SWAP2 SWAP1 POP JUMP JUMPDEST PUSH1 0x0 JUMPDEST DUP4 DUP2 LT ISZERO PUSH2 0x71D JUMPI DUP1 DUP3 ADD MLOAD DUP2 DUP5 ADD MSTORE PUSH1 0x20 DUP2 ADD SWAP1 POP PUSH2 0x702 JUMP JUMPDEST DUP4 DUP2 GT ISZERO PUSH2 0x72C JUMPI PUSH1 0x0 DUP5 DUP5 ADD MSTORE JUMPDEST POP POP POP POP JUMP JUMPDEST PUSH1 0x0 PUSH1 0x2 DUP3 DIV SWAP1 POP PUSH1 0x1 DUP3 AND DUP1 PUSH2 0x74A JUMPI PUSH1 0x7F DUP3 AND SWAP2 POP JUMPDEST PUSH1 0x20 DUP3 LT DUP2 EQ ISZERO PUSH2 0x75E JUMPI PUSH2 0x75D PUSH2 0x793 JUMP JUMPDEST JUMPDEST POP SWAP2 SWAP1 POP JUMP JUMPDEST PUSH32 0x4E487B7100000000000000000000000000000000000000000000000000000000 PUSH1 0x0 MSTORE PUSH1 0x21 PUSH1 0x4 MSTORE PUSH1 0x24 PUSH1 0x0 REVERT JUMPDEST PUSH32 0x4E487B7100000000000000000000000000000000000000000000000000000000 PUSH1 0x0 MSTORE PUSH1 0x22 PUSH1 0x4 MSTORE PUSH1 0x24 PUSH1 0x0 REVERT JUMPDEST PUSH1 0x0 PUSH1 0x1F NOT PUSH1 0x1F DUP4 ADD AND SWAP1 POP SWAP2 SWAP1 POP JUMP JUMPDEST PUSH1 0x3 DUP2 LT PUSH2 0x7E4 JUMPI PUSH2 0x7E3 PUSH2 0x764 JUMP JUMPDEST JUMPDEST POP JUMP INVALID LOG2 PUSH5 0x6970667358 0x22 SLT KECCAK256 COINBASE BALANCE 0xAD BLOCKHASH 0xA9 DUP8 PUSH25 0xF07F8DB9AF226AC861740AD97667A20C8E6CCAB6F348A3397 PUSH5 0x736F6C6343 STOP ADDMOD SMOD STOP CALLER "
				},
				"gasEstimates": {
					"creation": {
						"codeDepositCost": "415400",
						"executionCost": "infinite",
						"totalCost": "infinite"
					},
					"external": {
						"addres1()": "2582",
						"b()": "2494",
						"boolean_true()": "2567",
						"d()": "2542",
						"displayState()": "2663",
						"hashing_keccak256()": "2453",
						"hashing_sha256()": "2473",
						"my_address()": "2537",
						"second_byte()": "2537",
						"state()": "2632",
						"str_privado()": "infinite",
						"str_public()": "infinite",
						"turnOff()": "24570",
						"turnOn()": "24548"
					}
				},
				"methodIdentifiers": {
					"addres1()": "4dab6cbe",
					"b()": "4df7e3d0",
					"boolean_true()": "312eef29",
					"d()": "8a054ac2",
					"displayState()": "7272eea1",
					"hashing_keccak256()": "2b73648d",
					"hashing_sha256()": "c7109d04",
					"my_address()": "b71d2cec",
					"second_byte()": "ea362b44",
					"state()": "c19d93fb",
					"str_privado()": "ebbb4bec",
					"str_public()": "b83d07b7",
					"turnOff()": "af10c810",
					"turnOn()": "ba33ed7d"
				}
			},
			"storageLayout": {
				"storage": [
					{
						"astId": 3,
						"contract": "contracts/2_variables_modifiers.sol:variables_modifiers",
						"label": "a",
						"offset": 0,
						"slot": "0",
						"type": "t_uint256"
					},
					{
						"astId": 6,
						"contract": "contracts/2_variables_modifiers.sol:variables_modifiers",
						"label": "b",
						"offset": 0,
						"slot": "1",
						"type": "t_uint8"
					},
					{
						"astId": 8,
						"contract": "contracts/2_variables_modifiers.sol:variables_modifiers",
						"label": "c",
						"offset": 0,
						"slot": "2",
						"type": "t_int256"
					},
					{
						"astId": 12,
						"contract": "contracts/2_variables_modifiers.sol:variables_modifiers",
						"label": "d",
						"offset": 0,
						"slot": "3",
						"type": "t_int8"
					},
					{
						"astId": 15,
						"contract": "contracts/2_variables_modifiers.sol:variables_modifiers",
						"label": "e",
						"offset": 0,
						"slot": "4",
						"type": "t_int256"
					},
					{
						"astId": 17,
						"contract": "contracts/2_variables_modifiers.sol:variables_modifiers",
						"label": "str",
						"offset": 0,
						"slot": "5",
						"type": "t_string_storage"
					},
					{
						"astId": 20,
						"contract": "contracts/2_variables_modifiers.sol:variables_modifiers",
						"label": "str_public",
						"offset": 0,
						"slot": "6",
						"type": "t_string_storage"
					},
					{
						"astId": 23,
						"contract": "contracts/2_variables_modifiers.sol:variables_modifiers",
						"label": "str_privado",
						"offset": 0,
						"slot": "7",
						"type": "t_string_storage"
					},
					{
						"astId": 25,
						"contract": "contracts/2_variables_modifiers.sol:variables_modifiers",
						"label": "boolean",
						"offset": 0,
						"slot": "8",
						"type": "t_bool"
					},
					{
						"astId": 28,
						"contract": "contracts/2_variables_modifiers.sol:variables_modifiers",
						"label": "boolean_true",
						"offset": 1,
						"slot": "8",
						"type": "t_bool"
					},
					{
						"astId": 31,
						"contract": "contracts/2_variables_modifiers.sol:variables_modifiers",
						"label": "boolead_false",
						"offset": 2,
						"slot": "8",
						"type": "t_bool"
					},
					{
						"astId": 33,
						"contract": "contracts/2_variables_modifiers.sol:variables_modifiers",
						"label": "first_bytes",
						"offset": 0,
						"slot": "9",
						"type": "t_bytes32"
					},
					{
						"astId": 36,
						"contract": "contracts/2_variables_modifiers.sol:variables_modifiers",
						"label": "second_byte",
						"offset": 0,
						"slot": "10",
						"type": "t_bytes4"
					},
					{
						"astId": 45,
						"contract": "contracts/2_variables_modifiers.sol:variables_modifiers",
						"label": "hashing_keccak256",
						"offset": 0,
						"slot": "11",
						"type": "t_bytes32"
					},
					{
						"astId": 54,
						"contract": "contracts/2_variables_modifiers.sol:variables_modifiers",
						"label": "hashing_sha256",
						"offset": 0,
						"slot": "12",
						"type": "t_bytes32"
					},
					{
						"astId": 58,
						"contract": "contracts/2_variables_modifiers.sol:variables_modifiers",
						"label": "my_address",
						"offset": 0,
						"slot": "13",
						"type": "t_address"
					},
					{
						"astId": 61,
						"contract": "contracts/2_variables_modifiers.sol:variables_modifiers",
						"label": "addres1",
						"offset": 0,
						"slot": "14",
						"type": "t_address"
					},
					{
						"astId": 70,
						"contract": "contracts/2_variables_modifiers.sol:variables_modifiers",
						"label": "state",
						"offset": 20,
						"slot": "14",
						"type": "t_enum(options)65"
					}
				],
				"types": {
					"t_address": {
						"encoding": "inplace",
						"label": "address",
						"numberOfBytes": "20"
					},
					"t_bool": {
						"encoding": "inplace",
						"label": "bool",
						"numberOfBytes": "1"
					},
					"t_bytes32": {
						"encoding": "inplace",
						"label": "bytes32",
						"numberOfBytes": "32"
					},
					"t_bytes4": {
						"encoding": "inplace",
						"label": "bytes4",
						"numberOfBytes": "4"
					},
					"t_enum(options)65": {
						"encoding": "inplace",
						"label": "enum variables_modifiers.options",
						"numberOfBytes": "1"
					},
					"t_int256": {
						"encoding": "inplace",
						"label": "int256",
						"numberOfBytes": "32"
					},
					"t_int8": {
						"encoding": "inplace",
						"label": "int8",
						"numberOfBytes": "1"
					},
					"t_string_storage": {
						"encoding": "bytes",
						"label": "string",
						"numberOfBytes": "32"
					},
					"t_uint256": {
						"encoding": "inplace",
						"label": "uint256",
						"numberOfBytes": "32"
					},
					"t_uint8": {
						"encoding": "inplace",
						"label": "uint8",
						"numberOfBytes": "1"
					}
				}
			},
			"userdoc": {
				"kind": "user",
				"methods": {},
				"version": 1
			}
		}
	}
}